{
  "contractName": "HI_LO",
  "abi": [
    {
      "inputs": [],
      "stateMutability": "nonpayable",
      "type": "constructor"
    },
    {
      "inputs": [],
      "name": "GameOver",
      "type": "error"
    },
    {
      "inputs": [
        {
          "internalType": "address",
          "name": "adr",
          "type": "address"
        },
        {
          "internalType": "uint256",
          "name": "balance",
          "type": "uint256"
        }
      ],
      "name": "LowFunds",
      "type": "error"
    },
    {
      "inputs": [
        {
          "internalType": "address",
          "name": "adr",
          "type": "address"
        }
      ],
      "name": "NotAdmin",
      "type": "error"
    },
    {
      "inputs": [
        {
          "internalType": "address",
          "name": "adr",
          "type": "address"
        }
      ],
      "name": "Yourself",
      "type": "error"
    },
    {
      "anonymous": false,
      "inputs": [
        {
          "indexed": false,
          "internalType": "uint256",
          "name": "cs",
          "type": "uint256"
        },
        {
          "indexed": false,
          "internalType": "address",
          "name": "from",
          "type": "address"
        },
        {
          "indexed": false,
          "internalType": "uint256",
          "name": "time",
          "type": "uint256"
        }
      ],
      "name": "Log",
      "type": "event"
    },
    {
      "inputs": [
        {
          "internalType": "address",
          "name": "_erc20",
          "type": "address"
        }
      ],
      "name": "addToken",
      "outputs": [],
      "stateMutability": "nonpayable",
      "type": "function"
    },
    {
      "inputs": [],
      "name": "g",
      "outputs": [
        {
          "internalType": "uint256",
          "name": "",
          "type": "uint256"
        }
      ],
      "stateMutability": "view",
      "type": "function",
      "constant": true
    },
    {
      "inputs": [
        {
          "internalType": "uint256",
          "name": "",
          "type": "uint256"
        }
      ],
      "name": "games",
      "outputs": [
        {
          "internalType": "uint256",
          "name": "id",
          "type": "uint256"
        },
        {
          "internalType": "uint256",
          "name": "value",
          "type": "uint256"
        },
        {
          "internalType": "address",
          "name": "currency",
          "type": "address"
        },
        {
          "internalType": "address payable",
          "name": "owner",
          "type": "address"
        },
        {
          "internalType": "uint256",
          "name": "t0",
          "type": "uint256"
        },
        {
          "internalType": "bool",
          "name": "c0",
          "type": "bool"
        },
        {
          "internalType": "address payable",
          "name": "opponent",
          "type": "address"
        },
        {
          "internalType": "uint256",
          "name": "t1",
          "type": "uint256"
        },
        {
          "internalType": "bool",
          "name": "c1",
          "type": "bool"
        },
        {
          "internalType": "uint256",
          "name": "state",
          "type": "uint256"
        },
        {
          "internalType": "uint256",
          "name": "result",
          "type": "uint256"
        }
      ],
      "stateMutability": "view",
      "type": "function",
      "constant": true
    },
    {
      "inputs": [
        {
          "internalType": "address",
          "name": "",
          "type": "address"
        },
        {
          "internalType": "uint256",
          "name": "",
          "type": "uint256"
        }
      ],
      "name": "myGame",
      "outputs": [
        {
          "internalType": "uint256",
          "name": "id",
          "type": "uint256"
        },
        {
          "internalType": "uint256",
          "name": "value",
          "type": "uint256"
        },
        {
          "internalType": "address",
          "name": "currency",
          "type": "address"
        },
        {
          "internalType": "address payable",
          "name": "owner",
          "type": "address"
        },
        {
          "internalType": "uint256",
          "name": "t0",
          "type": "uint256"
        },
        {
          "internalType": "bool",
          "name": "c0",
          "type": "bool"
        },
        {
          "internalType": "address payable",
          "name": "opponent",
          "type": "address"
        },
        {
          "internalType": "uint256",
          "name": "t1",
          "type": "uint256"
        },
        {
          "internalType": "bool",
          "name": "c1",
          "type": "bool"
        },
        {
          "internalType": "uint256",
          "name": "state",
          "type": "uint256"
        },
        {
          "internalType": "uint256",
          "name": "result",
          "type": "uint256"
        }
      ],
      "stateMutability": "view",
      "type": "function",
      "constant": true
    },
    {
      "inputs": [
        {
          "internalType": "address",
          "name": "",
          "type": "address"
        }
      ],
      "name": "myGames",
      "outputs": [
        {
          "internalType": "uint256",
          "name": "",
          "type": "uint256"
        }
      ],
      "stateMutability": "view",
      "type": "function",
      "constant": true
    },
    {
      "inputs": [
        {
          "internalType": "uint256",
          "name": "",
          "type": "uint256"
        }
      ],
      "name": "played",
      "outputs": [
        {
          "internalType": "bool",
          "name": "",
          "type": "bool"
        }
      ],
      "stateMutability": "view",
      "type": "function",
      "constant": true
    },
    {
      "inputs": [
        {
          "internalType": "uint256",
          "name": "",
          "type": "uint256"
        }
      ],
      "name": "tokens",
      "outputs": [
        {
          "internalType": "contract ERC20",
          "name": "",
          "type": "address"
        }
      ],
      "stateMutability": "view",
      "type": "function",
      "constant": true
    },
    {
      "inputs": [],
      "name": "withdraw",
      "outputs": [],
      "stateMutability": "nonpayable",
      "type": "function"
    },
    {
      "inputs": [
        {
          "internalType": "bool",
          "name": "_choice",
          "type": "bool"
        }
      ],
      "name": "setGame",
      "outputs": [],
      "stateMutability": "payable",
      "type": "function",
      "payable": true
    },
    {
      "inputs": [
        {
          "internalType": "bool",
          "name": "_choice",
          "type": "bool"
        },
        {
          "internalType": "uint256",
          "name": "_amount",
          "type": "uint256"
        },
        {
          "internalType": "address",
          "name": "_token",
          "type": "address"
        }
      ],
      "name": "setGameToken",
      "outputs": [],
      "stateMutability": "nonpayable",
      "type": "function"
    },
    {
      "inputs": [
        {
          "internalType": "uint256",
          "name": "_game",
          "type": "uint256"
        }
      ],
      "name": "joinGame",
      "outputs": [],
      "stateMutability": "payable",
      "type": "function",
      "payable": true
    }
  ],
  "bytecode": "0x608060405234801562000010575f80fd5b50335f806101000a81548173ffffffffffffffffffffffffffffffffffffffff021916908373ffffffffffffffffffffffffffffffffffffffff1602179055506009426200005f9190620000cd565b60016200006d919062000131565b600581905550601960038190555066038d7ea4c6800060048190555060016006819055506200016b565b5f819050919050565b7f4e487b71000000000000000000000000000000000000000000000000000000005f52601260045260245ffd5b5f620000d98262000097565b9150620000e68362000097565b925082620000f957620000f8620000a0565b5b828206905092915050565b7f4e487b71000000000000000000000000000000000000000000000000000000005f52601160045260245ffd5b5f6200013d8262000097565b91506200014a8362000097565b925082820190508082111562000165576200016462000104565b5b92915050565b6137e780620001795f395ff3fe60806040526004361061009b575f3560e01c8063725c62cd11610063578063725c62cd1461018f578063733f7b47146101d5578063d48bfca7146101fd578063e2179b8e14610225578063eaf838261461024f578063efaa55a01461028b5761009b565b8063112b2b071461009f578063117a5b90146100bb5780633a245f3d146101015780633ccfd60b1461013d5780634f64b2be14610153575b5f80fd5b6100b960048036038101906100b49190613127565b6102a7565b005b3480156100c6575f80fd5b506100e160048036038101906100dc9190613185565b6109d5565b6040516100f89b9a9998979695949392919061322d565b60405180910390f35b34801561010c575f80fd5b5061012760048036038101906101229190613185565b610aa1565b60405161013491906132d6565b60405180910390f35b348015610148575f80fd5b50610151610abe565b005b34801561015e575f80fd5b5061017960048036038101906101749190613185565b610b76565b604051610186919061334a565b60405180910390f35b34801561019a575f80fd5b506101b560048036038101906101b0919061338d565b610bb1565b6040516101cc9b9a9998979695949392919061322d565b60405180910390f35b3480156101e0575f80fd5b506101fb60048036038101906101f691906133cb565b610c88565b005b348015610208575f80fd5b50610223600480360381019061021e919061341b565b611523565b005b348015610230575f80fd5b50610239611628565b6040516102469190613446565b60405180910390f35b34801561025a575f80fd5b506102756004803603810190610270919061341b565b61162e565b6040516102829190613446565b60405180910390f35b6102a560048036038101906102a09190613185565b611643565b005b60045434116102f157336004546040517f96f756fd0000000000000000000000000000000000000000000000000000000081526004016102e892919061345f565b60405180910390fd5b5f806102fd34846118e1565b9150915081156104a5575f60075f8381526020019081526020015f20604051806101600160405290815f820154815260200160018201548152602001600282015f9054906101000a900473ffffffffffffffffffffffffffffffffffffffff1673ffffffffffffffffffffffffffffffffffffffff1673ffffffffffffffffffffffffffffffffffffffff168152602001600382015f9054906101000a900473ffffffffffffffffffffffffffffffffffffffff1673ffffffffffffffffffffffffffffffffffffffff1673ffffffffffffffffffffffffffffffffffffffff16815260200160048201548152602001600582015f9054906101000a900460ff161515151581526020016005820160019054906101000a900473ffffffffffffffffffffffffffffffffffffffff1673ffffffffffffffffffffffffffffffffffffffff1673ffffffffffffffffffffffffffffffffffffffff16815260200160068201548152602001600782015f9054906101000a900460ff1615151515815260200160088201548152602001600982015481525050905061049f81611a6e565b506109d0565b60405180610160016040528060065481526020013481526020015f73ffffffffffffffffffffffffffffffffffffffff1681526020013373ffffffffffffffffffffffffffffffffffffffff16815260200142815260200184151581526020015f73ffffffffffffffffffffffffffffffffffffffff16815260200160085f3373ffffffffffffffffffffffffffffffffffffffff1673ffffffffffffffffffffffffffffffffffffffff1681526020019081526020015f20548152602001841515158152602001600181526020015f81525060075f60065481526020019081526020015f205f820151815f0155602082015181600101556040820151816002015f6101000a81548173ffffffffffffffffffffffffffffffffffffffff021916908373ffffffffffffffffffffffffffffffffffffffff1602179055506060820151816003015f6101000a81548173ffffffffffffffffffffffffffffffffffffffff021916908373ffffffffffffffffffffffffffffffffffffffff1602179055506080820151816004015560a0820151816005015f6101000a81548160ff02191690831515021790555060c08201518160050160016101000a81548173ffffffffffffffffffffffffffffffffffffffff021916908373ffffffffffffffffffffffffffffffffffffffff16021790555060e08201518160060155610100820151816007015f6101000a81548160ff0219169083151502179055506101208201518160080155610140820151816009015590505060075f60065481526020019081526020015f2060095f3373ffffffffffffffffffffffffffffffffffffffff1673ffffffffffffffffffffffffffffffffffffffff1681526020019081526020015f205f60085f3373ffffffffffffffffffffffffffffffffffffffff1673ffffffffffffffffffffffffffffffffffffffff1681526020019081526020015f205481526020019081526020015f205f820154815f015560018201548160010155600282015f9054906101000a900473ffffffffffffffffffffffffffffffffffffffff16816002015f6101000a81548173ffffffffffffffffffffffffffffffffffffffff021916908373ffffffffffffffffffffffffffffffffffffffff160217905550600382015f9054906101000a900473ffffffffffffffffffffffffffffffffffffffff16816003015f6101000a81548173ffffffffffffffffffffffffffffffffffffffff021916908373ffffffffffffffffffffffffffffffffffffffff16021790555060048201548160040155600582015f9054906101000a900460ff16816005015f6101000a81548160ff0219169083151502179055506005820160019054906101000a900473ffffffffffffffffffffffffffffffffffffffff168160050160016101000a81548173ffffffffffffffffffffffffffffffffffffffff021916908373ffffffffffffffffffffffffffffffffffffffff16021790555060068201548160060155600782015f9054906101000a900460ff16816007015f6101000a81548160ff021916908315150217905550600882015481600801556009820154816009015590505060085f3373ffffffffffffffffffffffffffffffffffffffff1673ffffffffffffffffffffffffffffffffffffffff1681526020019081526020015f205f815480929190610989906134b3565b91905055505f600a5f60065481526020019081526020015f205f6101000a81548160ff02191690831515021790555060065f8154809291906109ca906134b3565b91905055505b505050565b6007602052805f5260405f205f91509050805f015490806001015490806002015f9054906101000a900473ffffffffffffffffffffffffffffffffffffffff1690806003015f9054906101000a900473ffffffffffffffffffffffffffffffffffffffff1690806004015490806005015f9054906101000a900460ff16908060050160019054906101000a900473ffffffffffffffffffffffffffffffffffffffff1690806006015490806007015f9054906101000a900460ff1690806008015490806009015490508b565b600a602052805f5260405f205f915054906101000a900460ff1681565b5f8054906101000a900473ffffffffffffffffffffffffffffffffffffffff1673ffffffffffffffffffffffffffffffffffffffff163373ffffffffffffffffffffffffffffffffffffffff1603610b74575f8054906101000a900473ffffffffffffffffffffffffffffffffffffffff1673ffffffffffffffffffffffffffffffffffffffff166108fc4790811502906040515f60405180830381858888f19350505050158015610b72573d5f803e3d5ffd5b505b565b60018181548110610b85575f80fd5b905f5260205f20015f915054906101000a900473ffffffffffffffffffffffffffffffffffffffff1681565b6009602052815f5260405f20602052805f5260405f205f9150915050805f015490806001015490806002015f9054906101000a900473ffffffffffffffffffffffffffffffffffffffff1690806003015f9054906101000a900473ffffffffffffffffffffffffffffffffffffffff1690806004015490806005015f9054906101000a900460ff16908060050160019054906101000a900473ffffffffffffffffffffffffffffffffffffffff1690806006015490806007015f9054906101000a900460ff1690806008015490806009015490508b565b818173ffffffffffffffffffffffffffffffffffffffff166370a08231336040518263ffffffff1660e01b8152600401610cc291906134fa565b602060405180830381865afa158015610cdd573d5f803e3d5ffd5b505050506040513d601f19601f82011682018060405250810190610d019190613527565b11610d4757336004546040517f96f756fd000000000000000000000000000000000000000000000000000000008152600401610d3e92919061345f565b60405180910390fd5b5f80610dcb8373ffffffffffffffffffffffffffffffffffffffff166370a08231336040518263ffffffff1660e01b8152600401610d8591906134fa565b602060405180830381865afa158015610da0573d5f803e3d5ffd5b505050506040513d601f19601f82011682018060405250810190610dc49190613527565b868561246b565b915091508273ffffffffffffffffffffffffffffffffffffffff166323b872dd3330876040518463ffffffff1660e01b8152600401610e0c93929190613552565b6020604051808303815f875af1158015610e28573d5f803e3d5ffd5b505050506040513d601f19601f82011682018060405250810190610e4c919061359b565b508115610ff1575f60075f8381526020019081526020015f20604051806101600160405290815f820154815260200160018201548152602001600282015f9054906101000a900473ffffffffffffffffffffffffffffffffffffffff1673ffffffffffffffffffffffffffffffffffffffff1673ffffffffffffffffffffffffffffffffffffffff168152602001600382015f9054906101000a900473ffffffffffffffffffffffffffffffffffffffff1673ffffffffffffffffffffffffffffffffffffffff1673ffffffffffffffffffffffffffffffffffffffff16815260200160048201548152602001600582015f9054906101000a900460ff161515151581526020016005820160019054906101000a900473ffffffffffffffffffffffffffffffffffffffff1673ffffffffffffffffffffffffffffffffffffffff1673ffffffffffffffffffffffffffffffffffffffff16815260200160068201548152602001600782015f9054906101000a900460ff16151515158152602001600882015481526020016009820154815250509050610feb816125f9565b5061151c565b60405180610160016040528060065481526020018581526020018473ffffffffffffffffffffffffffffffffffffffff1681526020013373ffffffffffffffffffffffffffffffffffffffff16815260200142815260200186151581526020015f73ffffffffffffffffffffffffffffffffffffffff16815260200160085f3373ffffffffffffffffffffffffffffffffffffffff1673ffffffffffffffffffffffffffffffffffffffff1681526020019081526020015f20548152602001861515158152602001600181526020015f81525060075f60065481526020019081526020015f205f820151815f0155602082015181600101556040820151816002015f6101000a81548173ffffffffffffffffffffffffffffffffffffffff021916908373ffffffffffffffffffffffffffffffffffffffff1602179055506060820151816003015f6101000a81548173ffffffffffffffffffffffffffffffffffffffff021916908373ffffffffffffffffffffffffffffffffffffffff1602179055506080820151816004015560a0820151816005015f6101000a81548160ff02191690831515021790555060c08201518160050160016101000a81548173ffffffffffffffffffffffffffffffffffffffff021916908373ffffffffffffffffffffffffffffffffffffffff16021790555060e08201518160060155610100820151816007015f6101000a81548160ff0219169083151502179055506101208201518160080155610140820151816009015590505060075f60065481526020019081526020015f2060095f3373ffffffffffffffffffffffffffffffffffffffff1673ffffffffffffffffffffffffffffffffffffffff1681526020019081526020015f205f60085f3373ffffffffffffffffffffffffffffffffffffffff1673ffffffffffffffffffffffffffffffffffffffff1681526020019081526020015f205481526020019081526020015f205f820154815f015560018201548160010155600282015f9054906101000a900473ffffffffffffffffffffffffffffffffffffffff16816002015f6101000a81548173ffffffffffffffffffffffffffffffffffffffff021916908373ffffffffffffffffffffffffffffffffffffffff160217905550600382015f9054906101000a900473ffffffffffffffffffffffffffffffffffffffff16816003015f6101000a81548173ffffffffffffffffffffffffffffffffffffffff021916908373ffffffffffffffffffffffffffffffffffffffff16021790555060048201548160040155600582015f9054906101000a900460ff16816005015f6101000a81548160ff0219169083151502179055506005820160019054906101000a900473ffffffffffffffffffffffffffffffffffffffff168160050160016101000a81548173ffffffffffffffffffffffffffffffffffffffff021916908373ffffffffffffffffffffffffffffffffffffffff16021790555060068201548160060155600782015f9054906101000a900460ff16816007015f6101000a81548160ff021916908315150217905550600882015481600801556009820154816009015590505060085f3373ffffffffffffffffffffffffffffffffffffffff1673ffffffffffffffffffffffffffffffffffffffff1681526020019081526020015f205f8154809291906114d5906134b3565b91905055505f600a5f60065481526020019081526020015f205f6101000a81548160ff02191690831515021790555060065f815480929190611516906134b3565b91905055505b5050505050565b3373ffffffffffffffffffffffffffffffffffffffff165f8054906101000a900473ffffffffffffffffffffffffffffffffffffffff1673ffffffffffffffffffffffffffffffffffffffff16146115b257336040517f17a842420000000000000000000000000000000000000000000000000000000081526004016115a991906134fa565b60405180910390fd5b806001600254815481106115c9576115c86135c6565b5b905f5260205f20015f6101000a81548173ffffffffffffffffffffffffffffffffffffffff021916908373ffffffffffffffffffffffffffffffffffffffff16021790555060025f815480929190611620906134b3565b919050555050565b60065481565b6008602052805f5260405f205f915090505481565b5f60075f8381526020019081526020015f20604051806101600160405290815f820154815260200160018201548152602001600282015f9054906101000a900473ffffffffffffffffffffffffffffffffffffffff1673ffffffffffffffffffffffffffffffffffffffff1673ffffffffffffffffffffffffffffffffffffffff168152602001600382015f9054906101000a900473ffffffffffffffffffffffffffffffffffffffff1673ffffffffffffffffffffffffffffffffffffffff1673ffffffffffffffffffffffffffffffffffffffff16815260200160048201548152602001600582015f9054906101000a900460ff161515151581526020016005820160019054906101000a900473ffffffffffffffffffffffffffffffffffffffff1673ffffffffffffffffffffffffffffffffffffffff1673ffffffffffffffffffffffffffffffffffffffff16815260200160068201548152602001600782015f9054906101000a900460ff161515151581526020016008820154815260200160098201548152505090508060200151341015611821573381602001516040517f96f756fd00000000000000000000000000000000000000000000000000000000815260040161181892919061345f565b60405180910390fd5b600181610120015114611860576040517fdf469ccb00000000000000000000000000000000000000000000000000000000815260040160405180910390fd5b806060015173ffffffffffffffffffffffffffffffffffffffff163373ffffffffffffffffffffffffffffffffffffffff16036118d457336040517f633df7250000000000000000000000000000000000000000000000000000000081526004016118cb91906134fa565b60405180910390fd5b6118dd81611a6e565b5050565b5f805f5b600654811015611a66575f73ffffffffffffffffffffffffffffffffffffffff1660075f8381526020019081526020015f206002015f9054906101000a900473ffffffffffffffffffffffffffffffffffffffff1673ffffffffffffffffffffffffffffffffffffffff1614801561197057508460075f8381526020019081526020015f2060010154145b80156119db57503373ffffffffffffffffffffffffffffffffffffffff1660075f8381526020019081526020015f206003015f9054906101000a900473ffffffffffffffffffffffffffffffffffffffff1673ffffffffffffffffffffffffffffffffffffffff1614155b8015611a0b575083151560075f8381526020019081526020015f206005015f9054906101000a900460ff16151514155b8015611a2b5750600160075f8381526020019081526020015f2060080154145b15611a4c576001925080915060065481611a4591906135f3565b9050611a53565b5f92505f91505b8080611a5e906134b3565b9150506118e5565b509250929050565b6001816101200151141580611a885750600654815f015110155b15611abf576040517fdf469ccb00000000000000000000000000000000000000000000000000000000815260040160405180910390fd5b338160c0019073ffffffffffffffffffffffffffffffffffffffff16908173ffffffffffffffffffffffffffffffffffffffff16815250505f8160e0015190508160a001511582610100019015159081151581525050428260e00181815250506002826101200181815250508160075f845f015181526020019081526020015f205f820151815f0155602082015181600101556040820151816002015f6101000a81548173ffffffffffffffffffffffffffffffffffffffff021916908373ffffffffffffffffffffffffffffffffffffffff1602179055506060820151816003015f6101000a81548173ffffffffffffffffffffffffffffffffffffffff021916908373ffffffffffffffffffffffffffffffffffffffff1602179055506080820151816004015560a0820151816005015f6101000a81548160ff02191690831515021790555060c08201518160050160016101000a81548173ffffffffffffffffffffffffffffffffffffffff021916908373ffffffffffffffffffffffffffffffffffffffff16021790555060e08201518160060155610100820151816007015f6101000a81548160ff021916908315150217905550610120820151816008015561014082015181600901559050508160095f846060015173ffffffffffffffffffffffffffffffffffffffff1673ffffffffffffffffffffffffffffffffffffffff1681526020019081526020015f205f8381526020019081526020015f205f820151815f0155602082015181600101556040820151816002015f6101000a81548173ffffffffffffffffffffffffffffffffffffffff021916908373ffffffffffffffffffffffffffffffffffffffff1602179055506060820151816003015f6101000a81548173ffffffffffffffffffffffffffffffffffffffff021916908373ffffffffffffffffffffffffffffffffffffffff1602179055506080820151816004015560a0820151816005015f6101000a81548160ff02191690831515021790555060c08201518160050160016101000a81548173ffffffffffffffffffffffffffffffffffffffff021916908373ffffffffffffffffffffffffffffffffffffffff16021790555060e08201518160060155610100820151816007015f6101000a81548160ff021916908315150217905550610120820151816008015561014082015181600901559050508160095f3373ffffffffffffffffffffffffffffffffffffffff1673ffffffffffffffffffffffffffffffffffffffff1681526020019081526020015f205f60085f3373ffffffffffffffffffffffffffffffffffffffff1673ffffffffffffffffffffffffffffffffffffffff1681526020019081526020015f205481526020019081526020015f205f820151815f0155602082015181600101556040820151816002015f6101000a81548173ffffffffffffffffffffffffffffffffffffffff021916908373ffffffffffffffffffffffffffffffffffffffff1602179055506060820151816003015f6101000a81548173ffffffffffffffffffffffffffffffffffffffff021916908373ffffffffffffffffffffffffffffffffffffffff1602179055506080820151816004015560a0820151816005015f6101000a81548160ff02191690831515021790555060c08201518160050160016101000a81548173ffffffffffffffffffffffffffffffffffffffff021916908373ffffffffffffffffffffffffffffffffffffffff16021790555060e08201518160060155610100820151816007015f6101000a81548160ff0219169083151502179055506101208201518160080155610140820151816009015590505060085f3373ffffffffffffffffffffffffffffffffffffffff1673ffffffffffffffffffffffffffffffffffffffff1681526020019081526020015f205f81548092919061205b906134b3565b91905055505f60096005548460e0015161207591906135f3565b61207f9190613653565b90505f600982856080015161209491906135f3565b61209e9190613653565b90505f600982846005546120b291906135f3565b6120bc91906135f3565b426120c79190613683565b83856005546120d691906136b6565b6120e091906136b6565b6120ea91906135f3565b6120f49190613653565b90507f7612d5f812e5c2765b39f04d21c4a29667b2e2b278ad3777e490190de6c99a35813342604051612129939291906136f7565b60405180910390a180856101400181815250505f6003546103e861214d9190613683565b6103e86002886020015161216191906136b6565b61216b919061372c565b61217591906136b6565b90506003866101200181815250508560075f885f015181526020019081526020015f205f820151815f0155602082015181600101556040820151816002015f6101000a81548173ffffffffffffffffffffffffffffffffffffffff021916908373ffffffffffffffffffffffffffffffffffffffff1602179055506060820151816003015f6101000a81548173ffffffffffffffffffffffffffffffffffffffff021916908373ffffffffffffffffffffffffffffffffffffffff1602179055506080820151816004015560a0820151816005015f6101000a81548160ff02191690831515021790555060c08201518160050160016101000a81548173ffffffffffffffffffffffffffffffffffffffff021916908373ffffffffffffffffffffffffffffffffffffffff16021790555060e08201518160060155610100820151816007015f6101000a81548160ff021916908315150217905550610120820151816008015561014082015181600901559050506001600a5f885f015181526020019081526020015f205f6101000a81548160ff0219169083151502179055508560a00151156123c357600582101561237557856060015173ffffffffffffffffffffffffffffffffffffffff166108fc8290811502906040515f60405180830381858888f1935050505015801561236f573d5f803e3d5ffd5b506123be565b8560c0015173ffffffffffffffffffffffffffffffffffffffff166108fc8290811502906040515f60405180830381858888f193505050501580156123bc573d5f803e3d5ffd5b505b612463565b6005821015612419578560c0015173ffffffffffffffffffffffffffffffffffffffff166108fc8290811502906040515f60405180830381858888f19350505050158015612413573d5f803e3d5ffd5b50612462565b856060015173ffffffffffffffffffffffffffffffffffffffff166108fc8290811502906040515f60405180830381858888f19350505050158015612460573d5f803e3d5ffd5b505b5b505050505050565b5f805f5b6006548110156125f0578373ffffffffffffffffffffffffffffffffffffffff1660075f8381526020019081526020015f206002015f9054906101000a900473ffffffffffffffffffffffffffffffffffffffff1673ffffffffffffffffffffffffffffffffffffffff161480156124fa57508560075f8381526020019081526020015f2060010154145b801561256557503373ffffffffffffffffffffffffffffffffffffffff1660075f8381526020019081526020015f206003015f9054906101000a900473ffffffffffffffffffffffffffffffffffffffff1673ffffffffffffffffffffffffffffffffffffffff1614155b8015612595575084151560075f8381526020019081526020015f206005015f9054906101000a900460ff16151514155b80156125b55750600160075f8381526020019081526020015f2060080154145b156125d65760019250809150600654816125cf91906135f3565b90506125dd565b5f92505f91505b80806125e8906134b3565b91505061246f565b50935093915050565b60018161012001511415806126135750600654815f015110155b1561264a576040517fdf469ccb00000000000000000000000000000000000000000000000000000000815260040160405180910390fd5b338160c0019073ffffffffffffffffffffffffffffffffffffffff16908173ffffffffffffffffffffffffffffffffffffffff16815250505f8160e0015190508160a001511582610100019015159081151581525050428260e00181815250506002826101200181815250508160075f845f015181526020019081526020015f205f820151815f0155602082015181600101556040820151816002015f6101000a81548173ffffffffffffffffffffffffffffffffffffffff021916908373ffffffffffffffffffffffffffffffffffffffff1602179055506060820151816003015f6101000a81548173ffffffffffffffffffffffffffffffffffffffff021916908373ffffffffffffffffffffffffffffffffffffffff1602179055506080820151816004015560a0820151816005015f6101000a81548160ff02191690831515021790555060c08201518160050160016101000a81548173ffffffffffffffffffffffffffffffffffffffff021916908373ffffffffffffffffffffffffffffffffffffffff16021790555060e08201518160060155610100820151816007015f6101000a81548160ff021916908315150217905550610120820151816008015561014082015181600901559050508160095f846060015173ffffffffffffffffffffffffffffffffffffffff1673ffffffffffffffffffffffffffffffffffffffff1681526020019081526020015f205f8381526020019081526020015f205f820151815f0155602082015181600101556040820151816002015f6101000a81548173ffffffffffffffffffffffffffffffffffffffff021916908373ffffffffffffffffffffffffffffffffffffffff1602179055506060820151816003015f6101000a81548173ffffffffffffffffffffffffffffffffffffffff021916908373ffffffffffffffffffffffffffffffffffffffff1602179055506080820151816004015560a0820151816005015f6101000a81548160ff02191690831515021790555060c08201518160050160016101000a81548173ffffffffffffffffffffffffffffffffffffffff021916908373ffffffffffffffffffffffffffffffffffffffff16021790555060e08201518160060155610100820151816007015f6101000a81548160ff021916908315150217905550610120820151816008015561014082015181600901559050508160095f3373ffffffffffffffffffffffffffffffffffffffff1673ffffffffffffffffffffffffffffffffffffffff1681526020019081526020015f205f60085f3373ffffffffffffffffffffffffffffffffffffffff1673ffffffffffffffffffffffffffffffffffffffff1681526020019081526020015f205481526020019081526020015f205f820151815f0155602082015181600101556040820151816002015f6101000a81548173ffffffffffffffffffffffffffffffffffffffff021916908373ffffffffffffffffffffffffffffffffffffffff1602179055506060820151816003015f6101000a81548173ffffffffffffffffffffffffffffffffffffffff021916908373ffffffffffffffffffffffffffffffffffffffff1602179055506080820151816004015560a0820151816005015f6101000a81548160ff02191690831515021790555060c08201518160050160016101000a81548173ffffffffffffffffffffffffffffffffffffffff021916908373ffffffffffffffffffffffffffffffffffffffff16021790555060e08201518160060155610100820151816007015f6101000a81548160ff0219169083151502179055506101208201518160080155610140820151816009015590505060085f3373ffffffffffffffffffffffffffffffffffffffff1673ffffffffffffffffffffffffffffffffffffffff1681526020019081526020015f205f815480929190612be6906134b3565b91905055505f60096005548460e00151612c0091906135f3565b612c0a9190613653565b90505f6009828560800151612c1f91906135f3565b612c299190613653565b90505f60098284600554612c3d91906135f3565b612c4791906135f3565b42612c529190613683565b8385600554612c6191906136b6565b612c6b91906136b6565b612c7591906135f3565b612c7f9190613653565b90507f7612d5f812e5c2765b39f04d21c4a29667b2e2b278ad3777e490190de6c99a35813342604051612cb4939291906136f7565b60405180910390a180856101400181815250505f6003546103e8612cd89190613683565b6103e860028860200151612cec91906136b6565b612cf6919061372c565b612d0091906136b6565b90506003866101200181815250508560075f885f015181526020019081526020015f205f820151815f0155602082015181600101556040820151816002015f6101000a81548173ffffffffffffffffffffffffffffffffffffffff021916908373ffffffffffffffffffffffffffffffffffffffff1602179055506060820151816003015f6101000a81548173ffffffffffffffffffffffffffffffffffffffff021916908373ffffffffffffffffffffffffffffffffffffffff1602179055506080820151816004015560a0820151816005015f6101000a81548160ff02191690831515021790555060c08201518160050160016101000a81548173ffffffffffffffffffffffffffffffffffffffff021916908373ffffffffffffffffffffffffffffffffffffffff16021790555060e08201518160060155610100820151816007015f6101000a81548160ff021916908315150217905550610120820151816008015561014082015181600901559050506001600a5f885f015181526020019081526020015f205f6101000a81548160ff0219169083151502179055508560a0015115612fca576005821015612f3e57856040015173ffffffffffffffffffffffffffffffffffffffff166323b872dd308860c00151846040518463ffffffff1660e01b8152600401612ef89392919061377c565b6020604051808303815f875af1158015612f14573d5f803e3d5ffd5b505050506040513d601f19601f82011682018060405250810190612f38919061359b565b50612fc5565b856040015173ffffffffffffffffffffffffffffffffffffffff166323b872dd308860600151846040518463ffffffff1660e01b8152600401612f839392919061377c565b6020604051808303815f875af1158015612f9f573d5f803e3d5ffd5b505050506040513d601f19601f82011682018060405250810190612fc3919061359b565b505b6130e6565b600582101561305e57856040015173ffffffffffffffffffffffffffffffffffffffff166323b872dd308860600151846040518463ffffffff1660e01b81526004016130189392919061377c565b6020604051808303815f875af1158015613034573d5f803e3d5ffd5b505050506040513d601f19601f82011682018060405250810190613058919061359b565b506130e5565b856040015173ffffffffffffffffffffffffffffffffffffffff166323b872dd308860c00151846040518463ffffffff1660e01b81526004016130a39392919061377c565b6020604051808303815f875af11580156130bf573d5f803e3d5ffd5b505050506040513d601f19601f820116820180604052508101906130e3919061359b565b505b5b505050505050565b5f80fd5b5f8115159050919050565b613106816130f2565b8114613110575f80fd5b50565b5f81359050613121816130fd565b92915050565b5f6020828403121561313c5761313b6130ee565b5b5f61314984828501613113565b91505092915050565b5f819050919050565b61316481613152565b811461316e575f80fd5b50565b5f8135905061317f8161315b565b92915050565b5f6020828403121561319a576131996130ee565b5b5f6131a784828501613171565b91505092915050565b6131b981613152565b82525050565b5f73ffffffffffffffffffffffffffffffffffffffff82169050919050565b5f6131e8826131bf565b9050919050565b6131f8816131de565b82525050565b5f613208826131bf565b9050919050565b613218816131fe565b82525050565b613227816130f2565b82525050565b5f610160820190506132415f83018e6131b0565b61324e602083018d6131b0565b61325b604083018c6131ef565b613268606083018b61320f565b613275608083018a6131b0565b61328260a083018961321e565b61328f60c083018861320f565b61329c60e08301876131b0565b6132aa61010083018661321e565b6132b86101208301856131b0565b6132c66101408301846131b0565b9c9b505050505050505050505050565b5f6020820190506132e95f83018461321e565b92915050565b5f819050919050565b5f61331261330d613308846131bf565b6132ef565b6131bf565b9050919050565b5f613323826132f8565b9050919050565b5f61333482613319565b9050919050565b6133448161332a565b82525050565b5f60208201905061335d5f83018461333b565b92915050565b61336c816131de565b8114613376575f80fd5b50565b5f8135905061338781613363565b92915050565b5f80604083850312156133a3576133a26130ee565b5b5f6133b085828601613379565b92505060206133c185828601613171565b9150509250929050565b5f805f606084860312156133e2576133e16130ee565b5b5f6133ef86828701613113565b935050602061340086828701613171565b925050604061341186828701613379565b9150509250925092565b5f602082840312156134305761342f6130ee565b5b5f61343d84828501613379565b91505092915050565b5f6020820190506134595f8301846131b0565b92915050565b5f6040820190506134725f8301856131ef565b61347f60208301846131b0565b9392505050565b7f4e487b71000000000000000000000000000000000000000000000000000000005f52601160045260245ffd5b5f6134bd82613152565b91507fffffffffffffffffffffffffffffffffffffffffffffffffffffffffffffffff82036134ef576134ee613486565b5b600182019050919050565b5f60208201905061350d5f8301846131ef565b92915050565b5f815190506135218161315b565b92915050565b5f6020828403121561353c5761353b6130ee565b5b5f61354984828501613513565b91505092915050565b5f6060820190506135655f8301866131ef565b61357260208301856131ef565b61357f60408301846131b0565b949350505050565b5f81519050613595816130fd565b92915050565b5f602082840312156135b0576135af6130ee565b5b5f6135bd84828501613587565b91505092915050565b7f4e487b71000000000000000000000000000000000000000000000000000000005f52603260045260245ffd5b5f6135fd82613152565b915061360883613152565b92508282019050808211156136205761361f613486565b5b92915050565b7f4e487b71000000000000000000000000000000000000000000000000000000005f52601260045260245ffd5b5f61365d82613152565b915061366883613152565b92508261367857613677613626565b5b828206905092915050565b5f61368d82613152565b915061369883613152565b92508282039050818111156136b0576136af613486565b5b92915050565b5f6136c082613152565b91506136cb83613152565b92508282026136d981613152565b915082820484148315176136f0576136ef613486565b5b5092915050565b5f60608201905061370a5f8301866131b0565b61371760208301856131ef565b61372460408301846131b0565b949350505050565b5f61373682613152565b915061374183613152565b92508261375157613750613626565b5b828204905092915050565b5f61376682613319565b9050919050565b6137768161375c565b82525050565b5f60608201905061378f5f8301866131ef565b61379c602083018561376d565b6137a960408301846131b0565b94935050505056fea26469706673582212206ae0e2dac1865c74dfba860eab05ec0b7d4040099d701aa294866b7158e0060f64736f6c63430008170033",
  "immutableReferences": {},
  "source": "// SPDX-License-Identifier: MIT\n\npragma solidity >=0.8.2 <0.9.0;\n\n\nimport \"@openzeppelin/contracts/token/ERC20/ERC20.sol\";\n\nerror LowFunds(address adr, uint256 balance);\nerror NotAdmin(address adr);\nerror GameOver();\nerror Yourself(address adr);\nerror Check(uint256 num);\n\ncontract standards {\n    address private admin;\n    ERC20[] public tokens;\n    uint toks;\n    constructor() {\n        admin = msg.sender;\n    }\n\n    function addToken(address _erc20) external {\n        if(admin != msg.sender) revert NotAdmin(msg.sender);\n        tokens[toks] = ERC20(_erc20);\n        toks++;\n    }\n\n    function withdraw() external {\n        if (msg.sender == admin) {\n            payable(admin).transfer(address(this).balance);\n        }\n    }\n}\n\ncontract HI_LO is standards {\n    event Log(uint256 cs, address from, uint256 time);\n\n    uint256 fee;\n    uint256 min;\n    uint256 t;\n    uint256 public g;\n\n    struct Game {\n        uint256 id;\n        uint256 value;\n        address currency;\n        address payable owner;\n        uint256 t0;\n        bool c0; // 1 lo // 2 hi\n        address payable opponent;\n        uint256 t1;\n        bool c1; // 1 lo // 2 hi\n        uint256 state; // 0 invalid // 1 created // 2 played // 3 finished\n        uint256 result;\n    }\n\n    mapping(uint256 => Game) public games;\n    mapping(address => uint256) public myGames;\n    mapping(address => mapping(uint256 => Game)) public myGame;\n    mapping(uint256 => bool) public played;\n\n    constructor() {\n        t = 1 + (block.timestamp % 9);\n        fee = 25;\n        min = 1 * 10**15;\n        g = 1;\n    }\n\n    function setGame(bool _choice) external payable {\n        if (msg.value <= min) revert LowFunds(msg.sender, min);\n        (bool found, uint256 id) = _scanGames(msg.value, _choice);\n        if (found) {\n            // aggregated\n            Game memory game = games[id];\n            _play(game);\n        } else {\n            games[g] = Game(\n                g,\n                msg.value,\n                address(0),\n                payable(msg.sender),\n                block.timestamp,\n                _choice,\n                payable(address(0)),\n                myGames[msg.sender],\n                !_choice,\n                1,\n                0\n            );\n            myGame[msg.sender][myGames[msg.sender]] = games[g];\n            myGames[msg.sender]++;\n            played[g] = false;\n            g++;\n        }\n    }\n\n    function setGameToken(bool _choice, uint _amount, address _token) external {\n        if (ERC20(_token).balanceOf(msg.sender) <= _amount) revert LowFunds(msg.sender, min);\n        (bool found, uint256 id) = _scanGamesToken(ERC20(_token).balanceOf(msg.sender), _choice, _token);\n        ERC20(_token).transferFrom(msg.sender, address(this), _amount);\n        if (found) {\n            // aggregated\n            Game memory game = games[id];\n            _playToken(game);\n        } else {\n            games[g] = Game(\n                g,\n                _amount,\n                _token,\n                payable(msg.sender),\n                block.timestamp,\n                _choice,\n                payable(address(0)),\n                myGames[msg.sender],\n                !_choice,\n                1,\n                0\n            );\n            myGame[msg.sender][myGames[msg.sender]] = games[g];\n            myGames[msg.sender]++;\n            played[g] = false;\n            g++;\n        }\n    }\n\n    function _scanGames(uint256 _value, bool _choice)\n        internal\n        view\n        returns (bool find, uint256 id)\n    {\n        for (uint256 i; i < g; i++) {\n            if (\n                games[i].currency == address(0) &&\n                games[i].value == _value &&\n                games[i].owner != msg.sender &&\n                games[i].c0 != _choice &&\n                games[i].state == 1\n            ) {\n                find = true;\n                id = i;\n                i += g;\n            } else {\n                find = false;\n                id = 0;\n            }\n        }\n    }\n\n    function _scanGamesToken(uint256 _value, bool _choice, address _token)\n        internal\n        view\n        returns (bool find, uint256 id)\n    {\n        for (uint256 i; i < g; i++) {\n            if (\n                games[i].currency == _token && \n                games[i].value == _value &&\n                games[i].owner != msg.sender &&\n                games[i].c0 != _choice &&\n                games[i].state == 1\n            ) {\n                find = true;\n                id = i;\n                i += g;\n            } else {\n                find = false;\n                id = 0;\n            }\n        }\n    }\n\n    function joinGame(uint256 _game) external payable {\n        Game memory game = games[_game];\n        if (msg.value < game.value) revert LowFunds(msg.sender, game.value);\n        if (game.state != 1) revert GameOver();\n        if (msg.sender == game.owner) revert Yourself(msg.sender);\n        _play(game);\n    }\n\n    function _play(Game memory _game) internal {\n        if (_game.state != 1 || _game.id >= g) revert GameOver();\n        _game.opponent = payable(msg.sender);\n        uint hold = _game.t1;\n        _game.c1 = !_game.c0;\n        _game.t1 = block.timestamp;\n        _game.state = 2;\n        games[_game.id] = _game;\n        myGame[_game.owner][hold] = _game;\n        myGame[msg.sender][myGames[msg.sender]] = _game;\n        myGames[msg.sender]++;\n        uint256 x = (_game.t1 + t) % 9;\n        uint256 y = (_game.t0 + x) % 9;\n        uint256 checksum = ((t * x * y) + (block.timestamp - (t + x + y))) % 9;\n        emit Log(checksum, msg.sender, block.timestamp);\n        _game.result = checksum;\n        uint256 win = ((_game.value * 2) / 1000) * (1000 - fee);\n        _game.state = 3;\n        games[_game.id] = _game;\n        played[_game.id] = true;\n        if (_game.c0) {\n            if (checksum < 5) {\n                _game.owner.transfer(win);\n            }\n            // player 2 wins\n            else {\n                _game.opponent.transfer(win);\n            } // player 1 wins\n        } else {\n            // player 1 lo\n            if (checksum < 5) {\n                _game.opponent.transfer(win);\n            }\n            // player 1 wins\n            else {\n                _game.owner.transfer(win);\n            } // player 2 wins\n        }\n    }\n\n    function _playToken(Game memory _game) internal {\n        if (_game.state != 1 || _game.id >= g) revert GameOver();\n        _game.opponent = payable(msg.sender);\n        uint hold = _game.t1;\n        _game.c1 = !_game.c0;\n        _game.t1 = block.timestamp;\n        _game.state = 2;\n        games[_game.id] = _game;\n        myGame[_game.owner][hold] = _game;\n        myGame[msg.sender][myGames[msg.sender]] = _game;\n        myGames[msg.sender]++;\n        uint256 x = (_game.t1 + t) % 9;\n        uint256 y = (_game.t0 + x) % 9;\n        uint256 checksum = ((t * x * y) + (block.timestamp - (t + x + y))) % 9;\n        emit Log(checksum, msg.sender, block.timestamp);\n        _game.result = checksum;\n        uint256 win = ((_game.value * 2) / 1000) * (1000 - fee);\n        _game.state = 3;\n        games[_game.id] = _game;\n        played[_game.id] = true;\n        if (_game.c0) {\n            if (checksum < 5) { \n                ERC20(_game.currency).transferFrom(address(this), _game.opponent, win);\n            }\n            // player 2 wins\n            else {\n               ERC20(_game.currency).transferFrom(address(this), _game.owner, win);\n            } // player 1 wins\n        } else {\n            // player 1 \n            if (checksum < 5) {\n                ERC20(_game.currency).transferFrom(address(this), _game.owner, win);\n            }\n            // player 1 wins\n            else {\n                ERC20(_game.currency).transferFrom(address(this), _game.opponent, win);\n            } \n        }\n    }\n}\n",
  "sourcePath": "/Users/iii6/Documents/GitHub/Gamble360/contracts/gamble360/HI_LO.sol",
  "compiler": {
    "name": "solc",
    "version": "0.8.23+commit.f704f362.Emscripten.clang"
  },
  "schemaVersion": "3.4.16",
  "updatedAt": "2023-11-09T16:00:50.887Z",
  "networkType": "ethereum",
  "devdoc": {
    "kind": "dev",
    "methods": {},
    "version": 1
  },
  "userdoc": {
    "kind": "user",
    "methods": {},
    "version": 1
  }
}