{
  "contractName": "iii6CoinModelDrop",
  "abi": [
    {
      "inputs": [
        {
          "internalType": "string",
          "name": "_name",
          "type": "string"
        },
        {
          "internalType": "string",
          "name": "_sym",
          "type": "string"
        },
        {
          "internalType": "uint256",
          "name": "_rate",
          "type": "uint256"
        },
        {
          "internalType": "uint256",
          "name": "_supply",
          "type": "uint256"
        },
        {
          "internalType": "bool",
          "name": "_burn",
          "type": "bool"
        },
        {
          "internalType": "bool",
          "name": "_pause",
          "type": "bool"
        },
        {
          "internalType": "uint256",
          "name": "_curr",
          "type": "uint256"
        }
      ],
      "stateMutability": "nonpayable",
      "type": "constructor"
    },
    {
      "anonymous": false,
      "inputs": [
        {
          "indexed": true,
          "internalType": "address",
          "name": "owner",
          "type": "address"
        },
        {
          "indexed": true,
          "internalType": "address",
          "name": "spender",
          "type": "address"
        },
        {
          "indexed": false,
          "internalType": "uint256",
          "name": "value",
          "type": "uint256"
        }
      ],
      "name": "Approval",
      "type": "event"
    },
    {
      "anonymous": false,
      "inputs": [
        {
          "indexed": true,
          "internalType": "address",
          "name": "previousOwner",
          "type": "address"
        },
        {
          "indexed": true,
          "internalType": "address",
          "name": "newOwner",
          "type": "address"
        }
      ],
      "name": "OwnershipTransferred",
      "type": "event"
    },
    {
      "anonymous": false,
      "inputs": [
        {
          "indexed": false,
          "internalType": "address",
          "name": "account",
          "type": "address"
        }
      ],
      "name": "Paused",
      "type": "event"
    },
    {
      "anonymous": false,
      "inputs": [
        {
          "indexed": true,
          "internalType": "address",
          "name": "from",
          "type": "address"
        },
        {
          "indexed": true,
          "internalType": "address",
          "name": "to",
          "type": "address"
        },
        {
          "indexed": false,
          "internalType": "uint256",
          "name": "value",
          "type": "uint256"
        }
      ],
      "name": "Transfer",
      "type": "event"
    },
    {
      "anonymous": false,
      "inputs": [
        {
          "indexed": false,
          "internalType": "address",
          "name": "account",
          "type": "address"
        }
      ],
      "name": "Unpaused",
      "type": "event"
    },
    {
      "stateMutability": "payable",
      "type": "fallback"
    },
    {
      "inputs": [],
      "name": "MAX_SUPPLY",
      "outputs": [
        {
          "internalType": "uint256",
          "name": "",
          "type": "uint256"
        }
      ],
      "stateMutability": "view",
      "type": "function"
    },
    {
      "inputs": [],
      "name": "PUB_SUPPLY",
      "outputs": [
        {
          "internalType": "uint256",
          "name": "",
          "type": "uint256"
        }
      ],
      "stateMutability": "view",
      "type": "function"
    },
    {
      "inputs": [
        {
          "internalType": "address",
          "name": "owner",
          "type": "address"
        },
        {
          "internalType": "address",
          "name": "spender",
          "type": "address"
        }
      ],
      "name": "allowance",
      "outputs": [
        {
          "internalType": "uint256",
          "name": "",
          "type": "uint256"
        }
      ],
      "stateMutability": "view",
      "type": "function"
    },
    {
      "inputs": [
        {
          "internalType": "address",
          "name": "spender",
          "type": "address"
        },
        {
          "internalType": "uint256",
          "name": "amount",
          "type": "uint256"
        }
      ],
      "name": "approve",
      "outputs": [
        {
          "internalType": "bool",
          "name": "",
          "type": "bool"
        }
      ],
      "stateMutability": "nonpayable",
      "type": "function"
    },
    {
      "inputs": [
        {
          "internalType": "address",
          "name": "account",
          "type": "address"
        }
      ],
      "name": "balanceOf",
      "outputs": [
        {
          "internalType": "uint256",
          "name": "",
          "type": "uint256"
        }
      ],
      "stateMutability": "view",
      "type": "function"
    },
    {
      "inputs": [
        {
          "internalType": "uint256",
          "name": "_amount",
          "type": "uint256"
        }
      ],
      "name": "burn",
      "outputs": [],
      "stateMutability": "nonpayable",
      "type": "function"
    },
    {
      "inputs": [
        {
          "internalType": "address",
          "name": "account",
          "type": "address"
        },
        {
          "internalType": "uint256",
          "name": "amount",
          "type": "uint256"
        }
      ],
      "name": "burnFrom",
      "outputs": [],
      "stateMutability": "nonpayable",
      "type": "function"
    },
    {
      "inputs": [
        {
          "internalType": "uint256",
          "name": "_amount",
          "type": "uint256"
        }
      ],
      "name": "buyTokens",
      "outputs": [
        {
          "internalType": "uint256",
          "name": "",
          "type": "uint256"
        }
      ],
      "stateMutability": "payable",
      "type": "function"
    },
    {
      "inputs": [],
      "name": "decimals",
      "outputs": [
        {
          "internalType": "uint8",
          "name": "",
          "type": "uint8"
        }
      ],
      "stateMutability": "view",
      "type": "function"
    },
    {
      "inputs": [
        {
          "internalType": "address",
          "name": "spender",
          "type": "address"
        },
        {
          "internalType": "uint256",
          "name": "subtractedValue",
          "type": "uint256"
        }
      ],
      "name": "decreaseAllowance",
      "outputs": [
        {
          "internalType": "bool",
          "name": "",
          "type": "bool"
        }
      ],
      "stateMutability": "nonpayable",
      "type": "function"
    },
    {
      "inputs": [
        {
          "internalType": "address",
          "name": "spender",
          "type": "address"
        },
        {
          "internalType": "uint256",
          "name": "addedValue",
          "type": "uint256"
        }
      ],
      "name": "increaseAllowance",
      "outputs": [
        {
          "internalType": "bool",
          "name": "",
          "type": "bool"
        }
      ],
      "stateMutability": "nonpayable",
      "type": "function"
    },
    {
      "inputs": [],
      "name": "name",
      "outputs": [
        {
          "internalType": "string",
          "name": "",
          "type": "string"
        }
      ],
      "stateMutability": "view",
      "type": "function"
    },
    {
      "inputs": [],
      "name": "owner",
      "outputs": [
        {
          "internalType": "address",
          "name": "",
          "type": "address"
        }
      ],
      "stateMutability": "view",
      "type": "function"
    },
    {
      "inputs": [],
      "name": "paused",
      "outputs": [
        {
          "internalType": "bool",
          "name": "",
          "type": "bool"
        }
      ],
      "stateMutability": "view",
      "type": "function"
    },
    {
      "inputs": [],
      "name": "rate",
      "outputs": [
        {
          "internalType": "uint256",
          "name": "",
          "type": "uint256"
        }
      ],
      "stateMutability": "view",
      "type": "function"
    },
    {
      "inputs": [],
      "name": "renounceOwnership",
      "outputs": [],
      "stateMutability": "nonpayable",
      "type": "function"
    },
    {
      "inputs": [
        {
          "internalType": "uint256",
          "name": "_newSupply",
          "type": "uint256"
        }
      ],
      "name": "setMaxSupply",
      "outputs": [
        {
          "internalType": "uint256",
          "name": "",
          "type": "uint256"
        }
      ],
      "stateMutability": "nonpayable",
      "type": "function"
    },
    {
      "inputs": [
        {
          "internalType": "uint256",
          "name": "_rate",
          "type": "uint256"
        }
      ],
      "name": "setRate",
      "outputs": [
        {
          "internalType": "uint256",
          "name": "",
          "type": "uint256"
        }
      ],
      "stateMutability": "nonpayable",
      "type": "function"
    },
    {
      "inputs": [],
      "name": "symbol",
      "outputs": [
        {
          "internalType": "string",
          "name": "",
          "type": "string"
        }
      ],
      "stateMutability": "view",
      "type": "function"
    },
    {
      "inputs": [],
      "name": "title",
      "outputs": [
        {
          "internalType": "string",
          "name": "",
          "type": "string"
        }
      ],
      "stateMutability": "view",
      "type": "function"
    },
    {
      "inputs": [],
      "name": "toggleBurn",
      "outputs": [
        {
          "internalType": "bool",
          "name": "",
          "type": "bool"
        }
      ],
      "stateMutability": "nonpayable",
      "type": "function"
    },
    {
      "inputs": [],
      "name": "togglePause",
      "outputs": [
        {
          "internalType": "bool",
          "name": "",
          "type": "bool"
        }
      ],
      "stateMutability": "nonpayable",
      "type": "function"
    },
    {
      "inputs": [],
      "name": "toggleState",
      "outputs": [
        {
          "internalType": "bool",
          "name": "",
          "type": "bool"
        }
      ],
      "stateMutability": "nonpayable",
      "type": "function"
    },
    {
      "inputs": [],
      "name": "totalSupply",
      "outputs": [
        {
          "internalType": "uint256",
          "name": "",
          "type": "uint256"
        }
      ],
      "stateMutability": "view",
      "type": "function"
    },
    {
      "inputs": [
        {
          "internalType": "address",
          "name": "to",
          "type": "address"
        },
        {
          "internalType": "uint256",
          "name": "amount",
          "type": "uint256"
        }
      ],
      "name": "transfer",
      "outputs": [
        {
          "internalType": "bool",
          "name": "",
          "type": "bool"
        }
      ],
      "stateMutability": "nonpayable",
      "type": "function"
    },
    {
      "inputs": [
        {
          "internalType": "address",
          "name": "from",
          "type": "address"
        },
        {
          "internalType": "address",
          "name": "to",
          "type": "address"
        },
        {
          "internalType": "uint256",
          "name": "amount",
          "type": "uint256"
        }
      ],
      "name": "transferFrom",
      "outputs": [
        {
          "internalType": "bool",
          "name": "",
          "type": "bool"
        }
      ],
      "stateMutability": "nonpayable",
      "type": "function"
    },
    {
      "inputs": [
        {
          "internalType": "address",
          "name": "newOwner",
          "type": "address"
        }
      ],
      "name": "transferOwnership",
      "outputs": [],
      "stateMutability": "nonpayable",
      "type": "function"
    },
    {
      "stateMutability": "payable",
      "type": "receive"
    },
    {
      "inputs": [],
      "name": "dropToken",
      "outputs": [],
      "stateMutability": "nonpayable",
      "type": "function"
    }
  ],
  "bytecode": "0x608060405234801562000010575f80fd5b5060405162002cca38038062002cca8339818101604052810190620000369190620003f8565b868686868686858581600390816200004f919062000712565b50806004908162000061919062000712565b5050505f60055f6101000a81548160ff0219169083151502179055506200009d620000916200011560201b60201c565b6200011c60201b60201c565b620000ae84620001e160201b60201c565b508260088190555085600a9081620000c7919062000712565b508160095f6101000a81548160ff02191690831515021790555080600960016101000a81548160ff0219169083151502179055508360068190555050505050505050505050505050620007f6565b5f33905090565b5f600560019054906101000a900473ffffffffffffffffffffffffffffffffffffffff16905081600560016101000a81548173ffffffffffffffffffffffffffffffffffffffff021916908373ffffffffffffffffffffffffffffffffffffffff1602179055508173ffffffffffffffffffffffffffffffffffffffff168173ffffffffffffffffffffffffffffffffffffffff167f8be0079c531659141344cd1fd0a4f28419497f9722a3daafe3b4186f6b6457e060405160405180910390a35050565b5f808290505f811015620001f3575f80fd5b806006819055915050919050565b5f604051905090565b5f80fd5b5f80fd5b5f80fd5b5f80fd5b5f601f19601f8301169050919050565b7f4e487b71000000000000000000000000000000000000000000000000000000005f52604160045260245ffd5b62000262826200021a565b810181811067ffffffffffffffff821117156200028457620002836200022a565b5b80604052505050565b5f6200029862000201565b9050620002a6828262000257565b919050565b5f67ffffffffffffffff821115620002c857620002c76200022a565b5b620002d3826200021a565b9050602081019050919050565b5f5b83811015620002ff578082015181840152602081019050620002e2565b5f8484015250505050565b5f620003206200031a84620002ab565b6200028d565b9050828152602081018484840111156200033f576200033e62000216565b5b6200034c848285620002e0565b509392505050565b5f82601f8301126200036b576200036a62000212565b5b81516200037d8482602086016200030a565b91505092915050565b5f819050919050565b6200039a8162000386565b8114620003a5575f80fd5b50565b5f81519050620003b8816200038f565b92915050565b5f8115159050919050565b620003d481620003be565b8114620003df575f80fd5b50565b5f81519050620003f281620003c9565b92915050565b5f805f805f805f60e0888a0312156200041657620004156200020a565b5b5f88015167ffffffffffffffff8111156200043657620004356200020e565b5b620004448a828b0162000354565b975050602088015167ffffffffffffffff8111156200046857620004676200020e565b5b620004768a828b0162000354565b9650506040620004898a828b01620003a8565b95505060606200049c8a828b01620003a8565b9450506080620004af8a828b01620003e2565b93505060a0620004c28a828b01620003e2565b92505060c0620004d58a828b01620003a8565b91505092959891949750929550565b5f81519050919050565b7f4e487b71000000000000000000000000000000000000000000000000000000005f52602260045260245ffd5b5f60028204905060018216806200053357607f821691505b602082108103620005495762000548620004ee565b5b50919050565b5f819050815f5260205f209050919050565b5f6020601f8301049050919050565b5f82821b905092915050565b5f60088302620005ad7fffffffffffffffffffffffffffffffffffffffffffffffffffffffffffffffff8262000570565b620005b9868362000570565b95508019841693508086168417925050509392505050565b5f819050919050565b5f620005fa620005f4620005ee8462000386565b620005d1565b62000386565b9050919050565b5f819050919050565b6200061583620005da565b6200062d620006248262000601565b8484546200057c565b825550505050565b5f90565b6200064362000635565b620006508184846200060a565b505050565b5b8181101562000677576200066b5f8262000639565b60018101905062000656565b5050565b601f821115620006c65762000690816200054f565b6200069b8462000561565b81016020851015620006ab578190505b620006c3620006ba8562000561565b83018262000655565b50505b505050565b5f82821c905092915050565b5f620006e85f1984600802620006cb565b1980831691505092915050565b5f620007028383620006d7565b9150826002028217905092915050565b6200071d82620004e4565b67ffffffffffffffff8111156200073957620007386200022a565b5b6200074582546200051b565b620007528282856200067b565b5f60209050601f83116001811462000788575f841562000773578287015190505b6200077f8582620006f5565b865550620007ee565b601f19841662000798866200054f565b5f5b82811015620007c1578489015182556001820191506020850194506020810190506200079a565b86831015620007e15784890151620007dd601f891682620006d7565b8355505b6001600288020188555050505b505050505050565b6124c680620008045f395ff3fe6080604052600436106101ba575f3560e01c80636f8b44b0116100eb578063a457c2d711610089578063c7945de011610063578063c7945de014610639578063d37e51041461064f578063dd62ed3e14610679578063f2fde38b146106b5576101c9565b8063a457c2d714610597578063a9059cbb146105d3578063c4ae31681461060f576101c9565b8063778a56ce116100c5578063778a56ce146104f157806379cc67901461051b5780638da5cb5b1461054357806395d89b411461056d576101c9565b80636f8b44b01461046357806370a082311461049f578063715018a6146104db576101c9565b806332cb6b0c11610158578063395093511161013257806339509351146103ab57806342966c68146103e75780634a79d50c1461040f5780635c975abb14610439576101c9565b806332cb6b0c1461031557806334fcf4371461033f5780633610724e1461037b576101c9565b8063201a49d611610194578063201a49d61461025b57806323b872dd146102855780632c4e722e146102c1578063313ce567146102eb576101c9565b806306fdde03146101cb578063095ea7b3146101f557806318160ddd14610231576101c9565b366101c9576101c76106dd565b005b005b3480156101d6575f80fd5b506101df6106fb565b6040516101ec91906118e4565b60405180910390f35b348015610200575f80fd5b5061021b60048036038101906102169190611995565b61078b565b60405161022891906119ed565b60405180910390f35b34801561023c575f80fd5b506102456107ad565b6040516102529190611a15565b60405180910390f35b348015610266575f80fd5b5061026f6107b6565b60405161027c9190611a15565b60405180910390f35b348015610290575f80fd5b506102ab60048036038101906102a69190611a2e565b6107bc565b6040516102b891906119ed565b60405180910390f35b3480156102cc575f80fd5b506102d56107ea565b6040516102e29190611a15565b60405180910390f35b3480156102f6575f80fd5b506102ff6107f0565b60405161030c9190611a99565b60405180910390f35b348015610320575f80fd5b506103296107f8565b6040516103369190611a15565b60405180910390f35b34801561034a575f80fd5b5061036560048036038101906103609190611ab2565b6107fe565b6040516103729190611a15565b60405180910390f35b61039560048036038101906103909190611ab2565b610817565b6040516103a29190611a15565b60405180910390f35b3480156103b6575f80fd5b506103d160048036038101906103cc9190611995565b61089b565b6040516103de91906119ed565b60405180910390f35b3480156103f2575f80fd5b5061040d60048036038101906104089190611ab2565b6108d1565b005b34801561041a575f80fd5b506104236108fb565b60405161043091906118e4565b60405180910390f35b348015610444575f80fd5b5061044d610987565b60405161045a91906119ed565b60405180910390f35b34801561046e575f80fd5b5061048960048036038101906104849190611ab2565b61099c565b6040516104969190611a15565b60405180910390f35b3480156104aa575f80fd5b506104c560048036038101906104c09190611add565b6109b2565b6040516104d29190611a15565b60405180910390f35b3480156104e6575f80fd5b506104ef6109f7565b005b3480156104fc575f80fd5b50610505610a0a565b60405161051291906119ed565b60405180910390f35b348015610526575f80fd5b50610541600480360381019061053c9190611995565b610a3f565b005b34801561054e575f80fd5b50610557610a5f565b6040516105649190611b17565b60405180910390f35b348015610578575f80fd5b50610581610a88565b60405161058e91906118e4565b60405180910390f35b3480156105a2575f80fd5b506105bd60048036038101906105b89190611995565b610b18565b6040516105ca91906119ed565b60405180910390f35b3480156105de575f80fd5b506105f960048036038101906105f49190611995565b610b8d565b60405161060691906119ed565b60405180910390f35b34801561061a575f80fd5b50610623610baf565b60405161063091906119ed565b60405180910390f35b348015610644575f80fd5b5061064d610be6565b005b34801561065a575f80fd5b50610663610bfb565b60405161067091906119ed565b60405180910390f35b348015610684575f80fd5b5061069f600480360381019061069a9190611b30565b610c52565b6040516106ac9190611a15565b60405180910390f35b3480156106c0575f80fd5b506106db60048036038101906106d69190611add565b610cd4565b005b5f600654346106ec9190611bc8565b90506106f83382610d56565b50565b60606003805461070a90611c25565b80601f016020809104026020016040519081016040528092919081815260200182805461073690611c25565b80156107815780601f1061075857610100808354040283529160200191610781565b820191905f5260205f20905b81548152906001019060200180831161076457829003601f168201915b5050505050905090565b5f80610795610ea4565b90506107a2818585610eab565b600191505092915050565b5f600254905090565b60075481565b5f806107c6610ea4565b90506107d385828561106e565b6107de8585856110f9565b60019150509392505050565b60065481565b5f6012905090565b60085481565b5f610807611365565b610810826113e3565b9050919050565b5f600654826108269190611c55565b3411610830575f80fd5b5f670de0b6b3a7640000836108459190611c55565b6007546008546108559190611c96565b61085f9190611c96565b1015610869575f80fd5b61088633670de0b6b3a7640000846108819190611c55565b610d56565b600654826108949190611c55565b9050919050565b5f806108a5610ea4565b90506108c68185856108b78589610c52565b6108c19190611cc9565b610eab565b600191505092915050565b5f151560095f9054906101000a900460ff161515036108ee575f80fd5b6108f83382611402565b50565b600a805461090890611c25565b80601f016020809104026020016040519081016040528092919081815260200182805461093490611c25565b801561097f5780601f106109565761010080835404028352916020019161097f565b820191905f5260205f20905b81548152906001019060200180831161096257829003601f168201915b505050505081565b5f60055f9054906101000a900460ff16905090565b5f6109a5611365565b8160088190559050919050565b5f805f8373ffffffffffffffffffffffffffffffffffffffff1673ffffffffffffffffffffffffffffffffffffffff1681526020019081526020015f20549050919050565b6109ff611365565b610a085f6115c5565b565b5f610a13611365565b60095f9054906101000a900460ff161560095f6101000a81548160ff0219169083151502179055905090565b610a5182610a4b610ea4565b8361106e565b610a5b8282611402565b5050565b5f600560019054906101000a900473ffffffffffffffffffffffffffffffffffffffff16905090565b606060048054610a9790611c25565b80601f0160208091040260200160405190810160405280929190818152602001828054610ac390611c25565b8015610b0e5780601f10610ae557610100808354040283529160200191610b0e565b820191905f5260205f20905b815481529060010190602001808311610af157829003601f168201915b5050505050905090565b5f80610b22610ea4565b90505f610b2f8286610c52565b905083811015610b74576040517f08c379a0000000000000000000000000000000000000000000000000000000008152600401610b6b90611d6c565b60405180910390fd5b610b818286868403610eab565b60019250505092915050565b5f80610b97610ea4565b9050610ba48185856110f9565b600191505092915050565b5f610bb8611365565b600960019054906101000a900460ff1615600960016101000a81548160ff0219169083151502179055905090565b610bf93368056bc75e2d63100000610d56565b565b5f610c04611365565b5f1515600960019054906101000a900460ff16151503610c22575f80fd5b610c2a610987565b15610c3c57610c3761168a565b610c45565b610c446116eb565b5b610c4d610987565b905090565b5f60015f8473ffffffffffffffffffffffffffffffffffffffff1673ffffffffffffffffffffffffffffffffffffffff1681526020019081526020015f205f8373ffffffffffffffffffffffffffffffffffffffff1673ffffffffffffffffffffffffffffffffffffffff1681526020019081526020015f2054905092915050565b610cdc611365565b5f73ffffffffffffffffffffffffffffffffffffffff168173ffffffffffffffffffffffffffffffffffffffff1603610d4a576040517f08c379a0000000000000000000000000000000000000000000000000000000008152600401610d4190611dfa565b60405180910390fd5b610d53816115c5565b50565b5f73ffffffffffffffffffffffffffffffffffffffff168273ffffffffffffffffffffffffffffffffffffffff1603610dc4576040517f08c379a0000000000000000000000000000000000000000000000000000000008152600401610dbb90611e62565b60405180910390fd5b610dcf5f838361174d565b8060025f828254610de09190611cc9565b92505081905550805f808473ffffffffffffffffffffffffffffffffffffffff1673ffffffffffffffffffffffffffffffffffffffff1681526020019081526020015f205f82825401925050819055508173ffffffffffffffffffffffffffffffffffffffff165f73ffffffffffffffffffffffffffffffffffffffff167fddf252ad1be2c89b69c2b068fc378daa952ba7f163c4a11628f55a4df523b3ef83604051610e8d9190611a15565b60405180910390a3610ea05f8383611765565b5050565b5f33905090565b5f73ffffffffffffffffffffffffffffffffffffffff168373ffffffffffffffffffffffffffffffffffffffff1603610f19576040517f08c379a0000000000000000000000000000000000000000000000000000000008152600401610f1090611ef0565b60405180910390fd5b5f73ffffffffffffffffffffffffffffffffffffffff168273ffffffffffffffffffffffffffffffffffffffff1603610f87576040517f08c379a0000000000000000000000000000000000000000000000000000000008152600401610f7e90611f7e565b60405180910390fd5b8060015f8573ffffffffffffffffffffffffffffffffffffffff1673ffffffffffffffffffffffffffffffffffffffff1681526020019081526020015f205f8473ffffffffffffffffffffffffffffffffffffffff1673ffffffffffffffffffffffffffffffffffffffff1681526020019081526020015f20819055508173ffffffffffffffffffffffffffffffffffffffff168373ffffffffffffffffffffffffffffffffffffffff167f8c5be1e5ebec7d5bd14f71427d1e84f3dd0314c0f7b2291e5b200ac8c7c3b925836040516110619190611a15565b60405180910390a3505050565b5f6110798484610c52565b90507fffffffffffffffffffffffffffffffffffffffffffffffffffffffffffffffff81146110f357818110156110e5576040517f08c379a00000000000000000000000000000000000000000000000000000000081526004016110dc90611fe6565b60405180910390fd5b6110f28484848403610eab565b5b50505050565b5f73ffffffffffffffffffffffffffffffffffffffff168373ffffffffffffffffffffffffffffffffffffffff1603611167576040517f08c379a000000000000000000000000000000000000000000000000000000000815260040161115e90612074565b60405180910390fd5b5f73ffffffffffffffffffffffffffffffffffffffff168273ffffffffffffffffffffffffffffffffffffffff16036111d5576040517f08c379a00000000000000000000000000000000000000000000000000000000081526004016111cc90612102565b60405180910390fd5b6111e083838361174d565b5f805f8573ffffffffffffffffffffffffffffffffffffffff1673ffffffffffffffffffffffffffffffffffffffff1681526020019081526020015f2054905081811015611263576040517f08c379a000000000000000000000000000000000000000000000000000000000815260040161125a90612190565b60405180910390fd5b8181035f808673ffffffffffffffffffffffffffffffffffffffff1673ffffffffffffffffffffffffffffffffffffffff1681526020019081526020015f2081905550815f808573ffffffffffffffffffffffffffffffffffffffff1673ffffffffffffffffffffffffffffffffffffffff1681526020019081526020015f205f82825401925050819055508273ffffffffffffffffffffffffffffffffffffffff168473ffffffffffffffffffffffffffffffffffffffff167fddf252ad1be2c89b69c2b068fc378daa952ba7f163c4a11628f55a4df523b3ef8460405161134c9190611a15565b60405180910390a361135f848484611765565b50505050565b61136d610ea4565b73ffffffffffffffffffffffffffffffffffffffff1661138b610a5f565b73ffffffffffffffffffffffffffffffffffffffff16146113e1576040517f08c379a00000000000000000000000000000000000000000000000000000000081526004016113d8906121f8565b60405180910390fd5b565b5f808290505f8110156113f4575f80fd5b806006819055915050919050565b5f73ffffffffffffffffffffffffffffffffffffffff168273ffffffffffffffffffffffffffffffffffffffff1603611470576040517f08c379a000000000000000000000000000000000000000000000000000000000815260040161146790612286565b60405180910390fd5b61147b825f8361174d565b5f805f8473ffffffffffffffffffffffffffffffffffffffff1673ffffffffffffffffffffffffffffffffffffffff1681526020019081526020015f20549050818110156114fe576040517f08c379a00000000000000000000000000000000000000000000000000000000081526004016114f590612314565b60405180910390fd5b8181035f808573ffffffffffffffffffffffffffffffffffffffff1673ffffffffffffffffffffffffffffffffffffffff1681526020019081526020015f20819055508160025f82825403925050819055505f73ffffffffffffffffffffffffffffffffffffffff168373ffffffffffffffffffffffffffffffffffffffff167fddf252ad1be2c89b69c2b068fc378daa952ba7f163c4a11628f55a4df523b3ef846040516115ad9190611a15565b60405180910390a36115c0835f84611765565b505050565b5f600560019054906101000a900473ffffffffffffffffffffffffffffffffffffffff16905081600560016101000a81548173ffffffffffffffffffffffffffffffffffffffff021916908373ffffffffffffffffffffffffffffffffffffffff1602179055508173ffffffffffffffffffffffffffffffffffffffff168173ffffffffffffffffffffffffffffffffffffffff167f8be0079c531659141344cd1fd0a4f28419497f9722a3daafe3b4186f6b6457e060405160405180910390a35050565b61169261176a565b5f60055f6101000a81548160ff0219169083151502179055507f5db9ee0a495bf2e6ff9c91a7834c1ba4fdd244a5e8aa4e537bd38aeae4b073aa6116d4610ea4565b6040516116e19190611b17565b60405180910390a1565b6116f36117b3565b600160055f6101000a81548160ff0219169083151502179055507f62e78cea01bee320cd4e420270b5ea74000d11b0c9f74754ebdbfc544b05a258611736610ea4565b6040516117439190611b17565b60405180910390a1565b6117556117b3565b6117608383836117fd565b505050565b505050565b611772610987565b6117b1576040517f08c379a00000000000000000000000000000000000000000000000000000000081526004016117a89061237c565b60405180910390fd5b565b6117bb610987565b156117fb576040517f08c379a00000000000000000000000000000000000000000000000000000000081526004016117f2906123e4565b60405180910390fd5b565b611808838383611855565b611810610987565b15611850576040517f08c379a000000000000000000000000000000000000000000000000000000000815260040161184790612472565b60405180910390fd5b505050565b505050565b5f81519050919050565b5f82825260208201905092915050565b5f5b83811015611891578082015181840152602081019050611876565b5f8484015250505050565b5f601f19601f8301169050919050565b5f6118b68261185a565b6118c08185611864565b93506118d0818560208601611874565b6118d98161189c565b840191505092915050565b5f6020820190508181035f8301526118fc81846118ac565b905092915050565b5f80fd5b5f73ffffffffffffffffffffffffffffffffffffffff82169050919050565b5f61193182611908565b9050919050565b61194181611927565b811461194b575f80fd5b50565b5f8135905061195c81611938565b92915050565b5f819050919050565b61197481611962565b811461197e575f80fd5b50565b5f8135905061198f8161196b565b92915050565b5f80604083850312156119ab576119aa611904565b5b5f6119b88582860161194e565b92505060206119c985828601611981565b9150509250929050565b5f8115159050919050565b6119e7816119d3565b82525050565b5f602082019050611a005f8301846119de565b92915050565b611a0f81611962565b82525050565b5f602082019050611a285f830184611a06565b92915050565b5f805f60608486031215611a4557611a44611904565b5b5f611a528682870161194e565b9350506020611a638682870161194e565b9250506040611a7486828701611981565b9150509250925092565b5f60ff82169050919050565b611a9381611a7e565b82525050565b5f602082019050611aac5f830184611a8a565b92915050565b5f60208284031215611ac757611ac6611904565b5b5f611ad484828501611981565b91505092915050565b5f60208284031215611af257611af1611904565b5b5f611aff8482850161194e565b91505092915050565b611b1181611927565b82525050565b5f602082019050611b2a5f830184611b08565b92915050565b5f8060408385031215611b4657611b45611904565b5b5f611b538582860161194e565b9250506020611b648582860161194e565b9150509250929050565b7f4e487b71000000000000000000000000000000000000000000000000000000005f52601260045260245ffd5b7f4e487b71000000000000000000000000000000000000000000000000000000005f52601160045260245ffd5b5f611bd282611962565b9150611bdd83611962565b925082611bed57611bec611b6e565b5b828204905092915050565b7f4e487b71000000000000000000000000000000000000000000000000000000005f52602260045260245ffd5b5f6002820490506001821680611c3c57607f821691505b602082108103611c4f57611c4e611bf8565b5b50919050565b5f611c5f82611962565b9150611c6a83611962565b9250828202611c7881611962565b91508282048414831517611c8f57611c8e611b9b565b5b5092915050565b5f611ca082611962565b9150611cab83611962565b9250828203905081811115611cc357611cc2611b9b565b5b92915050565b5f611cd382611962565b9150611cde83611962565b9250828201905080821115611cf657611cf5611b9b565b5b92915050565b7f45524332303a2064656372656173656420616c6c6f77616e63652062656c6f775f8201527f207a65726f000000000000000000000000000000000000000000000000000000602082015250565b5f611d56602583611864565b9150611d6182611cfc565b604082019050919050565b5f6020820190508181035f830152611d8381611d4a565b9050919050565b7f4f776e61626c653a206e6577206f776e657220697320746865207a65726f20615f8201527f6464726573730000000000000000000000000000000000000000000000000000602082015250565b5f611de4602683611864565b9150611def82611d8a565b604082019050919050565b5f6020820190508181035f830152611e1181611dd8565b9050919050565b7f45524332303a206d696e7420746f20746865207a65726f2061646472657373005f82015250565b5f611e4c601f83611864565b9150611e5782611e18565b602082019050919050565b5f6020820190508181035f830152611e7981611e40565b9050919050565b7f45524332303a20617070726f76652066726f6d20746865207a65726f206164645f8201527f7265737300000000000000000000000000000000000000000000000000000000602082015250565b5f611eda602483611864565b9150611ee582611e80565b604082019050919050565b5f6020820190508181035f830152611f0781611ece565b9050919050565b7f45524332303a20617070726f766520746f20746865207a65726f2061646472655f8201527f7373000000000000000000000000000000000000000000000000000000000000602082015250565b5f611f68602283611864565b9150611f7382611f0e565b604082019050919050565b5f6020820190508181035f830152611f9581611f5c565b9050919050565b7f45524332303a20696e73756666696369656e7420616c6c6f77616e63650000005f82015250565b5f611fd0601d83611864565b9150611fdb82611f9c565b602082019050919050565b5f6020820190508181035f830152611ffd81611fc4565b9050919050565b7f45524332303a207472616e736665722066726f6d20746865207a65726f2061645f8201527f6472657373000000000000000000000000000000000000000000000000000000602082015250565b5f61205e602583611864565b915061206982612004565b604082019050919050565b5f6020820190508181035f83015261208b81612052565b9050919050565b7f45524332303a207472616e7366657220746f20746865207a65726f20616464725f8201527f6573730000000000000000000000000000000000000000000000000000000000602082015250565b5f6120ec602383611864565b91506120f782612092565b604082019050919050565b5f6020820190508181035f830152612119816120e0565b9050919050565b7f45524332303a207472616e7366657220616d6f756e74206578636565647320625f8201527f616c616e63650000000000000000000000000000000000000000000000000000602082015250565b5f61217a602683611864565b915061218582612120565b604082019050919050565b5f6020820190508181035f8301526121a78161216e565b9050919050565b7f4f776e61626c653a2063616c6c6572206973206e6f7420746865206f776e65725f82015250565b5f6121e2602083611864565b91506121ed826121ae565b602082019050919050565b5f6020820190508181035f83015261220f816121d6565b9050919050565b7f45524332303a206275726e2066726f6d20746865207a65726f206164647265735f8201527f7300000000000000000000000000000000000000000000000000000000000000602082015250565b5f612270602183611864565b915061227b82612216565b604082019050919050565b5f6020820190508181035f83015261229d81612264565b9050919050565b7f45524332303a206275726e20616d6f756e7420657863656564732062616c616e5f8201527f6365000000000000000000000000000000000000000000000000000000000000602082015250565b5f6122fe602283611864565b9150612309826122a4565b604082019050919050565b5f6020820190508181035f83015261232b816122f2565b9050919050565b7f5061757361626c653a206e6f74207061757365640000000000000000000000005f82015250565b5f612366601483611864565b915061237182612332565b602082019050919050565b5f6020820190508181035f8301526123938161235a565b9050919050565b7f5061757361626c653a20706175736564000000000000000000000000000000005f82015250565b5f6123ce601083611864565b91506123d98261239a565b602082019050919050565b5f6020820190508181035f8301526123fb816123c2565b9050919050565b7f45524332305061757361626c653a20746f6b656e207472616e736665722077685f8201527f696c652070617573656400000000000000000000000000000000000000000000602082015250565b5f61245c602a83611864565b915061246782612402565b604082019050919050565b5f6020820190508181035f83015261248981612450565b905091905056fea264697066735822122055bb524f7e3a38b958f8738ea2281e9cee78d06e76563dbfa0d1efb3ed6994c764736f6c63430008170033",
  "immutableReferences": {},
  "source": "// SPDX-License-Identifier: GPL-3.0\n// // // // // // // // // // // // // // // // // // // // // // // // // // // // // // // // // // // // // // // // // // // // // // // // // // // // // // // // // // // // //\n//\n//      MMWKd:..                                                                                    ..:dKWMM\n//      MKl.                                                                                            .lKW\n//      O'       ..''''''''''''.     .''''''.     .'''''.      .''''''''''''''.     .''''''''''''..       'O\n//      '     .ckKNNWNWWWWWWWWWk.   .xNWWNWNl    ,0WWWWW0,     lNWWWWWWWWWNWNk'    ;0NNNWWWWWWWWNNKkc.     '\n//           ,OWMMMMMMMMMMMMMMMO.   .kMMMMMWl    ,KMMMMMK,     lWMMMMMMMMMMM0,    ;KMMMMMMMMMMMMMMMMWO,\n//          .kMMMMMMMMMMMMMMMMMO.   .kMMMMMWl    ,KMMMMMK,     lWMMMMMMMMMM0,    ;KMMMMMMMMMMMMMMMMMMMk.\n//          '0MMMMMMMMMMMMMMMMMO.   .kMMMMMWl    ,KMMMMMK,     lWMMMMMMMMM0,    :KMMMMMMMMMMMMMMMMMMMM0'\n//          '0MMMMMMMMMMMMMMMMMO.   .kMMMMMWl    ,KMMMMMK,     lWMMMMMMMM0,    :KMMMMMMMMMMMMMMMMMMMMM0'\n//          '0MMMMMMMMMMMMMMMMMO.   .kMMMMMWl    ,KMMMMMK,     lWMMMMMMM0,    ;0NNWWMMMMMMMMMMMMMMMMMM0'\n//          '0MMMMMMMMMMMMMMMMMO.   .kMMMMMWl    ,KMMMMMK,     lWMMMMMM0,     .'.',;lkNMMMMMMMMMMMMMMM0'\n//          '0MMMMMMMMMMMMMMMMMO.   .kMMMMMWl    ,KMMMMMK,     lWMMMMMK;              ,kWMMMMMMMMMMMMM0'\n//          '0MMMMMMMMMMMMMMMMMO.   .kMMMMMWl    ,KMMMMMK,     lWMMMMX:    .:oxxdc'    .dWMMMMMMMMMMMM0'\n//          '0MMMMMMMMMMMMMMMMMO.   .kMMMMMWl    ,KMMMMMK,     lWMMMWd.   ,OWMMMMMXl.   '0MMMMMMMMMMMM0'\n//          '0MMMMMMMMMMMMMMMMMO.   .kMMMMMWl    ,KMMMMMK,     lWMMMX;   .kMMMMMMMMK,   .xMMMMMMMMMMMM0'\n//          '0MMMMMMMMMMMMMMMMMO.   .kMMMMMWl    ,KMMMMMK,     lWMMM0'   .OMMMMMMMMX;   .xMMMMMMMMMMMM0'\n//          .OMMMMMMMMMMMMMMMMMO.   .kMMMMMWl    ,KMMMMMK,     lWMMMK,    lNMMMMMMWx.   '0MMMMMMMMMMMMO.\n//           lNMMMMMMMMMMMMMMMMO.   .kMMMMMWl    ,KMMMMMK,     lWMMMWd.   .:x0KKKkc.   .dWMMMMMMMMMMMNl\n//      .    .c0WMMMMMMMMMMMMMMO.   .kMMMMMWo    ,KMMMMMK,     lWMMMMNd.     ....     .xNMMMMMMMMMMW0c.    .\n//      l      .,lddxxxxxxxxxxxc.    :xxxxxd,    .lxxxxxl.     ,dxxxxxd:.            .cdxxxxxxxxddl,.      l\n//      No.                                                                                              .oN\n//      MW0l'                                                                                          'l0WM\n//      MMMWKd;.                                                                                    .;dKWMMM\n//\n// // // // // // // // // // // // // // // // // // // // // // // // // // // // // // // // // // // // // // // // // // // // // // // // // // // // // // // // // // // // //\n//                                                                                                                                                                                  //\n//      @dev            ::              Aron Mauritala Ayuk                                                                                                                                          //\n//      @msg            ::              stereo@iii6.xyz                                                                                                                                   //\n//      @github         ::              @stereoIII6\n//      @twitter        ::              @stereoIII6                                                                                                                                              //\n//                                                                                                                                                                                  //\n// // // // // // // // // // // // // // // // // // // // // // // // // // // // // // // // // // // // // // // // // // // // // // // // // // // // // // // // // // // // //\n//                                                                                                                                                                                  //\n//      @dev            ::              Juan Xavier Valverde                                                                                                                                    //\n//      @msg            ::              juanxavier@iii6.xyz                                                                                                                               //\n//      @twitter        ::              @JuanXavier                                                                                                                                             //\n//      @github         ::              @JuanXavier                                                                                                                                             //\n//                                                                                                                                                                                  //                                                                                                                                                                                 //\n// // // // // // // // // // // // // // // // // // // // // // // // // // // // // // // // // // // // // // // // // // // // // // // // // // // // // // // // // // // // //\n//  *   *   *   *   *   *   *   *   *   *   *   *   *   *   *   *   *   *   *   *   *   *   *   *   *   *   *   *   *   *   *   *   *   *   *   *   *   *   *   *   *   *   *   *   //\n// // // // // // // // // // // // // // // // // // // // // // // // // // // // // // // // // // // // // // // // // // // // // // // // // // // // // // // // // // // // //\n//                                                                                                                                                                                  //\n//      @company        ::              Fractio Holding                                                                                                                                                                       //\n//      @title          ::              iii6 Coin Model                                                                                                                            //\n//      @description    ::              ERC20 Model Preset Contract                                                                                                                           //\n//      @version        ::              0.0.1                                                                                                                                       //\n//      @purpose        ::              ERC20 Model Preset                                                                                                          //\n//                                                                                                                                                                                  //\n//                                                                                                                                                                                  //\n//                                                                                                                                                                                  //\n//                                                                                                                                                                                  //\n//                                                                                                                                                                                  //\n// // // // // // // // // // // // // // // // // // // // // // // // // // // // // // // // // // // // // // // // // // // // // // // // // // // // // // // // // // // // //\n//  *   *   *   *   *   *   *   *   *   *   *   *   *   *   *   *   *   *   *   *   *   *   *   *   *   *   *   *   *   *   *   *   *   *   *   *   *   *   *   *   *   *   *   *   //\n// // // // // // // // // // // // // // // // // // // // // // // // // // // // // // // // // // // // // // // // // // // // // // // // // // // // // // // // // // // // //\n\n/////////////////////////////////////////////////////////////////////////////////////////////////////////////////////\n\n/////////////////////////////////////////////////////////////////////////////////////////////////////////////////////\n\npragma solidity ^0.8.7;\n\nimport \"@openzeppelin/contracts/token/ERC20/ERC20.sol\";\nimport \"@openzeppelin/contracts/access/Ownable.sol\";\nimport \"@openzeppelin/contracts/token/ERC20/extensions/ERC20Burnable.sol\";\nimport \"@openzeppelin/contracts/token/ERC20/extensions/ERC20Pausable.sol\";\nimport \"../Oracles/iii6PriceConsumer.sol\";\nimport \"../Math/iii6PriceMath.sol\";\nimport \"../Wallets/iii6Safes.sol\";\nimport \"../Misc/iii6Misc.sol\";\n\ncontract iii6CoinModel is\n    ERC20,\n    ERC20Pausable,\n    ERC20Burnable,\n    Ownable,\n    iii6Misc\n{\n    /**\n     * @dev this contract is a factory contract to deploy iii6CoinModel & iii6DiaModel\n     */\n    // \n    // \n    // \n    // \n    // \n    // \n    /**\n     * @dev declaration of storage vars\n     */\n    uint256 public rate;\n    uint256 public PUB_SUPPLY;\n    uint256 public MAX_SUPPLY;\n    bool private burns;\n    bool private pauses;\n    string public title;\n\n    /**\n     * @dev declaration of enums structs and arrays\n     */\n\n    /**\n     * @dev creates an instance of iii6CoinModel\n     * @param _name token name\n     * @param _sym token symbol\n     * @param _rate token rate\n     * @param _supply max token supply // if 0-infinte\n     * @param _burn bool burnable\n     * @param _pause bool pauseble\n     */\n    constructor(\n        string memory _name, // Token Name\n        string memory _sym, // Token Symbol\n        uint256 _rate, // Token Price in USD // 100 == 1 usd // 100000 = 1ETH\n        uint256 _supply, // Token Max Supply\n        bool _burn, // Burnable Option\n        bool _pause\n    ) ERC20(_name, _sym) {\n        _setRate(_rate); /** @dev see _setRate() :: line138 */\n        MAX_SUPPLY = _supply;\n        title = _name;\n        burns = _burn;\n        pauses = _pause;\n        rate = _rate; /** @dev see Rates{} :: line97 */\n    }\n\n    // \n    // \n    // \n    // \n    // \n    // \n\n    /**\n     * @dev sets token price in denomination currency ocoin\n     * @param _newRate token price in $ocoin (denomination currency)\n     * denomination currency can be set in setCurr()\n     * @return uint256 rate in gascoin\n     */\n    function _setRate(uint256 _newRate) internal returns (uint256) {\n        uint256 gP = _newRate;\n        if (gP < 0) revert();\n        return rate = gP;\n    }\n\n    /**\n     * @dev overrides ERC20 & ERC20Pausable\n     */\n    function _beforeTokenTransfer(\n        address from,\n        address to,\n        uint256 amount\n    ) internal override(ERC20, ERC20Pausable) whenNotPaused {\n        super._beforeTokenTransfer(from, to, amount);\n    }\n\n    // \n    // \n    // \n    // \n    // \n    // \n\n    /**\n     * @dev sets the rate of currency in denomination currency\n     * @dev check the ocoin for its state to determine what value to type in\n     * @param // EXTERNAL\n     * @param _rate  ocoin (denomination currency) // 0-eth 1-gascoin 2-xCur 2-yCur >4-usdc\n     * denomination currency can be set in setCurr()\n     * @return _setRate // ocoin name as enum Coins\n     */\n    function setRate(uint256 _rate) external onlyOwner returns (uint256) {\n        return _setRate(_rate);\n    }\n\n    /**\n     * @dev sets the max supply\n     * @param // EXTERNAL only owner\n     * @param _newSupply  ocoin (denomination currency) // 0-eth 1-gascoin 2-xCur 2-yCur >4-usdc\n     * denomination currency can be set in setCurr()\n     * @return Max Supply\n     */\n    function setMaxSupply(uint256 _newSupply)\n        external\n        onlyOwner\n        returns (uint256)\n    {\n        return MAX_SUPPLY = _newSupply;\n    }\n\n    /**\n     * @dev burn function for token holders only for burnable contracts\n     * @param _amount of tokens to burn // EXTERNAL\n     */\n    function burn(uint256 _amount) public override {\n        if (burns == false) revert();\n        _burn(msg.sender, _amount);\n    }\n\n    /**\n     * @dev toggle the pausable functionality on the contract\n     * @return pausable state of contract\n     */\n    function togglePause() public onlyOwner returns (bool) {\n        return pauses = !pauses;\n    }\n\n    /**\n     * @dev toggle the burnable functionality on the contract\n     * @return burnable state of contract\n     */\n    function toggleBurn() public onlyOwner returns (bool) {\n        return burns = !burns;\n    }\n\n    /**\n     * @dev if contract pauses the state get checked and toggled via condition to opposite state\n     * @return active state of contract (true = paused / false = active)\n     */\n    function toggleState() public onlyOwner returns (bool) {\n        if (pauses == false) revert();\n        if (paused()) _unpause();\n        else _pause();\n        return paused();\n    }\n\n    /**\n     * @dev buy function for token holders\n     * @param _amount of tokens to mint // EXTERNAL\n     * @return uint total price\n     */\n    function buyTokens(uint256 _amount) external payable returns (uint256) {\n        if (msg.value <= _amount * rate) revert();\n        if ((MAX_SUPPLY - PUB_SUPPLY) - (_amount * 10**18) < 0) revert();\n        _mint(msg.sender, _amount * 10**18);\n        return _amount * rate;\n    }\n\n    /**\n     * @dev recieve function returns tokens on gascoin transfer to contract\n     */\n\n    receive() external payable {\n        // condition\n        _rcMint();\n    }\n\n    /**\n     * @dev recieve function returns tokens on gascoin and/or tokens transfer to contract\n     */\n    fallback() external payable {\n        // condition\n        // _rcMint();\n    }\n\n    /**\n     * @dev does mint  in exchange for gascoin action on recieve() and fallback()\n     */\n    function _rcMint() internal {\n        uint256 amount = msg.value / rate;\n        _mint(msg.sender, amount);\n    }\n}\n\ncontract iii6CoinModelDrop is iii6CoinModel {\n    /**\n     * @dev creates an instance of iii6CoinModel\n     * @param _name token name\n     * @param _sym token symbol\n     * @param _rate token rate\n     * @param _supply max token supply // if 0-infinte\n     * @param _burn bool burnable\n     * @param _pause bool pauseble\n     * @param _curr denomintaor currency // 0-eth 1-gascoin 2-xCur 2-yCur >4-usdc\n     */\n    constructor(\n        string memory _name,\n        string memory _sym,\n        uint256 _rate,\n        uint256 _supply,\n        bool _burn,\n        bool _pause,\n        uint256 _curr\n    ) iii6CoinModel(_name, _sym, _rate, _supply, _burn, _pause) {}\n\n    /**\n     * @dev Drops users 100 Full Tokens For testnets only\n     */\n    function dropToken() external {\n        _mint(msg.sender, 100 * 10**18);\n    }\n}\n// // // // // // // // // // // // // // // // // // // // // // // // // // // // // // // // // // // // // // // // // // // // // // // // // // // // // // // // // // // // //\n//\n//      MMWKd:..                                                                                    ..:dKWMM\n//      MKl.                                                                                            .lKW\n//      O'       ..''''''''''''.     .''''''.     .'''''.      .''''''''''''''.     .''''''''''''..       'O\n//      '     .ckKNNWNWWWWWWWWWk.   .xNWWNWNl    ,0WWWWW0,     lNWWWWWWWWWNWNk'    ;0NNNWWWWWWWWNNKkc.     '\n//           ,OWMMMMMMMMMMMMMMMO.   .kMMMMMWl    ,KMMMMMK,     lWMMMMMMMMMMM0,    ;KMMMMMMMMMMMMMMMMWO,\n//          .kMMMMMMMMMMMMMMMMMO.   .kMMMMMWl    ,KMMMMMK,     lWMMMMMMMMMM0,    ;KMMMMMMMMMMMMMMMMMMMk.\n//          '0MMMMMMMMMMMMMMMMMO.   .kMMMMMWl    ,KMMMMMK,     lWMMMMMMMMM0,    :KMMMMMMMMMMMMMMMMMMMM0'\n//          '0MMMMMMMMMMMMMMMMMO.   .kMMMMMWl    ,KMMMMMK,     lWMMMMMMMM0,    :KMMMMMMMMMMMMMMMMMMMMM0'\n//          '0MMMMMMMMMMMMMMMMMO.   .kMMMMMWl    ,KMMMMMK,     lWMMMMMMM0,    ;0NNWWMMMMMMMMMMMMMMMMMM0'\n//          '0MMMMMMMMMMMMMMMMMO.   .kMMMMMWl    ,KMMMMMK,     lWMMMMMM0,     .'.',;lkNMMMMMMMMMMMMMMM0'\n//          '0MMMMMMMMMMMMMMMMMO.   .kMMMMMWl    ,KMMMMMK,     lWMMMMMK;              ,kWMMMMMMMMMMMMM0'\n//          '0MMMMMMMMMMMMMMMMMO.   .kMMMMMWl    ,KMMMMMK,     lWMMMMX:    .:oxxdc'    .dWMMMMMMMMMMMM0'\n//          '0MMMMMMMMMMMMMMMMMO.   .kMMMMMWl    ,KMMMMMK,     lWMMMWd.   ,OWMMMMMXl.   '0MMMMMMMMMMMM0'\n//          '0MMMMMMMMMMMMMMMMMO.   .kMMMMMWl    ,KMMMMMK,     lWMMMX;   .kMMMMMMMMK,   .xMMMMMMMMMMMM0'\n//          '0MMMMMMMMMMMMMMMMMO.   .kMMMMMWl    ,KMMMMMK,     lWMMM0'   .OMMMMMMMMX;   .xMMMMMMMMMMMM0'\n//          .OMMMMMMMMMMMMMMMMMO.   .kMMMMMWl    ,KMMMMMK,     lWMMMK,    lNMMMMMMWx.   '0MMMMMMMMMMMMO.\n//           lNMMMMMMMMMMMMMMMMO.   .kMMMMMWl    ,KMMMMMK,     lWMMMWd.   .:x0KKKkc.   .dWMMMMMMMMMMMNl\n//      .    .c0WMMMMMMMMMMMMMMO.   .kMMMMMWo    ,KMMMMMK,     lWMMMMNd.     ....     .xNMMMMMMMMMMW0c.    .\n//      l      .,lddxxxxxxxxxxxc.    :xxxxxd,    .lxxxxxl.     ,dxxxxxd:.            .cdxxxxxxxxddl,.      l\n//      No.                                                                                              .oN\n//      MW0l'                                                                                          'l0WM\n//      MMMWKd;.                                                                                    .;dKWMMM\n//\n// // // // // // // // // // // // // // // // // // // // // // // // // // // // // // // // // // // // // // // // // // // // // // // // // // // // // // // // // // // // //\n",
  "sourcePath": "/Users/iii6/Documents/GitHub/Gamble360/contracts/iii6Utils/Assets/iii6CoinModel.sol",
  "compiler": {
    "name": "solc",
    "version": "0.8.23+commit.f704f362.Emscripten.clang"
  },
  "schemaVersion": "3.4.16",
  "updatedAt": "2023-11-09T15:24:52.368Z",
  "devdoc": {
    "events": {
      "Approval(address,address,uint256)": {
        "details": "Emitted when the allowance of a `spender` for an `owner` is set by a call to {approve}. `value` is the new allowance."
      },
      "Paused(address)": {
        "details": "Emitted when the pause is triggered by `account`."
      },
      "Transfer(address,address,uint256)": {
        "details": "Emitted when `value` tokens are moved from one account (`from`) to another (`to`). Note that `value` may be zero."
      },
      "Unpaused(address)": {
        "details": "Emitted when the pause is lifted by `account`."
      }
    },
    "kind": "dev",
    "methods": {
      "allowance(address,address)": {
        "details": "See {IERC20-allowance}."
      },
      "approve(address,uint256)": {
        "details": "See {IERC20-approve}. NOTE: If `amount` is the maximum `uint256`, the allowance is not updated on `transferFrom`. This is semantically equivalent to an infinite approval. Requirements: - `spender` cannot be the zero address."
      },
      "balanceOf(address)": {
        "details": "See {IERC20-balanceOf}."
      },
      "burn(uint256)": {
        "details": "burn function for token holders only for burnable contracts",
        "params": {
          "_amount": "of tokens to burn // EXTERNAL"
        }
      },
      "burnFrom(address,uint256)": {
        "details": "Destroys `amount` tokens from `account`, deducting from the caller's allowance. See {ERC20-_burn} and {ERC20-allowance}. Requirements: - the caller must have allowance for ``accounts``'s tokens of at least `amount`."
      },
      "buyTokens(uint256)": {
        "details": "buy function for token holders",
        "params": {
          "_amount": "of tokens to mint // EXTERNAL"
        },
        "returns": {
          "_0": "uint total price"
        }
      },
      "constructor": {
        "details": "creates an instance of iii6CoinModel",
        "params": {
          "_burn": "bool burnable",
          "_curr": "denomintaor currency // 0-eth 1-gascoin 2-xCur 2-yCur >4-usdc",
          "_name": "token name",
          "_pause": "bool pauseble",
          "_rate": "token rate",
          "_supply": "max token supply // if 0-infinte",
          "_sym": "token symbol"
        }
      },
      "decimals()": {
        "details": "Returns the number of decimals used to get its user representation. For example, if `decimals` equals `2`, a balance of `505` tokens should be displayed to a user as `5.05` (`505 / 10 ** 2`). Tokens usually opt for a value of 18, imitating the relationship between Ether and Wei. This is the default value returned by this function, unless it's overridden. NOTE: This information is only used for _display_ purposes: it in no way affects any of the arithmetic of the contract, including {IERC20-balanceOf} and {IERC20-transfer}."
      },
      "decreaseAllowance(address,uint256)": {
        "details": "Atomically decreases the allowance granted to `spender` by the caller. This is an alternative to {approve} that can be used as a mitigation for problems described in {IERC20-approve}. Emits an {Approval} event indicating the updated allowance. Requirements: - `spender` cannot be the zero address. - `spender` must have allowance for the caller of at least `subtractedValue`."
      },
      "dropToken()": {
        "details": "Drops users 100 Full Tokens For testnets only"
      },
      "increaseAllowance(address,uint256)": {
        "details": "Atomically increases the allowance granted to `spender` by the caller. This is an alternative to {approve} that can be used as a mitigation for problems described in {IERC20-approve}. Emits an {Approval} event indicating the updated allowance. Requirements: - `spender` cannot be the zero address."
      },
      "name()": {
        "details": "Returns the name of the token."
      },
      "owner()": {
        "details": "Returns the address of the current owner."
      },
      "paused()": {
        "details": "Returns true if the contract is paused, and false otherwise."
      },
      "renounceOwnership()": {
        "details": "Leaves the contract without owner. It will not be possible to call `onlyOwner` functions. Can only be called by the current owner. NOTE: Renouncing ownership will leave the contract without an owner, thereby disabling any functionality that is only available to the owner."
      },
      "setMaxSupply(uint256)": {
        "details": "sets the max supply",
        "params": {
          "": "// EXTERNAL only owner",
          "_newSupply": "ocoin (denomination currency) // 0-eth 1-gascoin 2-xCur 2-yCur >4-usdc denomination currency can be set in setCurr()"
        },
        "returns": {
          "_0": "Max Supply"
        }
      },
      "setRate(uint256)": {
        "details": "sets the rate of currency in denomination currencycheck the ocoin for its state to determine what value to type in",
        "params": {
          "": "// EXTERNAL",
          "_rate": "ocoin (denomination currency) // 0-eth 1-gascoin 2-xCur 2-yCur >4-usdc denomination currency can be set in setCurr()"
        },
        "returns": {
          "_0": "_setRate // ocoin name as enum Coins"
        }
      },
      "symbol()": {
        "details": "Returns the symbol of the token, usually a shorter version of the name."
      },
      "toggleBurn()": {
        "details": "toggle the burnable functionality on the contract",
        "returns": {
          "_0": "burnable state of contract"
        }
      },
      "togglePause()": {
        "details": "toggle the pausable functionality on the contract",
        "returns": {
          "_0": "pausable state of contract"
        }
      },
      "toggleState()": {
        "details": "if contract pauses the state get checked and toggled via condition to opposite state",
        "returns": {
          "_0": "active state of contract (true = paused / false = active)"
        }
      },
      "totalSupply()": {
        "details": "See {IERC20-totalSupply}."
      },
      "transfer(address,uint256)": {
        "details": "See {IERC20-transfer}. Requirements: - `to` cannot be the zero address. - the caller must have a balance of at least `amount`."
      },
      "transferFrom(address,address,uint256)": {
        "details": "See {IERC20-transferFrom}. Emits an {Approval} event indicating the updated allowance. This is not required by the EIP. See the note at the beginning of {ERC20}. NOTE: Does not update the allowance if the current allowance is the maximum `uint256`. Requirements: - `from` and `to` cannot be the zero address. - `from` must have a balance of at least `amount`. - the caller must have allowance for ``from``'s tokens of at least `amount`."
      },
      "transferOwnership(address)": {
        "details": "Transfers ownership of the contract to a new account (`newOwner`). Can only be called by the current owner."
      }
    },
    "version": 1
  },
  "userdoc": {
    "kind": "user",
    "methods": {},
    "version": 1
  }
}