{
  "contractName": "iii6CoinFactory",
  "abi": [
    {
      "inputs": [],
      "stateMutability": "nonpayable",
      "type": "constructor"
    },
    {
      "inputs": [],
      "name": "COIN_USD",
      "outputs": [
        {
          "internalType": "uint256",
          "name": "",
          "type": "uint256"
        }
      ],
      "stateMutability": "view",
      "type": "function"
    },
    {
      "inputs": [],
      "name": "ETH_USD",
      "outputs": [
        {
          "internalType": "uint256",
          "name": "",
          "type": "uint256"
        }
      ],
      "stateMutability": "view",
      "type": "function"
    },
    {
      "inputs": [],
      "name": "X_USD",
      "outputs": [
        {
          "internalType": "uint256",
          "name": "",
          "type": "uint256"
        }
      ],
      "stateMutability": "view",
      "type": "function"
    },
    {
      "inputs": [],
      "name": "Y_USD",
      "outputs": [
        {
          "internalType": "uint256",
          "name": "",
          "type": "uint256"
        }
      ],
      "stateMutability": "view",
      "type": "function"
    },
    {
      "inputs": [
        {
          "internalType": "uint256",
          "name": "_amt",
          "type": "uint256"
        }
      ],
      "name": "coinPriceOfEth",
      "outputs": [
        {
          "internalType": "uint256",
          "name": "",
          "type": "uint256"
        }
      ],
      "stateMutability": "view",
      "type": "function"
    },
    {
      "inputs": [
        {
          "internalType": "uint256",
          "name": "_amt",
          "type": "uint256"
        }
      ],
      "name": "coinPriceOfUSD",
      "outputs": [
        {
          "internalType": "uint256",
          "name": "",
          "type": "uint256"
        }
      ],
      "stateMutability": "view",
      "type": "function"
    },
    {
      "inputs": [
        {
          "internalType": "uint256",
          "name": "_amt",
          "type": "uint256"
        }
      ],
      "name": "coinPriceOfX",
      "outputs": [
        {
          "internalType": "uint256",
          "name": "",
          "type": "uint256"
        }
      ],
      "stateMutability": "view",
      "type": "function"
    },
    {
      "inputs": [
        {
          "internalType": "uint256",
          "name": "_amt",
          "type": "uint256"
        }
      ],
      "name": "coinPriceOfY",
      "outputs": [
        {
          "internalType": "uint256",
          "name": "",
          "type": "uint256"
        }
      ],
      "stateMutability": "view",
      "type": "function"
    },
    {
      "inputs": [
        {
          "internalType": "uint256",
          "name": "_amt",
          "type": "uint256"
        }
      ],
      "name": "ethPriceOfUSD",
      "outputs": [
        {
          "internalType": "uint256",
          "name": "",
          "type": "uint256"
        }
      ],
      "stateMutability": "view",
      "type": "function"
    },
    {
      "inputs": [],
      "name": "getCoinPriceInEth",
      "outputs": [
        {
          "internalType": "uint256",
          "name": "coinPriceEth",
          "type": "uint256"
        }
      ],
      "stateMutability": "view",
      "type": "function"
    },
    {
      "inputs": [],
      "name": "getCoinPriceInX",
      "outputs": [
        {
          "internalType": "uint256",
          "name": "coinPriceX",
          "type": "uint256"
        }
      ],
      "stateMutability": "view",
      "type": "function"
    },
    {
      "inputs": [],
      "name": "getCoinPriceInY",
      "outputs": [
        {
          "internalType": "uint256",
          "name": "coinPriceY",
          "type": "uint256"
        }
      ],
      "stateMutability": "view",
      "type": "function"
    },
    {
      "inputs": [],
      "name": "getEthPriceInCoin",
      "outputs": [
        {
          "internalType": "uint256",
          "name": "ethPriceCoin",
          "type": "uint256"
        }
      ],
      "stateMutability": "view",
      "type": "function"
    },
    {
      "inputs": [],
      "name": "getEthPriceInX",
      "outputs": [
        {
          "internalType": "uint256",
          "name": "ethPriceX",
          "type": "uint256"
        }
      ],
      "stateMutability": "view",
      "type": "function"
    },
    {
      "inputs": [],
      "name": "getEthPriceInY",
      "outputs": [
        {
          "internalType": "uint256",
          "name": "ethPriceY",
          "type": "uint256"
        }
      ],
      "stateMutability": "view",
      "type": "function"
    },
    {
      "inputs": [],
      "name": "getXPriceInCoin",
      "outputs": [
        {
          "internalType": "uint256",
          "name": "xPriceCoin",
          "type": "uint256"
        }
      ],
      "stateMutability": "view",
      "type": "function"
    },
    {
      "inputs": [],
      "name": "getXPriceInEth",
      "outputs": [
        {
          "internalType": "uint256",
          "name": "xPriceEth",
          "type": "uint256"
        }
      ],
      "stateMutability": "view",
      "type": "function"
    },
    {
      "inputs": [],
      "name": "getXPriceInY",
      "outputs": [
        {
          "internalType": "uint256",
          "name": "xPriceY",
          "type": "uint256"
        }
      ],
      "stateMutability": "view",
      "type": "function"
    },
    {
      "inputs": [],
      "name": "getYPriceInCoin",
      "outputs": [
        {
          "internalType": "uint256",
          "name": "yPriceCoin",
          "type": "uint256"
        }
      ],
      "stateMutability": "view",
      "type": "function"
    },
    {
      "inputs": [],
      "name": "getYPriceInEth",
      "outputs": [
        {
          "internalType": "uint256",
          "name": "yPriceEth",
          "type": "uint256"
        }
      ],
      "stateMutability": "view",
      "type": "function"
    },
    {
      "inputs": [],
      "name": "getYPriceInX",
      "outputs": [
        {
          "internalType": "uint256",
          "name": "yPriceX",
          "type": "uint256"
        }
      ],
      "stateMutability": "view",
      "type": "function"
    },
    {
      "inputs": [
        {
          "internalType": "address",
          "name": "",
          "type": "address"
        }
      ],
      "name": "mp",
      "outputs": [
        {
          "internalType": "uint256",
          "name": "",
          "type": "uint256"
        }
      ],
      "stateMutability": "view",
      "type": "function"
    },
    {
      "inputs": [
        {
          "internalType": "address",
          "name": "",
          "type": "address"
        },
        {
          "internalType": "uint256",
          "name": "",
          "type": "uint256"
        }
      ],
      "name": "myProjects",
      "outputs": [
        {
          "internalType": "address",
          "name": "",
          "type": "address"
        }
      ],
      "stateMutability": "view",
      "type": "function"
    },
    {
      "inputs": [],
      "name": "p",
      "outputs": [
        {
          "internalType": "uint256",
          "name": "",
          "type": "uint256"
        }
      ],
      "stateMutability": "view",
      "type": "function"
    },
    {
      "inputs": [
        {
          "internalType": "uint256",
          "name": "",
          "type": "uint256"
        }
      ],
      "name": "projects",
      "outputs": [
        {
          "internalType": "address",
          "name": "",
          "type": "address"
        }
      ],
      "stateMutability": "view",
      "type": "function"
    },
    {
      "inputs": [
        {
          "internalType": "address",
          "name": "_oracle",
          "type": "address"
        },
        {
          "internalType": "uint256",
          "name": "_digits",
          "type": "uint256"
        }
      ],
      "name": "setX",
      "outputs": [
        {
          "internalType": "bool",
          "name": "",
          "type": "bool"
        }
      ],
      "stateMutability": "nonpayable",
      "type": "function"
    },
    {
      "inputs": [
        {
          "internalType": "address",
          "name": "_oracle",
          "type": "address"
        },
        {
          "internalType": "uint256",
          "name": "_digits",
          "type": "uint256"
        }
      ],
      "name": "setY",
      "outputs": [
        {
          "internalType": "bool",
          "name": "",
          "type": "bool"
        }
      ],
      "stateMutability": "nonpayable",
      "type": "function"
    },
    {
      "inputs": [
        {
          "internalType": "uint256",
          "name": "_amt",
          "type": "uint256"
        }
      ],
      "name": "xPriceOfUSD",
      "outputs": [
        {
          "internalType": "uint256",
          "name": "",
          "type": "uint256"
        }
      ],
      "stateMutability": "view",
      "type": "function"
    },
    {
      "inputs": [
        {
          "internalType": "uint256",
          "name": "_amt",
          "type": "uint256"
        }
      ],
      "name": "yPriceOfUSD",
      "outputs": [
        {
          "internalType": "uint256",
          "name": "",
          "type": "uint256"
        }
      ],
      "stateMutability": "view",
      "type": "function"
    },
    {
      "inputs": [
        {
          "internalType": "string",
          "name": "_name",
          "type": "string"
        },
        {
          "internalType": "string",
          "name": "_sym",
          "type": "string"
        },
        {
          "internalType": "uint256",
          "name": "_rate",
          "type": "uint256"
        },
        {
          "internalType": "uint256",
          "name": "_supply",
          "type": "uint256"
        },
        {
          "internalType": "bool",
          "name": "_burn",
          "type": "bool"
        },
        {
          "internalType": "bool",
          "name": "_pause",
          "type": "bool"
        }
      ],
      "name": "buildERC20Token",
      "outputs": [
        {
          "internalType": "address",
          "name": "",
          "type": "address"
        }
      ],
      "stateMutability": "payable",
      "type": "function"
    }
  ],
  "bytecode": "0x608060405234801561000f575f80fd5b50600146036100705773e47da91495c75e1d48569f343938380d8303b1f25f806101000a81548173ffffffffffffffffffffffffffffffffffffffff021916908373ffffffffffffffffffffffffffffffffffffffff160217905550610191565b600546036100d05773e47da91495c75e1d48569f343938380d8303b1f25f806101000a81548173ffffffffffffffffffffffffffffffffffffffff021916908373ffffffffffffffffffffffffffffffffffffffff160217905550610190565b608946036101305773e47da91495c75e1d48569f343938380d8303b1f25f806101000a81548173ffffffffffffffffffffffffffffffffffffffff021916908373ffffffffffffffffffffffffffffffffffffffff16021790555061018f565b62013881460361018e5773e47da91495c75e1d48569f343938380d8303b1f25f806101000a81548173ffffffffffffffffffffffffffffffffffffffff021916908373ffffffffffffffffffffffffffffffffffffffff1602179055505b5b5b5b652d79883d20006003819055506146cb80620001ac5f395ff3fe608060405260043610620001f9575f3560e01c80637d670117116200010e578063bec9908e11620000a2578063e12ef5ed116200006c578063e12ef5ed1462000792578063e2ab781314620007c1578063e9f38fc51462000804578063f42fff01146200084757620001f9565b8063bec9908e14620006c2578063d1381f4e14620006f1578063d21b87201462000734578063e04777af146200076357620001f9565b80638dff74a711620000e45780638dff74a714620005ff57806392c49086146200062e57806396af428a14620006645780639ae8886a146200069357620001f9565b80637d670117146200054a57806387434dcd14620005795780638d4a8ffe14620005bc57620001f9565b80634459194611620001925780636260f55b116200015c5780636260f55b146200047a5780636a443b5914620004a957806379d79fcc14620004d85780637afcc7a4146200050757620001f9565b806344591946146200039657806348cf734d14620003c55780634a2ad99f14620003f457806352da887a146200043757620001f9565b8063106581aa11620001d4578063106581aa14620002b2578063107046bd14620002f5578063287ead9e146200033857806329d7a0bd146200036757620001f9565b8063033a7a0214620001fd578063054dca2a14620002405780630b4185ea146200026f575b5f80fd5b34801562000209575f80fd5b50620002286004803603810190620002229190620013f5565b62000876565b60405162000237919062001436565b60405180910390f35b3480156200024c575f80fd5b5062000257620008c5565b60405162000266919062001436565b60405180910390f35b3480156200027b575f80fd5b506200029a6004803603810190620002949190620013f5565b62000908565b604051620002a9919062001436565b60405180910390f35b348015620002be575f80fd5b50620002dd6004803603810190620002d79190620014b2565b62000957565b604051620002ec919062001436565b60405180910390f35b34801562000301575f80fd5b506200032060048036038101906200031a9190620013f5565b6200096c565b6040516200032f9190620014f3565b60405180910390f35b34801562000344575f80fd5b506200034f6200099c565b6040516200035e919062001436565b60405180910390f35b34801562000373575f80fd5b506200037e620009df565b6040516200038d919062001436565b60405180910390f35b348015620003a2575f80fd5b50620003ad62000a22565b604051620003bc919062001436565b60405180910390f35b348015620003d1575f80fd5b50620003dc62000a32565b604051620003eb919062001436565b60405180910390f35b34801562000400575f80fd5b506200041f60048036038101906200041991906200150e565b62000a75565b6040516200042e91906200156f565b60405180910390f35b34801562000443575f80fd5b506200046260048036038101906200045c91906200150e565b62000b1e565b604051620004719190620014f3565b60405180910390f35b34801562000486575f80fd5b506200049162000b5b565b604051620004a0919062001436565b60405180910390f35b348015620004b5575f80fd5b50620004c062000b6b565b604051620004cf919062001436565b60405180910390f35b348015620004e4575f80fd5b50620004ef62000b7b565b604051620004fe919062001436565b60405180910390f35b34801562000513575f80fd5b506200053260048036038101906200052c9190620013f5565b62000b8b565b60405162000541919062001436565b60405180910390f35b34801562000556575f80fd5b506200056162000bdb565b60405162000570919062001436565b60405180910390f35b34801562000585575f80fd5b50620005a460048036038101906200059e9190620013f5565b62000beb565b604051620005b3919062001436565b60405180910390f35b348015620005c8575f80fd5b50620005e76004803603810190620005e19190620013f5565b62000c3b565b604051620005f6919062001436565b60405180910390f35b3480156200060b575f80fd5b506200061662000c8b565b60405162000625919062001436565b60405180910390f35b6200064c600480360381019062000646919062001623565b62000cce565b6040516200065b9190620014f3565b60405180910390f35b34801562000670575f80fd5b506200067b62000d73565b6040516200068a919062001436565b60405180910390f35b3480156200069f575f80fd5b50620006aa62000d83565b604051620006b9919062001436565b60405180910390f35b348015620006ce575f80fd5b50620006d962000d89565b604051620006e8919062001436565b60405180910390f35b348015620006fd575f80fd5b506200071c6004803603810190620007169190620013f5565b62000dcc565b6040516200072b919062001436565b60405180910390f35b34801562000740575f80fd5b506200074b62000e1c565b6040516200075a919062001436565b60405180910390f35b3480156200076f575f80fd5b506200077a62000e5f565b60405162000789919062001436565b60405180910390f35b3480156200079e575f80fd5b50620007a962000e6f565b604051620007b8919062001436565b60405180910390f35b348015620007cd575f80fd5b50620007ec6004803603810190620007e69190620013f5565b62000eb2565b604051620007fb919062001436565b60405180910390f35b34801562000810575f80fd5b506200082f60048036038101906200082991906200150e565b62000f02565b6040516200083e91906200156f565b60405180910390f35b34801562000853575f80fd5b506200085e62000fab565b6040516200086d919062001436565b60405180910390f35b5f806509184e72a000836200088c91906200172f565b90505f6200089962000fee565b9050620008bc670de0b6b3a764000083620008b591906200172f565b8262001088565b92505050919050565b5f80620008d1620010be565b90505f620008de62000fee565b905062000901670de0b6b3a764000083620008fa91906200172f565b8262001088565b9250505090565b5f806509184e72a000836200091e91906200172f565b90505f6200092b620010be565b90506200094e670de0b6b3a7640000836200094791906200172f565b8262001088565b92505050919050565b6006602052805f5260405f205f915090505481565b6005602052805f5260405f205f915054906101000a900473ffffffffffffffffffffffffffffffffffffffff1681565b5f80620009a862000fee565b90505f620009b562001158565b9050620009d8670de0b6b3a764000083620009d191906200172f565b8262001088565b9250505090565b5f80620009eb620010be565b90505f620009f8620011f2565b905062000a1b670de0b6b3a76400008362000a1491906200172f565b8262001088565b9250505090565b5f62000a2d62000fee565b905090565b5f8062000a3e620010be565b90505f62000a4b62001158565b905062000a6e670de0b6b3a76400008362000a6791906200172f565b8262001088565b9250505090565b5f805f9054906101000a900473ffffffffffffffffffffffffffffffffffffffff1673ffffffffffffffffffffffffffffffffffffffff16634a2ad99f84846040518363ffffffff1660e01b815260040162000ad392919062001779565b6020604051808303815f875af115801562000af0573d5f803e3d5ffd5b505050506040513d601f19601f8201168201806040525081019062000b169190620017ba565b905092915050565b6007602052815f5260405f20602052805f5260405f205f915091509054906101000a900473ffffffffffffffffffffffffffffffffffffffff1681565b5f62000b66620010be565b905090565b5f62000b766200128c565b905090565b5f62000b86620012cf565b905090565b5f80662386f26fc100008362000ba291906200172f565b90505f62000baf620012cf565b905062000bd2670de0b6b3a76400008362000bcb91906200172f565b8262001088565b92505050919050565b5f62000be662001312565b905090565b5f80662386f26fc100008362000c0291906200172f565b90505f62000c0f6200128c565b905062000c32670de0b6b3a76400008362000c2b91906200172f565b8262001088565b92505050919050565b5f80662386f26fc100008362000c5291906200172f565b90505f62000c5f62001312565b905062000c82670de0b6b3a76400008362000c7b91906200172f565b8262001088565b92505050919050565b5f8062000c97620011f2565b90505f62000ca462001158565b905062000cc7670de0b6b3a76400008262000cc091906200172f565b8362001088565b9250505090565b5f62000d6589898080601f0160208091040260200160405190810160405280939291908181526020018383808284375f81840152601f19601f8201169050808301925050505050505088888080601f0160208091040260200160405190810160405280939291908181526020018383808284375f81840152601f19601f820116905080830192505050505050508787878762001355565b905098975050505050505050565b5f62000d7e62001158565b905090565b60045481565b5f8062000d95620010be565b90505f62000da262001158565b905062000dc5670de0b6b3a76400008262000dbe91906200172f565b8362001088565b9250505090565b5f80662386f26fc100008362000de391906200172f565b90505f62000df0620011f2565b905062000e13670de0b6b3a76400008362000e0c91906200172f565b8262001088565b92505050919050565b5f8062000e28620011f2565b90505f62000e3562000fee565b905062000e58670de0b6b3a76400008262000e5191906200172f565b8362001088565b9250505090565b5f62000e6a620011f2565b905090565b5f8062000e7b62000fee565b90505f62000e8862001158565b905062000eab670de0b6b3a76400008262000ea491906200172f565b8362001088565b9250505090565b5f80662386f26fc100008362000ec991906200172f565b90505f62000ed662001158565b905062000ef9670de0b6b3a76400008362000ef291906200172f565b8262001088565b92505050919050565b5f805f9054906101000a900473ffffffffffffffffffffffffffffffffffffffff1673ffffffffffffffffffffffffffffffffffffffff1663e9f38fc584846040518363ffffffff1660e01b815260040162000f6092919062001779565b6020604051808303815f875af115801562000f7d573d5f803e3d5ffd5b505050506040513d601f19601f8201168201806040525081019062000fa39190620017ba565b905092915050565b5f8062000fb7620010be565b90505f62000fc462000fee565b905062000fe7670de0b6b3a76400008262000fe091906200172f565b8362001088565b9250505090565b5f805f8054906101000a900473ffffffffffffffffffffffffffffffffffffffff1673ffffffffffffffffffffffffffffffffffffffff166396722fe56040518163ffffffff1660e01b8152600401602060405180830381865afa15801562001059573d5f803e3d5ffd5b505050506040513d601f19601f820116820180604052508101906200107f919062001822565b90508091505090565b5f8082846200109891906200187f565b9050828185620010a99190620018b6565b620010b59190620018f0565b91505092915050565b5f805f8054906101000a900473ffffffffffffffffffffffffffffffffffffffff1673ffffffffffffffffffffffffffffffffffffffff16639a18c7956040518163ffffffff1660e01b8152600401602060405180830381865afa15801562001129573d5f803e3d5ffd5b505050506040513d601f19601f820116820180604052508101906200114f919062001822565b90508091505090565b5f805f8054906101000a900473ffffffffffffffffffffffffffffffffffffffff1673ffffffffffffffffffffffffffffffffffffffff1663414641df6040518163ffffffff1660e01b8152600401602060405180830381865afa158015620011c3573d5f803e3d5ffd5b505050506040513d601f19601f82011682018060405250810190620011e9919062001822565b90508091505090565b5f805f8054906101000a900473ffffffffffffffffffffffffffffffffffffffff1673ffffffffffffffffffffffffffffffffffffffff1663f2e9bd7a6040518163ffffffff1660e01b8152600401602060405180830381865afa1580156200125d573d5f803e3d5ffd5b505050506040513d601f19601f8201168201806040525081019062001283919062001822565b90508091505090565b5f8062001298620011f2565b90505f620012a562000fee565b9050620012c8670de0b6b3a764000083620012c191906200172f565b8262001088565b9250505090565b5f80620012db620011f2565b90505f620012e862001158565b90506200130b670de0b6b3a7640000836200130491906200172f565b8262001088565b9250505090565b5f806200131e620011f2565b90505f6200132b620010be565b90506200134e670de0b6b3a7640000836200134791906200172f565b8262001088565b9250505090565b5f808787878787876040516200136b90620013a7565b6200137c96959493929190620019bb565b604051809103905ff08015801562001396573d5f803e3d5ffd5b509050809150509695505050505050565b612c618062001a3583390190565b5f80fd5b5f80fd5b5f819050919050565b620013d181620013bd565b8114620013dc575f80fd5b50565b5f81359050620013ef81620013c6565b92915050565b5f602082840312156200140d576200140c620013b5565b5b5f6200141c84828501620013df565b91505092915050565b6200143081620013bd565b82525050565b5f6020820190506200144b5f83018462001425565b92915050565b5f73ffffffffffffffffffffffffffffffffffffffff82169050919050565b5f6200147c8262001451565b9050919050565b6200148e8162001470565b811462001499575f80fd5b50565b5f81359050620014ac8162001483565b92915050565b5f60208284031215620014ca57620014c9620013b5565b5b5f620014d9848285016200149c565b91505092915050565b620014ed8162001470565b82525050565b5f602082019050620015085f830184620014e2565b92915050565b5f8060408385031215620015275762001526620013b5565b5b5f62001536858286016200149c565b92505060206200154985828601620013df565b9150509250929050565b5f8115159050919050565b620015698162001553565b82525050565b5f602082019050620015845f8301846200155e565b92915050565b5f80fd5b5f80fd5b5f80fd5b5f8083601f840112620015ae57620015ad6200158a565b5b8235905067ffffffffffffffff811115620015ce57620015cd6200158e565b5b602083019150836001820283011115620015ed57620015ec62001592565b5b9250929050565b620015ff8162001553565b81146200160a575f80fd5b50565b5f813590506200161d81620015f4565b92915050565b5f805f805f805f8060c0898b031215620016425762001641620013b5565b5b5f89013567ffffffffffffffff811115620016625762001661620013b9565b5b620016708b828c0162001596565b9850985050602089013567ffffffffffffffff811115620016965762001695620013b9565b5b620016a48b828c0162001596565b96509650506040620016b98b828c01620013df565b9450506060620016cc8b828c01620013df565b9350506080620016df8b828c016200160d565b92505060a0620016f28b828c016200160d565b9150509295985092959890939650565b7f4e487b71000000000000000000000000000000000000000000000000000000005f52601160045260245ffd5b5f6200173b82620013bd565b91506200174883620013bd565b92508282026200175881620013bd565b9150828204841483151762001772576200177162001702565b5b5092915050565b5f6040820190506200178e5f830185620014e2565b6200179d602083018462001425565b9392505050565b5f81519050620017b481620015f4565b92915050565b5f60208284031215620017d257620017d1620013b5565b5b5f620017e184828501620017a4565b91505092915050565b5f819050919050565b620017fe81620017ea565b811462001809575f80fd5b50565b5f815190506200181c81620017f3565b92915050565b5f602082840312156200183a5762001839620013b5565b5b5f62001849848285016200180c565b91505092915050565b7f4e487b71000000000000000000000000000000000000000000000000000000005f52601260045260245ffd5b5f6200188b82620013bd565b91506200189883620013bd565b925082620018ab57620018aa62001852565b5b828206905092915050565b5f620018c282620013bd565b9150620018cf83620013bd565b9250828203905081811115620018ea57620018e962001702565b5b92915050565b5f620018fc82620013bd565b91506200190983620013bd565b9250826200191c576200191b62001852565b5b828204905092915050565b5f81519050919050565b5f82825260208201905092915050565b5f5b838110156200196057808201518184015260208101905062001943565b5f8484015250505050565b5f601f19601f8301169050919050565b5f620019878262001927565b62001993818562001931565b9350620019a581856020860162001941565b620019b0816200196b565b840191505092915050565b5f60c0820190508181035f830152620019d581896200197b565b90508181036020830152620019eb81886200197b565b9050620019fc604083018762001425565b62001a0b606083018662001425565b62001a1a60808301856200155e565b62001a2960a08301846200155e565b97965050505050505056fe608060405234801562000010575f80fd5b5060405162002c6138038062002c618339818101604052810190620000369190620003eb565b85858160039081620000499190620006ef565b5080600490816200005b9190620006ef565b5050505f60055f6101000a81548160ff021916908315150217905550620000976200008b6200010860201b60201c565b6200010f60201b60201c565b620000a884620001d460201b60201c565b508260088190555085600a9081620000c19190620006ef565b508160095f6101000a81548160ff02191690831515021790555080600960016101000a81548160ff02191690831515021790555083600681905550505050505050620007d3565b5f33905090565b5f600560019054906101000a900473ffffffffffffffffffffffffffffffffffffffff16905081600560016101000a81548173ffffffffffffffffffffffffffffffffffffffff021916908373ffffffffffffffffffffffffffffffffffffffff1602179055508173ffffffffffffffffffffffffffffffffffffffff168173ffffffffffffffffffffffffffffffffffffffff167f8be0079c531659141344cd1fd0a4f28419497f9722a3daafe3b4186f6b6457e060405160405180910390a35050565b5f808290505f811015620001e6575f80fd5b806006819055915050919050565b5f604051905090565b5f80fd5b5f80fd5b5f80fd5b5f80fd5b5f601f19601f8301169050919050565b7f4e487b71000000000000000000000000000000000000000000000000000000005f52604160045260245ffd5b62000255826200020d565b810181811067ffffffffffffffff821117156200027757620002766200021d565b5b80604052505050565b5f6200028b620001f4565b90506200029982826200024a565b919050565b5f67ffffffffffffffff821115620002bb57620002ba6200021d565b5b620002c6826200020d565b9050602081019050919050565b5f5b83811015620002f2578082015181840152602081019050620002d5565b5f8484015250505050565b5f620003136200030d846200029e565b62000280565b90508281526020810184848401111562000332576200033162000209565b5b6200033f848285620002d3565b509392505050565b5f82601f8301126200035e576200035d62000205565b5b815162000370848260208601620002fd565b91505092915050565b5f819050919050565b6200038d8162000379565b811462000398575f80fd5b50565b5f81519050620003ab8162000382565b92915050565b5f8115159050919050565b620003c781620003b1565b8114620003d2575f80fd5b50565b5f81519050620003e581620003bc565b92915050565b5f805f805f8060c08789031215620004085762000407620001fd565b5b5f87015167ffffffffffffffff81111562000428576200042762000201565b5b6200043689828a0162000347565b965050602087015167ffffffffffffffff8111156200045a576200045962000201565b5b6200046889828a0162000347565b95505060406200047b89828a016200039b565b94505060606200048e89828a016200039b565b9350506080620004a189828a01620003d5565b92505060a0620004b489828a01620003d5565b9150509295509295509295565b5f81519050919050565b7f4e487b71000000000000000000000000000000000000000000000000000000005f52602260045260245ffd5b5f60028204905060018216806200051057607f821691505b602082108103620005265762000525620004cb565b5b50919050565b5f819050815f5260205f209050919050565b5f6020601f8301049050919050565b5f82821b905092915050565b5f600883026200058a7fffffffffffffffffffffffffffffffffffffffffffffffffffffffffffffffff826200054d565b6200059686836200054d565b95508019841693508086168417925050509392505050565b5f819050919050565b5f620005d7620005d1620005cb8462000379565b620005ae565b62000379565b9050919050565b5f819050919050565b620005f283620005b7565b6200060a6200060182620005de565b84845462000559565b825550505050565b5f90565b6200062062000612565b6200062d818484620005e7565b505050565b5b818110156200065457620006485f8262000616565b60018101905062000633565b5050565b601f821115620006a3576200066d816200052c565b62000678846200053e565b8101602085101562000688578190505b620006a062000697856200053e565b83018262000632565b50505b505050565b5f82821c905092915050565b5f620006c55f1984600802620006a8565b1980831691505092915050565b5f620006df8383620006b4565b9150826002028217905092915050565b620006fa82620004c1565b67ffffffffffffffff8111156200071657620007156200021d565b5b620007228254620004f8565b6200072f82828562000658565b5f60209050601f83116001811462000765575f841562000750578287015190505b6200075c8582620006d2565b865550620007cb565b601f19841662000775866200052c565b5f5b828110156200079e5784890151825560018201915060208501945060208101905062000777565b86831015620007be5784890151620007ba601f891682620006b4565b8355505b6001600288020188555050505b505050505050565b61248080620007e15f395ff3fe60806040526004361061019f575f3560e01c80635c975abb116100eb57806395d89b4111610089578063c4ae316811610063578063c4ae3168146105f4578063d37e51041461061e578063dd62ed3e14610648578063f2fde38b14610684576101ae565b806395d89b4114610552578063a457c2d71461057c578063a9059cbb146105b8576101ae565b8063715018a6116100c5578063715018a6146104c0578063778a56ce146104d657806379cc6790146105005780638da5cb5b14610528576101ae565b80635c975abb1461041e5780636f8b44b01461044857806370a0823114610484576101ae565b8063313ce567116101585780633610724e116101325780633610724e14610360578063395093511461039057806342966c68146103cc5780634a79d50c146103f4576101ae565b8063313ce567146102d057806332cb6b0c146102fa57806334fcf43714610324576101ae565b806306fdde03146101b0578063095ea7b3146101da57806318160ddd14610216578063201a49d61461024057806323b872dd1461026a5780632c4e722e146102a6576101ae565b366101ae576101ac6106ac565b005b005b3480156101bb575f80fd5b506101c46106ca565b6040516101d1919061189e565b60405180910390f35b3480156101e5575f80fd5b5061020060048036038101906101fb919061194f565b61075a565b60405161020d91906119a7565b60405180910390f35b348015610221575f80fd5b5061022a61077c565b60405161023791906119cf565b60405180910390f35b34801561024b575f80fd5b50610254610785565b60405161026191906119cf565b60405180910390f35b348015610275575f80fd5b50610290600480360381019061028b91906119e8565b61078b565b60405161029d91906119a7565b60405180910390f35b3480156102b1575f80fd5b506102ba6107b9565b6040516102c791906119cf565b60405180910390f35b3480156102db575f80fd5b506102e46107bf565b6040516102f19190611a53565b60405180910390f35b348015610305575f80fd5b5061030e6107c7565b60405161031b91906119cf565b60405180910390f35b34801561032f575f80fd5b5061034a60048036038101906103459190611a6c565b6107cd565b60405161035791906119cf565b60405180910390f35b61037a60048036038101906103759190611a6c565b6107e6565b60405161038791906119cf565b60405180910390f35b34801561039b575f80fd5b506103b660048036038101906103b1919061194f565b61086a565b6040516103c391906119a7565b60405180910390f35b3480156103d7575f80fd5b506103f260048036038101906103ed9190611a6c565b6108a0565b005b3480156103ff575f80fd5b506104086108ca565b604051610415919061189e565b60405180910390f35b348015610429575f80fd5b50610432610956565b60405161043f91906119a7565b60405180910390f35b348015610453575f80fd5b5061046e60048036038101906104699190611a6c565b61096b565b60405161047b91906119cf565b60405180910390f35b34801561048f575f80fd5b506104aa60048036038101906104a59190611a97565b610981565b6040516104b791906119cf565b60405180910390f35b3480156104cb575f80fd5b506104d46109c6565b005b3480156104e1575f80fd5b506104ea6109d9565b6040516104f791906119a7565b60405180910390f35b34801561050b575f80fd5b506105266004803603810190610521919061194f565b610a0e565b005b348015610533575f80fd5b5061053c610a2e565b6040516105499190611ad1565b60405180910390f35b34801561055d575f80fd5b50610566610a57565b604051610573919061189e565b60405180910390f35b348015610587575f80fd5b506105a2600480360381019061059d919061194f565b610ae7565b6040516105af91906119a7565b60405180910390f35b3480156105c3575f80fd5b506105de60048036038101906105d9919061194f565b610b5c565b6040516105eb91906119a7565b60405180910390f35b3480156105ff575f80fd5b50610608610b7e565b60405161061591906119a7565b60405180910390f35b348015610629575f80fd5b50610632610bb5565b60405161063f91906119a7565b60405180910390f35b348015610653575f80fd5b5061066e60048036038101906106699190611aea565b610c0c565b60405161067b91906119cf565b60405180910390f35b34801561068f575f80fd5b506106aa60048036038101906106a59190611a97565b610c8e565b005b5f600654346106bb9190611b82565b90506106c73382610d10565b50565b6060600380546106d990611bdf565b80601f016020809104026020016040519081016040528092919081815260200182805461070590611bdf565b80156107505780601f1061072757610100808354040283529160200191610750565b820191905f5260205f20905b81548152906001019060200180831161073357829003601f168201915b5050505050905090565b5f80610764610e5e565b9050610771818585610e65565b600191505092915050565b5f600254905090565b60075481565b5f80610795610e5e565b90506107a2858285611028565b6107ad8585856110b3565b60019150509392505050565b60065481565b5f6012905090565b60085481565b5f6107d661131f565b6107df8261139d565b9050919050565b5f600654826107f59190611c0f565b34116107ff575f80fd5b5f670de0b6b3a7640000836108149190611c0f565b6007546008546108249190611c50565b61082e9190611c50565b1015610838575f80fd5b61085533670de0b6b3a7640000846108509190611c0f565b610d10565b600654826108639190611c0f565b9050919050565b5f80610874610e5e565b90506108958185856108868589610c0c565b6108909190611c83565b610e65565b600191505092915050565b5f151560095f9054906101000a900460ff161515036108bd575f80fd5b6108c733826113bc565b50565b600a80546108d790611bdf565b80601f016020809104026020016040519081016040528092919081815260200182805461090390611bdf565b801561094e5780601f106109255761010080835404028352916020019161094e565b820191905f5260205f20905b81548152906001019060200180831161093157829003601f168201915b505050505081565b5f60055f9054906101000a900460ff16905090565b5f61097461131f565b8160088190559050919050565b5f805f8373ffffffffffffffffffffffffffffffffffffffff1673ffffffffffffffffffffffffffffffffffffffff1681526020019081526020015f20549050919050565b6109ce61131f565b6109d75f61157f565b565b5f6109e261131f565b60095f9054906101000a900460ff161560095f6101000a81548160ff0219169083151502179055905090565b610a2082610a1a610e5e565b83611028565b610a2a82826113bc565b5050565b5f600560019054906101000a900473ffffffffffffffffffffffffffffffffffffffff16905090565b606060048054610a6690611bdf565b80601f0160208091040260200160405190810160405280929190818152602001828054610a9290611bdf565b8015610add5780601f10610ab457610100808354040283529160200191610add565b820191905f5260205f20905b815481529060010190602001808311610ac057829003601f168201915b5050505050905090565b5f80610af1610e5e565b90505f610afe8286610c0c565b905083811015610b43576040517f08c379a0000000000000000000000000000000000000000000000000000000008152600401610b3a90611d26565b60405180910390fd5b610b508286868403610e65565b60019250505092915050565b5f80610b66610e5e565b9050610b738185856110b3565b600191505092915050565b5f610b8761131f565b600960019054906101000a900460ff1615600960016101000a81548160ff0219169083151502179055905090565b5f610bbe61131f565b5f1515600960019054906101000a900460ff16151503610bdc575f80fd5b610be4610956565b15610bf657610bf1611644565b610bff565b610bfe6116a5565b5b610c07610956565b905090565b5f60015f8473ffffffffffffffffffffffffffffffffffffffff1673ffffffffffffffffffffffffffffffffffffffff1681526020019081526020015f205f8373ffffffffffffffffffffffffffffffffffffffff1673ffffffffffffffffffffffffffffffffffffffff1681526020019081526020015f2054905092915050565b610c9661131f565b5f73ffffffffffffffffffffffffffffffffffffffff168173ffffffffffffffffffffffffffffffffffffffff1603610d04576040517f08c379a0000000000000000000000000000000000000000000000000000000008152600401610cfb90611db4565b60405180910390fd5b610d0d8161157f565b50565b5f73ffffffffffffffffffffffffffffffffffffffff168273ffffffffffffffffffffffffffffffffffffffff1603610d7e576040517f08c379a0000000000000000000000000000000000000000000000000000000008152600401610d7590611e1c565b60405180910390fd5b610d895f8383611707565b8060025f828254610d9a9190611c83565b92505081905550805f808473ffffffffffffffffffffffffffffffffffffffff1673ffffffffffffffffffffffffffffffffffffffff1681526020019081526020015f205f82825401925050819055508173ffffffffffffffffffffffffffffffffffffffff165f73ffffffffffffffffffffffffffffffffffffffff167fddf252ad1be2c89b69c2b068fc378daa952ba7f163c4a11628f55a4df523b3ef83604051610e4791906119cf565b60405180910390a3610e5a5f838361171f565b5050565b5f33905090565b5f73ffffffffffffffffffffffffffffffffffffffff168373ffffffffffffffffffffffffffffffffffffffff1603610ed3576040517f08c379a0000000000000000000000000000000000000000000000000000000008152600401610eca90611eaa565b60405180910390fd5b5f73ffffffffffffffffffffffffffffffffffffffff168273ffffffffffffffffffffffffffffffffffffffff1603610f41576040517f08c379a0000000000000000000000000000000000000000000000000000000008152600401610f3890611f38565b60405180910390fd5b8060015f8573ffffffffffffffffffffffffffffffffffffffff1673ffffffffffffffffffffffffffffffffffffffff1681526020019081526020015f205f8473ffffffffffffffffffffffffffffffffffffffff1673ffffffffffffffffffffffffffffffffffffffff1681526020019081526020015f20819055508173ffffffffffffffffffffffffffffffffffffffff168373ffffffffffffffffffffffffffffffffffffffff167f8c5be1e5ebec7d5bd14f71427d1e84f3dd0314c0f7b2291e5b200ac8c7c3b9258360405161101b91906119cf565b60405180910390a3505050565b5f6110338484610c0c565b90507fffffffffffffffffffffffffffffffffffffffffffffffffffffffffffffffff81146110ad578181101561109f576040517f08c379a000000000000000000000000000000000000000000000000000000000815260040161109690611fa0565b60405180910390fd5b6110ac8484848403610e65565b5b50505050565b5f73ffffffffffffffffffffffffffffffffffffffff168373ffffffffffffffffffffffffffffffffffffffff1603611121576040517f08c379a00000000000000000000000000000000000000000000000000000000081526004016111189061202e565b60405180910390fd5b5f73ffffffffffffffffffffffffffffffffffffffff168273ffffffffffffffffffffffffffffffffffffffff160361118f576040517f08c379a0000000000000000000000000000000000000000000000000000000008152600401611186906120bc565b60405180910390fd5b61119a838383611707565b5f805f8573ffffffffffffffffffffffffffffffffffffffff1673ffffffffffffffffffffffffffffffffffffffff1681526020019081526020015f205490508181101561121d576040517f08c379a00000000000000000000000000000000000000000000000000000000081526004016112149061214a565b60405180910390fd5b8181035f808673ffffffffffffffffffffffffffffffffffffffff1673ffffffffffffffffffffffffffffffffffffffff1681526020019081526020015f2081905550815f808573ffffffffffffffffffffffffffffffffffffffff1673ffffffffffffffffffffffffffffffffffffffff1681526020019081526020015f205f82825401925050819055508273ffffffffffffffffffffffffffffffffffffffff168473ffffffffffffffffffffffffffffffffffffffff167fddf252ad1be2c89b69c2b068fc378daa952ba7f163c4a11628f55a4df523b3ef8460405161130691906119cf565b60405180910390a361131984848461171f565b50505050565b611327610e5e565b73ffffffffffffffffffffffffffffffffffffffff16611345610a2e565b73ffffffffffffffffffffffffffffffffffffffff161461139b576040517f08c379a0000000000000000000000000000000000000000000000000000000008152600401611392906121b2565b60405180910390fd5b565b5f808290505f8110156113ae575f80fd5b806006819055915050919050565b5f73ffffffffffffffffffffffffffffffffffffffff168273ffffffffffffffffffffffffffffffffffffffff160361142a576040517f08c379a000000000000000000000000000000000000000000000000000000000815260040161142190612240565b60405180910390fd5b611435825f83611707565b5f805f8473ffffffffffffffffffffffffffffffffffffffff1673ffffffffffffffffffffffffffffffffffffffff1681526020019081526020015f20549050818110156114b8576040517f08c379a00000000000000000000000000000000000000000000000000000000081526004016114af906122ce565b60405180910390fd5b8181035f808573ffffffffffffffffffffffffffffffffffffffff1673ffffffffffffffffffffffffffffffffffffffff1681526020019081526020015f20819055508160025f82825403925050819055505f73ffffffffffffffffffffffffffffffffffffffff168373ffffffffffffffffffffffffffffffffffffffff167fddf252ad1be2c89b69c2b068fc378daa952ba7f163c4a11628f55a4df523b3ef8460405161156791906119cf565b60405180910390a361157a835f8461171f565b505050565b5f600560019054906101000a900473ffffffffffffffffffffffffffffffffffffffff16905081600560016101000a81548173ffffffffffffffffffffffffffffffffffffffff021916908373ffffffffffffffffffffffffffffffffffffffff1602179055508173ffffffffffffffffffffffffffffffffffffffff168173ffffffffffffffffffffffffffffffffffffffff167f8be0079c531659141344cd1fd0a4f28419497f9722a3daafe3b4186f6b6457e060405160405180910390a35050565b61164c611724565b5f60055f6101000a81548160ff0219169083151502179055507f5db9ee0a495bf2e6ff9c91a7834c1ba4fdd244a5e8aa4e537bd38aeae4b073aa61168e610e5e565b60405161169b9190611ad1565b60405180910390a1565b6116ad61176d565b600160055f6101000a81548160ff0219169083151502179055507f62e78cea01bee320cd4e420270b5ea74000d11b0c9f74754ebdbfc544b05a2586116f0610e5e565b6040516116fd9190611ad1565b60405180910390a1565b61170f61176d565b61171a8383836117b7565b505050565b505050565b61172c610956565b61176b576040517f08c379a000000000000000000000000000000000000000000000000000000000815260040161176290612336565b60405180910390fd5b565b611775610956565b156117b5576040517f08c379a00000000000000000000000000000000000000000000000000000000081526004016117ac9061239e565b60405180910390fd5b565b6117c283838361180f565b6117ca610956565b1561180a576040517f08c379a00000000000000000000000000000000000000000000000000000000081526004016118019061242c565b60405180910390fd5b505050565b505050565b5f81519050919050565b5f82825260208201905092915050565b5f5b8381101561184b578082015181840152602081019050611830565b5f8484015250505050565b5f601f19601f8301169050919050565b5f61187082611814565b61187a818561181e565b935061188a81856020860161182e565b61189381611856565b840191505092915050565b5f6020820190508181035f8301526118b68184611866565b905092915050565b5f80fd5b5f73ffffffffffffffffffffffffffffffffffffffff82169050919050565b5f6118eb826118c2565b9050919050565b6118fb816118e1565b8114611905575f80fd5b50565b5f81359050611916816118f2565b92915050565b5f819050919050565b61192e8161191c565b8114611938575f80fd5b50565b5f8135905061194981611925565b92915050565b5f8060408385031215611965576119646118be565b5b5f61197285828601611908565b92505060206119838582860161193b565b9150509250929050565b5f8115159050919050565b6119a18161198d565b82525050565b5f6020820190506119ba5f830184611998565b92915050565b6119c98161191c565b82525050565b5f6020820190506119e25f8301846119c0565b92915050565b5f805f606084860312156119ff576119fe6118be565b5b5f611a0c86828701611908565b9350506020611a1d86828701611908565b9250506040611a2e8682870161193b565b9150509250925092565b5f60ff82169050919050565b611a4d81611a38565b82525050565b5f602082019050611a665f830184611a44565b92915050565b5f60208284031215611a8157611a806118be565b5b5f611a8e8482850161193b565b91505092915050565b5f60208284031215611aac57611aab6118be565b5b5f611ab984828501611908565b91505092915050565b611acb816118e1565b82525050565b5f602082019050611ae45f830184611ac2565b92915050565b5f8060408385031215611b0057611aff6118be565b5b5f611b0d85828601611908565b9250506020611b1e85828601611908565b9150509250929050565b7f4e487b71000000000000000000000000000000000000000000000000000000005f52601260045260245ffd5b7f4e487b71000000000000000000000000000000000000000000000000000000005f52601160045260245ffd5b5f611b8c8261191c565b9150611b978361191c565b925082611ba757611ba6611b28565b5b828204905092915050565b7f4e487b71000000000000000000000000000000000000000000000000000000005f52602260045260245ffd5b5f6002820490506001821680611bf657607f821691505b602082108103611c0957611c08611bb2565b5b50919050565b5f611c198261191c565b9150611c248361191c565b9250828202611c328161191c565b91508282048414831517611c4957611c48611b55565b5b5092915050565b5f611c5a8261191c565b9150611c658361191c565b9250828203905081811115611c7d57611c7c611b55565b5b92915050565b5f611c8d8261191c565b9150611c988361191c565b9250828201905080821115611cb057611caf611b55565b5b92915050565b7f45524332303a2064656372656173656420616c6c6f77616e63652062656c6f775f8201527f207a65726f000000000000000000000000000000000000000000000000000000602082015250565b5f611d1060258361181e565b9150611d1b82611cb6565b604082019050919050565b5f6020820190508181035f830152611d3d81611d04565b9050919050565b7f4f776e61626c653a206e6577206f776e657220697320746865207a65726f20615f8201527f6464726573730000000000000000000000000000000000000000000000000000602082015250565b5f611d9e60268361181e565b9150611da982611d44565b604082019050919050565b5f6020820190508181035f830152611dcb81611d92565b9050919050565b7f45524332303a206d696e7420746f20746865207a65726f2061646472657373005f82015250565b5f611e06601f8361181e565b9150611e1182611dd2565b602082019050919050565b5f6020820190508181035f830152611e3381611dfa565b9050919050565b7f45524332303a20617070726f76652066726f6d20746865207a65726f206164645f8201527f7265737300000000000000000000000000000000000000000000000000000000602082015250565b5f611e9460248361181e565b9150611e9f82611e3a565b604082019050919050565b5f6020820190508181035f830152611ec181611e88565b9050919050565b7f45524332303a20617070726f766520746f20746865207a65726f2061646472655f8201527f7373000000000000000000000000000000000000000000000000000000000000602082015250565b5f611f2260228361181e565b9150611f2d82611ec8565b604082019050919050565b5f6020820190508181035f830152611f4f81611f16565b9050919050565b7f45524332303a20696e73756666696369656e7420616c6c6f77616e63650000005f82015250565b5f611f8a601d8361181e565b9150611f9582611f56565b602082019050919050565b5f6020820190508181035f830152611fb781611f7e565b9050919050565b7f45524332303a207472616e736665722066726f6d20746865207a65726f2061645f8201527f6472657373000000000000000000000000000000000000000000000000000000602082015250565b5f61201860258361181e565b915061202382611fbe565b604082019050919050565b5f6020820190508181035f8301526120458161200c565b9050919050565b7f45524332303a207472616e7366657220746f20746865207a65726f20616464725f8201527f6573730000000000000000000000000000000000000000000000000000000000602082015250565b5f6120a660238361181e565b91506120b18261204c565b604082019050919050565b5f6020820190508181035f8301526120d38161209a565b9050919050565b7f45524332303a207472616e7366657220616d6f756e74206578636565647320625f8201527f616c616e63650000000000000000000000000000000000000000000000000000602082015250565b5f61213460268361181e565b915061213f826120da565b604082019050919050565b5f6020820190508181035f83015261216181612128565b9050919050565b7f4f776e61626c653a2063616c6c6572206973206e6f7420746865206f776e65725f82015250565b5f61219c60208361181e565b91506121a782612168565b602082019050919050565b5f6020820190508181035f8301526121c981612190565b9050919050565b7f45524332303a206275726e2066726f6d20746865207a65726f206164647265735f8201527f7300000000000000000000000000000000000000000000000000000000000000602082015250565b5f61222a60218361181e565b9150612235826121d0565b604082019050919050565b5f6020820190508181035f8301526122578161221e565b9050919050565b7f45524332303a206275726e20616d6f756e7420657863656564732062616c616e5f8201527f6365000000000000000000000000000000000000000000000000000000000000602082015250565b5f6122b860228361181e565b91506122c38261225e565b604082019050919050565b5f6020820190508181035f8301526122e5816122ac565b9050919050565b7f5061757361626c653a206e6f74207061757365640000000000000000000000005f82015250565b5f61232060148361181e565b915061232b826122ec565b602082019050919050565b5f6020820190508181035f83015261234d81612314565b9050919050565b7f5061757361626c653a20706175736564000000000000000000000000000000005f82015250565b5f61238860108361181e565b915061239382612354565b602082019050919050565b5f6020820190508181035f8301526123b58161237c565b9050919050565b7f45524332305061757361626c653a20746f6b656e207472616e736665722077685f8201527f696c652070617573656400000000000000000000000000000000000000000000602082015250565b5f612416602a8361181e565b9150612421826123bc565b604082019050919050565b5f6020820190508181035f8301526124438161240a565b905091905056fea2646970667358221220fe79c4fcf34dcf0805e9fccd7c59ac5d7874911bdc821f7d4a0a6864d1cf924664736f6c63430008170033a26469706673582212206368b6d4eed93663466a203fd8e5d49b42674ca5b7546c711a427783dc4021bc64736f6c63430008170033",
  "immutableReferences": {},
  "source": "// SPDX-License-Identifier: GPL-3.0\n// // // // // // // // // // // // // // // // // // // // // // // // // // // // // // // // // // // // // // // // // // // // // // // // // // // // // // // // // // // // //\n//\n//      MMWKd:..                                                                                    ..:dKWMM\n//      MKl.                                                                                            .lKW\n//      O'       ..''''''''''''.     .''''''.     .'''''.      .''''''''''''''.     .''''''''''''..       'O\n//      '     .ckKNNWNWWWWWWWWWk.   .xNWWNWNl    ,0WWWWW0,     lNWWWWWWWWWNWNk'    ;0NNNWWWWWWWWNNKkc.     '\n//           ,OWMMMMMMMMMMMMMMMO.   .kMMMMMWl    ,KMMMMMK,     lWMMMMMMMMMMM0,    ;KMMMMMMMMMMMMMMMMWO,\n//          .kMMMMMMMMMMMMMMMMMO.   .kMMMMMWl    ,KMMMMMK,     lWMMMMMMMMMM0,    ;KMMMMMMMMMMMMMMMMMMMk.\n//          '0MMMMMMMMMMMMMMMMMO.   .kMMMMMWl    ,KMMMMMK,     lWMMMMMMMMM0,    :KMMMMMMMMMMMMMMMMMMMM0'\n//          '0MMMMMMMMMMMMMMMMMO.   .kMMMMMWl    ,KMMMMMK,     lWMMMMMMMM0,    :KMMMMMMMMMMMMMMMMMMMMM0'\n//          '0MMMMMMMMMMMMMMMMMO.   .kMMMMMWl    ,KMMMMMK,     lWMMMMMMM0,    ;0NNWWMMMMMMMMMMMMMMMMMM0'\n//          '0MMMMMMMMMMMMMMMMMO.   .kMMMMMWl    ,KMMMMMK,     lWMMMMMM0,     .'.',;lkNMMMMMMMMMMMMMMM0'\n//          '0MMMMMMMMMMMMMMMMMO.   .kMMMMMWl    ,KMMMMMK,     lWMMMMMK;              ,kWMMMMMMMMMMMMM0'\n//          '0MMMMMMMMMMMMMMMMMO.   .kMMMMMWl    ,KMMMMMK,     lWMMMMX:    .:oxxdc'    .dWMMMMMMMMMMMM0'\n//          '0MMMMMMMMMMMMMMMMMO.   .kMMMMMWl    ,KMMMMMK,     lWMMMWd.   ,OWMMMMMXl.   '0MMMMMMMMMMMM0'\n//          '0MMMMMMMMMMMMMMMMMO.   .kMMMMMWl    ,KMMMMMK,     lWMMMX;   .kMMMMMMMMK,   .xMMMMMMMMMMMM0'\n//          '0MMMMMMMMMMMMMMMMMO.   .kMMMMMWl    ,KMMMMMK,     lWMMM0'   .OMMMMMMMMX;   .xMMMMMMMMMMMM0'\n//          .OMMMMMMMMMMMMMMMMMO.   .kMMMMMWl    ,KMMMMMK,     lWMMMK,    lNMMMMMMWx.   '0MMMMMMMMMMMMO.\n//           lNMMMMMMMMMMMMMMMMO.   .kMMMMMWl    ,KMMMMMK,     lWMMMWd.   .:x0KKKkc.   .dWMMMMMMMMMMMNl\n//      .    .c0WMMMMMMMMMMMMMMO.   .kMMMMMWo    ,KMMMMMK,     lWMMMMNd.     ....     .xNMMMMMMMMMMW0c.    .\n//      l      .,lddxxxxxxxxxxxc.    :xxxxxd,    .lxxxxxl.     ,dxxxxxd:.            .cdxxxxxxxxddl,.      l\n//      No.                                                                                              .oN\n//      MW0l'                                                                                          'l0WM\n//      MMMWKd;.                                                                                    .;dKWMMM\n//\n// // // // // // // // // // // // // // // // // // // // // // // // // // // // // // // // // // // // // // // // // // // // // // // // // // // // // // // // // // // // //\n//                                                                                                                                                                                  //\n//      @dev            ::              Aron Mauritala Ayuk                                                                                                                                          //\n//      @msg            ::              stereo@iii6.xyz                                                                                                                                   //\n//      @github         ::              @stereoIII6\n//      @twitter        ::              @stereoIII6                                                                                                                                              //\n//                                                                                                                                                                                  //\n// // // // // // // // // // // // // // // // // // // // // // // // // // // // // // // // // // // // // // // // // // // // // // // // // // // // // // // // // // // // //\n//                                                                                                                                                                                  //\n//      @dev            ::              Juan Xavier Valverde                                                                                                                                    //\n//      @msg            ::              juanxavier@iii6.xyz                                                                                                                               //\n//      @twitter        ::              @JuanXavier                                                                                                                                             //\n//      @github         ::              @JuanXavier                                                                                                                                             //\n//                                                                                                                                                                                  //                                                                                                                                                                                 //\n// // // // // // // // // // // // // // // // // // // // // // // // // // // // // // // // // // // // // // // // // // // // // // // // // // // // // // // // // // // // //\n//  *   *   *   *   *   *   *   *   *   *   *   *   *   *   *   *   *   *   *   *   *   *   *   *   *   *   *   *   *   *   *   *   *   *   *   *   *   *   *   *   *   *   *   *   //\n// // // // // // // // // // // // // // // // // // // // // // // // // // // // // // // // // // // // // // // // // // // // // // // // // // // // // // // // // // // // //\n//                                                                                                                                                                                  //\n//      @company        ::              Fractio Holding                                                                                                                                                                       //\n//      @title          ::              iii6 Coin Factory                                                                                                                            //\n//      @description    ::              ERC721 DIA Factory Contract                                                                                                                           //\n//      @version        ::              0.0.1                                                                                                                                       //\n//      @purpose        ::              ERC721 DIA Factory                                                                                                          //\n//                                                                                                                                                                                  //\n//                                                                                                                                                                                  //\n//                                                                                                                                                                                  //\n//                                                                                                                                                                                  //\n//                                                                                                                                                                                  //\n// // // // // // // // // // // // // // // // // // // // // // // // // // // // // // // // // // // // // // // // // // // // // // // // // // // // // // // // // // // // //\n//  *   *   *   *   *   *   *   *   *   *   *   *   *   *   *   *   *   *   *   *   *   *   *   *   *   *   *   *   *   *   *   *   *   *   *   *   *   *   *   *   *   *   *   *   //\n// // // // // // // // // // // // // // // // // // // // // // // // // // // // // // // // // // // // // // // // // // // // // // // // // // // // // // // // // // // // //\n\n/////////////////////////////////////////////////////////////////////////////////////////////////////////////////////\n\n/////////////////////////////////////////////////////////////////////////////////////////////////////////////////////\n\npragma solidity ^0.8.7;\n\nimport \"./iii6CoinModel.sol\";\nimport \"../Math/iii6PriceMath.sol\";\n\ncontract iii6CoinFactory is iii6PriceMath {\n    /**\n     * @dev this contract is a model contract to be deployed through the iii6AssetFactory\n     */\n    // \n    // \n    // \n    // \n    // \n    // \n    address VRF;\n    address FEED;\n    uint256 gasSafe;\n    uint256 public p;\n    mapping(uint256 => address) public projects;\n    mapping(address => uint256) public mp;\n    mapping(address => mapping(uint256 => address)) public myProjects;\n\n    /*\n     * @dev this constructor creates a Dia NFT Token Contract\n     * @param _owner contract admin\n     * @param _name dia token name\n     * @param _max amount of tokens 0 = infinte\n     * @param _price amount of gascoin for token\n     * @param _cName name of related ERC20 token\n     * @param _cSym symbol of related ERC20 token\n     * @param _c bool if related coin exists\n     * @param _cs max supply of related ERC20 token 0 = infinite\n     * @param _rate price of related ERC20 token in gascoin\n     */\n    constructor() {\n        gasSafe = 5 * 10**13;\n    }\n\n    // function creates a ERC20 Token Contract\n    function _makeERC20Asset(\n        string memory _name,\n        string memory _sym,\n        uint256 _rate,\n        uint256 _supply,\n        bool _burn,\n        bool _pause\n    ) internal returns (address) {\n        // chose token model\n        iii6CoinModel token;\n        /**\n         * @dev creates an instance of iii6CoinModel\n         * @param _name token name\n         * @param _sym token symbol\n         * @param _rate token rate\n         * @param _supply max token supply // if 0-infinte\n         * @param _burn bool burnable\n         * @param _pause bool pauseble\n         * @return contract address\n         */\n        token = new iii6CoinModel(_name, _sym, _rate, _supply, _burn, _pause);\n        // exit with address\n        return address(token);\n    }\n\n    /**\n     * @dev creates an instance of iii6CoinModel\n     * @param _name token name\n     * @param _sym token symbol\n     * @param _rate token rate\n     * @param _supply max token supply // if 0-infinte\n     * @param _burn bool burnable\n     * @param _pause bool pauseble\n     * @return contract address\n     */\n    function buildERC20Token(\n        string calldata _name,\n        string calldata _sym,\n        uint256 _rate,\n        uint256 _supply,\n        bool _burn,\n        bool _pause\n    ) external payable returns (address) {\n        // check msg.value\n\n        // mint license\n        // make asset & exit with address\n        if (msg.value > 10**14) {\n            // address(this).transfer(safe, msg.value - gasSafe);\n        }\n        return _makeERC20Asset(_name, _sym, _rate, _supply, _burn, _pause);\n    }\n}\n",
  "sourcePath": "/Users/iii6/Documents/GitHub/Gamble360/contracts/iii6Utils/Assets/iii6CoinFactory.sol",
  "compiler": {
    "name": "solc",
    "version": "0.8.23+commit.f704f362.Emscripten.clang"
  },
  "schemaVersion": "3.4.16",
  "updatedAt": "2023-11-09T15:24:52.352Z",
  "devdoc": {
    "kind": "dev",
    "methods": {
      "COIN_USD()": {
        "details": "gets value of gascoin derived from iii6PriceConsumer => _get[...]Usdc()",
        "params": {
          "": "// EXTERNAL"
        },
        "returns": {
          "_0": "uint256 gascoin price in usdc"
        }
      },
      "ETH_USD()": {
        "details": "gets value of eth derived from INTERNAL => _get[...]Usdc()",
        "params": {
          "": "// EXTERNAL"
        },
        "returns": {
          "_0": "uint256 eth price in usdc"
        }
      },
      "X_USD()": {
        "details": "gets value of custon token x derived from iii6PriceConsumer => _get[...]Usdc()",
        "params": {
          "": "// EXTERNAL"
        },
        "returns": {
          "_0": "uint256 custon token x price in usdc"
        }
      },
      "Y_USD()": {
        "details": "gets value of custon token y derived from iii6PriceConsumer => _get[...]Usdc()",
        "params": {
          "": "// EXTERNAL"
        },
        "returns": {
          "_0": "uint256 custon token y price in usdc"
        }
      },
      "buildERC20Token(string,string,uint256,uint256,bool,bool)": {
        "details": "creates an instance of iii6CoinModel",
        "params": {
          "_burn": "bool burnable",
          "_name": "token name",
          "_pause": "bool pauseble",
          "_rate": "token rate",
          "_supply": "max token supply // if 0-infinte",
          "_sym": "token symbol"
        },
        "returns": {
          "_0": "contract address"
        }
      },
      "coinPriceOfEth(uint256)": {
        "details": "Returns price for input amount in chosen currency",
        "params": {
          "_amt": "uint256 amount of usd"
        },
        "returns": {
          "_0": "Result of division"
        }
      },
      "coinPriceOfUSD(uint256)": {
        "details": "Returns price for input amount in chosen currency",
        "params": {
          "_amt": "uint256 amount of usd"
        },
        "returns": {
          "_0": "Result of division"
        }
      },
      "coinPriceOfX(uint256)": {
        "details": "Returns price for input amount in chosen currency",
        "params": {
          "_amt": "uint256 amount of usd"
        },
        "returns": {
          "_0": "Result of division"
        }
      },
      "coinPriceOfY(uint256)": {
        "details": "Returns price for input amount in chosen currency",
        "params": {
          "_amt": "uint256 amount of usd"
        },
        "returns": {
          "_0": "Result of division"
        }
      },
      "ethPriceOfUSD(uint256)": {
        "details": "Returns price for input amount in chosen currency",
        "params": {
          "_amt": "uint256 amount of usd"
        },
        "returns": {
          "_0": "Result of division"
        }
      },
      "getCoinPriceInEth()": {
        "details": "gets value of gascoin denominated in eth derived from _get[...]Usdc()",
        "returns": {
          "coinPriceEth": "uint256 price of gascoin denominated in eth"
        }
      },
      "getCoinPriceInX()": {
        "details": "gets value of gascoin denominated in eth derived from _get[...]Usdc()",
        "returns": {
          "coinPriceX": "uint256 price of gascoin denominated in eth"
        }
      },
      "getCoinPriceInY()": {
        "details": "gets value of gascoin denominated in eth derived from _get[...]Usdc()",
        "returns": {
          "coinPriceY": "uint256 price of gascoin denominated in eth"
        }
      },
      "getEthPriceInCoin()": {
        "details": "gets value of eth denominated in gascoin derived from _get[...]Usdc()",
        "returns": {
          "ethPriceCoin": "uint256 price of eth denominated in gascoin"
        }
      },
      "getEthPriceInX()": {
        "details": "gets value of eth denominated in custom token x derived from _get[...]Usdc()",
        "returns": {
          "ethPriceX": "uint256 price of eth denominated in custom token x"
        }
      },
      "getEthPriceInY()": {
        "details": "gets value of eth denominated in custom token y derived from _get[...]Usdc()",
        "returns": {
          "ethPriceY": "uint256 price of eth denominated in custom token y"
        }
      },
      "getXPriceInCoin()": {
        "details": "gets value of gascoin denominated in eth derived from _get[...]Usdc()",
        "returns": {
          "xPriceCoin": "uint256 price of gascoin denominated in eth"
        }
      },
      "getXPriceInEth()": {
        "details": "gets value of gascoin denominated in eth derived from _get[...]Usdc()",
        "returns": {
          "xPriceEth": "uint256 price of gascoin denominated in eth"
        }
      },
      "getXPriceInY()": {
        "details": "gets value of gascoin denominated in eth derived from _get[...]Usdc()",
        "returns": {
          "xPriceY": "uint256 price of gascoin denominated in eth"
        }
      },
      "getYPriceInCoin()": {
        "details": "gets value of gascoin denominated in eth derived from _get[...]Usdc()",
        "returns": {
          "yPriceCoin": "uint256 price of gascoin denominated in eth"
        }
      },
      "getYPriceInEth()": {
        "details": "gets value of gascoin denominated in eth derived from _get[...]Usdc()",
        "returns": {
          "yPriceEth": "uint256 price of gascoin denominated in eth"
        }
      },
      "getYPriceInX()": {
        "details": "gets value of gascoin denominated in eth derived from _get[...]Usdc()",
        "returns": {
          "yPriceX": "uint256 price of gascoin denominated in eth"
        }
      },
      "setX(address,uint256)": {
        "details": "sets the oracle for custom token x and adapts digit length",
        "params": {
          "": "// EXTERNAL",
          "_digits": "number of decimals passed by oracle",
          "_oracle": "address of the chainlink pricefeed oracle contract"
        },
        "returns": {
          "_0": "bool success"
        }
      },
      "setY(address,uint256)": {
        "details": "sets the oracle for custom token y and adapts digit length",
        "params": {
          "": "// EXTERNAL",
          "_digits": "number of decimals passed by oracle",
          "_oracle": "address of the chainlink pricefeed oracle contract"
        },
        "returns": {
          "_0": "bool success"
        }
      },
      "xPriceOfUSD(uint256)": {
        "details": "Returns price for input amount in chosen currency",
        "params": {
          "_amt": "uint256 amount of usd"
        },
        "returns": {
          "_0": "Result of division"
        }
      },
      "yPriceOfUSD(uint256)": {
        "details": "Returns price for input amount in chosen currency",
        "params": {
          "_amt": "uint256 amount of usd"
        },
        "returns": {
          "_0": "Result of division"
        }
      }
    },
    "stateVariables": {
      "VRF": {
        "details": "this contract is a model contract to be deployed through the iii6AssetFactory"
      }
    },
    "version": 1
  },
  "userdoc": {
    "kind": "user",
    "methods": {},
    "version": 1
  }
}