{
  "contractName": "iii6VRFGoerli",
  "abi": [
    {
      "inputs": [
        {
          "internalType": "uint64",
          "name": "subscriptionId",
          "type": "uint64"
        }
      ],
      "stateMutability": "nonpayable",
      "type": "constructor"
    },
    {
      "inputs": [
        {
          "internalType": "address",
          "name": "have",
          "type": "address"
        },
        {
          "internalType": "address",
          "name": "want",
          "type": "address"
        }
      ],
      "name": "OnlyCoordinatorCanFulfill",
      "type": "error"
    },
    {
      "inputs": [
        {
          "internalType": "uint256",
          "name": "requestId",
          "type": "uint256"
        },
        {
          "internalType": "uint256[]",
          "name": "randomWords",
          "type": "uint256[]"
        }
      ],
      "name": "rawFulfillRandomWords",
      "outputs": [],
      "stateMutability": "nonpayable",
      "type": "function"
    },
    {
      "inputs": [],
      "name": "s_requestId",
      "outputs": [
        {
          "internalType": "uint256",
          "name": "",
          "type": "uint256"
        }
      ],
      "stateMutability": "view",
      "type": "function"
    },
    {
      "inputs": [
        {
          "internalType": "uint256",
          "name": "",
          "type": "uint256"
        }
      ],
      "name": "s_requestIdToAddress",
      "outputs": [
        {
          "internalType": "address",
          "name": "",
          "type": "address"
        }
      ],
      "stateMutability": "view",
      "type": "function"
    },
    {
      "inputs": [
        {
          "internalType": "uint256",
          "name": "",
          "type": "uint256"
        },
        {
          "internalType": "uint256",
          "name": "",
          "type": "uint256"
        }
      ],
      "name": "s_requestIdToRandomWords",
      "outputs": [
        {
          "internalType": "uint256",
          "name": "",
          "type": "uint256"
        }
      ],
      "stateMutability": "view",
      "type": "function"
    },
    {
      "inputs": [
        {
          "internalType": "uint256",
          "name": "_rid",
          "type": "uint256"
        }
      ],
      "name": "randy",
      "outputs": [
        {
          "internalType": "uint256[]",
          "name": "",
          "type": "uint256[]"
        }
      ],
      "stateMutability": "view",
      "type": "function"
    },
    {
      "inputs": [],
      "name": "requestRandomWords",
      "outputs": [
        {
          "internalType": "uint256",
          "name": "",
          "type": "uint256"
        }
      ],
      "stateMutability": "nonpayable",
      "type": "function"
    }
  ],
  "bytecode": "0x60a0604052732ca8e0c643bde4c2e08ab1fa0da3401adad7734d60065f6101000a81548173ffffffffffffffffffffffffffffffffffffffff021916908373ffffffffffffffffffffffffffffffffffffffff1602179055507f79d3d8832d904592c0bf9818b621522c988bb8b0c05cdc3b15aea1b6e8db0c155f1b600755348015610089575f80fd5b50604051610beb380380610beb83398181016040528101906100ab9190610211565b60065f9054906101000a900473ffffffffffffffffffffffffffffffffffffffff168073ffffffffffffffffffffffffffffffffffffffff1660808173ffffffffffffffffffffffffffffffffffffffff16815250505060065f9054906101000a900473ffffffffffffffffffffffffffffffffffffffff165f806101000a81548173ffffffffffffffffffffffffffffffffffffffff021916908373ffffffffffffffffffffffffffffffffffffffff1602179055503360055f6101000a81548173ffffffffffffffffffffffffffffffffffffffff021916908373ffffffffffffffffffffffffffffffffffffffff160217905550805f60146101000a81548167ffffffffffffffff021916908367ffffffffffffffff1602179055505061023c565b5f80fd5b5f67ffffffffffffffff82169050919050565b6101f0816101d4565b81146101fa575f80fd5b50565b5f8151905061020b816101e7565b92915050565b5f60208284031215610226576102256101d0565b5b5f610233848285016101fd565b91505092915050565b60805161099061025b5f395f818161014e01526101a201526109905ff3fe608060405234801561000f575f80fd5b5060043610610060575f3560e01c80631fe543e31461006457806340196e931461008057806377a60e05146100b0578063850a040c146100e0578063e0c8628914610110578063e89e106a1461012e575b5f80fd5b61007e60048036038101906100799190610615565b61014c565b005b61009a6004803603810190610095919061066f565b61020c565b6040516100a79190610751565b60405180910390f35b6100ca60048036038101906100c59190610771565b610273565b6040516100d791906107be565b60405180910390f35b6100fa60048036038101906100f5919061066f565b61029e565b6040516101079190610816565b60405180910390f35b6101186102ce565b60405161012591906107be565b60405180910390f35b6101366103eb565b60405161014391906107be565b60405180910390f35b7f000000000000000000000000000000000000000000000000000000000000000073ffffffffffffffffffffffffffffffffffffffff163373ffffffffffffffffffffffffffffffffffffffff16146101fe57337f00000000000000000000000000000000000000000000000000000000000000006040517f1cf993f40000000000000000000000000000000000000000000000000000000081526004016101f592919061082f565b60405180910390fd5b61020882826103f1565b5050565b606060025f8381526020019081526020015f2080548060200260200160405190810160405280929190818152602001828054801561026757602002820191905f5260205f20905b815481526020019060010190808311610253575b50505050509050919050565b6002602052815f5260405f20818154811061028c575f80fd5b905f5260205f20015f91509150505481565b6003602052805f5260405f205f915054906101000a900473ffffffffffffffffffffffffffffffffffffffff1681565b5f805f8054906101000a900473ffffffffffffffffffffffffffffffffffffffff1673ffffffffffffffffffffffffffffffffffffffff16635d3b1d306007545f60149054906101000a900467ffffffffffffffff166003620186a060076040518663ffffffff1660e01b815260040161034c9594939291906108ca565b6020604051808303815f875af1158015610368573d5f803e3d5ffd5b505050506040513d601f19601f8201168201806040525081019061038c919061092f565b90503360035f8381526020019081526020015f205f6101000a81548173ffffffffffffffffffffffffffffffffffffffff021916908373ffffffffffffffffffffffffffffffffffffffff160217905550806004819055508091505090565b60045481565b8060025f8481526020019081526020015f20908051906020019061041692919061041b565b505050565b828054828255905f5260205f20908101928215610455579160200282015b82811115610454578251825591602001919060010190610439565b5b5090506104629190610466565b5090565b5b8082111561047d575f815f905550600101610467565b5090565b5f604051905090565b5f80fd5b5f80fd5b5f819050919050565b6104a481610492565b81146104ae575f80fd5b50565b5f813590506104bf8161049b565b92915050565b5f80fd5b5f601f19601f8301169050919050565b7f4e487b71000000000000000000000000000000000000000000000000000000005f52604160045260245ffd5b61050f826104c9565b810181811067ffffffffffffffff8211171561052e5761052d6104d9565b5b80604052505050565b5f610540610481565b905061054c8282610506565b919050565b5f67ffffffffffffffff82111561056b5761056a6104d9565b5b602082029050602081019050919050565b5f80fd5b5f61059261058d84610551565b610537565b905080838252602082019050602084028301858111156105b5576105b461057c565b5b835b818110156105de57806105ca88826104b1565b8452602084019350506020810190506105b7565b5050509392505050565b5f82601f8301126105fc576105fb6104c5565b5b813561060c848260208601610580565b91505092915050565b5f806040838503121561062b5761062a61048a565b5b5f610638858286016104b1565b925050602083013567ffffffffffffffff8111156106595761065861048e565b5b610665858286016105e8565b9150509250929050565b5f602082840312156106845761068361048a565b5b5f610691848285016104b1565b91505092915050565b5f81519050919050565b5f82825260208201905092915050565b5f819050602082019050919050565b6106cc81610492565b82525050565b5f6106dd83836106c3565b60208301905092915050565b5f602082019050919050565b5f6106ff8261069a565b61070981856106a4565b9350610714836106b4565b805f5b8381101561074457815161072b88826106d2565b9750610736836106e9565b925050600181019050610717565b5085935050505092915050565b5f6020820190508181035f83015261076981846106f5565b905092915050565b5f80604083850312156107875761078661048a565b5b5f610794858286016104b1565b92505060206107a5858286016104b1565b9150509250929050565b6107b881610492565b82525050565b5f6020820190506107d15f8301846107af565b92915050565b5f73ffffffffffffffffffffffffffffffffffffffff82169050919050565b5f610800826107d7565b9050919050565b610810816107f6565b82525050565b5f6020820190506108295f830184610807565b92915050565b5f6040820190506108425f830185610807565b61084f6020830184610807565b9392505050565b5f819050919050565b61086881610856565b82525050565b5f67ffffffffffffffff82169050919050565b61088a8161086e565b82525050565b5f61ffff82169050919050565b6108a681610890565b82525050565b5f63ffffffff82169050919050565b6108c4816108ac565b82525050565b5f60a0820190506108dd5f83018861085f565b6108ea6020830187610881565b6108f7604083018661089d565b61090460608301856108bb565b61091160808301846108bb565b9695505050505050565b5f815190506109298161049b565b92915050565b5f602082840312156109445761094361048a565b5b5f6109518482850161091b565b9150509291505056fea2646970667358221220d0fdd64d4ec5eabc8eaf4e8501199e4bd8c91d204b169058137e8fbb7c2ef09464736f6c63430008170033",
  "immutableReferences": {
    "10": [
      {
        "length": 32,
        "start": 334
      },
      {
        "length": 32,
        "start": 418
      }
    ]
  },
  "source": "// SPDX-License-Identifier: GPL-3.0\n// // // // // // // // // // // // // // // // // // // // // // // // // // // // // // // // // // // // // // // // // // // // // // // // // // // // // // // // // // // // //\n//\n//      MMWKd:..                                                                                    ..:dKWMM\n//      MKl.                                                                                            .lKW\n//      O'       ..''''''''''''.     .''''''.     .'''''.      .''''''''''''''.     .''''''''''''..       'O\n//      '     .ckKNNWNWWWWWWWWWk.   .xNWWNWNl    ,0WWWWW0,     lNWWWWWWWWWNWNk'    ;0NNNWWWWWWWWNNKkc.     '\n//           ,OWMMMMMMMMMMMMMMMO.   .kMMMMMWl    ,KMMMMMK,     lWMMMMMMMMMMM0,    ;KMMMMMMMMMMMMMMMMWO,\n//          .kMMMMMMMMMMMMMMMMMO.   .kMMMMMWl    ,KMMMMMK,     lWMMMMMMMMMM0,    ;KMMMMMMMMMMMMMMMMMMMk.\n//          '0MMMMMMMMMMMMMMMMMO.   .kMMMMMWl    ,KMMMMMK,     lWMMMMMMMMM0,    :KMMMMMMMMMMMMMMMMMMMM0'\n//          '0MMMMMMMMMMMMMMMMMO.   .kMMMMMWl    ,KMMMMMK,     lWMMMMMMMM0,    :KMMMMMMMMMMMMMMMMMMMMM0'\n//          '0MMMMMMMMMMMMMMMMMO.   .kMMMMMWl    ,KMMMMMK,     lWMMMMMMM0,    ;0NNWWMMMMMMMMMMMMMMMMMM0'\n//          '0MMMMMMMMMMMMMMMMMO.   .kMMMMMWl    ,KMMMMMK,     lWMMMMMM0,     .'.',;lkNMMMMMMMMMMMMMMM0'\n//          '0MMMMMMMMMMMMMMMMMO.   .kMMMMMWl    ,KMMMMMK,     lWMMMMMK;              ,kWMMMMMMMMMMMMM0'\n//          '0MMMMMMMMMMMMMMMMMO.   .kMMMMMWl    ,KMMMMMK,     lWMMMMX:    .:oxxdc'    .dWMMMMMMMMMMMM0'\n//          '0MMMMMMMMMMMMMMMMMO.   .kMMMMMWl    ,KMMMMMK,     lWMMMWd.   ,OWMMMMMXl.   '0MMMMMMMMMMMM0'\n//          '0MMMMMMMMMMMMMMMMMO.   .kMMMMMWl    ,KMMMMMK,     lWMMMX;   .kMMMMMMMMK,   .xMMMMMMMMMMMM0'\n//          '0MMMMMMMMMMMMMMMMMO.   .kMMMMMWl    ,KMMMMMK,     lWMMM0'   .OMMMMMMMMX;   .xMMMMMMMMMMMM0'\n//          .OMMMMMMMMMMMMMMMMMO.   .kMMMMMWl    ,KMMMMMK,     lWMMMK,    lNMMMMMMWx.   '0MMMMMMMMMMMMO.\n//           lNMMMMMMMMMMMMMMMMO.   .kMMMMMWl    ,KMMMMMK,     lWMMMWd.   .:x0KKKkc.   .dWMMMMMMMMMMMNl\n//      .    .c0WMMMMMMMMMMMMMMO.   .kMMMMMWo    ,KMMMMMK,     lWMMMMNd.     ....     .xNMMMMMMMMMMW0c.    .\n//      l      .,lddxxxxxxxxxxxc.    :xxxxxd,    .lxxxxxl.     ,dxxxxxd:.            .cdxxxxxxxxddl,.      l\n//      No.                                                                                              .oN\n//      MW0l'                                                                                          'l0WM\n//      MMMWKd;.                                                                                    .;dKWMMM\n//\n// // // // // // // // // // // // // // // // // // // // // // // // // // // // // // // // // // // // // // // // // // // // // // // // // // // // // // // // // // // // //\n//                                                                                                                                                                                  //\n//      @dev            ::              Aron Mauritala Ayuk                                                                                                                                          //\n//      @msg            ::              stereo@iii6.xyz                                                                                                                                   //\n//      @github         ::              @stereoIII6\n//      @twitter        ::              @stereoIII6                                                                                                                                              //\n//                                                                                                                                                                                  //\n// // // // // // // // // // // // // // // // // // // // // // // // // // // // // // // // // // // // // // // // // // // // // // // // // // // // // // // // // // // // //\n//                                                                                                                                                                                  //\n//      @dev            ::              Juan Xavier Valverde                                                                                                                                    //\n//      @msg            ::              juanxavier@iii6.xyz                                                                                                                               //\n//      @twitter        ::              @JuanXavier                                                                                                                                             //\n//      @github         ::              @JuanXavier                                                                                                                                             //\n//                                                                                                                                                                                  //                                                                                                                                                                                 //\n// // // // // // // // // // // // // // // // // // // // // // // // // // // // // // // // // // // // // // // // // // // // // // // // // // // // // // // // // // // // //\n//  *   *   *   *   *   *   *   *   *   *   *   *   *   *   *   *   *   *   *   *   *   *   *   *   *   *   *   *   *   *   *   *   *   *   *   *   *   *   *   *   *   *   *   *   //\n// // // // // // // // // // // // // // // // // // // // // // // // // // // // // // // // // // // // // // // // // // // // // // // // // // // // // // // // // // // // //\n//                                                                                                                                                                                  //\n//      @company        ::              Fractio Holding                                                                                                                                                                       //\n//      @title          ::              iii6 Price Consumer                                                                                                                            //\n//      @description    ::              Fractio Holding Price Oracle Contract Holds VRF Consumers and Key Hashes for all VRF Compatible Chains                                                                                                                         //\n//      @version        ::              0.0.1                                                                                                                                       //\n//      @purpose        ::              Multinet Oracle Price Feed                                                                                                           //\n//                                                                                                                                                                                  //\n//                                                                                                                                                                                  //\n//                                                                                                                                                                                  //\n//                                                                                                                                                                                  //\n//                                                                                                                                                                                  //\n// // // // // // // // // // // // // // // // // // // // // // // // // // // // // // // // // // // // // // // // // // // // // // // // // // // // // // // // // // // // //\n//  *   *   *   *   *   *   *   *   *   *   *   *   *   *   *   *   *   *   *   *   *   *   *   *   *   *   *   *   *   *   *   *   *   *   *   *   *   *   *   *   *   *   *   *   //\n// // // // // // // // // // // // // // // // // // // // // // // // // // // // // // // // // // // // // // // // // // // // // // // // // // // // // // // // // // // // //\n\npragma solidity ^0.8.7;\n\nimport \"@chainlink/contracts/src/v0.8/interfaces/LinkTokenInterface.sol\";\nimport \"@chainlink/contracts/src/v0.8/interfaces/VRFCoordinatorV2Interface.sol\";\nimport \"@chainlink/contracts/src/v0.8/VRFConsumerBaseV2.sol\";\nimport \"../Misc/iii6Logs.sol\";\n\n/**\n * @dev With the select contract on line: 721 ... you can deploy automatically by deploying the selectVRF {} contract\n * you may also deploy the contracts manually but have to chose the right one for each network in this case\n */\n\n// \n// \n// \n// \n// \n// \ncontract iii6VRFEth is VRFConsumerBaseV2 {\n    VRFCoordinatorV2Interface COORDINATOR;\n\n    // Your subscription ID.\n    uint64 s_subscriptionId;\n    uint256 net;\n\n    uint32 constant callbackGasLimit = 100000;\n    uint16 constant requestConfirmations = 3;\n    uint32 constant numWords = 7;\n\n    mapping(uint256 => uint256[]) public s_requestIdToRandomWords;\n    mapping(uint256 => address) public s_requestIdToAddress;\n    uint256 public s_requestId;\n    address s_owner;\n\n    address vrfCoordinator = 0x271682DEB8C4E0901D1a1550aD2e64D568E69909;\n    bytes32 keyHash =\n        0x9fe0eebf5e446e3c998ec9bb19951541aee00bb90ea201ae456421a2ded86805;\n\n    constructor(uint64 subscriptionId) VRFConsumerBaseV2(vrfCoordinator) {\n        COORDINATOR = VRFCoordinatorV2Interface(vrfCoordinator);\n        s_owner = msg.sender;\n        s_subscriptionId = subscriptionId;\n    }\n\n    function randy(uint256 _rid) external view returns (uint256[] memory) {\n        return s_requestIdToRandomWords[_rid];\n    }\n\n    // Assumes the subscription is funded sufficiently.\n    function requestRandomWords() external returns (uint256) {\n        uint256 requestId = COORDINATOR.requestRandomWords(\n            keyHash,\n            s_subscriptionId,\n            requestConfirmations,\n            callbackGasLimit,\n            numWords\n        );\n        s_requestIdToAddress[requestId] = msg.sender;\n\n        // Store the latest requestId for this example.\n        s_requestId = requestId;\n\n        // Return the requestId to the requester.\n        return requestId;\n    }\n\n    function fulfillRandomWords(uint256 requestId, uint256[] memory randomWords)\n        internal\n        override\n    {\n        // You can return the value to the requester,\n        // but this example simply stores it.\n        s_requestIdToRandomWords[requestId] = randomWords;\n    }\n}\n\n// \n// \n// \n// \n// \n// \ncontract iii6VRFGoerli is VRFConsumerBaseV2 {\n    VRFCoordinatorV2Interface COORDINATOR;\n\n    // Your subscription ID.\n    uint64 s_subscriptionId;\n    uint256 net;\n\n    uint32 constant callbackGasLimit = 100000;\n    uint16 constant requestConfirmations = 3;\n    uint32 constant numWords = 7;\n\n    mapping(uint256 => uint256[]) public s_requestIdToRandomWords;\n    mapping(uint256 => address) public s_requestIdToAddress;\n    uint256 public s_requestId;\n    address s_owner;\n\n    address vrfCoordinator = 0x2Ca8E0C643bDe4C2E08ab1fA0da3401AdAD7734D;\n    bytes32 keyHash =\n        0x79d3d8832d904592c0bf9818b621522c988bb8b0c05cdc3b15aea1b6e8db0c15;\n\n    constructor(uint64 subscriptionId) VRFConsumerBaseV2(vrfCoordinator) {\n        COORDINATOR = VRFCoordinatorV2Interface(vrfCoordinator);\n        s_owner = msg.sender;\n        s_subscriptionId = subscriptionId;\n    }\n\n    function randy(uint256 _rid) external view returns (uint256[] memory) {\n        return s_requestIdToRandomWords[_rid];\n    }\n\n    // Assumes the subscription is funded sufficiently.\n    function requestRandomWords() external returns (uint256) {\n        uint256 requestId = COORDINATOR.requestRandomWords(\n            keyHash,\n            s_subscriptionId,\n            requestConfirmations,\n            callbackGasLimit,\n            numWords\n        );\n        s_requestIdToAddress[requestId] = msg.sender;\n\n        // Store the latest requestId for this example.\n        s_requestId = requestId;\n\n        // Return the requestId to the requester.\n        return requestId;\n    }\n\n    function fulfillRandomWords(uint256 requestId, uint256[] memory randomWords)\n        internal\n        override\n    {\n        // You can return the value to the requester,\n        // but this example simply stores it.\n        s_requestIdToRandomWords[requestId] = randomWords;\n    }\n}\n\n//  \n//  \n//  \n//  \n//  \n//  \ncontract iii6VRFMumbai is VRFConsumerBaseV2 {\n    VRFCoordinatorV2Interface COORDINATOR;\n\n    // Your subscription ID.\n    uint64 s_subscriptionId;\n    uint256 net;\n\n    uint32 constant callbackGasLimit = 100000;\n    uint16 constant requestConfirmations = 3;\n    uint32 constant numWords = 7;\n\n    mapping(uint256 => uint256[]) public s_requestIdToRandomWords;\n    mapping(uint256 => address) public s_requestIdToAddress;\n    uint256 public s_requestId;\n    address s_owner;\n\n    address vrfCoordinator = 0x7a1BaC17Ccc5b313516C5E16fb24f7659aA5ebed;\n    bytes32 keyHash =\n        0x4b09e658ed251bcafeebbc69400383d49f344ace09b9576fe248bb02c003fe9f;\n\n    constructor(uint64 subscriptionId) VRFConsumerBaseV2(vrfCoordinator) {\n        COORDINATOR = VRFCoordinatorV2Interface(vrfCoordinator);\n        s_owner = msg.sender;\n        s_subscriptionId = subscriptionId;\n    }\n\n    function randy(uint256 _rid) external view returns (uint256[] memory) {\n        return s_requestIdToRandomWords[_rid];\n    }\n\n    // Assumes the subscription is funded sufficiently.\n    function requestRandomWords() external returns (uint256) {\n        uint256 requestId = COORDINATOR.requestRandomWords(\n            keyHash,\n            s_subscriptionId,\n            requestConfirmations,\n            callbackGasLimit,\n            numWords\n        );\n        s_requestIdToAddress[requestId] = msg.sender;\n\n        // Store the latest requestId for this example.\n        s_requestId = requestId;\n\n        // Return the requestId to the requester.\n        return requestId;\n    }\n\n    function fulfillRandomWords(uint256 requestId, uint256[] memory randomWords)\n        internal\n        override\n    {\n        // You can return the value to the requester,\n        // but this example simply stores it.\n        s_requestIdToRandomWords[requestId] = randomWords;\n    }\n}\n\n// \n// \n// \n// \n// \n// \ncontract iii6VRFMatic is VRFConsumerBaseV2 {\n    VRFCoordinatorV2Interface COORDINATOR;\n\n    // Your subscription ID.\n    uint64 s_subscriptionId;\n    uint256 net;\n\n    uint32 constant callbackGasLimit = 100000;\n    uint16 constant requestConfirmations = 3;\n    uint32 constant numWords = 7;\n\n    mapping(uint256 => uint256[]) public s_requestIdToRandomWords;\n    mapping(uint256 => address) public s_requestIdToAddress;\n    uint256 public s_requestId;\n    address s_owner;\n\n    address vrfCoordinator = 0xAE975071Be8F8eE67addBC1A82488F1C24858067;\n    bytes32 keyHash =\n        0xd729dc84e21ae57ffb6be0053bf2b0668aa2aaf300a2a7b2ddf7dc0bb6e875a8;\n\n    constructor(uint64 subscriptionId) VRFConsumerBaseV2(vrfCoordinator) {\n        COORDINATOR = VRFCoordinatorV2Interface(vrfCoordinator);\n        s_owner = msg.sender;\n        s_subscriptionId = subscriptionId;\n    }\n\n    function randy(uint256 _rid) external view returns (uint256[] memory) {\n        return s_requestIdToRandomWords[_rid];\n    }\n\n    // Assumes the subscription is funded sufficiently.\n    function requestRandomWords() external returns (uint256) {\n        uint256 requestId = COORDINATOR.requestRandomWords(\n            keyHash,\n            s_subscriptionId,\n            requestConfirmations,\n            callbackGasLimit,\n            numWords\n        );\n        s_requestIdToAddress[requestId] = msg.sender;\n\n        // Store the latest requestId for this example.\n        s_requestId = requestId;\n\n        // Return the requestId to the requester.\n        return requestId;\n    }\n\n    function fulfillRandomWords(uint256 requestId, uint256[] memory randomWords)\n        internal\n        override\n    {\n        // You can return the value to the requester,\n        // but this example simply stores it.\n        s_requestIdToRandomWords[requestId] = randomWords;\n    }\n}\n\n// \n// \n// \n// \n// \n// \ncontract iii6VRFFantom is VRFConsumerBaseV2 {\n    VRFCoordinatorV2Interface COORDINATOR;\n\n    // Your subscription ID.\n    uint64 s_subscriptionId;\n    uint256 net;\n\n    uint32 constant callbackGasLimit = 100000;\n    uint16 constant requestConfirmations = 3;\n    uint32 constant numWords = 7;\n\n    mapping(uint256 => uint256[]) public s_requestIdToRandomWords;\n    mapping(uint256 => address) public s_requestIdToAddress;\n    uint256 public s_requestId;\n    address s_owner;\n\n    address vrfCoordinator = 0xd5D517aBE5cF79B7e95eC98dB0f0277788aFF634;\n    bytes32 keyHash =\n        0x64ae04e5dba58bc08ba2d53eb33fe95bf71f5002789692fe78fb3778f16121c9;\n\n    constructor(uint64 subscriptionId) VRFConsumerBaseV2(vrfCoordinator) {\n        COORDINATOR = VRFCoordinatorV2Interface(vrfCoordinator);\n        s_owner = msg.sender;\n        s_subscriptionId = subscriptionId;\n    }\n\n    function randy(uint256 _rid) external view returns (uint256[] memory) {\n        return s_requestIdToRandomWords[_rid];\n    }\n\n    // Assumes the subscription is funded sufficiently.\n    function requestRandomWords() external returns (uint256) {\n        uint256 requestId = COORDINATOR.requestRandomWords(\n            keyHash,\n            s_subscriptionId,\n            requestConfirmations,\n            callbackGasLimit,\n            numWords\n        );\n        s_requestIdToAddress[requestId] = msg.sender;\n\n        // Store the latest requestId for this example.\n        s_requestId = requestId;\n\n        // Return the requestId to the requester.\n        return requestId;\n    }\n\n    function fulfillRandomWords(uint256 requestId, uint256[] memory randomWords)\n        internal\n        override\n    {\n        // You can return the value to the requester,\n        // but this example simply stores it.\n        s_requestIdToRandomWords[requestId] = randomWords;\n    }\n}\n\n// \n// \n// \n// \n// \n// \ncontract iii6VRFFantomTest is VRFConsumerBaseV2 {\n    VRFCoordinatorV2Interface COORDINATOR;\n\n    // Your subscription ID.\n    uint64 s_subscriptionId;\n    uint256 net;\n\n    uint32 constant callbackGasLimit = 100000;\n    uint16 constant requestConfirmations = 3;\n    uint32 constant numWords = 7;\n\n    mapping(uint256 => uint256[]) public s_requestIdToRandomWords;\n    mapping(uint256 => address) public s_requestIdToAddress;\n    uint256 public s_requestId;\n    address s_owner;\n\n    address vrfCoordinator = 0xbd13f08b8352A3635218ab9418E340c60d6Eb418;\n    bytes32 keyHash =\n        0x121a143066e0f2f08b620784af77cccb35c6242460b4a8ee251b4b416abaebd4;\n\n    constructor(uint64 subscriptionId) VRFConsumerBaseV2(vrfCoordinator) {\n        COORDINATOR = VRFCoordinatorV2Interface(vrfCoordinator);\n        s_owner = msg.sender;\n        s_subscriptionId = subscriptionId;\n    }\n\n    function randy(uint256 _rid) external view returns (uint256[] memory) {\n        return s_requestIdToRandomWords[_rid];\n    }\n\n    // Assumes the subscription is funded sufficiently.\n    function requestRandomWords() external returns (uint256) {\n        uint256 requestId = COORDINATOR.requestRandomWords(\n            keyHash,\n            s_subscriptionId,\n            requestConfirmations,\n            callbackGasLimit,\n            numWords\n        );\n        s_requestIdToAddress[requestId] = msg.sender;\n\n        // Store the latest requestId for this example.\n        s_requestId = requestId;\n\n        // Return the requestId to the requester.\n        return requestId;\n    }\n\n    function fulfillRandomWords(uint256 requestId, uint256[] memory randomWords)\n        internal\n        override\n    {\n        // You can return the value to the requester,\n        // but this example simply stores it.\n        s_requestIdToRandomWords[requestId] = randomWords;\n    }\n}\n\n// \n// \n// \n// \n// \n// \ncontract iii6VRFAvax is VRFConsumerBaseV2 {\n    VRFCoordinatorV2Interface COORDINATOR;\n\n    // Your subscription ID.\n    uint64 s_subscriptionId;\n    uint256 net;\n\n    uint32 constant callbackGasLimit = 100000;\n    uint16 constant requestConfirmations = 3;\n    uint32 constant numWords = 7;\n\n    mapping(uint256 => uint256[]) public s_requestIdToRandomWords;\n    mapping(uint256 => address) public s_requestIdToAddress;\n    uint256 public s_requestId;\n    address s_owner;\n\n    address vrfCoordinator = 0xd5D517aBE5cF79B7e95eC98dB0f0277788aFF634;\n    bytes32 keyHash =\n        0x06eb0e2ea7cca202fc7c8258397a36f33d88568d2522b37aaa3b14ff6ee1b696;\n\n    constructor(uint64 subscriptionId) VRFConsumerBaseV2(vrfCoordinator) {\n        COORDINATOR = VRFCoordinatorV2Interface(vrfCoordinator);\n        s_owner = msg.sender;\n        s_subscriptionId = subscriptionId;\n    }\n\n    function randy(uint256 _rid) external view returns (uint256[] memory) {\n        return s_requestIdToRandomWords[_rid];\n    }\n\n    // Assumes the subscription is funded sufficiently.\n    function requestRandomWords() external returns (uint256) {\n        uint256 requestId = COORDINATOR.requestRandomWords(\n            keyHash,\n            s_subscriptionId,\n            requestConfirmations,\n            callbackGasLimit,\n            numWords\n        );\n        s_requestIdToAddress[requestId] = msg.sender;\n\n        // Store the latest requestId for this example.\n        s_requestId = requestId;\n\n        // Return the requestId to the requester.\n        return requestId;\n    }\n\n    function fulfillRandomWords(uint256 requestId, uint256[] memory randomWords)\n        internal\n        override\n    {\n        // You can return the value to the requester,\n        // but this example simply stores it.\n        s_requestIdToRandomWords[requestId] = randomWords;\n    }\n}\n\n// \n// \n// \n// \n// \n// \ncontract iii6VRFFuji is VRFConsumerBaseV2 {\n    VRFCoordinatorV2Interface COORDINATOR;\n\n    // Your subscription ID.\n    uint64 s_subscriptionId;\n    uint256 net;\n\n    uint32 constant callbackGasLimit = 100000;\n    uint16 constant requestConfirmations = 3;\n    uint32 constant numWords = 7;\n\n    mapping(uint256 => uint256[]) public s_requestIdToRandomWords;\n    mapping(uint256 => address) public s_requestIdToAddress;\n    uint256 public s_requestId;\n    address s_owner;\n\n    address vrfCoordinator = 0x2eD832Ba664535e5886b75D64C46EB9a228C2610;\n    bytes32 keyHash =\n        0x354d2f95da55398f44b7cff77da56283d9c6c829a4bdf1bbcaf2ad6a4d081f61;\n\n    constructor(uint64 subscriptionId) VRFConsumerBaseV2(vrfCoordinator) {\n        COORDINATOR = VRFCoordinatorV2Interface(vrfCoordinator);\n        s_owner = msg.sender;\n        s_subscriptionId = subscriptionId;\n    }\n\n    function randy(uint256 _rid) external view returns (uint256[] memory) {\n        return s_requestIdToRandomWords[_rid];\n    }\n\n    // Assumes the subscription is funded sufficiently.\n    function requestRandomWords() external returns (uint256) {\n        uint256 requestId = COORDINATOR.requestRandomWords(\n            keyHash,\n            s_subscriptionId,\n            requestConfirmations,\n            callbackGasLimit,\n            numWords\n        );\n        s_requestIdToAddress[requestId] = msg.sender;\n\n        // Store the latest requestId for this example.\n        s_requestId = requestId;\n\n        // Return the requestId to the requester.\n        return requestId;\n    }\n\n    function fulfillRandomWords(uint256 requestId, uint256[] memory randomWords)\n        internal\n        override\n    {\n        // You can return the value to the requester,\n        // but this example simply stores it.\n        s_requestIdToRandomWords[requestId] = randomWords;\n    }\n}\n\n// \n// \n// \n// \n// \n// \ncontract iii6VRFBsc is VRFConsumerBaseV2 {\n    VRFCoordinatorV2Interface COORDINATOR;\n\n    // Your subscription ID.\n    uint64 s_subscriptionId;\n    uint256 net;\n\n    uint32 constant callbackGasLimit = 100000;\n    uint16 constant requestConfirmations = 3;\n    uint32 constant numWords = 7;\n\n    mapping(uint256 => uint256[]) public s_requestIdToRandomWords;\n    mapping(uint256 => address) public s_requestIdToAddress;\n    uint256 public s_requestId;\n    address s_owner;\n\n    address vrfCoordinator = 0xc587d9053cd1118f25F645F9E08BB98c9712A4EE;\n    bytes32 keyHash =\n        0x17cd473250a9a479dc7f234c64332ed4bc8af9e8ded7556aa6e66d83da49f470;\n\n    constructor(uint64 subscriptionId) VRFConsumerBaseV2(vrfCoordinator) {\n        COORDINATOR = VRFCoordinatorV2Interface(vrfCoordinator);\n        s_owner = msg.sender;\n        s_subscriptionId = subscriptionId;\n    }\n\n    function randy(uint256 _rid) external view returns (uint256[] memory) {\n        return s_requestIdToRandomWords[_rid];\n    }\n\n    // Assumes the subscription is funded sufficiently.\n    function requestRandomWords() external returns (uint256) {\n        uint256 requestId = COORDINATOR.requestRandomWords(\n            keyHash,\n            s_subscriptionId,\n            requestConfirmations,\n            callbackGasLimit,\n            numWords\n        );\n        s_requestIdToAddress[requestId] = msg.sender;\n\n        // Store the latest requestId for this example.\n        s_requestId = requestId;\n\n        // Return the requestId to the requester.\n        return requestId;\n    }\n\n    function fulfillRandomWords(uint256 requestId, uint256[] memory randomWords)\n        internal\n        override\n    {\n        // You can return the value to the requester,\n        // but this example simply stores it.\n        s_requestIdToRandomWords[requestId] = randomWords;\n    }\n}\n\n// \n// \n// \n// \n// \n// \ncontract iii6VRFChalen is VRFConsumerBaseV2 {\n    VRFCoordinatorV2Interface COORDINATOR;\n\n    // Your subscription ID.\n    uint64 s_subscriptionId;\n    uint256 net;\n\n    uint32 constant callbackGasLimit = 100000;\n    uint16 constant requestConfirmations = 3;\n    uint32 constant numWords = 7;\n\n    mapping(uint256 => uint256[]) public s_requestIdToRandomWords;\n    mapping(uint256 => address) public s_requestIdToAddress;\n    uint256 public s_requestId;\n    address s_owner;\n\n    address vrfCoordinator = 0x6A2AAd07396B36Fe02a22b33cf443582f682c82f;\n    bytes32 keyHash =\n        0xd4bb89654db74673a187bd804519e65e3f71a52bc55f11da7601a13dcf505314;\n\n    constructor(uint64 subscriptionId) VRFConsumerBaseV2(vrfCoordinator) {\n        COORDINATOR = VRFCoordinatorV2Interface(vrfCoordinator);\n        s_owner = msg.sender;\n        s_subscriptionId = subscriptionId;\n    }\n\n    function randy(uint256 _rid) external view returns (uint256[] memory) {\n        return s_requestIdToRandomWords[_rid];\n    }\n\n    // Assumes the subscription is funded sufficiently.\n    function requestRandomWords() external returns (uint256) {\n        uint256 requestId = COORDINATOR.requestRandomWords(\n            keyHash,\n            s_subscriptionId,\n            requestConfirmations,\n            callbackGasLimit,\n            numWords\n        );\n        s_requestIdToAddress[requestId] = msg.sender;\n\n        // Store the latest requestId for this example.\n        s_requestId = requestId;\n\n        // Return the requestId to the requester.\n        return requestId;\n    }\n\n    function fulfillRandomWords(uint256 requestId, uint256[] memory randomWords)\n        internal\n        override\n    {\n        // You can return the value to the requester,\n        // but this example simply stores it.\n        s_requestIdToRandomWords[requestId] = randomWords;\n    }\n}\n\n// // // // // // // // // // // // // // // // // // // // // // // // // // // // // // // // // // // // // // // // // // // // // // // // // // // // // // // // // // // // //\n//\n//      MMWKd:..                                                                                    ..:dKWMM\n//      MKl.                                                                                            .lKW\n//      O'       ..''''''''''''.     .''''''.     .'''''.      .''''''''''''''.     .''''''''''''..       'O\n//      '     .ckKNNWNWWWWWWWWWk.   .xNWWNWNl    ,0WWWWW0,     lNWWWWWWWWWNWNk'    ;0NNNWWWWWWWWNNKkc.     '\n//           ,OWMMMMMMMMMMMMMMMO.   .kMMMMMWl    ,KMMMMMK,     lWMMMMMMMMMMM0,    ;KMMMMMMMMMMMMMMMMWO,\n//          .kMMMMMMMMMMMMMMMMMO.   .kMMMMMWl    ,KMMMMMK,     lWMMMMMMMMMM0,    ;KMMMMMMMMMMMMMMMMMMMk.\n//          '0MMMMMMMMMMMMMMMMMO.   .kMMMMMWl    ,KMMMMMK,     lWMMMMMMMMM0,    :KMMMMMMMMMMMMMMMMMMMM0'\n//          '0MMMMMMMMMMMMMMMMMO.   .kMMMMMWl    ,KMMMMMK,     lWMMMMMMMM0,    :KMMMMMMMMMMMMMMMMMMMMM0'\n//          '0MMMMMMMMMMMMMMMMMO.   .kMMMMMWl    ,KMMMMMK,     lWMMMMMMM0,    ;0NNWWMMMMMMMMMMMMMMMMMM0'\n//          '0MMMMMMMMMMMMMMMMMO.   .kMMMMMWl    ,KMMMMMK,     lWMMMMMM0,     .'.',;lkNMMMMMMMMMMMMMMM0'\n//          '0MMMMMMMMMMMMMMMMMO.   .kMMMMMWl    ,KMMMMMK,     lWMMMMMK;              ,kWMMMMMMMMMMMMM0'\n//          '0MMMMMMMMMMMMMMMMMO.   .kMMMMMWl    ,KMMMMMK,     lWMMMMX:    .:oxxdc'    .dWMMMMMMMMMMMM0'\n//          '0MMMMMMMMMMMMMMMMMO.   .kMMMMMWl    ,KMMMMMK,     lWMMMWd.   ,OWMMMMMXl.   '0MMMMMMMMMMMM0'\n//          '0MMMMMMMMMMMMMMMMMO.   .kMMMMMWl    ,KMMMMMK,     lWMMMX;   .kMMMMMMMMK,   .xMMMMMMMMMMMM0'\n//          '0MMMMMMMMMMMMMMMMMO.   .kMMMMMWl    ,KMMMMMK,     lWMMM0'   .OMMMMMMMMX;   .xMMMMMMMMMMMM0'\n//          .OMMMMMMMMMMMMMMMMMO.   .kMMMMMWl    ,KMMMMMK,     lWMMMK,    lNMMMMMMWx.   '0MMMMMMMMMMMMO.\n//           lNMMMMMMMMMMMMMMMMO.   .kMMMMMWl    ,KMMMMMK,     lWMMMWd.   .:x0KKKkc.   .dWMMMMMMMMMMMNl\n//      .    .c0WMMMMMMMMMMMMMMO.   .kMMMMMWo    ,KMMMMMK,     lWMMMMNd.     ....     .xNMMMMMMMMMMW0c.    .\n//      l      .,lddxxxxxxxxxxxc.    :xxxxxd,    .lxxxxxl.     ,dxxxxxd:.            .cdxxxxxxxxddl,.      l\n//      No.                                                                                              .oN\n//      MW0l'                                                                                          'l0WM\n//      MMMWKd;.                                                                                    .;dKWMMM\n//\n// // // // // // // // // // // // // // // // // // // // // // // // // // // // // // // // // // // // // // // // // // // // // // // // // // // // // // // // // // // // //\n",
  "sourcePath": "/Users/iii6/Documents/GitHub/Gamble360/contracts/iii6Utils/Oracles/iii6VRFConsumer.sol",
  "compiler": {
    "name": "solc",
    "version": "0.8.23+commit.f704f362.Emscripten.clang"
  },
  "schemaVersion": "3.4.16",
  "updatedAt": "2023-11-09T15:24:52.472Z",
  "devdoc": {
    "kind": "dev",
    "methods": {},
    "version": 1
  },
  "userdoc": {
    "kind": "user",
    "methods": {},
    "version": 1
  }
}