{
  "contractName": "iii6AssetFactory",
  "abi": [
    {
      "inputs": [],
      "stateMutability": "nonpayable",
      "type": "constructor"
    },
    {
      "inputs": [
        {
          "internalType": "string",
          "name": "_name",
          "type": "string"
        },
        {
          "internalType": "string",
          "name": "_sym",
          "type": "string"
        },
        {
          "internalType": "uint256",
          "name": "_max",
          "type": "uint256"
        },
        {
          "internalType": "uint256",
          "name": "_price",
          "type": "uint256"
        },
        {
          "internalType": "uint256",
          "name": "_g",
          "type": "uint256"
        }
      ],
      "name": "buildERC721Token",
      "outputs": [
        {
          "internalType": "address",
          "name": "",
          "type": "address"
        }
      ],
      "stateMutability": "payable",
      "type": "function"
    }
  ],
  "bytecode": "0x608060405234801561000f575f80fd5b506155ab8061001d5f395ff3fe6080604052600436106200001f575f3560e01c806392a13fde1462000023575b5f80fd5b6200004160048036038101906200003b919062000205565b62000059565b60405162000050919062000312565b60405180910390f35b5f620000ef88888080601f0160208091040260200160405190810160405280939291908181526020018383808284375f81840152601f19601f8201169050808301925050505050505087878080601f0160208091040260200160405190810160405280939291908181526020018383808284375f81840152601f19601f82011690508083019250505050505050868686620000fc565b9050979650505050505050565b5f8033878787878760405162000112906200014d565b6200012396959493929190620003d2565b604051809103905ff0801580156200013d573d5f803e3d5ffd5b5090508091505095945050505050565b61512a806200044c83390190565b5f80fd5b5f80fd5b5f80fd5b5f80fd5b5f80fd5b5f8083601f84011262000187576200018662000163565b5b8235905067ffffffffffffffff811115620001a757620001a662000167565b5b602083019150836001820283011115620001c657620001c56200016b565b5b9250929050565b5f819050919050565b620001e181620001cd565b8114620001ec575f80fd5b50565b5f81359050620001ff81620001d6565b92915050565b5f805f805f805f60a0888a0312156200022357620002226200015b565b5b5f88013567ffffffffffffffff8111156200024357620002426200015f565b5b620002518a828b016200016f565b9750975050602088013567ffffffffffffffff8111156200027757620002766200015f565b5b620002858a828b016200016f565b955095505060406200029a8a828b01620001ef565b9350506060620002ad8a828b01620001ef565b9250506080620002c08a828b01620001ef565b91505092959891949750929550565b5f73ffffffffffffffffffffffffffffffffffffffff82169050919050565b5f620002fa82620002cf565b9050919050565b6200030c81620002ee565b82525050565b5f602082019050620003275f83018462000301565b92915050565b5f81519050919050565b5f82825260208201905092915050565b5f5b838110156200036657808201518184015260208101905062000349565b5f8484015250505050565b5f601f19601f8301169050919050565b5f6200038d826200032d565b62000399818562000337565b9350620003ab81856020860162000347565b620003b68162000371565b840191505092915050565b620003cc81620001cd565b82525050565b5f60c082019050620003e75f83018962000301565b8181036020830152620003fb818862000381565b9050818103604083015262000411818762000381565b9050620004226060830186620003c1565b620004316080830185620003c1565b6200044060a0830184620003c1565b97965050505050505056fe608060405234801562000010575f80fd5b506040516200512a3803806200512a8339818101604052810190620000369190620003b8565b8484815f9081620000489190620006bc565b5080600190816200005a9190620006bc565b5050505f6006819055505f6007819055505f6008819055505f60098190555085600a5f6101000a81548173ffffffffffffffffffffffffffffffffffffffff021916908373ffffffffffffffffffffffffffffffffffffffff16021790555084600d9081620000ca9190620006bc565b5083600e9081620000dc9190620006bc565b5082600c8190555066038d7ea4c6800082620000f99190620007cd565b6010819055505f8111156200018057803060405162000118906200018c565b6200012592919062000839565b604051809103905ff0801580156200013f573d5f803e3d5ffd5b5060145f6101000a81548173ffffffffffffffffffffffffffffffffffffffff021916908373ffffffffffffffffffffffffffffffffffffffff1602179055505b50505050505062000864565b611c07806200352383390190565b5f604051905090565b5f80fd5b5f80fd5b5f73ffffffffffffffffffffffffffffffffffffffff82169050919050565b5f620001d682620001ab565b9050919050565b620001e881620001ca565b8114620001f3575f80fd5b50565b5f815190506200020681620001dd565b92915050565b5f80fd5b5f80fd5b5f601f19601f8301169050919050565b7f4e487b71000000000000000000000000000000000000000000000000000000005f52604160045260245ffd5b6200025c8262000214565b810181811067ffffffffffffffff821117156200027e576200027d62000224565b5b80604052505050565b5f620002926200019a565b9050620002a0828262000251565b919050565b5f67ffffffffffffffff821115620002c257620002c162000224565b5b620002cd8262000214565b9050602081019050919050565b5f5b83811015620002f9578082015181840152602081019050620002dc565b5f8484015250505050565b5f6200031a6200031484620002a5565b62000287565b90508281526020810184848401111562000339576200033862000210565b5b62000346848285620002da565b509392505050565b5f82601f8301126200036557620003646200020c565b5b81516200037784826020860162000304565b91505092915050565b5f819050919050565b620003948162000380565b81146200039f575f80fd5b50565b5f81519050620003b28162000389565b92915050565b5f805f805f8060c08789031215620003d557620003d4620001a3565b5b5f620003e489828a01620001f6565b965050602087015167ffffffffffffffff811115620004085762000407620001a7565b5b6200041689828a016200034e565b955050604087015167ffffffffffffffff8111156200043a5762000439620001a7565b5b6200044889828a016200034e565b94505060606200045b89828a01620003a2565b93505060806200046e89828a01620003a2565b92505060a06200048189828a01620003a2565b9150509295509295509295565b5f81519050919050565b7f4e487b71000000000000000000000000000000000000000000000000000000005f52602260045260245ffd5b5f6002820490506001821680620004dd57607f821691505b602082108103620004f357620004f262000498565b5b50919050565b5f819050815f5260205f209050919050565b5f6020601f8301049050919050565b5f82821b905092915050565b5f60088302620005577fffffffffffffffffffffffffffffffffffffffffffffffffffffffffffffffff826200051a565b6200056386836200051a565b95508019841693508086168417925050509392505050565b5f819050919050565b5f620005a46200059e620005988462000380565b6200057b565b62000380565b9050919050565b5f819050919050565b620005bf8362000584565b620005d7620005ce82620005ab565b84845462000526565b825550505050565b5f90565b620005ed620005df565b620005fa818484620005b4565b505050565b5b818110156200062157620006155f82620005e3565b60018101905062000600565b5050565b601f82111562000670576200063a81620004f9565b62000645846200050b565b8101602085101562000655578190505b6200066d62000664856200050b565b830182620005ff565b50505b505050565b5f82821c905092915050565b5f620006925f198460080262000675565b1980831691505092915050565b5f620006ac838362000681565b9150826002028217905092915050565b620006c7826200048e565b67ffffffffffffffff811115620006e357620006e262000224565b5b620006ef8254620004c5565b620006fc82828562000625565b5f60209050601f83116001811462000732575f84156200071d578287015190505b6200072985826200069f565b86555062000798565b601f1984166200074286620004f9565b5f5b828110156200076b5784890151825560018201915060208501945060208101905062000744565b868310156200078b578489015162000787601f89168262000681565b8355505b6001600288020188555050505b505050505050565b7f4e487b71000000000000000000000000000000000000000000000000000000005f52601160045260245ffd5b5f620007d98262000380565b9150620007e68362000380565b9250828202620007f68162000380565b9150828204841483151762000810576200080f620007a0565b5b5092915050565b620008228162000380565b82525050565b6200083381620001ca565b82525050565b5f6040820190506200084e5f83018562000817565b6200085d602083018462000828565b9392505050565b612cb180620008725f395ff3fe6080604052600436106101b6575f3560e01c806395d89b41116100eb578063b524fd6f11610089578063be9a655511610063578063be9a655514610648578063c87b56dd14610672578063c971ebb3146106ae578063e985e9c5146106ea576101b6565b8063b524fd6f146105ba578063b88d4fde146105e4578063ba899a2e1461060c576101b6565b8063a035b1fe116100c5578063a035b1fe146104fc578063a0712d6814610526578063a22cb46514610556578063aba4759f1461057e576101b6565b806395d89b411461046c5780639af9bec0146104965780639b4f589f146104c0576101b6565b806342842e0e116101585780636ac5db19116101325780636ac5db19146103b257806370a08231146103dc57806383813a28146104185780638da5cb5b14610442576101b6565b806342842e0e146103245780634f02c4201461034c5780636352211e14610376576101b6565b8063095ea7b311610194578063095ea7b31461025c5780630f4c01341461028457806323b872dd146102c05780632f54bf6e146102e8576101b6565b806301ffc9a7146101ba57806306fdde03146101f6578063081812fc14610220575b5f80fd5b3480156101c5575f80fd5b506101e060048036038101906101db9190611f5b565b610726565b6040516101ed9190611fa0565b60405180910390f35b348015610201575f80fd5b5061020a610807565b6040516102179190612043565b60405180910390f35b34801561022b575f80fd5b5061024660048036038101906102419190612096565b610896565b6040516102539190612100565b60405180910390f35b348015610267575f80fd5b50610282600480360381019061027d9190612143565b6108d8565b005b34801561028f575f80fd5b506102aa60048036038101906102a59190612143565b6109ee565b6040516102b79190612190565b60405180910390f35b3480156102cb575f80fd5b506102e660048036038101906102e191906121a9565b610a0e565b005b3480156102f3575f80fd5b5061030e600480360381019061030991906121f9565b610a6e565b60405161031b9190611fa0565b60405180910390f35b34801561032f575f80fd5b5061034a600480360381019061034591906121a9565b610ad3565b005b348015610357575f80fd5b50610360610af2565b60405161036d9190612190565b60405180910390f35b348015610381575f80fd5b5061039c60048036038101906103979190612096565b610af8565b6040516103a99190612100565b60405180910390f35b3480156103bd575f80fd5b506103c6610b7c565b6040516103d39190612190565b60405180910390f35b3480156103e7575f80fd5b5061040260048036038101906103fd91906121f9565b610b82565b60405161040f9190612190565b60405180910390f35b348015610423575f80fd5b5061042c610c36565b6040516104399190612043565b60405180910390f35b34801561044d575f80fd5b50610456610cc2565b6040516104639190612100565b60405180910390f35b348015610477575f80fd5b50610480610ce7565b60405161048d9190612043565b60405180910390f35b3480156104a1575f80fd5b506104aa610d77565b6040516104b79190612043565b60405180910390f35b3480156104cb575f80fd5b506104e660048036038101906104e19190612096565b610e03565b6040516104f39190612276565b60405180910390f35b348015610507575f80fd5b50610510610e9e565b60405161051d9190612190565b60405180910390f35b610540600480360381019061053b9190612096565b610ea4565b60405161054d9190612190565b60405180910390f35b348015610561575f80fd5b5061057c600480360381019061057791906122c0565b610f58565b005b348015610589575f80fd5b506105a4600480360381019061059f9190612096565b610f6e565b6040516105b19190612190565b60405180910390f35b3480156105c5575f80fd5b506105ce610fc3565b6040516105db9190611fa0565b60405180910390f35b3480156105ef575f80fd5b5061060a6004803603810190610605919061242a565b610fd1565b005b348015610617575f80fd5b50610632600480360381019061062d9190612096565b611033565b60405161063f9190612100565b60405180910390f35b348015610653575f80fd5b5061065c611044565b6040516106699190611fa0565b60405180910390f35b34801561067d575f80fd5b5061069860048036038101906106939190612096565b611056565b6040516106a59190612043565b60405180910390f35b3480156106b9575f80fd5b506106d460048036038101906106cf91906121f9565b6110bb565b6040516106e19190612190565b60405180910390f35b3480156106f5575f80fd5b50610710600480360381019061070b91906124aa565b6110d0565b60405161071d9190611fa0565b60405180910390f35b5f7f80ac58cd000000000000000000000000000000000000000000000000000000007bffffffffffffffffffffffffffffffffffffffffffffffffffffffff1916827bffffffffffffffffffffffffffffffffffffffffffffffffffffffff191614806107f057507f5b5e139f000000000000000000000000000000000000000000000000000000007bffffffffffffffffffffffffffffffffffffffffffffffffffffffff1916827bffffffffffffffffffffffffffffffffffffffffffffffffffffffff1916145b8061080057506107ff8261115e565b5b9050919050565b60605f805461081590612515565b80601f016020809104026020016040519081016040528092919081815260200182805461084190612515565b801561088c5780601f106108635761010080835404028352916020019161088c565b820191905f5260205f20905b81548152906001019060200180831161086f57829003601f168201915b5050505050905090565b5f6108a0826111c7565b60045f8381526020019081526020015f205f9054906101000a900473ffffffffffffffffffffffffffffffffffffffff169050919050565b5f6108e282610af8565b90508073ffffffffffffffffffffffffffffffffffffffff168373ffffffffffffffffffffffffffffffffffffffff1603610952576040517f08c379a0000000000000000000000000000000000000000000000000000000008152600401610949906125b5565b60405180910390fd5b8073ffffffffffffffffffffffffffffffffffffffff16610971611212565b73ffffffffffffffffffffffffffffffffffffffff1614806109a0575061099f8161099a611212565b6110d0565b5b6109df576040517f08c379a00000000000000000000000000000000000000000000000000000000081526004016109d690612643565b60405180910390fd5b6109e98383611219565b505050565b6013602052815f5260405f20602052805f5260405f205f91509150505481565b610a1f610a19611212565b826112cf565b610a5e576040517f08c379a0000000000000000000000000000000000000000000000000000000008152600401610a55906126d1565b60405180910390fd5b610a69838383611363565b505050565b5f600a5f9054906101000a900473ffffffffffffffffffffffffffffffffffffffff1673ffffffffffffffffffffffffffffffffffffffff168273ffffffffffffffffffffffffffffffffffffffff1614610ac9575f610acc565b60015b9050919050565b610aed83838360405180602001604052805f815250610fd1565b505050565b600b5481565b5f80610b038361164f565b90505f73ffffffffffffffffffffffffffffffffffffffff168173ffffffffffffffffffffffffffffffffffffffff1603610b73576040517f08c379a0000000000000000000000000000000000000000000000000000000008152600401610b6a90612739565b60405180910390fd5b80915050919050565b600c5481565b5f8073ffffffffffffffffffffffffffffffffffffffff168273ffffffffffffffffffffffffffffffffffffffff1603610bf1576040517f08c379a0000000000000000000000000000000000000000000000000000000008152600401610be8906127c7565b60405180910390fd5b60035f8373ffffffffffffffffffffffffffffffffffffffff1673ffffffffffffffffffffffffffffffffffffffff1681526020019081526020015f20549050919050565b600e8054610c4390612515565b80601f0160208091040260200160405190810160405280929190818152602001828054610c6f90612515565b8015610cba5780601f10610c9157610100808354040283529160200191610cba565b820191905f5260205f20905b815481529060010190602001808311610c9d57829003601f168201915b505050505081565b600a5f9054906101000a900473ffffffffffffffffffffffffffffffffffffffff1681565b606060018054610cf690612515565b80601f0160208091040260200160405190810160405280929190818152602001828054610d2290612515565b8015610d6d5780601f10610d4457610100808354040283529160200191610d6d565b820191905f5260205f20905b815481529060010190602001808311610d5057829003601f168201915b5050505050905090565b600d8054610d8490612515565b80601f0160208091040260200160405190810160405280929190818152602001828054610db090612515565b8015610dfb5780601f10610dd257610100808354040283529160200191610dfb565b820191905f5260205f20905b815481529060010190602001808311610dde57829003601f168201915b505050505081565b6011602052805f5260405f205f915090508054610e1f90612515565b80601f0160208091040260200160405190810160405280929190818152602001828054610e4b90612515565b8015610e965780601f10610e6d57610100808354040283529160200191610e96565b820191905f5260205f20905b815481529060010190602001808311610e7957829003601f168201915b505050505081565b60105481565b5f600c54600b54101580610ec75750600c5482600b54610ec49190612812565b10155b15610efe576040517f064a6c4100000000000000000000000000000000000000000000000000000000815260040160405180910390fd5b81601054610f0c9190612845565b3410610f44576040517fefc60c1400000000000000000000000000000000000000000000000000000000815260040160405180910390fd5b610f4d82611688565b50600b549050919050565b610f6a610f63611212565b83836116d1565b5050565b5f60135f3373ffffffffffffffffffffffffffffffffffffffff1673ffffffffffffffffffffffffffffffffffffffff1681526020019081526020015f205f8381526020019081526020015f20549050919050565b5f610fcc611838565b905090565b610fe2610fdc611212565b836112cf565b611021576040517f08c379a0000000000000000000000000000000000000000000000000000000008152600401611018906126d1565b60405180910390fd5b61102d84848484611865565b50505050565b5f61103d82610af8565b9050919050565b600f5f9054906101000a900460ff1681565b6060611061826111c7565b5f61106a6118c1565b90505f8151116110885760405180602001604052805f8152506110b3565b80611092846118d7565b6040516020016110a39291906128c0565b6040516020818303038152906040525b915050919050565b6012602052805f5260405f205f915090505481565b5f60055f8473ffffffffffffffffffffffffffffffffffffffff1673ffffffffffffffffffffffffffffffffffffffff1681526020019081526020015f205f8373ffffffffffffffffffffffffffffffffffffffff1673ffffffffffffffffffffffffffffffffffffffff1681526020019081526020015f205f9054906101000a900460ff16905092915050565b5f7f01ffc9a7000000000000000000000000000000000000000000000000000000007bffffffffffffffffffffffffffffffffffffffffffffffffffffffff1916827bffffffffffffffffffffffffffffffffffffffffffffffffffffffff1916149050919050565b6111d0816119a1565b61120f576040517f08c379a000000000000000000000000000000000000000000000000000000000815260040161120690612739565b60405180910390fd5b50565b5f33905090565b8160045f8381526020019081526020015f205f6101000a81548173ffffffffffffffffffffffffffffffffffffffff021916908373ffffffffffffffffffffffffffffffffffffffff160217905550808273ffffffffffffffffffffffffffffffffffffffff1661128983610af8565b73ffffffffffffffffffffffffffffffffffffffff167f8c5be1e5ebec7d5bd14f71427d1e84f3dd0314c0f7b2291e5b200ac8c7c3b92560405160405180910390a45050565b5f806112da83610af8565b90508073ffffffffffffffffffffffffffffffffffffffff168473ffffffffffffffffffffffffffffffffffffffff16148061131c575061131b81856110d0565b5b8061135a57508373ffffffffffffffffffffffffffffffffffffffff1661134284610896565b73ffffffffffffffffffffffffffffffffffffffff16145b91505092915050565b8273ffffffffffffffffffffffffffffffffffffffff1661138382610af8565b73ffffffffffffffffffffffffffffffffffffffff16146113d9576040517f08c379a00000000000000000000000000000000000000000000000000000000081526004016113d090612953565b60405180910390fd5b5f73ffffffffffffffffffffffffffffffffffffffff168273ffffffffffffffffffffffffffffffffffffffff1603611447576040517f08c379a000000000000000000000000000000000000000000000000000000000815260040161143e906129e1565b60405180910390fd5b61145483838360016119e1565b8273ffffffffffffffffffffffffffffffffffffffff1661147482610af8565b73ffffffffffffffffffffffffffffffffffffffff16146114ca576040517f08c379a00000000000000000000000000000000000000000000000000000000081526004016114c190612953565b60405180910390fd5b60045f8281526020019081526020015f205f6101000a81549073ffffffffffffffffffffffffffffffffffffffff0219169055600160035f8573ffffffffffffffffffffffffffffffffffffffff1673ffffffffffffffffffffffffffffffffffffffff1681526020019081526020015f205f8282540392505081905550600160035f8473ffffffffffffffffffffffffffffffffffffffff1673ffffffffffffffffffffffffffffffffffffffff1681526020019081526020015f205f82825401925050819055508160025f8381526020019081526020015f205f6101000a81548173ffffffffffffffffffffffffffffffffffffffff021916908373ffffffffffffffffffffffffffffffffffffffff160217905550808273ffffffffffffffffffffffffffffffffffffffff168473ffffffffffffffffffffffffffffffffffffffff167fddf252ad1be2c89b69c2b068fc378daa952ba7f163c4a11628f55a4df523b3ef60405160405180910390a461164a83838360016119e7565b505050565b5f60025f8381526020019081526020015f205f9054906101000a900473ffffffffffffffffffffffffffffffffffffffff169050919050565b5f6007821115611696575f80fd5b5f5b828110156116c6576116ac33600b546119ed565b600b5f815460010191905081905550806001019050611698565b50600b549050919050565b8173ffffffffffffffffffffffffffffffffffffffff168373ffffffffffffffffffffffffffffffffffffffff160361173f576040517f08c379a000000000000000000000000000000000000000000000000000000000815260040161173690612a49565b60405180910390fd5b8060055f8573ffffffffffffffffffffffffffffffffffffffff1673ffffffffffffffffffffffffffffffffffffffff1681526020019081526020015f205f8473ffffffffffffffffffffffffffffffffffffffff1673ffffffffffffffffffffffffffffffffffffffff1681526020019081526020015f205f6101000a81548160ff0219169083151502179055508173ffffffffffffffffffffffffffffffffffffffff168373ffffffffffffffffffffffffffffffffffffffff167f17307eab39ab6107e8899845ad3d59bd9653f200f220920489ca2b5937696c318360405161182b9190611fa0565b60405180910390a3505050565b5f600f5f9054906101000a900460ff1615600f5f6101000a81548160ff0219169083151502179055905090565b611870848484611363565b61187c84848484611c00565b6118bb576040517f08c379a00000000000000000000000000000000000000000000000000000000081526004016118b290612ad7565b60405180910390fd5b50505050565b606060405180602001604052805f815250905090565b60605f60016118e584611d82565b0190505f8167ffffffffffffffff81111561190357611902612306565b5b6040519080825280601f01601f1916602001820160405280156119355781602001600182028036833780820191505090505b5090505f82602001820190505b600115611996578080600190039150507f3031323334353637383961626364656600000000000000000000000000000000600a86061a8153600a858161198b5761198a612af5565b5b0494505f8503611942575b819350505050919050565b5f8073ffffffffffffffffffffffffffffffffffffffff166119c28361164f565b73ffffffffffffffffffffffffffffffffffffffff1614159050919050565b50505050565b50505050565b5f73ffffffffffffffffffffffffffffffffffffffff168273ffffffffffffffffffffffffffffffffffffffff1603611a5b576040517f08c379a0000000000000000000000000000000000000000000000000000000008152600401611a5290612b6c565b60405180910390fd5b611a64816119a1565b15611aa4576040517f08c379a0000000000000000000000000000000000000000000000000000000008152600401611a9b90612bd4565b60405180910390fd5b611ab15f838360016119e1565b611aba816119a1565b15611afa576040517f08c379a0000000000000000000000000000000000000000000000000000000008152600401611af190612bd4565b60405180910390fd5b600160035f8473ffffffffffffffffffffffffffffffffffffffff1673ffffffffffffffffffffffffffffffffffffffff1681526020019081526020015f205f82825401925050819055508160025f8381526020019081526020015f205f6101000a81548173ffffffffffffffffffffffffffffffffffffffff021916908373ffffffffffffffffffffffffffffffffffffffff160217905550808273ffffffffffffffffffffffffffffffffffffffff165f73ffffffffffffffffffffffffffffffffffffffff167fddf252ad1be2c89b69c2b068fc378daa952ba7f163c4a11628f55a4df523b3ef60405160405180910390a4611bfc5f838360016119e7565b5050565b5f611c208473ffffffffffffffffffffffffffffffffffffffff16611ed3565b15611d75578373ffffffffffffffffffffffffffffffffffffffff1663150b7a02611c49611212565b8786866040518563ffffffff1660e01b8152600401611c6b9493929190612bf2565b6020604051808303815f875af1925050508015611ca657506040513d601f19601f82011682018060405250810190611ca39190612c50565b60015b611d25573d805f8114611cd4576040519150601f19603f3d011682016040523d82523d5f602084013e611cd9565b606091505b505f815103611d1d576040517f08c379a0000000000000000000000000000000000000000000000000000000008152600401611d1490612ad7565b60405180910390fd5b805181602001fd5b63150b7a0260e01b7bffffffffffffffffffffffffffffffffffffffffffffffffffffffff1916817bffffffffffffffffffffffffffffffffffffffffffffffffffffffff191614915050611d7a565b600190505b949350505050565b5f805f90507a184f03e93ff9f4daa797ed6e38ed64bf6a1f0100000000000000008310611dde577a184f03e93ff9f4daa797ed6e38ed64bf6a1f0100000000000000008381611dd457611dd3612af5565b5b0492506040810190505b6d04ee2d6d415b85acef81000000008310611e1b576d04ee2d6d415b85acef81000000008381611e1157611e10612af5565b5b0492506020810190505b662386f26fc100008310611e4a57662386f26fc100008381611e4057611e3f612af5565b5b0492506010810190505b6305f5e1008310611e73576305f5e1008381611e6957611e68612af5565b5b0492506008810190505b6127108310611e98576127108381611e8e57611e8d612af5565b5b0492506004810190505b60648310611ebb5760648381611eb157611eb0612af5565b5b0492506002810190505b600a8310611eca576001810190505b80915050919050565b5f808273ffffffffffffffffffffffffffffffffffffffff163b119050919050565b5f604051905090565b5f80fd5b5f80fd5b5f7fffffffff0000000000000000000000000000000000000000000000000000000082169050919050565b611f3a81611f06565b8114611f44575f80fd5b50565b5f81359050611f5581611f31565b92915050565b5f60208284031215611f7057611f6f611efe565b5b5f611f7d84828501611f47565b91505092915050565b5f8115159050919050565b611f9a81611f86565b82525050565b5f602082019050611fb35f830184611f91565b92915050565b5f81519050919050565b5f82825260208201905092915050565b5f5b83811015611ff0578082015181840152602081019050611fd5565b5f8484015250505050565b5f601f19601f8301169050919050565b5f61201582611fb9565b61201f8185611fc3565b935061202f818560208601611fd3565b61203881611ffb565b840191505092915050565b5f6020820190508181035f83015261205b818461200b565b905092915050565b5f819050919050565b61207581612063565b811461207f575f80fd5b50565b5f813590506120908161206c565b92915050565b5f602082840312156120ab576120aa611efe565b5b5f6120b884828501612082565b91505092915050565b5f73ffffffffffffffffffffffffffffffffffffffff82169050919050565b5f6120ea826120c1565b9050919050565b6120fa816120e0565b82525050565b5f6020820190506121135f8301846120f1565b92915050565b612122816120e0565b811461212c575f80fd5b50565b5f8135905061213d81612119565b92915050565b5f806040838503121561215957612158611efe565b5b5f6121668582860161212f565b925050602061217785828601612082565b9150509250929050565b61218a81612063565b82525050565b5f6020820190506121a35f830184612181565b92915050565b5f805f606084860312156121c0576121bf611efe565b5b5f6121cd8682870161212f565b93505060206121de8682870161212f565b92505060406121ef86828701612082565b9150509250925092565b5f6020828403121561220e5761220d611efe565b5b5f61221b8482850161212f565b91505092915050565b5f81519050919050565b5f82825260208201905092915050565b5f61224882612224565b612252818561222e565b9350612262818560208601611fd3565b61226b81611ffb565b840191505092915050565b5f6020820190508181035f83015261228e818461223e565b905092915050565b61229f81611f86565b81146122a9575f80fd5b50565b5f813590506122ba81612296565b92915050565b5f80604083850312156122d6576122d5611efe565b5b5f6122e38582860161212f565b92505060206122f4858286016122ac565b9150509250929050565b5f80fd5b5f80fd5b7f4e487b71000000000000000000000000000000000000000000000000000000005f52604160045260245ffd5b61233c82611ffb565b810181811067ffffffffffffffff8211171561235b5761235a612306565b5b80604052505050565b5f61236d611ef5565b90506123798282612333565b919050565b5f67ffffffffffffffff82111561239857612397612306565b5b6123a182611ffb565b9050602081019050919050565b828183375f83830152505050565b5f6123ce6123c98461237e565b612364565b9050828152602081018484840111156123ea576123e9612302565b5b6123f58482856123ae565b509392505050565b5f82601f830112612411576124106122fe565b5b81356124218482602086016123bc565b91505092915050565b5f805f806080858703121561244257612441611efe565b5b5f61244f8782880161212f565b94505060206124608782880161212f565b935050604061247187828801612082565b925050606085013567ffffffffffffffff81111561249257612491611f02565b5b61249e878288016123fd565b91505092959194509250565b5f80604083850312156124c0576124bf611efe565b5b5f6124cd8582860161212f565b92505060206124de8582860161212f565b9150509250929050565b7f4e487b71000000000000000000000000000000000000000000000000000000005f52602260045260245ffd5b5f600282049050600182168061252c57607f821691505b60208210810361253f5761253e6124e8565b5b50919050565b7f4552433732313a20617070726f76616c20746f2063757272656e74206f776e655f8201527f7200000000000000000000000000000000000000000000000000000000000000602082015250565b5f61259f602183611fc3565b91506125aa82612545565b604082019050919050565b5f6020820190508181035f8301526125cc81612593565b9050919050565b7f4552433732313a20617070726f76652063616c6c6572206973206e6f7420746f5f8201527f6b656e206f776e6572206f7220617070726f76656420666f7220616c6c000000602082015250565b5f61262d603d83611fc3565b9150612638826125d3565b604082019050919050565b5f6020820190508181035f83015261265a81612621565b9050919050565b7f4552433732313a2063616c6c6572206973206e6f7420746f6b656e206f776e655f8201527f72206f7220617070726f76656400000000000000000000000000000000000000602082015250565b5f6126bb602d83611fc3565b91506126c682612661565b604082019050919050565b5f6020820190508181035f8301526126e8816126af565b9050919050565b7f4552433732313a20696e76616c696420746f6b656e20494400000000000000005f82015250565b5f612723601883611fc3565b915061272e826126ef565b602082019050919050565b5f6020820190508181035f83015261275081612717565b9050919050565b7f4552433732313a2061646472657373207a65726f206973206e6f7420612076615f8201527f6c6964206f776e65720000000000000000000000000000000000000000000000602082015250565b5f6127b1602983611fc3565b91506127bc82612757565b604082019050919050565b5f6020820190508181035f8301526127de816127a5565b9050919050565b7f4e487b71000000000000000000000000000000000000000000000000000000005f52601160045260245ffd5b5f61281c82612063565b915061282783612063565b925082820190508082111561283f5761283e6127e5565b5b92915050565b5f61284f82612063565b915061285a83612063565b925082820261286881612063565b9150828204841483151761287f5761287e6127e5565b5b5092915050565b5f81905092915050565b5f61289a82611fb9565b6128a48185612886565b93506128b4818560208601611fd3565b80840191505092915050565b5f6128cb8285612890565b91506128d78284612890565b91508190509392505050565b7f4552433732313a207472616e736665722066726f6d20696e636f7272656374205f8201527f6f776e6572000000000000000000000000000000000000000000000000000000602082015250565b5f61293d602583611fc3565b9150612948826128e3565b604082019050919050565b5f6020820190508181035f83015261296a81612931565b9050919050565b7f4552433732313a207472616e7366657220746f20746865207a65726f206164645f8201527f7265737300000000000000000000000000000000000000000000000000000000602082015250565b5f6129cb602483611fc3565b91506129d682612971565b604082019050919050565b5f6020820190508181035f8301526129f8816129bf565b9050919050565b7f4552433732313a20617070726f766520746f2063616c6c6572000000000000005f82015250565b5f612a33601983611fc3565b9150612a3e826129ff565b602082019050919050565b5f6020820190508181035f830152612a6081612a27565b9050919050565b7f4552433732313a207472616e7366657220746f206e6f6e2045524337323152655f8201527f63656976657220696d706c656d656e7465720000000000000000000000000000602082015250565b5f612ac1603283611fc3565b9150612acc82612a67565b604082019050919050565b5f6020820190508181035f830152612aee81612ab5565b9050919050565b7f4e487b71000000000000000000000000000000000000000000000000000000005f52601260045260245ffd5b7f4552433732313a206d696e7420746f20746865207a65726f20616464726573735f82015250565b5f612b56602083611fc3565b9150612b6182612b22565b602082019050919050565b5f6020820190508181035f830152612b8381612b4a565b9050919050565b7f4552433732313a20746f6b656e20616c7265616479206d696e746564000000005f82015250565b5f612bbe601c83611fc3565b9150612bc982612b8a565b602082019050919050565b5f6020820190508181035f830152612beb81612bb2565b9050919050565b5f608082019050612c055f8301876120f1565b612c1260208301866120f1565b612c1f6040830185612181565b8181036060830152612c31818461223e565b905095945050505050565b5f81519050612c4a81611f31565b92915050565b5f60208284031215612c6557612c64611efe565b5b5f612c7284828501612c3c565b9150509291505056fea2646970667358221220d8da73721b0f0355119612c04e80e8d68f5afde8fab5f3da077375c62d5cb26264736f6c63430008170033608060405234801562000010575f80fd5b5060405162001c0738038062001c078339818101604052810190620000369190620001cb565b335f806101000a81548173ffffffffffffffffffffffffffffffffffffffff021916908373ffffffffffffffffffffffffffffffffffffffff1602179055506040518060400160405280601a81526020017f4245204652455348204d5920465255495459204652454e5a202100000000000081525060039081620000bb91906200046b565b505f60018190555081600281905550620000db81620000e460201b60201c565b5050506200054f565b5f8160055f6101000a81548173ffffffffffffffffffffffffffffffffffffffff021916908373ffffffffffffffffffffffffffffffffffffffff16021790555060019050919050565b5f80fd5b5f819050919050565b620001468162000132565b811462000151575f80fd5b50565b5f8151905062000164816200013b565b92915050565b5f73ffffffffffffffffffffffffffffffffffffffff82169050919050565b5f62000195826200016a565b9050919050565b620001a78162000189565b8114620001b2575f80fd5b50565b5f81519050620001c5816200019c565b92915050565b5f8060408385031215620001e457620001e36200012e565b5b5f620001f38582860162000154565b92505060206200020685828601620001b5565b9150509250929050565b5f81519050919050565b7f4e487b71000000000000000000000000000000000000000000000000000000005f52604160045260245ffd5b7f4e487b71000000000000000000000000000000000000000000000000000000005f52602260045260245ffd5b5f60028204905060018216806200028c57607f821691505b602082108103620002a257620002a162000247565b5b50919050565b5f819050815f5260205f209050919050565b5f6020601f8301049050919050565b5f82821b905092915050565b5f60088302620003067fffffffffffffffffffffffffffffffffffffffffffffffffffffffffffffffff82620002c9565b620003128683620002c9565b95508019841693508086168417925050509392505050565b5f819050919050565b5f620003536200034d620003478462000132565b6200032a565b62000132565b9050919050565b5f819050919050565b6200036e8362000333565b620003866200037d826200035a565b848454620002d5565b825550505050565b5f90565b6200039c6200038e565b620003a981848462000363565b505050565b5b81811015620003d057620003c45f8262000392565b600181019050620003af565b5050565b601f8211156200041f57620003e981620002a8565b620003f484620002ba565b8101602085101562000404578190505b6200041c6200041385620002ba565b830182620003ae565b50505b505050565b5f82821c905092915050565b5f620004415f198460080262000424565b1980831691505092915050565b5f6200045b838362000430565b9150826002028217905092915050565b620004768262000210565b67ffffffffffffffff8111156200049257620004916200021a565b5b6200049e825462000274565b620004ab828285620003d4565b5f60209050601f831160018114620004e1575f8415620004cc578287015190505b620004d885826200044e565b86555062000547565b601f198416620004f186620002a8565b5f5b828110156200051a57848901518255600182019150602085019450602081019050620004f3565b868310156200053a578489015162000536601f89168262000430565b8355505b6001600288020188555050505b505050505050565b6116aa806200055d5f395ff3fe6080604052600436106100f2575f3560e01c806377b3cc9a11610089578063e21f37ce11610058578063e21f37ce1461033c578063ece866b914610366578063f794062e14610390578063f851a440146103cc576100f2565b806377b3cc9a1461027c578063c4784fd4146102a6578063c85e07b9146102d6578063cc87ec5f14610300576100f2565b8063329dd364116100c5578063329dd364146101c2578063365b98b2146101ec5780633ccfd60b146102285780636ac5db1914610252576100f2565b806301c0fb4c146100f6578063161dbc14146101325780632a0c74d41461016e5780632f71365514610198575b5f80fd5b348015610101575f80fd5b5061011c60048036038101906101179190610e2e565b6103f6565b6040516101299190610e73565b60405180910390f35b34801561013d575f80fd5b5061015860048036038101906101539190610fc8565b610407565b6040516101659190610e73565b60405180910390f35b348015610179575f80fd5b506101826104ac565b60405161018f9190611089565b60405180910390f35b3480156101a3575f80fd5b506101ac61053c565b6040516101b99190611104565b60405180910390f35b3480156101cd575f80fd5b506101d6610561565b6040516101e391906111c3565b60405180910390f35b3480156101f7575f80fd5b50610212600480360381019061020d9190611210565b6105e3565b60405161021f919061124a565b60405180910390f35b348015610233575f80fd5b5061023c610618565b6040516102499190611272565b60405180910390f35b34801561025d575f80fd5b50610266610706565b6040516102739190611272565b60405180910390f35b348015610287575f80fd5b5061029061070c565b60405161029d9190610e73565b60405180910390f35b6102c060048036038101906102bb9190610fc8565b6108f9565b6040516102cd9190610e73565b60405180910390f35b3480156102e1575f80fd5b506102ea6109a3565b6040516102f79190611272565b60405180910390f35b34801561030b575f80fd5b5061032660048036038101906103219190610e2e565b6109a9565b6040516103339190610e73565b60405180910390f35b348015610347575f80fd5b50610350610bdf565b60405161035d9190611089565b60405180910390f35b348015610371575f80fd5b5061037a610c6b565b6040516103879190611272565b60405180910390f35b34801561039b575f80fd5b506103b660048036038101906103b19190610e2e565b610c71565b6040516103c39190610e73565b60405180910390f35b3480156103d7575f80fd5b506103e0610c8e565b6040516103ed919061124a565b60405180910390f35b5f61040082610cb1565b9050919050565b5f3373ffffffffffffffffffffffffffffffffffffffff165f8054906101000a900473ffffffffffffffffffffffffffffffffffffffff1673ffffffffffffffffffffffffffffffffffffffff161461048c576040517f82b4290000000000000000000000000000000000000000000000000000000000815260040160405180910390fd5b816003908161049b919061147c565b504260048190555060019050919050565b6060600380546104bb906112b8565b80601f01602080910402602001604051908101604052809291908181526020018280546104e7906112b8565b80156105325780601f1061050957610100808354040283529160200191610532565b820191905f5260205f20905b81548152906001019060200180831161051557829003601f168201915b5050505050905090565b60055f9054906101000a900473ffffffffffffffffffffffffffffffffffffffff1681565b610569610d9f565b60076104d28060200260405190810160405280929190826104d280156105d9576020028201915b815f9054906101000a900473ffffffffffffffffffffffffffffffffffffffff1673ffffffffffffffffffffffffffffffffffffffff1681526020019060010190808311610590575b5050505050905090565b6007816104d281106105f3575f80fd5b015f915054906101000a900473ffffffffffffffffffffffffffffffffffffffff1681565b5f3373ffffffffffffffffffffffffffffffffffffffff165f8054906101000a900473ffffffffffffffffffffffffffffffffffffffff1673ffffffffffffffffffffffffffffffffffffffff161461069d576040517f82b4290000000000000000000000000000000000000000000000000000000000815260040160405180910390fd5b5f8054906101000a900473ffffffffffffffffffffffffffffffffffffffff1673ffffffffffffffffffffffffffffffffffffffff166108fc4790811502906040515f60405180830381858888f193505050501580156106ff573d5f803e3d5ffd5b5047905090565b60025481565b5f336001151560065f8373ffffffffffffffffffffffffffffffffffffffff1673ffffffffffffffffffffffffffffffffffffffff1681526020019081526020015f205f9054906101000a900460ff16151503610795576040517fe08ca6b000000000000000000000000000000000000000000000000000000000815260040160405180910390fd5b600254600154106107d2576040517fea5db9c500000000000000000000000000000000000000000000000000000000815260040160405180910390fd5b600160065f3373ffffffffffffffffffffffffffffffffffffffff1673ffffffffffffffffffffffffffffffffffffffff1681526020019081526020015f205f6101000a81548160ff0219169083151502179055503360076001546104d2811061083f5761083e61154b565b5b015f6101000a81548173ffffffffffffffffffffffffffffffffffffffff021916908373ffffffffffffffffffffffffffffffffffffffff16021790555060015f81548092919061088f906115a5565b9190505550600254600154036108a9576108a7610cfb565b505b60065f3373ffffffffffffffffffffffffffffffffffffffff1673ffffffffffffffffffffffffffffffffffffffff1681526020019081526020015f205f9054906101000a900460ff1691505090565b5f670de0b6b3a7640000341161093b576040517f99956c4600000000000000000000000000000000000000000000000000000000815260040160405180910390fd5b610e1060045461094b91906115ec565b4211610983576040517f7cd5facc00000000000000000000000000000000000000000000000000000000815260040160405180910390fd5b8160039081610992919061147c565b504260048190555060019050919050565b60045481565b5f816001151560065f8373ffffffffffffffffffffffffffffffffffffffff1673ffffffffffffffffffffffffffffffffffffffff1681526020019081526020015f205f9054906101000a900460ff16151503610a32576040517fe08ca6b000000000000000000000000000000000000000000000000000000000815260040160405180910390fd5b3373ffffffffffffffffffffffffffffffffffffffff165f8054906101000a900473ffffffffffffffffffffffffffffffffffffffff1673ffffffffffffffffffffffffffffffffffffffff1614610ab6576040517f82b4290000000000000000000000000000000000000000000000000000000000815260040160405180910390fd5b600160065f8573ffffffffffffffffffffffffffffffffffffffff1673ffffffffffffffffffffffffffffffffffffffff1681526020019081526020015f205f6101000a81548160ff0219169083151502179055508260076001546104d28110610b2357610b2261154b565b5b015f6101000a81548173ffffffffffffffffffffffffffffffffffffffff021916908373ffffffffffffffffffffffffffffffffffffffff16021790555060015f815480929190610b73906115a5565b919050555060025460015403610b8d57610b8b610cfb565b505b60065f8473ffffffffffffffffffffffffffffffffffffffff1673ffffffffffffffffffffffffffffffffffffffff1681526020019081526020015f205f9054906101000a900460ff16915050919050565b60038054610bec906112b8565b80601f0160208091040260200160405190810160405280929190818152602001828054610c18906112b8565b8015610c635780601f10610c3a57610100808354040283529160200191610c63565b820191905f5260205f20905b815481529060010190602001808311610c4657829003601f168201915b505050505081565b60015481565b6006602052805f5260405f205f915054906101000a900460ff1681565b5f8054906101000a900473ffffffffffffffffffffffffffffffffffffffff1681565b5f8160055f6101000a81548173ffffffffffffffffffffffffffffffffffffffff021916908373ffffffffffffffffffffffffffffffffffffffff16021790555060019050919050565b5f60025460015414610d0b575f80fd5b60055f9054906101000a900473ffffffffffffffffffffffffffffffffffffffff1673ffffffffffffffffffffffffffffffffffffffff1663b524fd6f6040518163ffffffff1660e01b81526004016020604051808303815f875af1158015610d76573d5f803e3d5ffd5b505050506040513d601f19601f82011682018060405250810190610d9a9190611649565b905090565b60405180619a4001604052806104d290602082028036833780820191505090505090565b5f604051905090565b5f80fd5b5f80fd5b5f73ffffffffffffffffffffffffffffffffffffffff82169050919050565b5f610dfd82610dd4565b9050919050565b610e0d81610df3565b8114610e17575f80fd5b50565b5f81359050610e2881610e04565b92915050565b5f60208284031215610e4357610e42610dcc565b5b5f610e5084828501610e1a565b91505092915050565b5f8115159050919050565b610e6d81610e59565b82525050565b5f602082019050610e865f830184610e64565b92915050565b5f80fd5b5f80fd5b5f601f19601f8301169050919050565b7f4e487b71000000000000000000000000000000000000000000000000000000005f52604160045260245ffd5b610eda82610e94565b810181811067ffffffffffffffff82111715610ef957610ef8610ea4565b5b80604052505050565b5f610f0b610dc3565b9050610f178282610ed1565b919050565b5f67ffffffffffffffff821115610f3657610f35610ea4565b5b610f3f82610e94565b9050602081019050919050565b828183375f83830152505050565b5f610f6c610f6784610f1c565b610f02565b905082815260208101848484011115610f8857610f87610e90565b5b610f93848285610f4c565b509392505050565b5f82601f830112610faf57610fae610e8c565b5b8135610fbf848260208601610f5a565b91505092915050565b5f60208284031215610fdd57610fdc610dcc565b5b5f82013567ffffffffffffffff811115610ffa57610ff9610dd0565b5b61100684828501610f9b565b91505092915050565b5f81519050919050565b5f82825260208201905092915050565b5f5b8381101561104657808201518184015260208101905061102b565b5f8484015250505050565b5f61105b8261100f565b6110658185611019565b9350611075818560208601611029565b61107e81610e94565b840191505092915050565b5f6020820190508181035f8301526110a18184611051565b905092915050565b5f819050919050565b5f6110cc6110c76110c284610dd4565b6110a9565b610dd4565b9050919050565b5f6110dd826110b2565b9050919050565b5f6110ee826110d3565b9050919050565b6110fe816110e4565b82525050565b5f6020820190506111175f8301846110f5565b92915050565b5f6104d29050919050565b5f81905092915050565b5f819050919050565b61114481610df3565b82525050565b5f611155838361113b565b60208301905092915050565b5f602082019050919050565b6111768161111d565b6111808184611128565b925061118b82611132565b805f5b838110156111bb5781516111a2878261114a565b96506111ad83611161565b92505060018101905061118e565b505050505050565b5f619a40820190506111d75f83018461116d565b92915050565b5f819050919050565b6111ef816111dd565b81146111f9575f80fd5b50565b5f8135905061120a816111e6565b92915050565b5f6020828403121561122557611224610dcc565b5b5f611232848285016111fc565b91505092915050565b61124481610df3565b82525050565b5f60208201905061125d5f83018461123b565b92915050565b61126c816111dd565b82525050565b5f6020820190506112855f830184611263565b92915050565b7f4e487b71000000000000000000000000000000000000000000000000000000005f52602260045260245ffd5b5f60028204905060018216806112cf57607f821691505b6020821081036112e2576112e161128b565b5b50919050565b5f819050815f5260205f209050919050565b5f6020601f8301049050919050565b5f82821b905092915050565b5f600883026113447fffffffffffffffffffffffffffffffffffffffffffffffffffffffffffffffff82611309565b61134e8683611309565b95508019841693508086168417925050509392505050565b5f61138061137b611376846111dd565b6110a9565b6111dd565b9050919050565b5f819050919050565b61139983611366565b6113ad6113a582611387565b848454611315565b825550505050565b5f90565b6113c16113b5565b6113cc818484611390565b505050565b5b818110156113ef576113e45f826113b9565b6001810190506113d2565b5050565b601f82111561143457611405816112e8565b61140e846112fa565b8101602085101561141d578190505b611431611429856112fa565b8301826113d1565b50505b505050565b5f82821c905092915050565b5f6114545f1984600802611439565b1980831691505092915050565b5f61146c8383611445565b9150826002028217905092915050565b6114858261100f565b67ffffffffffffffff81111561149e5761149d610ea4565b5b6114a882546112b8565b6114b38282856113f3565b5f60209050601f8311600181146114e4575f84156114d2578287015190505b6114dc8582611461565b865550611543565b601f1984166114f2866112e8565b5f5b82811015611519578489015182556001820191506020850194506020810190506114f4565b868310156115365784890151611532601f891682611445565b8355505b6001600288020188555050505b505050505050565b7f4e487b71000000000000000000000000000000000000000000000000000000005f52603260045260245ffd5b7f4e487b71000000000000000000000000000000000000000000000000000000005f52601160045260245ffd5b5f6115af826111dd565b91507fffffffffffffffffffffffffffffffffffffffffffffffffffffffffffffffff82036115e1576115e0611578565b5b600182019050919050565b5f6115f6826111dd565b9150611601836111dd565b925082820190508082111561161957611618611578565b5b92915050565b61162881610e59565b8114611632575f80fd5b50565b5f815190506116438161161f565b92915050565b5f6020828403121561165e5761165d610dcc565b5b5f61166b84828501611635565b9150509291505056fea2646970667358221220f74ffa6fa74d3894f6689da3baf6269cd014f91d3e2d1e784c6b253e73b76fae64736f6c63430008170033a26469706673582212200eec01bf029960cc49f9f3197a010091b98ea74a829b829e80ee750a4165f15464736f6c63430008170033",
  "immutableReferences": {},
  "source": "// SPDX-License-Identifier: GPL-3.0\n// // // // // // // // // // // // // // // // // // // // // // // // // // // // // // // // // // // // // // // // // // // // // // // // // // // // // // // // // // // // //\n//\n//      MMWKd:..                                                                                    ..:dKWMM\n//      MKl.                                                                                            .lKW\n//      O'       ..''''''''''''.     .''''''.     .'''''.      .''''''''''''''.     .''''''''''''..       'O\n//      '     .ckKNNWNWWWWWWWWWk.   .xNWWNWNl    ,0WWWWW0,     lNWWWWWWWWWNWNk'    ;0NNNWWWWWWWWNNKkc.     '\n//           ,OWMMMMMMMMMMMMMMMO.   .kMMMMMWl    ,KMMMMMK,     lWMMMMMMMMMMM0,    ;KMMMMMMMMMMMMMMMMWO,\n//          .kMMMMMMMMMMMMMMMMMO.   .kMMMMMWl    ,KMMMMMK,     lWMMMMMMMMMM0,    ;KMMMMMMMMMMMMMMMMMMMk.\n//          '0MMMMMMMMMMMMMMMMMO.   .kMMMMMWl    ,KMMMMMK,     lWMMMMMMMMM0,    :KMMMMMMMMMMMMMMMMMMMM0'\n//          '0MMMMMMMMMMMMMMMMMO.   .kMMMMMWl    ,KMMMMMK,     lWMMMMMMMM0,    :KMMMMMMMMMMMMMMMMMMMMM0'\n//          '0MMMMMMMMMMMMMMMMMO.   .kMMMMMWl    ,KMMMMMK,     lWMMMMMMM0,    ;0NNWWMMMMMMMMMMMMMMMMMM0'\n//          '0MMMMMMMMMMMMMMMMMO.   .kMMMMMWl    ,KMMMMMK,     lWMMMMMM0,     .'.',;lkNMMMMMMMMMMMMMMM0'\n//          '0MMMMMMMMMMMMMMMMMO.   .kMMMMMWl    ,KMMMMMK,     lWMMMMMK;              ,kWMMMMMMMMMMMMM0'\n//          '0MMMMMMMMMMMMMMMMMO.   .kMMMMMWl    ,KMMMMMK,     lWMMMMX:    .:oxxdc'    .dWMMMMMMMMMMMM0'\n//          '0MMMMMMMMMMMMMMMMMO.   .kMMMMMWl    ,KMMMMMK,     lWMMMWd.   ,OWMMMMMXl.   '0MMMMMMMMMMMM0'\n//          '0MMMMMMMMMMMMMMMMMO.   .kMMMMMWl    ,KMMMMMK,     lWMMMX;   .kMMMMMMMMK,   .xMMMMMMMMMMMM0'\n//          '0MMMMMMMMMMMMMMMMMO.   .kMMMMMWl    ,KMMMMMK,     lWMMM0'   .OMMMMMMMMX;   .xMMMMMMMMMMMM0'\n//          .OMMMMMMMMMMMMMMMMMO.   .kMMMMMWl    ,KMMMMMK,     lWMMMK,    lNMMMMMMWx.   '0MMMMMMMMMMMMO.\n//           lNMMMMMMMMMMMMMMMMO.   .kMMMMMWl    ,KMMMMMK,     lWMMMWd.   .:x0KKKkc.   .dWMMMMMMMMMMMNl\n//      .    .c0WMMMMMMMMMMMMMMO.   .kMMMMMWo    ,KMMMMMK,     lWMMMMNd.     ....     .xNMMMMMMMMMMW0c.    .\n//      l      .,lddxxxxxxxxxxxc.    :xxxxxd,    .lxxxxxl.     ,dxxxxxd:.            .cdxxxxxxxxddl,.      l\n//      No.                                                                                              .oN\n//      MW0l'                                                                                          'l0WM\n//      MMMWKd;.                                                                                    .;dKWMMM\n//\n// // // // // // // // // // // // // // // // // // // // // // // // // // // // // // // // // // // // // // // // // // // // // // // // // // // // // // // // // // // // //\n//                                                                                                                                                                                  //\n//      @dev            ::              Aron Mauritala Ayuk                                                                                                                                          //\n//      @msg            ::              stereo@iii6.xyz                                                                                                                                   //\n//      @github         ::              @stereoIII6\n//      @twitter        ::              @stereoIII6                                                                                                                                              //\n//                                                                                                                                                                                  //\n// // // // // // // // // // // // // // // // // // // // // // // // // // // // // // // // // // // // // // // // // // // // // // // // // // // // // // // // // // // // //\n//                                                                                                                                                                                  //\n//      @dev            ::              Juan Xavier Valverde                                                                                                                                    //\n//      @msg            ::              juanxavier@iii6.xyz                                                                                                                               //\n//      @twitter        ::              @JuanXavier                                                                                                                                             //\n//      @github         ::              @JuanXavier                                                                                                                                             //\n//                                                                                                                                                                                  //                                                                                                                                                                                 //\n// // // // // // // // // // // // // // // // // // // // // // // // // // // // // // // // // // // // // // // // // // // // // // // // // // // // // // // // // // // // //\n//  *   *   *   *   *   *   *   *   *   *   *   *   *   *   *   *   *   *   *   *   *   *   *   *   *   *   *   *   *   *   *   *   *   *   *   *   *   *   *   *   *   *   *   *   //\n// // // // // // // // // // // // // // // // // // // // // // // // // // // // // // // // // // // // // // // // // // // // // // // // // // // // // // // // // // // // //\n//                                                                                                                                                                                  //\n//      @company        ::              Fractio Holding                                                                                                                                                                       //\n//      @title          ::              iii6 Coin Factory                                                                                                                            //\n//      @description    ::              ERC721 DIA Factory Contract                                                                                                                           //\n//      @version        ::              0.0.1                                                                                                                                       //\n//      @purpose        ::              ERC721 DIA Factory                                                                                                          //\n//                                                                                                                                                                                  //\n//                                                                                                                                                                                  //\n//                                                                                                                                                                                  //\n//                                                                                                                                                                                  //\n//                                                                                                                                                                                  //\n// // // // // // // // // // // // // // // // // // // // // // // // // // // // // // // // // // // // // // // // // // // // // // // // // // // // // // // // // // // // //\n//  *   *   *   *   *   *   *   *   *   *   *   *   *   *   *   *   *   *   *   *   *   *   *   *   *   *   *   *   *   *   *   *   *   *   *   *   *   *   *   *   *   *   *   *   //\n// // // // // // // // // // // // // // // // // // // // // // // // // // // // // // // // // // // // // // // // // // // // // // // // // // // // // // // // // // // // //\n\n/////////////////////////////////////////////////////////////////////////////////////////////////////////////////////\n\n/////////////////////////////////////////////////////////////////////////////////////////////////////////////////////\n\npragma solidity ^0.8.7;\n\nimport \"./iii6DiaModel.sol\";\nimport \"../Math/iii6PriceMath.sol\";\n\ncontract iii6AssetFactory {\n    /**\n     * @dev this contract is a model contract to be deployed through the iii6AssetFactory\n     */\n    // \n    // \n    // \n    // \n    // \n    // \n\n    /*\n     * @dev this constructor creates a Dia NFT Token Contract\n     * @param _owner contract admin\n     * @param _name dia token name\n     * @param _max amount of tokens 0 = infinte\n     * @param _price amount of gascoin for token\n     * @param _cName name of related ERC20 token\n     * @param _cSym symbol of related ERC20 token\n     * @param _c bool if related coin exists\n     * @param _cs max supply of related ERC20 token 0 = infinite\n     * @param _rate price of related ERC20 token in gascoin\n     * @param _g number of greenlist slots for Dia NFT project 0 = no greenlist\n     */\n    constructor() {}\n\n    // function creates a ERC721 Token Contract\n    function _makeERC721Asset(\n        string memory _name,\n        string memory _sym,\n        uint256 _max,\n        uint256 _price,\n        uint256 _g\n    ) internal returns (address) {\n        // chose token model\n        iii6DiaModel diaToken;\n        /**\n         * @dev this constructor creates a Dia NFT Token Contract\n         * @param _owner contract admin\n         * @param _name dia token name\n         * @param _sym dia token name\n         * @param _max amount of tokens 0 = infinte\n         * @param _price amount of gascoin for Dia token\n         * @param _g number of greenlist slots for Dia NFT project 0 = no greenlist\n         */\n        diaToken = new iii6DiaModel(msg.sender, _name, _sym, _max, _price, _g);\n        return address(diaToken);\n    }\n\n    /**\n     * @dev function\n     * @param _name dia token name\n     * @param _max amount of tokens 0 = infinte\n     * @param _price amount of gascoin for Dia token\n     * @param _g number of greenlist slots for Dia NFT project 0 = no greenlist\n     */\n    function buildERC721Token(\n        string calldata _name,\n        string calldata _sym,\n        uint256 _max,\n        uint256 _price,\n        uint256 _g\n    ) external payable returns (address) {\n        return _makeERC721Asset(_name, _sym, _max, _price, _g);\n    }\n}\n",
  "sourcePath": "/Users/iii6/Documents/GitHub/Gamble360/contracts/iii6Utils/Assets/iii6AssetFactory.sol",
  "compiler": {
    "name": "solc",
    "version": "0.8.23+commit.f704f362.Emscripten.clang"
  },
  "schemaVersion": "3.4.16",
  "updatedAt": "2023-11-09T15:24:52.348Z",
  "devdoc": {
    "kind": "dev",
    "methods": {
      "buildERC721Token(string,string,uint256,uint256,uint256)": {
        "details": "function",
        "params": {
          "_g": "number of greenlist slots for Dia NFT project 0 = no greenlist",
          "_max": "amount of tokens 0 = infinte",
          "_name": "dia token name",
          "_price": "amount of gascoin for Dia token"
        }
      },
      "constructor": {
        "details": "this contract is a model contract to be deployed through the iii6AssetFactory"
      }
    },
    "version": 1
  },
  "userdoc": {
    "kind": "user",
    "methods": {},
    "version": 1
  }
}