{
  "contractName": "iii6PriceConsumer",
  "abi": [
    {
      "inputs": [],
      "stateMutability": "nonpayable",
      "type": "constructor"
    },
    {
      "inputs": [],
      "name": "WethUsdPrice",
      "outputs": [
        {
          "internalType": "int256",
          "name": "priceFull",
          "type": "int256"
        }
      ],
      "stateMutability": "view",
      "type": "function"
    },
    {
      "inputs": [],
      "name": "CoinUsdPrice",
      "outputs": [
        {
          "internalType": "int256",
          "name": "priceFull",
          "type": "int256"
        }
      ],
      "stateMutability": "view",
      "type": "function"
    },
    {
      "inputs": [
        {
          "internalType": "address",
          "name": "_oracle",
          "type": "address"
        },
        {
          "internalType": "uint256",
          "name": "_digits",
          "type": "uint256"
        }
      ],
      "name": "setX",
      "outputs": [
        {
          "internalType": "bool",
          "name": "",
          "type": "bool"
        }
      ],
      "stateMutability": "nonpayable",
      "type": "function"
    },
    {
      "inputs": [],
      "name": "XUsdPrice",
      "outputs": [
        {
          "internalType": "int256",
          "name": "priceFull",
          "type": "int256"
        }
      ],
      "stateMutability": "view",
      "type": "function"
    },
    {
      "inputs": [
        {
          "internalType": "address",
          "name": "_oracle",
          "type": "address"
        },
        {
          "internalType": "uint256",
          "name": "_digits",
          "type": "uint256"
        }
      ],
      "name": "setY",
      "outputs": [
        {
          "internalType": "bool",
          "name": "",
          "type": "bool"
        }
      ],
      "stateMutability": "nonpayable",
      "type": "function"
    },
    {
      "inputs": [],
      "name": "YUsdPrice",
      "outputs": [
        {
          "internalType": "int256",
          "name": "priceFull",
          "type": "int256"
        }
      ],
      "stateMutability": "view",
      "type": "function"
    }
  ],
  "bytecode": "0x608060405234801562000010575f80fd5b5060014603620000c757735f4ec3df9cbd43714fe2740f5e3616155c5b84195f806101000a81548173ffffffffffffffffffffffffffffffffffffffff021916908373ffffffffffffffffffffffffffffffffffffffff160217905550735f4ec3df9cbd43714fe2740f5e3616155c5b841960015f6101000a81548173ffffffffffffffffffffffffffffffffffffffff021916908373ffffffffffffffffffffffffffffffffffffffff16021790555062000cfc565b600546036200017d5773d4a33860578de61dbabdc8bfdb98fd742fa7028e5f806101000a81548173ffffffffffffffffffffffffffffffffffffffff021916908373ffffffffffffffffffffffffffffffffffffffff16021790555073d4a33860578de61dbabdc8bfdb98fd742fa7028e60015f6101000a81548173ffffffffffffffffffffffffffffffffffffffff021916908373ffffffffffffffffffffffffffffffffffffffff16021790555062000cfb565b61a869460362000234577386d67c3d38d2bcee722e601025c25a575021c6ea5f806101000a81548173ffffffffffffffffffffffffffffffffffffffff021916908373ffffffffffffffffffffffffffffffffffffffff160217905550735498bb86bc934c8d34fda08e81d444153d0d06ad60015f6101000a81548173ffffffffffffffffffffffffffffffffffffffff021916908373ffffffffffffffffffffffffffffffffffffffff16021790555062000cfa565b61a86a4603620002eb5773976b3d034e162d8bd72d6b9c989d545b839003b05f806101000a81548173ffffffffffffffffffffffffffffffffffffffff021916908373ffffffffffffffffffffffffffffffffffffffff160217905550730a77230d17318075983913bc2145db16c736615660015f6101000a81548173ffffffffffffffffffffffffffffffffffffffff021916908373ffffffffffffffffffffffffffffffffffffffff16021790555062000cf9565b610fa24603620003a25773b8c458c957a6e6ca7cc53ed95bea548c52afaa245f806101000a81548173ffffffffffffffffffffffffffffffffffffffff021916908373ffffffffffffffffffffffffffffffffffffffff16021790555073e04676b9a9a2973bcb0d1478b5e1e9098bbb7f3d60015f6101000a81548173ffffffffffffffffffffffffffffffffffffffff021916908373ffffffffffffffffffffffffffffffffffffffff16021790555062000cf8565b60fa460362000458577311ddd3d147e5b83d01cee7070027092397d636585f806101000a81548173ffffffffffffffffffffffffffffffffffffffff021916908373ffffffffffffffffffffffffffffffffffffffff16021790555073f4766552d15ae4d256ad41b6cf2933482b0680dc60015f6101000a81548173ffffffffffffffffffffffffffffffffffffffff021916908373ffffffffffffffffffffffffffffffffffffffff16021790555062000cf7565b6201388146036200051057730715a7794a1dc8e42615f059dd6e406a6594651a5f806101000a81548173ffffffffffffffffffffffffffffffffffffffff021916908373ffffffffffffffffffffffffffffffffffffffff16021790555073d0d5e3db44de05e9f294bb0a3beeaf030de24ada60015f6101000a81548173ffffffffffffffffffffffffffffffffffffffff021916908373ffffffffffffffffffffffffffffffffffffffff16021790555062000cf6565b60894603620005c65773f9680d99d6c9589e2a93a78a04a279e5092059455f806101000a81548173ffffffffffffffffffffffffffffffffffffffff021916908373ffffffffffffffffffffffffffffffffffffffff16021790555073ab594600376ec9fd91f8e885dadf0ce036862de060015f6101000a81548173ffffffffffffffffffffffffffffffffffffffff021916908373ffffffffffffffffffffffffffffffffffffffff16021790555062000cf5565b608946036200067c57739ef1b8c0e4f7dc8bf5719ea496883dc6401d5b2e5f806101000a81548173ffffffffffffffffffffffffffffffffffffffff021916908373ffffffffffffffffffffffffffffffffffffffff160217905550730567f2323251f0aab15c8dfb1967e4e8a7d42aee60015f6101000a81548173ffffffffffffffffffffffffffffffffffffffff021916908373ffffffffffffffffffffffffffffffffffffffff16021790555062000cf4565b60894603620007325773143db3ceefbdfe5631add3e50f7614b6ba708ba75f806101000a81548173ffffffffffffffffffffffffffffffffffffffff021916908373ffffffffffffffffffffffffffffffffffffffff160217905550732514895c72f50d8bd4b4f9b1110f0d6bd2c9752660015f6101000a81548173ffffffffffffffffffffffffffffffffffffffff021916908373ffffffffffffffffffffffffffffffffffffffff16021790555062000cf3565b60644603620007e85773a767f745331d267c7751297d982b050c939856275f806101000a81548173ffffffffffffffffffffffffffffffffffffffff021916908373ffffffffffffffffffffffffffffffffffffffff16021790555073678df3415fc31947da4324ec63212874be5a82f860015f6101000a81548173ffffffffffffffffffffffffffffffffffffffff021916908373ffffffffffffffffffffffffffffffffffffffff16021790555062000cf2565b61a4b146036200089f5773b1f70a229fe7cced0428245db8b1f6c48c7ea82a5f806101000a81548173ffffffffffffffffffffffffffffffffffffffff021916908373ffffffffffffffffffffffffffffffffffffffff16021790555073b1f70a229fe7cced0428245db8b1f6c48c7ea82a60015f6101000a81548173ffffffffffffffffffffffffffffffffffffffff021916908373ffffffffffffffffffffffffffffffffffffffff16021790555062000cf1565b62066eed460362000957577362cae0fa2da220f43a51f86db2edb36dca9a5a085f806101000a81548173ffffffffffffffffffffffffffffffffffffffff021916908373ffffffffffffffffffffffffffffffffffffffff1602179055507362cae0fa2da220f43a51f86db2edb36dca9a5a0860015f6101000a81548173ffffffffffffffffffffffffffffffffffffffff021916908373ffffffffffffffffffffffffffffffffffffffff16021790555062000cf0565b600a460362000a0d577313e3ee699d1909e989722e753853ae30b17e08c55f806101000a81548173ffffffffffffffffffffffffffffffffffffffff021916908373ffffffffffffffffffffffffffffffffffffffff1602179055507313e3ee699d1909e989722e753853ae30b17e08c560015f6101000a81548173ffffffffffffffffffffffffffffffffffffffff021916908373ffffffffffffffffffffffffffffffffffffffff16021790555062000cef565b62066eed460362000ac5577357241a37733983f97c4ab06448f244a1e0ca0ba85f806101000a81548173ffffffffffffffffffffffffffffffffffffffff021916908373ffffffffffffffffffffffffffffffffffffffff1602179055507357241a37733983f97c4ab06448f244a1e0ca0ba860015f6101000a81548173ffffffffffffffffffffffffffffffffffffffff021916908373ffffffffffffffffffffffffffffffffffffffff16021790555062000cee565b610505460362000b7c5773c3cf399566220dc5ed6c8cfbf8247214af103c725f806101000a81548173ffffffffffffffffffffffffffffffffffffffff021916908373ffffffffffffffffffffffffffffffffffffffff160217905550733f8bfbdc1e79777511c00ad8591cef888c2113c160015f6101000a81548173ffffffffffffffffffffffffffffffffffffffff021916908373ffffffffffffffffffffffffffffffffffffffff16021790555062000ced565b610504460362000c3357739ce2388a1696e22f870341c3fc1e89710c7569b55f806101000a81548173ffffffffffffffffffffffffffffffffffffffff021916908373ffffffffffffffffffffffffffffffffffffffff160217905550734497b606be93e773bba5eacfcb2ac5e2214220eb60015f6101000a81548173ffffffffffffffffffffffffffffffffffffffff021916908373ffffffffffffffffffffffffffffffffffffffff16021790555062000cec565b610440460362000cea57733bbe70e2f96c87aece7f67a2b0178052f62e37fe5f806101000a81548173ffffffffffffffffffffffffffffffffffffffff021916908373ffffffffffffffffffffffffffffffffffffffff16021790555073d4a5bb03b5d66d9bf81507379302ac2c2dfdfa6d60015f6101000a81548173ffffffffffffffffffffffffffffffffffffffff021916908373ffffffffffffffffffffffffffffffffffffffff16021790555062000ceb565b5b5b5b5b5b5b5b5b5b5b5b5b5b5b5b5b5b5b6109598062000d0a5f395ff3fe608060405234801561000f575f80fd5b5060043610610060575f3560e01c8063414641df146100645780634a2ad99f1461008257806396722fe5146100b25780639a18c795146100d0578063e9f38fc5146100ee578063f2e9bd7a1461011e575b5f80fd5b61006c61013c565b60405161007991906104fa565b60405180910390f35b61009c600480360381019061009791906105a4565b6101f2565b6040516100a991906105fc565b60405180910390f35b6100ba610205565b6040516100c791906104fa565b60405180910390f35b6100d86102bb565b6040516100e591906104fa565b60405180910390f35b610108600480360381019061010391906105a4565b610366565b60405161011591906105fc565b60405180910390f35b610126610379565b60405161013391906104fa565b60405180910390f35b5f8060025f9054906101000a900473ffffffffffffffffffffffffffffffffffffffff1673ffffffffffffffffffffffffffffffffffffffff1663feaf968c6040518163ffffffff1660e01b815260040160a060405180830381865afa1580156101a8573d5f803e3d5ffd5b505050506040513d601f19601f820116820180604052508101906101cc9190610692565b505050915050600454600a6101e19190610865565b816101ec91906108af565b91505090565b5f6101fd8383610426565b905092915050565b5f8060035f9054906101000a900473ffffffffffffffffffffffffffffffffffffffff1673ffffffffffffffffffffffffffffffffffffffff1663feaf968c6040518163ffffffff1660e01b815260040160a060405180830381865afa158015610271573d5f803e3d5ffd5b505050506040513d601f19601f820116820180604052508101906102959190610692565b505050915050600554600a6102aa9190610865565b816102b591906108af565b91505090565b5f805f8054906101000a900473ffffffffffffffffffffffffffffffffffffffff1673ffffffffffffffffffffffffffffffffffffffff1663feaf968c6040518163ffffffff1660e01b815260040160a060405180830381865afa158015610325573d5f803e3d5ffd5b505050506040513d601f19601f820116820180604052508101906103499190610692565b5050509150506402540be4008161036091906108af565b91505090565b5f6103718383610484565b905092915050565b5f8060015f9054906101000a900473ffffffffffffffffffffffffffffffffffffffff1673ffffffffffffffffffffffffffffffffffffffff1663feaf968c6040518163ffffffff1660e01b815260040160a060405180830381865afa1580156103e5573d5f803e3d5ffd5b505050506040513d601f19601f820116820180604052508101906104099190610692565b5050509150506402540be4008161042091906108af565b91505090565b5f8260025f6101000a81548173ffffffffffffffffffffffffffffffffffffffff021916908373ffffffffffffffffffffffffffffffffffffffff16021790555081601261047491906108f0565b6004819055506001905092915050565b5f8260035f6101000a81548173ffffffffffffffffffffffffffffffffffffffff021916908373ffffffffffffffffffffffffffffffffffffffff1602179055508160126104d291906108f0565b6005819055506001905092915050565b5f819050919050565b6104f4816104e2565b82525050565b5f60208201905061050d5f8301846104eb565b92915050565b5f80fd5b5f73ffffffffffffffffffffffffffffffffffffffff82169050919050565b5f61054082610517565b9050919050565b61055081610536565b811461055a575f80fd5b50565b5f8135905061056b81610547565b92915050565b5f819050919050565b61058381610571565b811461058d575f80fd5b50565b5f8135905061059e8161057a565b92915050565b5f80604083850312156105ba576105b9610513565b5b5f6105c78582860161055d565b92505060206105d885828601610590565b9150509250929050565b5f8115159050919050565b6105f6816105e2565b82525050565b5f60208201905061060f5f8301846105ed565b92915050565b5f69ffffffffffffffffffff82169050919050565b61063381610615565b811461063d575f80fd5b50565b5f8151905061064e8161062a565b92915050565b61065d816104e2565b8114610667575f80fd5b50565b5f8151905061067881610654565b92915050565b5f8151905061068c8161057a565b92915050565b5f805f805f60a086880312156106ab576106aa610513565b5b5f6106b888828901610640565b95505060206106c98882890161066a565b94505060406106da8882890161067e565b93505060606106eb8882890161067e565b92505060806106fc88828901610640565b9150509295509295909350565b7f4e487b71000000000000000000000000000000000000000000000000000000005f52601160045260245ffd5b5f8160011c9050919050565b5f808291508390505b600185111561078b5780860481111561076757610766610709565b5b60018516156107765780820291505b808102905061078485610736565b945061074b565b94509492505050565b5f826107a3576001905061085e565b816107b0575f905061085e565b81600181146107c657600281146107d0576107ff565b600191505061085e565b60ff8411156107e2576107e1610709565b5b8360020a9150848211156107f9576107f8610709565b5b5061085e565b5060208310610133831016604e8410600b84101617156108345782820a90508381111561082f5761082e610709565b5b61085e565b6108418484846001610742565b9250905081840481111561085857610857610709565b5b81810290505b9392505050565b5f61086f82610571565b915061087a83610571565b92506108a77fffffffffffffffffffffffffffffffffffffffffffffffffffffffffffffffff8484610794565b905092915050565b5f6108b982610571565b91506108c483610571565b92508282026108d281610571565b915082820484148315176108e9576108e8610709565b5b5092915050565b5f6108fa82610571565b915061090583610571565b925082820390508181111561091d5761091c610709565b5b9291505056fea2646970667358221220d2beaae27ae5254c7af53e149d01048e778c898b4d8f3ec66f55f3a9699e94fa64736f6c63430008170033",
  "immutableReferences": {},
  "source": "// SPDX-License-Identifier: GPL-3.0\n// // // // // // // // // // // // // // // // // // // // // // // // // // // // // // // // // // // // // // // // // // // // // // // // // // // // // // // // // // // // //\n//\n//      MMWKd:..                                                                                    ..:dKWMM\n//      MKl.                                                                                            .lKW\n//      O'       ..''''''''''''.     .''''''.     .'''''.      .''''''''''''''.     .''''''''''''..       'O\n//      '     .ckKNNWNWWWWWWWWWk.   .xNWWNWNl    ,0WWWWW0,     lNWWWWWWWWWNWNk'    ;0NNNWWWWWWWWNNKkc.     '\n//           ,OWMMMMMMMMMMMMMMMO.   .kMMMMMWl    ,KMMMMMK,     lWMMMMMMMMMMM0,    ;KMMMMMMMMMMMMMMMMWO,\n//          .kMMMMMMMMMMMMMMMMMO.   .kMMMMMWl    ,KMMMMMK,     lWMMMMMMMMMM0,    ;KMMMMMMMMMMMMMMMMMMMk.\n//          '0MMMMMMMMMMMMMMMMMO.   .kMMMMMWl    ,KMMMMMK,     lWMMMMMMMMM0,    :KMMMMMMMMMMMMMMMMMMMM0'\n//          '0MMMMMMMMMMMMMMMMMO.   .kMMMMMWl    ,KMMMMMK,     lWMMMMMMMM0,    :KMMMMMMMMMMMMMMMMMMMMM0'\n//          '0MMMMMMMMMMMMMMMMMO.   .kMMMMMWl    ,KMMMMMK,     lWMMMMMMM0,    ;0NNWWMMMMMMMMMMMMMMMMMM0'\n//          '0MMMMMMMMMMMMMMMMMO.   .kMMMMMWl    ,KMMMMMK,     lWMMMMMM0,     .'.',;lkNMMMMMMMMMMMMMMM0'\n//          '0MMMMMMMMMMMMMMMMMO.   .kMMMMMWl    ,KMMMMMK,     lWMMMMMK;              ,kWMMMMMMMMMMMMM0'\n//          '0MMMMMMMMMMMMMMMMMO.   .kMMMMMWl    ,KMMMMMK,     lWMMMMX:    .:oxxdc'    .dWMMMMMMMMMMMM0'\n//          '0MMMMMMMMMMMMMMMMMO.   .kMMMMMWl    ,KMMMMMK,     lWMMMWd.   ,OWMMMMMXl.   '0MMMMMMMMMMMM0'\n//          '0MMMMMMMMMMMMMMMMMO.   .kMMMMMWl    ,KMMMMMK,     lWMMMX;   .kMMMMMMMMK,   .xMMMMMMMMMMMM0'\n//          '0MMMMMMMMMMMMMMMMMO.   .kMMMMMWl    ,KMMMMMK,     lWMMM0'   .OMMMMMMMMX;   .xMMMMMMMMMMMM0'\n//          .OMMMMMMMMMMMMMMMMMO.   .kMMMMMWl    ,KMMMMMK,     lWMMMK,    lNMMMMMMWx.   '0MMMMMMMMMMMMO.\n//           lNMMMMMMMMMMMMMMMMO.   .kMMMMMWl    ,KMMMMMK,     lWMMMWd.   .:x0KKKkc.   .dWMMMMMMMMMMMNl\n//      .    .c0WMMMMMMMMMMMMMMO.   .kMMMMMWo    ,KMMMMMK,     lWMMMMNd.     ....     .xNMMMMMMMMMMW0c.    .\n//      l      .,lddxxxxxxxxxxxc.    :xxxxxd,    .lxxxxxl.     ,dxxxxxd:.            .cdxxxxxxxxddl,.      l\n//      No.                                                                                              .oN\n//      MW0l'                                                                                          'l0WM\n//      MMMWKd;.                                                                                    .;dKWMMM\n//\n// // // // // // // // // // // // // // // // // // // // // // // // // // // // // // // // // // // // // // // // // // // // // // // // // // // // // // // // // // // // //\n//                                                                                                                                                                                  //\n//      @dev            ::              Aron Mauritala Ayuk                                                                                                                                          //\n//      @msg            ::              stereo@iii6.xyz                                                                                                                                   //\n//      @github         ::              @stereoIII6\n//      @twitter        ::              @stereoIII6                                                                                                                                              //\n//                                                                                                                                                                                  //\n// // // // // // // // // // // // // // // // // // // // // // // // // // // // // // // // // // // // // // // // // // // // // // // // // // // // // // // // // // // // //\n//                                                                                                                                                                                  //\n//      @dev            ::              Juan Xavier Valverde                                                                                                                                    //\n//      @msg            ::              juanxavier@iii6.xyz                                                                                                                               //\n//      @twitter        ::              @JuanXavier                                                                                                                                             //\n//      @github         ::              @JuanXavier                                                                                                                                             //\n//                                                                                                                                                                                  //                                                                                                                                                                                 //\n// // // // // // // // // // // // // // // // // // // // // // // // // // // // // // // // // // // // // // // // // // // // // // // // // // // // // // // // // // // // //\n//  *   *   *   *   *   *   *   *   *   *   *   *   *   *   *   *   *   *   *   *   *   *   *   *   *   *   *   *   *   *   *   *   *   *   *   *   *   *   *   *   *   *   *   *   //\n// // // // // // // // // // // // // // // // // // // // // // // // // // // // // // // // // // // // // // // // // // // // // // // // // // // // // // // // // // // // //\n//                                                                                                                                                                                  //\n//      @company        ::              Fractio Holding                                                                                                                                                                       //\n//      @title          ::              iii6 Price Consumer                                                                                                                            //\n//      @description    ::              Fractio Holding Price Oracle Contract                                                                                                                           //\n//      @version        ::              0.0.1                                                                                                                                       //\n//      @purpose        ::              Multinet Oracle Price Feed                                                                                                           //\n//                                                                                                                                                                                  //\n//                                                                                                                                                                                  //\n//                                                                                                                                                                                  //\n//                                                                                                                                                                                  //\n//                                                                                                                                                                                  //\n// // // // // // // // // // // // // // // // // // // // // // // // // // // // // // // // // // // // // // // // // // // // // // // // // // // // // // // // // // // // //\n//  *   *   *   *   *   *   *   *   *   *   *   *   *   *   *   *   *   *   *   *   *   *   *   *   *   *   *   *   *   *   *   *   *   *   *   *   *   *   *   *   *   *   *   *   //\n// // // // // // // // // // // // // // // // // // // // // // // // // // // // // // // // // // // // // // // // // // // // // // // // // // // // // // // // // // // // //\n\n/////////////////////////////////////////////////////////////////////////////////////////////////////////////////////\n\n/////////////////////////////////////////////////////////////////////////////////////////////////////////////////////\n\npragma solidity ^0.8.7;\n\nimport \"@chainlink/contracts/src/v0.8/interfaces/AggregatorV3Interface.sol\";\nimport \"@chainlink/contracts/src/v0.8/interfaces/LinkTokenInterface.sol\";\n\ncontract iii6PriceConsumer {\n    /**\n     * @dev this contract is a price consumer contract with all possible networks integrated\n     */\n    // \n    // \n    // \n    // \n    // \n    // \n    AggregatorV3Interface internal ethUSDagg;\n    AggregatorV3Interface internal mainUSDagg;\n    AggregatorV3Interface internal xUSDagg;\n    AggregatorV3Interface internal yUSDagg;\n    uint256 xDig;\n    uint256 yDig;\n\n    constructor() {\n        // \n        // \n        // \n        // \n        // \n        // \n        if (block.chainid == 1) {\n            // AVAX FUJI\n            ethUSDagg = AggregatorV3Interface(\n                0x5f4eC3Df9cbd43714FE2740f5E3616155c5b8419\n            );\n            mainUSDagg = AggregatorV3Interface(\n                0x5f4eC3Df9cbd43714FE2740f5E3616155c5b8419\n            );\n        }\n        // \n        // \n        // \n        // \n        // \n        // \n        else if (block.chainid == 5) {\n            // GOERLI\n            ethUSDagg = AggregatorV3Interface(\n                0xD4a33860578De61DBAbDc8BFdb98FD742fA7028e\n            );\n            mainUSDagg = AggregatorV3Interface(\n                0xD4a33860578De61DBAbDc8BFdb98FD742fA7028e\n            );\n        }\n        // \n        // \n        // \n        // \n        // \n        // \n        else if (block.chainid == 43113) {\n            // AVAX FUJI\n            ethUSDagg = AggregatorV3Interface(\n                0x86d67c3D38D2bCeE722E601025C25a575021c6EA\n            );\n            mainUSDagg = AggregatorV3Interface(\n                0x5498BB86BC934c8D34FDA08E81D444153d0D06aD\n            );\n        }\n        // \n        // \n        // \n        // \n        // \n        // \n        else if (block.chainid == 43114) {\n            // AVAX MAINNET\n            ethUSDagg = AggregatorV3Interface(\n                0x976B3D034E162d8bD72D6b9C989d545b839003b0\n            );\n            mainUSDagg = AggregatorV3Interface(\n                0x0A77230d17318075983913bC2145DB16C7366156\n            );\n        }\n        // \n        // \n        // \n        // \n        // \n        // \n        else if (block.chainid == 4002) {\n            // Fantom TESTNET\n            ethUSDagg = AggregatorV3Interface(\n                0xB8C458C957a6e6ca7Cc53eD95bEA548c52AFaA24\n            );\n            mainUSDagg = AggregatorV3Interface(\n                0xe04676B9A9A2973BCb0D1478b5E1E9098BBB7f3D\n            );\n        }\n        // \n        // \n        // \n        // \n        // \n        // \n        else if (block.chainid == 250) {\n            // Fantom MAINNET\n            ethUSDagg = AggregatorV3Interface(\n                0x11DdD3d147E5b83D01cee7070027092397d63658\n            );\n            mainUSDagg = AggregatorV3Interface(\n                0xf4766552D15AE4d256Ad41B6cf2933482B0680dc\n            );\n        }\n        //  \n        //  \n        //  \n        //  \n        //  \n        //  \n        else if (block.chainid == 80001) {\n            // Polygon Mumbai\n            ethUSDagg = AggregatorV3Interface(\n                0x0715A7794a1dc8e42615F059dD6e406A6594651A\n            );\n            mainUSDagg = AggregatorV3Interface(\n                0xd0D5e3DB44DE05E9F294BB0a3bEEaF030DE24Ada\n            );\n        }\n        // \n        // \n        // \n        // \n        // \n        // \n        else if (block.chainid == 137) {\n            // Polygon Mainnet\n            ethUSDagg = AggregatorV3Interface(\n                0xF9680D99D6C9589e2a93a78A04A279e509205945\n            );\n            mainUSDagg = AggregatorV3Interface(\n                0xAB594600376Ec9fD91F8e885dADF0CE036862dE0\n            );\n        }\n        // \n        // \n        // \n        // \n        // \n        // \n        else if (block.chainid == 137) {\n            // Polygon Mainnet\n            ethUSDagg = AggregatorV3Interface(\n                0x9ef1B8c0E4F7dc8bF5719Ea496883DC6401d5b2e\n            );\n            mainUSDagg = AggregatorV3Interface(\n                0x0567F2323251f0Aab15c8dFb1967E4e8A7D42aeE\n            );\n        }\n        // \n        // \n        // \n        // \n        // \n        // \n        else if (block.chainid == 137) {\n            // Polygon Mainnet\n            ethUSDagg = AggregatorV3Interface(\n                0x143db3CEEfbdfe5631aDD3E50f7614B6ba708BA7\n            );\n            mainUSDagg = AggregatorV3Interface(\n                0x2514895c72f50D8bd4B4F9b1110F0D6bD2c97526\n            );\n        }\n        // \n        // \n        // \n        // \n        // \n        // \n        else if (block.chainid == 100) {\n            // Gnosis Mainnet\n            ethUSDagg = AggregatorV3Interface(\n                0xa767f745331D267c7751297D982b050c93985627\n            );\n            mainUSDagg = AggregatorV3Interface(\n                0x678df3415fc31947dA4324eC63212874be5a82f8\n            );\n        }\n        // \n        // \n        // \n        // \n        // \n        // \n        else if (block.chainid == 42161) {\n            // Arbitrum One Mainnet\n            ethUSDagg = AggregatorV3Interface(\n                0xB1f70A229FE7cceD0428245db8B1f6C48c7Ea82a\n            );\n            mainUSDagg = AggregatorV3Interface(\n                0xB1f70A229FE7cceD0428245db8B1f6C48c7Ea82a\n            );\n        }\n        // \n        // \n        // \n        // \n        // \n        // \n        else if (block.chainid == 421613) {\n            // Arbitrum Goerli Testnet\n            ethUSDagg = AggregatorV3Interface(\n                0x62CAe0FA2da220f43a51F86Db2EDb36DcA9A5A08\n            );\n            mainUSDagg = AggregatorV3Interface(\n                0x62CAe0FA2da220f43a51F86Db2EDb36DcA9A5A08\n            );\n        }\n        // \n        // \n        // \n        // \n        // \n        // \n        else if (block.chainid == 10) {\n            // Optimism Mainnet\n            ethUSDagg = AggregatorV3Interface(\n                0x13e3Ee699D1909E989722E753853AE30b17e08c5\n            );\n            mainUSDagg = AggregatorV3Interface(\n                0x13e3Ee699D1909E989722E753853AE30b17e08c5\n            );\n        }\n        // \n        // \n        // \n        // \n        // \n        // \n        else if (block.chainid == 421613) {\n            // Optimism Testnet\n            ethUSDagg = AggregatorV3Interface(\n                0x57241A37733983F97C4Ab06448F244A1E0Ca0ba8\n            );\n            mainUSDagg = AggregatorV3Interface(\n                0x57241A37733983F97C4Ab06448F244A1E0Ca0ba8\n            );\n        }\n        // \n        // \n        // \n        // \n        // \n        // \n        else if (block.chainid == 1285) {\n            // Moonriver Mainnet\n            ethUSDagg = AggregatorV3Interface(\n                0xc3cF399566220dc5Ed6C8CFbf8247214Af103C72\n            );\n            mainUSDagg = AggregatorV3Interface(\n                0x3f8BFbDc1e79777511c00Ad8591cef888C2113C1\n            );\n        }\n        // \n        // \n        // \n        // \n        // \n        // \n        else if (block.chainid == 1284) {\n            // Moonbeam\n            ethUSDagg = AggregatorV3Interface(\n                0x9ce2388a1696e22F870341C3FC1E89710C7569B5\n            );\n            mainUSDagg = AggregatorV3Interface(\n                0x4497B606be93e773bbA5eaCFCb2ac5E2214220Eb\n            );\n        }\n        // \n        // \n        // \n        // \n        // \n        // \n        else if (block.chainid == 1088) {\n            // Moonriver Mainnet\n            ethUSDagg = AggregatorV3Interface(\n                0x3BBe70e2F96c87aEce7F67A2b0178052f62E37fE\n            );\n            mainUSDagg = AggregatorV3Interface(\n                0xD4a5Bb03B5D66d9bf81507379302Ac2C2DFDFa6D\n            );\n        }\n        // \n        // \n        // \n        // \n        // \n        // \n        else if (block.chainid == 8217) {\n            // Moonbeam\n            /** \n             * @dev awaiting klay/usd & eth/usd pricefeeds \n\n            ethUSDagg = AggregatorV3Interface(\n                0x9ce2388a1696e22F870341C3FC1E89710C7569B5\n            );\n            mainUSDagg = AggregatorV3Interface(\n                0x4497B606be93e773bbA5eaCFCb2ac5E2214220Eb\n            );\n            */\n        }\n\n        //   \n        //   \n        //   \n        //   \n        //   \n        //   \n    }\n\n    // \n    // \n    // \n    // \n    // \n    // \n\n    /**\n     * @dev sets custom token x new oracle address\n     * @param _oracle address of the oracle\n     * @param _digits number of decimals the oracle passes\n     * @return exit in bool true\n     */\n    function _setX(address _oracle, uint256 _digits) internal returns (bool) {\n        xUSDagg = AggregatorV3Interface(_oracle);\n        xDig = 18 - _digits;\n        return true;\n    }\n\n    /**\n     * @dev sets custom token y new oracle address\n     * @param _oracle address of the oracle\n     * @param _digits number of decimals the oracle passes\n     * @return exit in bool true\n     */\n    function _setY(address _oracle, uint256 _digits) internal returns (bool) {\n        yUSDagg = AggregatorV3Interface(_oracle);\n        yDig = 18 - _digits;\n        return true;\n    }\n\n    // \n    // \n    // \n    // \n    // \n    // \n    /**\n     * @dev Divides between two values substracting the remainder from the dividend\n     * @return priceFull eth price in usd\n     */\n    function WethUsdPrice() external view returns (int256 priceFull) {\n        (, int256 price, , , ) = ethUSDagg.latestRoundData();\n        priceFull = int256(uint256(price) * 10**10);\n    }\n\n    /**\n     * @dev Divides between two values substracting the remainder from the dividend\n     * @return priceFull gascoin price in usd\n     */\n    function CoinUsdPrice() external view returns (int256 priceFull) {\n        (, int256 price, , , ) = mainUSDagg.latestRoundData();\n        priceFull = int256(uint256(price) * 10**10);\n    }\n\n    /**\n     * @dev sets custom token x new oracle address\n     * @param _oracle address of the oracle\n     * @param _digits number of decimals the oracle passes\n     * @return exit in bool true\n     */\n    function setX(address _oracle, uint256 _digits) external returns (bool) {\n        return _setX(_oracle, _digits);\n    }\n\n    /**\n     * @dev Divides between two values substracting the remainder from the dividend\n     * @return priceFull custom token x price in usd\n     */\n    function XUsdPrice() external view returns (int256 priceFull) {\n        (, int256 price, , , ) = xUSDagg.latestRoundData();\n        priceFull = int256(uint256(price) * 10**xDig);\n    }\n\n    /**\n     * @dev sets custom token y new oracle address\n     * @param _oracle address of the oracle\n     * @param _digits number of decimals the oracle passes\n     * @return exit in bool true\n     */\n    function setY(address _oracle, uint256 _digits) external returns (bool) {\n        return _setY(_oracle, _digits);\n    }\n\n    /**\n     * @dev Divides between two values substracting the remainder from the dividend\n     * @return priceFull custom token x price in usd\n     */\n    // gives back network gas currency price in $\n    function YUsdPrice() external view returns (int256 priceFull) {\n        (, int256 price, , , ) = yUSDagg.latestRoundData();\n        priceFull = int256(uint256(price) * 10**yDig);\n    }\n}\n// // // // // // // // // // // // // // // // // // // // // // // // // // // // // // // // // // // // // // // // // // // // // // // // // // // // // // // // // // // // //\n//\n//      MMWKd:..                                                                                    ..:dKWMM\n//      MKl.                                                                                            .lKW\n//      O'       ..''''''''''''.     .''''''.     .'''''.      .''''''''''''''.     .''''''''''''..       'O\n//      '     .ckKNNWNWWWWWWWWWk.   .xNWWNWNl    ,0WWWWW0,     lNWWWWWWWWWNWNk'    ;0NNNWWWWWWWWNNKkc.     '\n//           ,OWMMMMMMMMMMMMMMMO.   .kMMMMMWl    ,KMMMMMK,     lWMMMMMMMMMMM0,    ;KMMMMMMMMMMMMMMMMWO,\n//          .kMMMMMMMMMMMMMMMMMO.   .kMMMMMWl    ,KMMMMMK,     lWMMMMMMMMMM0,    ;KMMMMMMMMMMMMMMMMMMMk.\n//          '0MMMMMMMMMMMMMMMMMO.   .kMMMMMWl    ,KMMMMMK,     lWMMMMMMMMM0,    :KMMMMMMMMMMMMMMMMMMMM0'\n//          '0MMMMMMMMMMMMMMMMMO.   .kMMMMMWl    ,KMMMMMK,     lWMMMMMMMM0,    :KMMMMMMMMMMMMMMMMMMMMM0'\n//          '0MMMMMMMMMMMMMMMMMO.   .kMMMMMWl    ,KMMMMMK,     lWMMMMMMM0,    ;0NNWWMMMMMMMMMMMMMMMMMM0'\n//          '0MMMMMMMMMMMMMMMMMO.   .kMMMMMWl    ,KMMMMMK,     lWMMMMMM0,     .'.',;lkNMMMMMMMMMMMMMMM0'\n//          '0MMMMMMMMMMMMMMMMMO.   .kMMMMMWl    ,KMMMMMK,     lWMMMMMK;              ,kWMMMMMMMMMMMMM0'\n//          '0MMMMMMMMMMMMMMMMMO.   .kMMMMMWl    ,KMMMMMK,     lWMMMMX:    .:oxxdc'    .dWMMMMMMMMMMMM0'\n//          '0MMMMMMMMMMMMMMMMMO.   .kMMMMMWl    ,KMMMMMK,     lWMMMWd.   ,OWMMMMMXl.   '0MMMMMMMMMMMM0'\n//          '0MMMMMMMMMMMMMMMMMO.   .kMMMMMWl    ,KMMMMMK,     lWMMMX;   .kMMMMMMMMK,   .xMMMMMMMMMMMM0'\n//          '0MMMMMMMMMMMMMMMMMO.   .kMMMMMWl    ,KMMMMMK,     lWMMM0'   .OMMMMMMMMX;   .xMMMMMMMMMMMM0'\n//          .OMMMMMMMMMMMMMMMMMO.   .kMMMMMWl    ,KMMMMMK,     lWMMMK,    lNMMMMMMWx.   '0MMMMMMMMMMMMO.\n//           lNMMMMMMMMMMMMMMMMO.   .kMMMMMWl    ,KMMMMMK,     lWMMMWd.   .:x0KKKkc.   .dWMMMMMMMMMMMNl\n//      .    .c0WMMMMMMMMMMMMMMO.   .kMMMMMWo    ,KMMMMMK,     lWMMMMNd.     ....     .xNMMMMMMMMMMW0c.    .\n//      l      .,lddxxxxxxxxxxxc.    :xxxxxd,    .lxxxxxl.     ,dxxxxxd:.            .cdxxxxxxxxddl,.      l\n//      No.                                                                                              .oN\n//      MW0l'                                                                                          'l0WM\n//      MMMWKd;.                                                                                    .;dKWMMM\n//\n// // // // // // // // // // // // // // // // // // // // // // // // // // // // // // // // // // // // // // // // // // // // // // // // // // // // // // // // // // // // //\n",
  "sourcePath": "/Users/iii6/Documents/GitHub/Gamble360/contracts/iii6Utils/Oracles/iii6PriceConsumer.sol",
  "compiler": {
    "name": "solc",
    "version": "0.8.23+commit.f704f362.Emscripten.clang"
  },
  "schemaVersion": "3.4.16",
  "updatedAt": "2023-11-09T15:24:52.405Z",
  "devdoc": {
    "kind": "dev",
    "methods": {
      "CoinUsdPrice()": {
        "details": "Divides between two values substracting the remainder from the dividend",
        "returns": {
          "priceFull": "gascoin price in usd"
        }
      },
      "WethUsdPrice()": {
        "details": "Divides between two values substracting the remainder from the dividend",
        "returns": {
          "priceFull": "eth price in usd"
        }
      },
      "XUsdPrice()": {
        "details": "Divides between two values substracting the remainder from the dividend",
        "returns": {
          "priceFull": "custom token x price in usd"
        }
      },
      "YUsdPrice()": {
        "details": "Divides between two values substracting the remainder from the dividend",
        "returns": {
          "priceFull": "custom token x price in usd"
        }
      },
      "setX(address,uint256)": {
        "details": "sets custom token x new oracle address",
        "params": {
          "_digits": "number of decimals the oracle passes",
          "_oracle": "address of the oracle"
        },
        "returns": {
          "_0": "exit in bool true"
        }
      },
      "setY(address,uint256)": {
        "details": "sets custom token y new oracle address",
        "params": {
          "_digits": "number of decimals the oracle passes",
          "_oracle": "address of the oracle"
        },
        "returns": {
          "_0": "exit in bool true"
        }
      }
    },
    "stateVariables": {
      "ethUSDagg": {
        "details": "this contract is a price consumer contract with all possible networks integrated"
      }
    },
    "version": 1
  },
  "userdoc": {
    "kind": "user",
    "methods": {},
    "version": 1
  }
}