{
  "contractName": "iii6PriceMath",
  "abi": [
    {
      "inputs": [],
      "stateMutability": "nonpayable",
      "type": "constructor"
    },
    {
      "inputs": [],
      "name": "ETH_USD",
      "outputs": [
        {
          "internalType": "uint256",
          "name": "",
          "type": "uint256"
        }
      ],
      "stateMutability": "view",
      "type": "function"
    },
    {
      "inputs": [],
      "name": "COIN_USD",
      "outputs": [
        {
          "internalType": "uint256",
          "name": "",
          "type": "uint256"
        }
      ],
      "stateMutability": "view",
      "type": "function"
    },
    {
      "inputs": [],
      "name": "X_USD",
      "outputs": [
        {
          "internalType": "uint256",
          "name": "",
          "type": "uint256"
        }
      ],
      "stateMutability": "view",
      "type": "function"
    },
    {
      "inputs": [],
      "name": "Y_USD",
      "outputs": [
        {
          "internalType": "uint256",
          "name": "",
          "type": "uint256"
        }
      ],
      "stateMutability": "view",
      "type": "function"
    },
    {
      "inputs": [
        {
          "internalType": "address",
          "name": "_oracle",
          "type": "address"
        },
        {
          "internalType": "uint256",
          "name": "_digits",
          "type": "uint256"
        }
      ],
      "name": "setX",
      "outputs": [
        {
          "internalType": "bool",
          "name": "",
          "type": "bool"
        }
      ],
      "stateMutability": "nonpayable",
      "type": "function"
    },
    {
      "inputs": [
        {
          "internalType": "address",
          "name": "_oracle",
          "type": "address"
        },
        {
          "internalType": "uint256",
          "name": "_digits",
          "type": "uint256"
        }
      ],
      "name": "setY",
      "outputs": [
        {
          "internalType": "bool",
          "name": "",
          "type": "bool"
        }
      ],
      "stateMutability": "nonpayable",
      "type": "function"
    },
    {
      "inputs": [],
      "name": "getEthPriceInCoin",
      "outputs": [
        {
          "internalType": "uint256",
          "name": "ethPriceCoin",
          "type": "uint256"
        }
      ],
      "stateMutability": "view",
      "type": "function"
    },
    {
      "inputs": [],
      "name": "getEthPriceInX",
      "outputs": [
        {
          "internalType": "uint256",
          "name": "ethPriceX",
          "type": "uint256"
        }
      ],
      "stateMutability": "view",
      "type": "function"
    },
    {
      "inputs": [],
      "name": "getEthPriceInY",
      "outputs": [
        {
          "internalType": "uint256",
          "name": "ethPriceY",
          "type": "uint256"
        }
      ],
      "stateMutability": "view",
      "type": "function"
    },
    {
      "inputs": [],
      "name": "getCoinPriceInEth",
      "outputs": [
        {
          "internalType": "uint256",
          "name": "coinPriceEth",
          "type": "uint256"
        }
      ],
      "stateMutability": "view",
      "type": "function"
    },
    {
      "inputs": [],
      "name": "getCoinPriceInX",
      "outputs": [
        {
          "internalType": "uint256",
          "name": "coinPriceX",
          "type": "uint256"
        }
      ],
      "stateMutability": "view",
      "type": "function"
    },
    {
      "inputs": [],
      "name": "getCoinPriceInY",
      "outputs": [
        {
          "internalType": "uint256",
          "name": "coinPriceY",
          "type": "uint256"
        }
      ],
      "stateMutability": "view",
      "type": "function"
    },
    {
      "inputs": [],
      "name": "getXPriceInEth",
      "outputs": [
        {
          "internalType": "uint256",
          "name": "xPriceEth",
          "type": "uint256"
        }
      ],
      "stateMutability": "view",
      "type": "function"
    },
    {
      "inputs": [],
      "name": "getXPriceInCoin",
      "outputs": [
        {
          "internalType": "uint256",
          "name": "xPriceCoin",
          "type": "uint256"
        }
      ],
      "stateMutability": "view",
      "type": "function"
    },
    {
      "inputs": [],
      "name": "getXPriceInY",
      "outputs": [
        {
          "internalType": "uint256",
          "name": "xPriceY",
          "type": "uint256"
        }
      ],
      "stateMutability": "view",
      "type": "function"
    },
    {
      "inputs": [],
      "name": "getYPriceInEth",
      "outputs": [
        {
          "internalType": "uint256",
          "name": "yPriceEth",
          "type": "uint256"
        }
      ],
      "stateMutability": "view",
      "type": "function"
    },
    {
      "inputs": [],
      "name": "getYPriceInCoin",
      "outputs": [
        {
          "internalType": "uint256",
          "name": "yPriceCoin",
          "type": "uint256"
        }
      ],
      "stateMutability": "view",
      "type": "function"
    },
    {
      "inputs": [],
      "name": "getYPriceInX",
      "outputs": [
        {
          "internalType": "uint256",
          "name": "yPriceX",
          "type": "uint256"
        }
      ],
      "stateMutability": "view",
      "type": "function"
    },
    {
      "inputs": [
        {
          "internalType": "uint256",
          "name": "_amt",
          "type": "uint256"
        }
      ],
      "name": "coinPriceOfUSD",
      "outputs": [
        {
          "internalType": "uint256",
          "name": "",
          "type": "uint256"
        }
      ],
      "stateMutability": "view",
      "type": "function"
    },
    {
      "inputs": [
        {
          "internalType": "uint256",
          "name": "_amt",
          "type": "uint256"
        }
      ],
      "name": "coinPriceOfEth",
      "outputs": [
        {
          "internalType": "uint256",
          "name": "",
          "type": "uint256"
        }
      ],
      "stateMutability": "view",
      "type": "function"
    },
    {
      "inputs": [
        {
          "internalType": "uint256",
          "name": "_amt",
          "type": "uint256"
        }
      ],
      "name": "coinPriceOfX",
      "outputs": [
        {
          "internalType": "uint256",
          "name": "",
          "type": "uint256"
        }
      ],
      "stateMutability": "view",
      "type": "function"
    },
    {
      "inputs": [
        {
          "internalType": "uint256",
          "name": "_amt",
          "type": "uint256"
        }
      ],
      "name": "coinPriceOfY",
      "outputs": [
        {
          "internalType": "uint256",
          "name": "",
          "type": "uint256"
        }
      ],
      "stateMutability": "view",
      "type": "function"
    },
    {
      "inputs": [
        {
          "internalType": "uint256",
          "name": "_amt",
          "type": "uint256"
        }
      ],
      "name": "ethPriceOfUSD",
      "outputs": [
        {
          "internalType": "uint256",
          "name": "",
          "type": "uint256"
        }
      ],
      "stateMutability": "view",
      "type": "function"
    },
    {
      "inputs": [
        {
          "internalType": "uint256",
          "name": "_amt",
          "type": "uint256"
        }
      ],
      "name": "xPriceOfUSD",
      "outputs": [
        {
          "internalType": "uint256",
          "name": "",
          "type": "uint256"
        }
      ],
      "stateMutability": "view",
      "type": "function"
    },
    {
      "inputs": [
        {
          "internalType": "uint256",
          "name": "_amt",
          "type": "uint256"
        }
      ],
      "name": "yPriceOfUSD",
      "outputs": [
        {
          "internalType": "uint256",
          "name": "",
          "type": "uint256"
        }
      ],
      "stateMutability": "view",
      "type": "function"
    }
  ],
  "bytecode": "0x608060405234801561000f575f80fd5b50600146036100705773e47da91495c75e1d48569f343938380d8303b1f25f806101000a81548173ffffffffffffffffffffffffffffffffffffffff021916908373ffffffffffffffffffffffffffffffffffffffff160217905550610191565b600546036100d05773e47da91495c75e1d48569f343938380d8303b1f25f806101000a81548173ffffffffffffffffffffffffffffffffffffffff021916908373ffffffffffffffffffffffffffffffffffffffff160217905550610190565b608946036101305773e47da91495c75e1d48569f343938380d8303b1f25f806101000a81548173ffffffffffffffffffffffffffffffffffffffff021916908373ffffffffffffffffffffffffffffffffffffffff16021790555061018f565b62013881460361018e5773e47da91495c75e1d48569f343938380d8303b1f25f806101000a81548173ffffffffffffffffffffffffffffffffffffffff021916908373ffffffffffffffffffffffffffffffffffffffff1602179055505b5b5b5b6111978061019e5f395ff3fe608060405234801561000f575f80fd5b5060043610610171575f3560e01c80637d670117116100dc578063d1381f4e11610095578063e12ef5ed1161006f578063e12ef5ed14610469578063e2ab781314610487578063e9f38fc5146104b7578063f42fff01146104e757610171565b8063d1381f4e146103fd578063d21b87201461042d578063e04777af1461044b57610171565b80637d6701171461032557806387434dcd146103435780638d4a8ffe146103735780638dff74a7146103a357806396af428a146103c1578063bec9908e146103df57610171565b806348cf734d1161012e57806348cf734d1461024d5780634a2ad99f1461026b5780636260f55b1461029b5780636a443b59146102b957806379d79fcc146102d75780637afcc7a4146102f557610171565b8063033a7a0214610175578063054dca2a146101a55780630b4185ea146101c3578063287ead9e146101f357806329d7a0bd14610211578063445919461461022f575b5f80fd5b61018f600480360381019061018a9190610e2c565b610505565b60405161019c9190610e66565b60405180910390f35b6101ad61054c565b6040516101ba9190610e66565b60405180910390f35b6101dd60048036038101906101d89190610e2c565b610587565b6040516101ea9190610e66565b60405180910390f35b6101fb6105ce565b6040516102089190610e66565b60405180910390f35b610219610609565b6040516102269190610e66565b60405180910390f35b610237610644565b6040516102449190610e66565b60405180910390f35b610255610652565b6040516102629190610e66565b60405180910390f35b61028560048036038101906102809190610ed9565b61068d565b6040516102929190610f31565b60405180910390f35b6102a3610731565b6040516102b09190610e66565b60405180910390f35b6102c161073f565b6040516102ce9190610e66565b60405180910390f35b6102df61074d565b6040516102ec9190610e66565b60405180910390f35b61030f600480360381019061030a9190610e2c565b61075b565b60405161031c9190610e66565b60405180910390f35b61032d6107a3565b60405161033a9190610e66565b60405180910390f35b61035d60048036038101906103589190610e2c565b6107b1565b60405161036a9190610e66565b60405180910390f35b61038d60048036038101906103889190610e2c565b6107f9565b60405161039a9190610e66565b60405180910390f35b6103ab610841565b6040516103b89190610e66565b60405180910390f35b6103c961087c565b6040516103d69190610e66565b60405180910390f35b6103e761088a565b6040516103f49190610e66565b60405180910390f35b61041760048036038101906104129190610e2c565b6108c5565b6040516104249190610e66565b60405180910390f35b61043561090d565b6040516104429190610e66565b60405180910390f35b610453610948565b6040516104609190610e66565b60405180910390f35b610471610956565b60405161047e9190610e66565b60405180910390f35b6104a1600480360381019061049c9190610e2c565b610991565b6040516104ae9190610e66565b60405180910390f35b6104d160048036038101906104cc9190610ed9565b6109d9565b6040516104de9190610f31565b60405180910390f35b6104ef610a7d565b6040516104fc9190610e66565b60405180910390f35b5f806509184e72a000836105199190610f77565b90505f610524610ab8565b9050610543670de0b6b3a76400008361053d9190610f77565b82610b4f565b92505050919050565b5f80610556610b7f565b90505f610561610ab8565b9050610580670de0b6b3a76400008361057a9190610f77565b82610b4f565b9250505090565b5f806509184e72a0008361059b9190610f77565b90505f6105a6610b7f565b90506105c5670de0b6b3a7640000836105bf9190610f77565b82610b4f565b92505050919050565b5f806105d8610ab8565b90505f6105e3610c16565b9050610602670de0b6b3a7640000836105fc9190610f77565b82610b4f565b9250505090565b5f80610613610b7f565b90505f61061e610cad565b905061063d670de0b6b3a7640000836106379190610f77565b82610b4f565b9250505090565b5f61064d610ab8565b905090565b5f8061065c610b7f565b90505f610667610c16565b9050610686670de0b6b3a7640000836106809190610f77565b82610b4f565b9250505090565b5f805f9054906101000a900473ffffffffffffffffffffffffffffffffffffffff1673ffffffffffffffffffffffffffffffffffffffff16634a2ad99f84846040518363ffffffff1660e01b81526004016106e9929190610fc7565b6020604051808303815f875af1158015610705573d5f803e3d5ffd5b505050506040513d601f19601f820116820180604052508101906107299190611018565b905092915050565b5f61073a610b7f565b905090565b5f610748610d44565b905090565b5f610756610d7f565b905090565b5f80662386f26fc10000836107709190610f77565b90505f61077b610d7f565b905061079a670de0b6b3a7640000836107949190610f77565b82610b4f565b92505050919050565b5f6107ac610dba565b905090565b5f80662386f26fc10000836107c69190610f77565b90505f6107d1610d44565b90506107f0670de0b6b3a7640000836107ea9190610f77565b82610b4f565b92505050919050565b5f80662386f26fc100008361080e9190610f77565b90505f610819610dba565b9050610838670de0b6b3a7640000836108329190610f77565b82610b4f565b92505050919050565b5f8061084b610cad565b90505f610856610c16565b9050610875670de0b6b3a76400008261086f9190610f77565b83610b4f565b9250505090565b5f610885610c16565b905090565b5f80610894610b7f565b90505f61089f610c16565b90506108be670de0b6b3a7640000826108b89190610f77565b83610b4f565b9250505090565b5f80662386f26fc10000836108da9190610f77565b90505f6108e5610cad565b9050610904670de0b6b3a7640000836108fe9190610f77565b82610b4f565b92505050919050565b5f80610917610cad565b90505f610922610ab8565b9050610941670de0b6b3a76400008261093b9190610f77565b83610b4f565b9250505090565b5f610951610cad565b905090565b5f80610960610ab8565b90505f61096b610c16565b905061098a670de0b6b3a7640000826109849190610f77565b83610b4f565b9250505090565b5f80662386f26fc10000836109a69190610f77565b90505f6109b1610c16565b90506109d0670de0b6b3a7640000836109ca9190610f77565b82610b4f565b92505050919050565b5f805f9054906101000a900473ffffffffffffffffffffffffffffffffffffffff1673ffffffffffffffffffffffffffffffffffffffff1663e9f38fc584846040518363ffffffff1660e01b8152600401610a35929190610fc7565b6020604051808303815f875af1158015610a51573d5f803e3d5ffd5b505050506040513d601f19601f82011682018060405250810190610a759190611018565b905092915050565b5f80610a87610b7f565b90505f610a92610ab8565b9050610ab1670de0b6b3a764000082610aab9190610f77565b83610b4f565b9250505090565b5f805f8054906101000a900473ffffffffffffffffffffffffffffffffffffffff1673ffffffffffffffffffffffffffffffffffffffff166396722fe56040518163ffffffff1660e01b8152600401602060405180830381865afa158015610b22573d5f803e3d5ffd5b505050506040513d601f19601f82011682018060405250810190610b469190611076565b90508091505090565b5f808284610b5d91906110ce565b9050828185610b6c91906110fe565b610b769190611131565b91505092915050565b5f805f8054906101000a900473ffffffffffffffffffffffffffffffffffffffff1673ffffffffffffffffffffffffffffffffffffffff16639a18c7956040518163ffffffff1660e01b8152600401602060405180830381865afa158015610be9573d5f803e3d5ffd5b505050506040513d601f19601f82011682018060405250810190610c0d9190611076565b90508091505090565b5f805f8054906101000a900473ffffffffffffffffffffffffffffffffffffffff1673ffffffffffffffffffffffffffffffffffffffff1663414641df6040518163ffffffff1660e01b8152600401602060405180830381865afa158015610c80573d5f803e3d5ffd5b505050506040513d601f19601f82011682018060405250810190610ca49190611076565b90508091505090565b5f805f8054906101000a900473ffffffffffffffffffffffffffffffffffffffff1673ffffffffffffffffffffffffffffffffffffffff1663f2e9bd7a6040518163ffffffff1660e01b8152600401602060405180830381865afa158015610d17573d5f803e3d5ffd5b505050506040513d601f19601f82011682018060405250810190610d3b9190611076565b90508091505090565b5f80610d4e610cad565b90505f610d59610ab8565b9050610d78670de0b6b3a764000083610d729190610f77565b82610b4f565b9250505090565b5f80610d89610cad565b90505f610d94610c16565b9050610db3670de0b6b3a764000083610dad9190610f77565b82610b4f565b9250505090565b5f80610dc4610cad565b90505f610dcf610b7f565b9050610dee670de0b6b3a764000083610de89190610f77565b82610b4f565b9250505090565b5f80fd5b5f819050919050565b610e0b81610df9565b8114610e15575f80fd5b50565b5f81359050610e2681610e02565b92915050565b5f60208284031215610e4157610e40610df5565b5b5f610e4e84828501610e18565b91505092915050565b610e6081610df9565b82525050565b5f602082019050610e795f830184610e57565b92915050565b5f73ffffffffffffffffffffffffffffffffffffffff82169050919050565b5f610ea882610e7f565b9050919050565b610eb881610e9e565b8114610ec2575f80fd5b50565b5f81359050610ed381610eaf565b92915050565b5f8060408385031215610eef57610eee610df5565b5b5f610efc85828601610ec5565b9250506020610f0d85828601610e18565b9150509250929050565b5f8115159050919050565b610f2b81610f17565b82525050565b5f602082019050610f445f830184610f22565b92915050565b7f4e487b71000000000000000000000000000000000000000000000000000000005f52601160045260245ffd5b5f610f8182610df9565b9150610f8c83610df9565b9250828202610f9a81610df9565b91508282048414831517610fb157610fb0610f4a565b5b5092915050565b610fc181610e9e565b82525050565b5f604082019050610fda5f830185610fb8565b610fe76020830184610e57565b9392505050565b610ff781610f17565b8114611001575f80fd5b50565b5f8151905061101281610fee565b92915050565b5f6020828403121561102d5761102c610df5565b5b5f61103a84828501611004565b91505092915050565b5f819050919050565b61105581611043565b811461105f575f80fd5b50565b5f815190506110708161104c565b92915050565b5f6020828403121561108b5761108a610df5565b5b5f61109884828501611062565b91505092915050565b7f4e487b71000000000000000000000000000000000000000000000000000000005f52601260045260245ffd5b5f6110d882610df9565b91506110e383610df9565b9250826110f3576110f26110a1565b5b828206905092915050565b5f61110882610df9565b915061111383610df9565b925082820390508181111561112b5761112a610f4a565b5b92915050565b5f61113b82610df9565b915061114683610df9565b925082611156576111556110a1565b5b82820490509291505056fea2646970667358221220cf1826c2c5e094d1200db98ef1582b587b94079742b59631cd81189b98602cd964736f6c63430008170033",
  "immutableReferences": {},
  "source": "// SPDX-License-Identifier: GPL-3.0\n// // // // // // // // // // // // // // // // // // // // // // // // // // // // // // // // // // // // // // // // // // // // // // // // // // // // // // // // // // // // //\n//\n//      MMWKd:..                                                                                    ..:dKWMM\n//      MKl.                                                                                            .lKW\n//      O'       ..''''''''''''.     .''''''.     .'''''.      .''''''''''''''.     .''''''''''''..       'O\n//      '     .ckKNNWNWWWWWWWWWk.   .xNWWNWNl    ,0WWWWW0,     lNWWWWWWWWWNWNk'    ;0NNNWWWWWWWWNNKkc.     '\n//           ,OWMMMMMMMMMMMMMMMO.   .kMMMMMWl    ,KMMMMMK,     lWMMMMMMMMMMM0,    ;KMMMMMMMMMMMMMMMMWO,\n//          .kMMMMMMMMMMMMMMMMMO.   .kMMMMMWl    ,KMMMMMK,     lWMMMMMMMMMM0,    ;KMMMMMMMMMMMMMMMMMMMk.\n//          '0MMMMMMMMMMMMMMMMMO.   .kMMMMMWl    ,KMMMMMK,     lWMMMMMMMMM0,    :KMMMMMMMMMMMMMMMMMMMM0'\n//          '0MMMMMMMMMMMMMMMMMO.   .kMMMMMWl    ,KMMMMMK,     lWMMMMMMMM0,    :KMMMMMMMMMMMMMMMMMMMMM0'\n//          '0MMMMMMMMMMMMMMMMMO.   .kMMMMMWl    ,KMMMMMK,     lWMMMMMMM0,    ;0NNWWMMMMMMMMMMMMMMMMMM0'\n//          '0MMMMMMMMMMMMMMMMMO.   .kMMMMMWl    ,KMMMMMK,     lWMMMMMM0,     .'.',;lkNMMMMMMMMMMMMMMM0'\n//          '0MMMMMMMMMMMMMMMMMO.   .kMMMMMWl    ,KMMMMMK,     lWMMMMMK;              ,kWMMMMMMMMMMMMM0'\n//          '0MMMMMMMMMMMMMMMMMO.   .kMMMMMWl    ,KMMMMMK,     lWMMMMX:    .:oxxdc'    .dWMMMMMMMMMMMM0'\n//          '0MMMMMMMMMMMMMMMMMO.   .kMMMMMWl    ,KMMMMMK,     lWMMMWd.   ,OWMMMMMXl.   '0MMMMMMMMMMMM0'\n//          '0MMMMMMMMMMMMMMMMMO.   .kMMMMMWl    ,KMMMMMK,     lWMMMX;   .kMMMMMMMMK,   .xMMMMMMMMMMMM0'\n//          '0MMMMMMMMMMMMMMMMMO.   .kMMMMMWl    ,KMMMMMK,     lWMMM0'   .OMMMMMMMMX;   .xMMMMMMMMMMMM0'\n//          .OMMMMMMMMMMMMMMMMMO.   .kMMMMMWl    ,KMMMMMK,     lWMMMK,    lNMMMMMMWx.   '0MMMMMMMMMMMMO.\n//           lNMMMMMMMMMMMMMMMMO.   .kMMMMMWl    ,KMMMMMK,     lWMMMWd.   .:x0KKKkc.   .dWMMMMMMMMMMMNl\n//      .    .c0WMMMMMMMMMMMMMMO.   .kMMMMMWo    ,KMMMMMK,     lWMMMMNd.     ....     .xNMMMMMMMMMMW0c.    .\n//      l      .,lddxxxxxxxxxxxc.    :xxxxxd,    .lxxxxxl.     ,dxxxxxd:.            .cdxxxxxxxxddl,.      l\n//      No.                                                                                              .oN\n//      MW0l'                                                                                          'l0WM\n//      MMMWKd;.                                                                                    .;dKWMMM\n//\n// // // // // // // // // // // // // // // // // // // // // // // // // // // // // // // // // // // // // // // // // // // // // // // // // // // // // // // // // // // // //\n//                                                                                                                                                                                  //\n//      @dev            ::              Aron Mauritala Ayuk                                                                                                                                          //\n//      @msg            ::              stereo@iii6.xyz                                                                                                                                   //\n//      @github         ::              @stereoIII6\n//      @twitter        ::              @stereoIII6                                                                                                                                              //\n//                                                                                                                                                                                  //\n// // // // // // // // // // // // // // // // // // // // // // // // // // // // // // // // // // // // // // // // // // // // // // // // // // // // // // // // // // // // //\n//                                                                                                                                                                                  //\n//      @dev            ::              Juan Xavier Valverde                                                                                                                                    //\n//      @msg            ::              juanxavier@iii6.xyz                                                                                                                               //\n//      @twitter        ::              @JuanXavier                                                                                                                                             //\n//      @github         ::              @JuanXavier                                                                                                                                             //\n//                                                                                                                                                                                  //                                                                                                                                                                                 //\n// // // // // // // // // // // // // // // // // // // // // // // // // // // // // // // // // // // // // // // // // // // // // // // // // // // // // // // // // // // // //\n//  *   *   *   *   *   *   *   *   *   *   *   *   *   *   *   *   *   *   *   *   *   *   *   *   *   *   *   *   *   *   *   *   *   *   *   *   *   *   *   *   *   *   *   *   //\n// // // // // // // // // // // // // // // // // // // // // // // // // // // // // // // // // // // // // // // // // // // // // // // // // // // // // // // // // // // // //\n//                                                                                                                                                                                  //\n//      @company        ::              Fractio Holding                                                                                                                                                                       //\n//      @title          ::              iii6 Price Math Functions                                                                                                                            //\n//      @description    ::              Asset Safes Contract                                                                                                                           //\n//      @version        ::              0.0.1                                                                                                                                       //\n//      @purpose        ::              Price Math Function Library                                                                                                          //\n//                                                                                                                                                                                  //\n//                                                                                                                                                                                  //\n//                                                                                                                                                                                  //\n//                                                                                                                                                                                  //\n//                                                                                                                                                                                  //\n// // // // // // // // // // // // // // // // // // // // // // // // // // // // // // // // // // // // // // // // // // // // // // // // // // // // // // // // // // // // //\n//  *   *   *   *   *   *   *   *   *   *   *   *   *   *   *   *   *   *   *   *   *   *   *   *   *   *   *   *   *   *   *   *   *   *   *   *   *   *   *   *   *   *   *   *   //\n// // // // // // // // // // // // // // // // // // // // // // // // // // // // // // // // // // // // // // // // // // // // // // // // // // // // // // // // // // // // //\n\n/////////////////////////////////////////////////////////////////////////////////////////////////////////////////////\n\n/////////////////////////////////////////////////////////////////////////////////////////////////////////////////////\n\npragma solidity ^0.8.7;\n\nimport \"@openzeppelin/contracts/utils/Counters.sol\";\nimport \"@openzeppelin/contracts/utils/Strings.sol\";\nimport \"./iii6Math.sol\";\nimport \"../Oracles/iii6PriceConsumer.sol\";\n\ncontract iii6PriceMath is iii6Math {\n    /**\n     * @dev this contract is a model contract to be deployed through the iii6AssetFactory\n     */\n    // \n    // \n    // \n    // \n    // \n    // \n    iii6PriceConsumer priceFeed;\n\n    /**\n     * @dev selects the network specific iii6PriceConsumer address and loads the contract by chain id\n     */\n    constructor() {\n        if (block.chainid == 1) {\n            // \n            // \n            // \n            // \n            // \n            // \n\n            priceFeed = iii6PriceConsumer(\n                0xe47da91495C75e1D48569f343938380D8303b1f2 // wrong address\n            );\n        } else if (block.chainid == 5) {\n            // \n            // \n            // \n            // \n            // \n            // \n\n            priceFeed = iii6PriceConsumer(\n                0xe47da91495C75e1D48569f343938380D8303b1f2 // wrong address\n            );\n        } else if (block.chainid == 137) {\n            // \n            // \n            // \n            // \n            // \n            // \n\n            priceFeed = iii6PriceConsumer(\n                0xe47da91495C75e1D48569f343938380D8303b1f2 // wrong address\n            );\n        } else if (block.chainid == 80001) {\n            //  \n            //  \n            //  \n            //  \n            //  \n            //  \n\n            priceFeed = iii6PriceConsumer(\n                0xe47da91495C75e1D48569f343938380D8303b1f2\n            );\n        }\n    }\n\n    // \n    // \n    // \n    // \n    // \n    // \n\n    /**\n     * @dev gets value of eth derived from priceFeed.[...]UsdPrice()\n     * @param // INTERNAL\n     * @return uint256 eth price in usdc\n     */\n    function _getWethUsdc() internal view returns (uint256) {\n        // stores call price in price\n        int256 price = priceFeed.WethUsdPrice();\n        // exit with converted uint price\n        return uint256(price);\n    }\n\n    /**\n     * @dev gets value of gas coin derived from priceFeed.[...]UsdPrice()\n     * @param // INTERNAL\n     * @return uint256 gas coin price in usdc\n     */\n    function _getCoinUsdc() internal view returns (uint256) {\n        // stores call price in price\n        int256 price = priceFeed.CoinUsdPrice();\n        // exit with converted uint price\n        return uint256(price);\n    }\n\n    /**\n     * @dev gets value of custom token x derived from priceFeed.[...]UsdPrice()\n     * @param // INTERNAL\n     * @return uint256 custom token x price in usdc\n     */\n    function _getXUsdc() internal view returns (uint256) {\n        // stores call price in price\n        int256 price = priceFeed.XUsdPrice();\n        // exit with converted uint price\n        return uint256(price);\n    }\n\n    /**\n     * @dev gets value of custom token y derived from priceFeed.[...]UsdPrice()\n     * @param // INTERNAL\n     * @return uint256 custom token y price in usdc\n     */\n    function _getYUsdc() internal view returns (uint256) {\n        // stores call price in price\n        int256 price = priceFeed.YUsdPrice();\n        // exit with converted uint price\n        return uint256(price);\n    }\n\n    // \n    // \n    // \n    // \n    // \n    // \n\n    /**\n     * @dev gets value of eth derived from INTERNAL => _get[...]Usdc()\n     * @param // EXTERNAL\n     * @return uint256 eth price in usdc\n     */\n\n    function ETH_USD() external view returns (uint256) {\n        return _getWethUsdc();\n    }\n\n    /**\n     * @dev gets value of gascoin derived from iii6PriceConsumer => _get[...]Usdc()\n     * @param // EXTERNAL\n     * @return uint256 gascoin price in usdc\n     */\n    function COIN_USD() external view returns (uint256) {\n        return _getCoinUsdc();\n    }\n\n    /**\n     * @dev gets value of custon token x derived from iii6PriceConsumer => _get[...]Usdc()\n     * @param // EXTERNAL\n     * @return uint256 custon token x price in usdc\n     */\n    function X_USD() external view returns (uint256) {\n        return _getXUsdc();\n    }\n\n    /**\n     * @dev gets value of custon token y derived from iii6PriceConsumer => _get[...]Usdc()\n     * @param // EXTERNAL\n     * @return uint256 custon token y price in usdc\n     */\n    function Y_USD() external view returns (uint256) {\n        return _getYUsdc();\n    }\n\n    /**\n     * @dev sets the oracle for custom token x and adapts digit length\n     * @param // EXTERNAL\n     * @param _oracle address of the chainlink pricefeed oracle contract\n     * @param _digits number of decimals passed by oracle\n     * @return bool success\n     */\n    function setX(address _oracle, uint256 _digits) external returns (bool) {\n        return priceFeed.setX(_oracle, _digits);\n    }\n\n    /**\n     * @dev sets the oracle for custom token y and adapts digit length\n     * @param // EXTERNAL\n     * @param _oracle address of the chainlink pricefeed oracle contract\n     * @param _digits number of decimals passed by oracle\n     * @return bool success\n     */\n    function setY(address _oracle, uint256 _digits) external returns (bool) {\n        return priceFeed.setY(_oracle, _digits);\n    }\n\n    /**\n     * @dev gets value of eth denominated in gascoin derived from _get[...]Usdc()\n     * @return ethPriceCoin uint256 price of eth denominated in gascoin\n     */\n    function getEthPriceInCoin() external view returns (uint256 ethPriceCoin) {\n        // get prices from feed\n        uint256 ethPriceUsd = _getWethUsdc();\n        uint256 coinPriceUsd = _getCoinUsdc();\n        // exit with first / last price ratio\n        ethPriceCoin = _divide(ethPriceUsd * 10**18, coinPriceUsd);\n    }\n\n    /**\n     * @dev gets value of eth denominated in custom token x derived from _get[...]Usdc()\n     * @return ethPriceX uint256 price of eth denominated in custom token x\n     */\n    function getEthPriceInX() external view returns (uint256 ethPriceX) {\n        // get prices from feed\n        uint256 ethPriceUsd = _getWethUsdc();\n        uint256 xPriceUsd = _getXUsdc();\n        // exit with first / last price ratio\n        ethPriceX = _divide(ethPriceUsd * 10**18, xPriceUsd);\n    }\n\n    /**\n     * @dev gets value of eth denominated in custom token y derived from _get[...]Usdc()\n     * @return ethPriceY uint256 price of eth denominated in custom token y\n     */\n    function getEthPriceInY() external view returns (uint256 ethPriceY) {\n        // get prices from feed\n        uint256 ethPriceUsd = _getWethUsdc();\n        uint256 yPriceUsd = _getYUsdc();\n        // exit with first / last price ratio\n        ethPriceY = _divide(ethPriceUsd * 10**18, yPriceUsd);\n    }\n\n    /**\n     * @dev gets value of gascoin denominated in eth derived from _get[...]Usdc()\n     * @return coinPriceEth uint256 price of gascoin denominated in eth\n     */\n    function _getCoinPriceInEth() internal view returns (uint256 coinPriceEth) {\n        // get prices from feed\n        uint256 coinPriceUsd = _getCoinUsdc();\n        uint256 ethPriceUsd = _getWethUsdc();\n        // exit with first / last price ratio\n        coinPriceEth = _divide(coinPriceUsd * 10**18, ethPriceUsd);\n    }\n\n    /**\n     * @dev gets value of gascoin denominated in eth derived from _get[...]Usdc()\n     * @return coinPriceEth uint256 price of gascoin denominated in eth\n     */\n\n    function getCoinPriceInEth() external view returns (uint256 coinPriceEth) {\n        // get prices from feed\n        coinPriceEth = _getCoinPriceInEth();\n    }\n\n    /**\n     * @dev gets value of gascoin denominated in eth derived from _get[...]Usdc()\n     * @return coinPriceX uint256 price of gascoin denominated in eth\n     */\n    function _getCoinPriceInX() internal view returns (uint256 coinPriceX) {\n        // get prices from feed\n        uint256 coinPriceUsd = _getCoinUsdc();\n        uint256 xPriceUsd = _getXUsdc();\n        // exit with first / last price ratio\n        coinPriceX = _divide(coinPriceUsd * 10**18, xPriceUsd);\n    }\n\n    /**\n     * @dev gets value of gascoin denominated in eth derived from _get[...]Usdc()\n     * @return coinPriceX uint256 price of gascoin denominated in eth\n     */\n\n    function getCoinPriceInX() external view returns (uint256 coinPriceX) {\n        // get prices from feed\n        coinPriceX = _getCoinPriceInX();\n    }\n\n    /**\n     * @dev gets value of gascoin denominated in eth derived from _get[...]Usdc()\n     * @return coinPriceY uint256 price of gascoin denominated in eth\n     */\n    function _getCoinPriceInY() internal view returns (uint256 coinPriceY) {\n        // get prices from feed\n        uint256 coinPriceUsd = _getCoinUsdc();\n        uint256 yPriceUsd = _getYUsdc();\n        // exit with first / last price ratio\n        coinPriceY = _divide(coinPriceUsd * 10**18, yPriceUsd);\n    }\n\n    /**\n     * @dev gets value of gascoin denominated in eth derived from _get[...]Usdc()\n     * @return coinPriceY uint256 price of gascoin denominated in eth\n     */\n\n    function getCoinPriceInY() external view returns (uint256 coinPriceY) {\n        // get prices from feed\n        coinPriceY = _getCoinPriceInY();\n    }\n\n    /**\n     * @dev gets value of gascoin denominated in eth derived from _get[...]Usdc()\n     * @return xPriceEth uint256 price of gascoin denominated in eth\n     */\n    function getXPriceInEth() external view returns (uint256 xPriceEth) {\n        // get prices from feed\n        uint256 ethPriceUsd = _getWethUsdc();\n        uint256 xPriceUsd = _getXUsdc();\n        // exit with first / last price ratio\n        xPriceEth = _divide(xPriceUsd * 10**18, ethPriceUsd);\n    }\n\n    /**\n     * @dev gets value of gascoin denominated in eth derived from _get[...]Usdc()\n     * @return xPriceCoin uint256 price of gascoin denominated in eth\n     */\n    function getXPriceInCoin() external view returns (uint256 xPriceCoin) {\n        // get prices from feed\n        uint256 coinPriceUsd = _getCoinUsdc();\n        uint256 xPriceUsd = _getXUsdc();\n        // exit with first / last price ratio\n        xPriceCoin = _divide(xPriceUsd * 10**18, coinPriceUsd);\n    }\n\n    /**\n     * @dev gets value of gascoin denominated in eth derived from _get[...]Usdc()\n     * @return xPriceY uint256 price of gascoin denominated in eth\n     */\n    function getXPriceInY() external view returns (uint256 xPriceY) {\n        // get prices from feed\n        uint256 yPriceUsd = _getYUsdc();\n        uint256 xPriceUsd = _getXUsdc();\n        // exit with first / last price ratio\n        xPriceY = _divide(xPriceUsd * 10**18, yPriceUsd);\n    }\n\n    /**\n     * @dev gets value of gascoin denominated in eth derived from _get[...]Usdc()\n     * @return yPriceEth uint256 price of gascoin denominated in eth\n     */\n    function getYPriceInEth() external view returns (uint256 yPriceEth) {\n        // get prices from feed\n        uint256 ethPriceUsd = _getWethUsdc();\n        uint256 yPriceUsd = _getYUsdc();\n        // exit with first / last price ratio\n        yPriceEth = _divide(yPriceUsd * 10**18, ethPriceUsd);\n    }\n\n    /**\n     * @dev gets value of gascoin denominated in eth derived from _get[...]Usdc()\n     * @return yPriceCoin uint256 price of gascoin denominated in eth\n     */\n    function getYPriceInCoin() external view returns (uint256 yPriceCoin) {\n        // get prices from feed\n        uint256 coinPriceUsd = _getCoinUsdc();\n        uint256 yPriceUsd = _getYUsdc();\n        // exit with first / last price ratio\n        yPriceCoin = _divide(yPriceUsd * 10**18, coinPriceUsd);\n    }\n\n    /**\n     * @dev gets value of gascoin denominated in eth derived from _get[...]Usdc()\n     * @return yPriceX uint256 price of gascoin denominated in eth\n     */\n    function getYPriceInX() external view returns (uint256 yPriceX) {\n        // get prices from feed\n        uint256 yPriceUsd = _getYUsdc();\n        uint256 xPriceUsd = _getXUsdc();\n        // exit with first / last price ratio\n        yPriceX = _divide(yPriceUsd * 10**18, xPriceUsd);\n    }\n\n    /**\n     * @dev Returns price for input amount in chosen currency\n     * @param _amt uint256 amount of usd\n     * @return Result of division\n     */\n    function coinPriceOfUSD(uint256 _amt) external view returns (uint256) {\n        // add 18 digits\n        uint256 usdamount = _amt * 10**16;\n        uint256 coinprice = _getCoinUsdc();\n        return _divide((usdamount * 10**18), coinprice);\n    }\n\n    /**\n     * @dev Returns price for input amount in chosen currency\n     * @param _amt uint256 amount of usd\n     * @return Result of division\n     */\n    function coinPriceOfEth(uint256 _amt) external view returns (uint256) {\n        // add 18 digits\n        uint256 ethamount = _amt * 10**16;\n        uint256 coinprice = _getCoinPriceInEth();\n        return _divide((ethamount * 10**18), coinprice);\n    }\n\n    /**\n     * @dev Returns price for input amount in chosen currency\n     * @param _amt uint256 amount of usd\n     * @return Result of division\n     */\n    function coinPriceOfX(uint256 _amt) external view returns (uint256) {\n        // add 18 digits\n        uint256 xamount = _amt * 10**16;\n        uint256 coinprice = _getCoinPriceInX();\n        return _divide((xamount * 10**18), coinprice);\n    }\n\n    /**\n     * @dev Returns price for input amount in chosen currency\n     * @param _amt uint256 amount of usd\n     * @return Result of division\n     */\n    function coinPriceOfY(uint256 _amt) external view returns (uint256) {\n        // add 18 digits\n        uint256 yamount = _amt * 10**16;\n        uint256 coinprice = _getCoinPriceInY();\n        return _divide((yamount * 10**18), coinprice);\n    }\n\n    /**\n     * @dev Returns price for input amount in chosen currency\n     * @param _amt uint256 amount of usd\n     * @return Result of division\n     */\n    function ethPriceOfUSD(uint256 _amt) external view returns (uint256) {\n        // add 18 digits\n        uint256 ethamount = _amt * 10**13;\n        uint256 coinprice = _getWethUsdc();\n        return _divide((ethamount * 10**18), coinprice);\n    }\n\n    /**\n     * @dev Returns price for input amount in chosen currency\n     * @param _amt uint256 amount of usd\n     * @return Result of division\n     */\n    function xPriceOfUSD(uint256 _amt) external view returns (uint256) {\n        // add 18 digits\n        uint256 usdamount = _amt * 10**16;\n        uint256 coinprice = _getXUsdc();\n        return _divide((usdamount * 10**18), coinprice);\n    }\n\n    /**\n     * @dev Returns price for input amount in chosen currency\n     * @param _amt uint256 amount of usd\n     * @return Result of division\n     */\n    function yPriceOfUSD(uint256 _amt) external view returns (uint256) {\n        // add 18 digits\n        uint256 yamount = _amt * 10**13;\n        uint256 coinprice = _getYUsdc();\n        return _divide((yamount * 10**18), coinprice);\n    }\n}\n// // // // // // // // // // // // // // // // // // // // // // // // // // // // // // // // // // // // // // // // // // // // // // // // // // // // // // // // // // // // //\n//\n//      MMWKd:..                                                                                    ..:dKWMM\n//      MKl.                                                                                            .lKW\n//      O'       ..''''''''''''.     .''''''.     .'''''.      .''''''''''''''.     .''''''''''''..       'O\n//      '     .ckKNNWNWWWWWWWWWk.   .xNWWNWNl    ,0WWWWW0,     lNWWWWWWWWWNWNk'    ;0NNNWWWWWWWWNNKkc.     '\n//           ,OWMMMMMMMMMMMMMMMO.   .kMMMMMWl    ,KMMMMMK,     lWMMMMMMMMMMM0,    ;KMMMMMMMMMMMMMMMMWO,\n//          .kMMMMMMMMMMMMMMMMMO.   .kMMMMMWl    ,KMMMMMK,     lWMMMMMMMMMM0,    ;KMMMMMMMMMMMMMMMMMMMk.\n//          '0MMMMMMMMMMMMMMMMMO.   .kMMMMMWl    ,KMMMMMK,     lWMMMMMMMMM0,    :KMMMMMMMMMMMMMMMMMMMM0'\n//          '0MMMMMMMMMMMMMMMMMO.   .kMMMMMWl    ,KMMMMMK,     lWMMMMMMMM0,    :KMMMMMMMMMMMMMMMMMMMMM0'\n//          '0MMMMMMMMMMMMMMMMMO.   .kMMMMMWl    ,KMMMMMK,     lWMMMMMMM0,    ;0NNWWMMMMMMMMMMMMMMMMMM0'\n//          '0MMMMMMMMMMMMMMMMMO.   .kMMMMMWl    ,KMMMMMK,     lWMMMMMM0,     .'.',;lkNMMMMMMMMMMMMMMM0'\n//          '0MMMMMMMMMMMMMMMMMO.   .kMMMMMWl    ,KMMMMMK,     lWMMMMMK;              ,kWMMMMMMMMMMMMM0'\n//          '0MMMMMMMMMMMMMMMMMO.   .kMMMMMWl    ,KMMMMMK,     lWMMMMX:    .:oxxdc'    .dWMMMMMMMMMMMM0'\n//          '0MMMMMMMMMMMMMMMMMO.   .kMMMMMWl    ,KMMMMMK,     lWMMMWd.   ,OWMMMMMXl.   '0MMMMMMMMMMMM0'\n//          '0MMMMMMMMMMMMMMMMMO.   .kMMMMMWl    ,KMMMMMK,     lWMMMX;   .kMMMMMMMMK,   .xMMMMMMMMMMMM0'\n//          '0MMMMMMMMMMMMMMMMMO.   .kMMMMMWl    ,KMMMMMK,     lWMMM0'   .OMMMMMMMMX;   .xMMMMMMMMMMMM0'\n//          .OMMMMMMMMMMMMMMMMMO.   .kMMMMMWl    ,KMMMMMK,     lWMMMK,    lNMMMMMMWx.   '0MMMMMMMMMMMMO.\n//           lNMMMMMMMMMMMMMMMMO.   .kMMMMMWl    ,KMMMMMK,     lWMMMWd.   .:x0KKKkc.   .dWMMMMMMMMMMMNl\n//      .    .c0WMMMMMMMMMMMMMMO.   .kMMMMMWo    ,KMMMMMK,     lWMMMMNd.     ....     .xNMMMMMMMMMMW0c.    .\n//      l      .,lddxxxxxxxxxxxc.    :xxxxxd,    .lxxxxxl.     ,dxxxxxd:.            .cdxxxxxxxxddl,.      l\n//      No.                                                                                              .oN\n//      MW0l'                                                                                          'l0WM\n//      MMMWKd;.                                                                                    .;dKWMMM\n//\n// // // // // // // // // // // // // // // // // // // // // // // // // // // // // // // // // // // // // // // // // // // // // // // // // // // // // // // // // // // // //\n",
  "sourcePath": "/Users/iii6/Documents/GitHub/Gamble360/contracts/iii6Utils/Math/iii6PriceMath.sol",
  "compiler": {
    "name": "solc",
    "version": "0.8.23+commit.f704f362.Emscripten.clang"
  },
  "schemaVersion": "3.4.16",
  "updatedAt": "2023-11-09T15:24:52.397Z",
  "devdoc": {
    "kind": "dev",
    "methods": {
      "COIN_USD()": {
        "details": "gets value of gascoin derived from iii6PriceConsumer => _get[...]Usdc()",
        "params": {
          "": "// EXTERNAL"
        },
        "returns": {
          "_0": "uint256 gascoin price in usdc"
        }
      },
      "ETH_USD()": {
        "details": "gets value of eth derived from INTERNAL => _get[...]Usdc()",
        "params": {
          "": "// EXTERNAL"
        },
        "returns": {
          "_0": "uint256 eth price in usdc"
        }
      },
      "X_USD()": {
        "details": "gets value of custon token x derived from iii6PriceConsumer => _get[...]Usdc()",
        "params": {
          "": "// EXTERNAL"
        },
        "returns": {
          "_0": "uint256 custon token x price in usdc"
        }
      },
      "Y_USD()": {
        "details": "gets value of custon token y derived from iii6PriceConsumer => _get[...]Usdc()",
        "params": {
          "": "// EXTERNAL"
        },
        "returns": {
          "_0": "uint256 custon token y price in usdc"
        }
      },
      "coinPriceOfEth(uint256)": {
        "details": "Returns price for input amount in chosen currency",
        "params": {
          "_amt": "uint256 amount of usd"
        },
        "returns": {
          "_0": "Result of division"
        }
      },
      "coinPriceOfUSD(uint256)": {
        "details": "Returns price for input amount in chosen currency",
        "params": {
          "_amt": "uint256 amount of usd"
        },
        "returns": {
          "_0": "Result of division"
        }
      },
      "coinPriceOfX(uint256)": {
        "details": "Returns price for input amount in chosen currency",
        "params": {
          "_amt": "uint256 amount of usd"
        },
        "returns": {
          "_0": "Result of division"
        }
      },
      "coinPriceOfY(uint256)": {
        "details": "Returns price for input amount in chosen currency",
        "params": {
          "_amt": "uint256 amount of usd"
        },
        "returns": {
          "_0": "Result of division"
        }
      },
      "constructor": {
        "details": "selects the network specific iii6PriceConsumer address and loads the contract by chain id"
      },
      "ethPriceOfUSD(uint256)": {
        "details": "Returns price for input amount in chosen currency",
        "params": {
          "_amt": "uint256 amount of usd"
        },
        "returns": {
          "_0": "Result of division"
        }
      },
      "getCoinPriceInEth()": {
        "details": "gets value of gascoin denominated in eth derived from _get[...]Usdc()",
        "returns": {
          "coinPriceEth": "uint256 price of gascoin denominated in eth"
        }
      },
      "getCoinPriceInX()": {
        "details": "gets value of gascoin denominated in eth derived from _get[...]Usdc()",
        "returns": {
          "coinPriceX": "uint256 price of gascoin denominated in eth"
        }
      },
      "getCoinPriceInY()": {
        "details": "gets value of gascoin denominated in eth derived from _get[...]Usdc()",
        "returns": {
          "coinPriceY": "uint256 price of gascoin denominated in eth"
        }
      },
      "getEthPriceInCoin()": {
        "details": "gets value of eth denominated in gascoin derived from _get[...]Usdc()",
        "returns": {
          "ethPriceCoin": "uint256 price of eth denominated in gascoin"
        }
      },
      "getEthPriceInX()": {
        "details": "gets value of eth denominated in custom token x derived from _get[...]Usdc()",
        "returns": {
          "ethPriceX": "uint256 price of eth denominated in custom token x"
        }
      },
      "getEthPriceInY()": {
        "details": "gets value of eth denominated in custom token y derived from _get[...]Usdc()",
        "returns": {
          "ethPriceY": "uint256 price of eth denominated in custom token y"
        }
      },
      "getXPriceInCoin()": {
        "details": "gets value of gascoin denominated in eth derived from _get[...]Usdc()",
        "returns": {
          "xPriceCoin": "uint256 price of gascoin denominated in eth"
        }
      },
      "getXPriceInEth()": {
        "details": "gets value of gascoin denominated in eth derived from _get[...]Usdc()",
        "returns": {
          "xPriceEth": "uint256 price of gascoin denominated in eth"
        }
      },
      "getXPriceInY()": {
        "details": "gets value of gascoin denominated in eth derived from _get[...]Usdc()",
        "returns": {
          "xPriceY": "uint256 price of gascoin denominated in eth"
        }
      },
      "getYPriceInCoin()": {
        "details": "gets value of gascoin denominated in eth derived from _get[...]Usdc()",
        "returns": {
          "yPriceCoin": "uint256 price of gascoin denominated in eth"
        }
      },
      "getYPriceInEth()": {
        "details": "gets value of gascoin denominated in eth derived from _get[...]Usdc()",
        "returns": {
          "yPriceEth": "uint256 price of gascoin denominated in eth"
        }
      },
      "getYPriceInX()": {
        "details": "gets value of gascoin denominated in eth derived from _get[...]Usdc()",
        "returns": {
          "yPriceX": "uint256 price of gascoin denominated in eth"
        }
      },
      "setX(address,uint256)": {
        "details": "sets the oracle for custom token x and adapts digit length",
        "params": {
          "": "// EXTERNAL",
          "_digits": "number of decimals passed by oracle",
          "_oracle": "address of the chainlink pricefeed oracle contract"
        },
        "returns": {
          "_0": "bool success"
        }
      },
      "setY(address,uint256)": {
        "details": "sets the oracle for custom token y and adapts digit length",
        "params": {
          "": "// EXTERNAL",
          "_digits": "number of decimals passed by oracle",
          "_oracle": "address of the chainlink pricefeed oracle contract"
        },
        "returns": {
          "_0": "bool success"
        }
      },
      "xPriceOfUSD(uint256)": {
        "details": "Returns price for input amount in chosen currency",
        "params": {
          "_amt": "uint256 amount of usd"
        },
        "returns": {
          "_0": "Result of division"
        }
      },
      "yPriceOfUSD(uint256)": {
        "details": "Returns price for input amount in chosen currency",
        "params": {
          "_amt": "uint256 amount of usd"
        },
        "returns": {
          "_0": "Result of division"
        }
      }
    },
    "stateVariables": {
      "priceFeed": {
        "details": "this contract is a model contract to be deployed through the iii6AssetFactory"
      }
    },
    "version": 1
  },
  "userdoc": {
    "kind": "user",
    "methods": {},
    "version": 1
  }
}