{
  "contractName": "iiiDiaIdGen",
  "abi": [
    {
      "inputs": [],
      "stateMutability": "nonpayable",
      "type": "constructor"
    },
    {
      "inputs": [],
      "name": "vrf_id",
      "outputs": [
        {
          "internalType": "uint256",
          "name": "",
          "type": "uint256"
        }
      ],
      "stateMutability": "view",
      "type": "function"
    },
    {
      "inputs": [],
      "name": "getProjectId",
      "outputs": [
        {
          "internalType": "uint256",
          "name": "vrf",
          "type": "uint256"
        }
      ],
      "stateMutability": "view",
      "type": "function"
    },
    {
      "inputs": [],
      "name": "_makeProjectKeypair",
      "outputs": [],
      "stateMutability": "nonpayable",
      "type": "function"
    }
  ],
  "bytecode": "0x608060405246600a55348015610013575f80fd5b5061002261002d60201b60201c565b600b819055506109be565b5f6001600a540361010b575f805f6101000a81548173ffffffffffffffffffffffffffffffffffffffff021916908373ffffffffffffffffffffffffffffffffffffffff1602179055505f8054906101000a900473ffffffffffffffffffffffffffffffffffffffff1673ffffffffffffffffffffffffffffffffffffffff1663e0c862896040518163ffffffff1660e01b81526004016020604051808303815f875af11580156100e0573d5f803e3d5ffd5b505050506040513d601f19601f820116820180604052508101906101049190610993565b9050610959565b6005600a54036101ff5773d98489240409797bba3ad997037571e55555f4e060015f6101000a81548173ffffffffffffffffffffffffffffffffffffffff021916908373ffffffffffffffffffffffffffffffffffffffff16021790555060015f9054906101000a900473ffffffffffffffffffffffffffffffffffffffff1673ffffffffffffffffffffffffffffffffffffffff1663e0c862896040518163ffffffff1660e01b81526004016020604051808303815f875af11580156101d4573d5f803e3d5ffd5b505050506040513d601f19601f820116820180604052508101906101f89190610993565b9050610958565b6089600a54036102f357738719f9e85aa0627ac9c34926d06c92b677bd4ca960045f6101000a81548173ffffffffffffffffffffffffffffffffffffffff021916908373ffffffffffffffffffffffffffffffffffffffff16021790555060045f9054906101000a900473ffffffffffffffffffffffffffffffffffffffff1673ffffffffffffffffffffffffffffffffffffffff1663e0c862896040518163ffffffff1660e01b81526004016020604051808303815f875af11580156102c8573d5f803e3d5ffd5b505050506040513d601f19601f820116820180604052508101906102ec9190610993565b9050610957565b62013881600a54036103e9577312c91b97bc2a6d9bfccd7a7f45d841741490a10060055f6101000a81548173ffffffffffffffffffffffffffffffffffffffff021916908373ffffffffffffffffffffffffffffffffffffffff16021790555060055f9054906101000a900473ffffffffffffffffffffffffffffffffffffffff1673ffffffffffffffffffffffffffffffffffffffff1663e0c862896040518163ffffffff1660e01b81526004016020604051808303815f875af11580156103be573d5f803e3d5ffd5b505050506040513d601f19601f820116820180604052508101906103e29190610993565b9050610956565b6038600a54036104c9575f60065f6101000a81548173ffffffffffffffffffffffffffffffffffffffff021916908373ffffffffffffffffffffffffffffffffffffffff16021790555060065f9054906101000a900473ffffffffffffffffffffffffffffffffffffffff1673ffffffffffffffffffffffffffffffffffffffff1663e0c862896040518163ffffffff1660e01b81526004016020604051808303815f875af115801561049e573d5f803e3d5ffd5b505050506040513d601f19601f820116820180604052508101906104c29190610993565b9050610955565b6061600a54036105a9575f60075f6101000a81548173ffffffffffffffffffffffffffffffffffffffff021916908373ffffffffffffffffffffffffffffffffffffffff16021790555060075f9054906101000a900473ffffffffffffffffffffffffffffffffffffffff1673ffffffffffffffffffffffffffffffffffffffff1663e0c862896040518163ffffffff1660e01b81526004016020604051808303815f875af115801561057e573d5f803e3d5ffd5b505050506040513d601f19601f820116820180604052508101906105a29190610993565b9050610954565b61a86a600a540361068a575f60085f6101000a81548173ffffffffffffffffffffffffffffffffffffffff021916908373ffffffffffffffffffffffffffffffffffffffff16021790555060085f9054906101000a900473ffffffffffffffffffffffffffffffffffffffff1673ffffffffffffffffffffffffffffffffffffffff1663e0c862896040518163ffffffff1660e01b81526004016020604051808303815f875af115801561065f573d5f803e3d5ffd5b505050506040513d601f19601f820116820180604052508101906106839190610993565b9050610953565b61a869600a540361077f577379a5e2bbc6e1eac0764bf6f980b4ec6494a6d8a060095f6101000a81548173ffffffffffffffffffffffffffffffffffffffff021916908373ffffffffffffffffffffffffffffffffffffffff16021790555060095f9054906101000a900473ffffffffffffffffffffffffffffffffffffffff1673ffffffffffffffffffffffffffffffffffffffff1663e0c862896040518163ffffffff1660e01b81526004016020604051808303815f875af1158015610754573d5f803e3d5ffd5b505050506040513d601f19601f820116820180604052508101906107789190610993565b9050610952565b60fa600a540361085f575f60025f6101000a81548173ffffffffffffffffffffffffffffffffffffffff021916908373ffffffffffffffffffffffffffffffffffffffff16021790555060025f9054906101000a900473ffffffffffffffffffffffffffffffffffffffff1673ffffffffffffffffffffffffffffffffffffffff1663e0c862896040518163ffffffff1660e01b81526004016020604051808303815f875af1158015610834573d5f803e3d5ffd5b505050506040513d601f19601f820116820180604052508101906108589190610993565b9050610951565b610fa2600a54036109505773af4c0ee5f1adf34bce6b4e2b6d164ca6c6154c7460035f6101000a81548173ffffffffffffffffffffffffffffffffffffffff021916908373ffffffffffffffffffffffffffffffffffffffff16021790555060035f9054906101000a900473ffffffffffffffffffffffffffffffffffffffff1673ffffffffffffffffffffffffffffffffffffffff1663e0c862896040518163ffffffff1660e01b81526004016020604051808303815f875af1158015610929573d5f803e3d5ffd5b505050506040513d601f19601f8201168201806040525081019061094d9190610993565b90505b5b5b5b5b5b5b5b5b5b90565b5f80fd5b5f819050919050565b61097281610960565b811461097c575f80fd5b50565b5f8151905061098d81610969565b92915050565b5f602082840312156109a8576109a761095c565b5b5f6109b58482850161097f565b91505092915050565b60ee806109ca5f395ff3fe6080604052348015600e575f80fd5b5060043610603a575f3560e01c80631270e10c14603e57806350ed6f0a146058578063512de73a146060575b5f80fd5b6044607a565b604051604f919060a1565b60405180910390f35b605e6083565b005b60666085565b6040516071919060a1565b60405180910390f35b5f600b54905090565b565b600b5481565b5f819050919050565b609b81608b565b82525050565b5f60208201905060b25f8301846094565b9291505056fea2646970667358221220d0a5e8c53e18d92d7e15d963028d94d95f9c2c4bc18c2dbe731be5db15f8134f64736f6c63430008170033",
  "immutableReferences": {},
  "source": "// SPDX-License-Identifier: GPL-3.0\n// // // // // // // // // // // // // // // // // // // // // // // // // // // // // // // // // // // // // // // // // // // // // // // // // // // // // // // // // // // // //\n//\n//      MMWKd:..                                                                                    ..:dKWMM\n//      MKl.                                                                                            .lKW\n//      O'       ..''''''''''''.     .''''''.     .'''''.      .''''''''''''''.     .''''''''''''..       'O\n//      '     .ckKNNWNWWWWWWWWWk.   .xNWWNWNl    ,0WWWWW0,     lNWWWWWWWWWNWNk'    ;0NNNWWWWWWWWNNKkc.     '\n//           ,OWMMMMMMMMMMMMMMMO.   .kMMMMMWl    ,KMMMMMK,     lWMMMMMMMMMMM0,    ;KMMMMMMMMMMMMMMMMWO,\n//          .kMMMMMMMMMMMMMMMMMO.   .kMMMMMWl    ,KMMMMMK,     lWMMMMMMMMMM0,    ;KMMMMMMMMMMMMMMMMMMMk.\n//          '0MMMMMMMMMMMMMMMMMO.   .kMMMMMWl    ,KMMMMMK,     lWMMMMMMMMM0,    :KMMMMMMMMMMMMMMMMMMMM0'\n//          '0MMMMMMMMMMMMMMMMMO.   .kMMMMMWl    ,KMMMMMK,     lWMMMMMMMM0,    :KMMMMMMMMMMMMMMMMMMMMM0'\n//          '0MMMMMMMMMMMMMMMMMO.   .kMMMMMWl    ,KMMMMMK,     lWMMMMMMM0,    ;0NNWWMMMMMMMMMMMMMMMMMM0'\n//          '0MMMMMMMMMMMMMMMMMO.   .kMMMMMWl    ,KMMMMMK,     lWMMMMMM0,     .'.',;lkNMMMMMMMMMMMMMMM0'\n//          '0MMMMMMMMMMMMMMMMMO.   .kMMMMMWl    ,KMMMMMK,     lWMMMMMK;              ,kWMMMMMMMMMMMMM0'\n//          '0MMMMMMMMMMMMMMMMMO.   .kMMMMMWl    ,KMMMMMK,     lWMMMMX:    .:oxxdc'    .dWMMMMMMMMMMMM0'\n//          '0MMMMMMMMMMMMMMMMMO.   .kMMMMMWl    ,KMMMMMK,     lWMMMWd.   ,OWMMMMMXl.   '0MMMMMMMMMMMM0'\n//          '0MMMMMMMMMMMMMMMMMO.   .kMMMMMWl    ,KMMMMMK,     lWMMMX;   .kMMMMMMMMK,   .xMMMMMMMMMMMM0'\n//          '0MMMMMMMMMMMMMMMMMO.   .kMMMMMWl    ,KMMMMMK,     lWMMM0'   .OMMMMMMMMX;   .xMMMMMMMMMMMM0'\n//          .OMMMMMMMMMMMMMMMMMO.   .kMMMMMWl    ,KMMMMMK,     lWMMMK,    lNMMMMMMWx.   '0MMMMMMMMMMMMO.\n//           lNMMMMMMMMMMMMMMMMO.   .kMMMMMWl    ,KMMMMMK,     lWMMMWd.   .:x0KKKkc.   .dWMMMMMMMMMMMNl\n//      .    .c0WMMMMMMMMMMMMMMO.   .kMMMMMWo    ,KMMMMMK,     lWMMMMNd.     ....     .xNMMMMMMMMMMW0c.    .\n//      l      .,lddxxxxxxxxxxxc.    :xxxxxd,    .lxxxxxl.     ,dxxxxxd:.            .cdxxxxxxxxddl,.      l\n//      No.                                                                                              .oN\n//      MW0l'                                                                                          'l0WM\n//      MMMWKd;.                                                                                    .;dKWMMM\n//\n// // // // // // // // // // // // // // // // // // // // // // // // // // // // // // // // // // // // // // // // // // // // // // // // // // // // // // // // // // // // //\n//                                                                                                                                                                                  //\n//      @dev            ::              Aron Mauritala Ayuk                                                                                                                                          //\n//      @msg            ::              stereo@iii6.xyz                                                                                                                                   //\n//      @github         ::              @stereoIII6\n//      @twitter        ::              @stereoIII6                                                                                                                                              //\n//                                                                                                                                                                                  //\n// // // // // // // // // // // // // // // // // // // // // // // // // // // // // // // // // // // // // // // // // // // // // // // // // // // // // // // // // // // // //\n//                                                                                                                                                                                  //\n//      @dev            ::              Juan Xavier Valverde                                                                                                                                    //\n//      @msg            ::              juanxavier@iii6.xyz                                                                                                                               //\n//      @twitter        ::              @JuanXavier                                                                                                                                             //\n//      @github         ::              @JuanXavier                                                                                                                                             //\n//                                                                                                                                                                                  //                                                                                                                                                                                 //\n// // // // // // // // // // // // // // // // // // // // // // // // // // // // // // // // // // // // // // // // // // // // // // // // // // // // // // // // // // // // //\n//  *   *   *   *   *   *   *   *   *   *   *   *   *   *   *   *   *   *   *   *   *   *   *   *   *   *   *   *   *   *   *   *   *   *   *   *   *   *   *   *   *   *   *   *   //\n// // // // // // // // // // // // // // // // // // // // // // // // // // // // // // // // // // // // // // // // // // // // // // // // // // // // // // // // // // // // //\n//                                                                                                                                                                                  //\n//      @company        ::              Fractio Holding                                                                                                                                                                       //\n//      @title          ::              iii6 Dia Id Generator                                                                                                                          //\n//      @description    ::              Generates Unique Random Numbers of specific length where each character field can allow values of different bases                                                                                                                          //\n//      @version        ::              0.0.1                                                                                                                                       //\n//      @purpose        ::              Generates Unique Random Dia Ids                                                                                                         //\n//                                                                                                                                                                                  //\n//                                                                                                                                                                                  //\n//                                                                                                                                                                                  //\n//                                                                                                                                                                                  //\n//                                                                                                                                                                                  //\n// // // // // // // // // // // // // // // // // // // // // // // // // // // // // // // // // // // // // // // // // // // // // // // // // // // // // // // // // // // // //\n//  *   *   *   *   *   *   *   *   *   *   *   *   *   *   *   *   *   *   *   *   *   *   *   *   *   *   *   *   *   *   *   *   *   *   *   *   *   *   *   *   *   *   *   *   //\n// // // // // // // // // // // // // // // // // // // // // // // // // // // // // // // // // // // // // // // // // // // // // // // // // // // // // // // // // // // // //\n\npragma solidity ^0.8.7;\n\nimport \"../Oracles/iii6VRFConsumer.sol\";\nimport \"../Math/iii6Math.sol\";\n\ncontract iiiDiaIdGen is iii6Math {\n    iii6VRFEth private iii6VRFeth;\n    iii6VRFGoerli private iii6VRFgoerli;\n    iii6VRFFantom private iii6VRFfantom;\n    iii6VRFFantomTest private iii6VRFfantomTest;\n    iii6VRFMatic private iii6VRFmatic;\n    iii6VRFMumbai private iii6VRFmumbai;\n    iii6VRFBsc private iii6VRFbsc;\n    iii6VRFChalen private iii6VRFchalen;\n    iii6VRFAvax private iii6VRFavax;\n    iii6VRFFuji private iii6VRFfuji;\n\n    uint256 chid = block.chainid;\n    uint256 public vrf_id;\n\n    constructor() {\n        vrf_id = _setVRFProjectID();\n    }\n\n    function _setVRFProjectID() internal returns (uint256 vrfBase) {\n        // \n        // \n        // \n        // \n        // \n        // \n        if (chid == 1) {\n            iii6VRFeth = iii6VRFEth(0x0000000000000000000000000000000000000000);\n            vrfBase = iii6VRFeth.requestRandomWords();\n        }\n        // \n        // \n        // \n        // \n        // \n        // \n        else if (chid == 5) {\n            iii6VRFgoerli = iii6VRFGoerli(\n                0xd98489240409797BbA3Ad997037571e55555f4E0\n            );\n            vrfBase = iii6VRFgoerli.requestRandomWords();\n        }\n        // \n        // \n        // \n        // \n        // \n        // \n        else if (chid == 137) {\n            iii6VRFmatic = iii6VRFMatic(\n                0x8719F9E85aA0627ac9c34926D06C92b677Bd4ca9\n            );\n            vrfBase = iii6VRFmatic.requestRandomWords();\n        }\n        //  \n        //  \n        //  \n        //  \n        //  \n        //  \n        else if (chid == 80001) {\n            iii6VRFmumbai = iii6VRFMumbai(\n                0x12c91b97BC2A6d9bFCcd7a7f45d841741490A100\n            );\n            vrfBase = iii6VRFmumbai.requestRandomWords();\n        }\n        // \n        // \n        // \n        // \n        // \n        // \n        else if (chid == 56) {\n            iii6VRFbsc = iii6VRFBsc(0x0000000000000000000000000000000000000000);\n            vrfBase = iii6VRFbsc.requestRandomWords();\n        }\n        // \n        // \n        // \n        // \n        // \n        // \n        else if (chid == 97) {\n            iii6VRFchalen = iii6VRFChalen(\n                0x0000000000000000000000000000000000000000\n            );\n            vrfBase = iii6VRFchalen.requestRandomWords();\n        }\n        // \n        // \n        // \n        // \n        // \n        // \n        else if (chid == 43114) {\n            iii6VRFavax = iii6VRFAvax(\n                0x0000000000000000000000000000000000000000\n            );\n            vrfBase = iii6VRFavax.requestRandomWords();\n        }\n        // \n        // \n        // \n        // \n        // \n        // \n        else if (chid == 43113) {\n            iii6VRFfuji = iii6VRFFuji(\n                0x79a5E2bBc6e1EaC0764Bf6F980b4Ec6494A6d8a0\n            );\n            vrfBase = iii6VRFfuji.requestRandomWords();\n        }\n        // \n        // \n        // \n        // \n        // \n        // \n        else if (chid == 250) {\n            iii6VRFfantom = iii6VRFFantom(\n                0x0000000000000000000000000000000000000000\n            );\n            vrfBase = iii6VRFfantom.requestRandomWords();\n        }\n        // \n        // \n        // \n        // \n        // \n        // \n        else if (chid == 4002) {\n            iii6VRFfantomTest = iii6VRFFantomTest(\n                0xaF4C0EE5f1aDF34bCE6b4E2B6D164cA6C6154c74\n            );\n            vrfBase = iii6VRFfantomTest.requestRandomWords();\n        }\n    }\n\n    function getProjectId() external view returns (uint256 vrf) {\n        vrf = vrf_id;\n    }\n\n    function _makeProjectKeypair() external {}\n}\n",
  "sourcePath": "/Users/iii6/Documents/GitHub/Gamble360/contracts/iii6Utils/Math/iii6DiaIdGen.sol",
  "compiler": {
    "name": "solc",
    "version": "0.8.23+commit.f704f362.Emscripten.clang"
  },
  "schemaVersion": "3.4.16",
  "updatedAt": "2023-11-09T15:24:52.391Z",
  "devdoc": {
    "kind": "dev",
    "methods": {},
    "version": 1
  },
  "userdoc": {
    "kind": "user",
    "methods": {},
    "version": 1
  }
}