{
  "contractName": "LOTTERY",
  "abi": [
    {
      "inputs": [],
      "stateMutability": "nonpayable",
      "type": "constructor"
    },
    {
      "inputs": [
        {
          "internalType": "uint256",
          "name": "num",
          "type": "uint256"
        }
      ],
      "name": "Check",
      "type": "error"
    },
    {
      "inputs": [],
      "name": "GameOver",
      "type": "error"
    },
    {
      "inputs": [
        {
          "internalType": "address",
          "name": "adr",
          "type": "address"
        },
        {
          "internalType": "uint256",
          "name": "balance",
          "type": "uint256"
        }
      ],
      "name": "LowFunds",
      "type": "error"
    },
    {
      "inputs": [
        {
          "internalType": "address",
          "name": "adr",
          "type": "address"
        }
      ],
      "name": "NotAdmin",
      "type": "error"
    },
    {
      "anonymous": false,
      "inputs": [
        {
          "indexed": true,
          "internalType": "address",
          "name": "owner",
          "type": "address"
        },
        {
          "indexed": true,
          "internalType": "address",
          "name": "approved",
          "type": "address"
        },
        {
          "indexed": true,
          "internalType": "uint256",
          "name": "tokenId",
          "type": "uint256"
        }
      ],
      "name": "Approval",
      "type": "event"
    },
    {
      "anonymous": false,
      "inputs": [
        {
          "indexed": true,
          "internalType": "address",
          "name": "owner",
          "type": "address"
        },
        {
          "indexed": true,
          "internalType": "address",
          "name": "operator",
          "type": "address"
        },
        {
          "indexed": false,
          "internalType": "bool",
          "name": "approved",
          "type": "bool"
        }
      ],
      "name": "ApprovalForAll",
      "type": "event"
    },
    {
      "anonymous": false,
      "inputs": [
        {
          "indexed": false,
          "internalType": "uint256",
          "name": "cs",
          "type": "uint256"
        },
        {
          "indexed": false,
          "internalType": "string",
          "name": "txt",
          "type": "string"
        },
        {
          "indexed": false,
          "internalType": "address",
          "name": "usr",
          "type": "address"
        }
      ],
      "name": "Log",
      "type": "event"
    },
    {
      "anonymous": false,
      "inputs": [
        {
          "indexed": true,
          "internalType": "address",
          "name": "from",
          "type": "address"
        },
        {
          "indexed": true,
          "internalType": "address",
          "name": "to",
          "type": "address"
        },
        {
          "indexed": true,
          "internalType": "uint256",
          "name": "tokenId",
          "type": "uint256"
        }
      ],
      "name": "Transfer",
      "type": "event"
    },
    {
      "inputs": [
        {
          "internalType": "address",
          "name": "_erc20",
          "type": "address"
        }
      ],
      "name": "addToken",
      "outputs": [],
      "stateMutability": "nonpayable",
      "type": "function"
    },
    {
      "inputs": [
        {
          "internalType": "address",
          "name": "to",
          "type": "address"
        },
        {
          "internalType": "uint256",
          "name": "tokenId",
          "type": "uint256"
        }
      ],
      "name": "approve",
      "outputs": [],
      "stateMutability": "nonpayable",
      "type": "function"
    },
    {
      "inputs": [
        {
          "internalType": "address",
          "name": "owner",
          "type": "address"
        }
      ],
      "name": "balanceOf",
      "outputs": [
        {
          "internalType": "uint256",
          "name": "",
          "type": "uint256"
        }
      ],
      "stateMutability": "view",
      "type": "function",
      "constant": true
    },
    {
      "inputs": [
        {
          "internalType": "uint256",
          "name": "",
          "type": "uint256"
        },
        {
          "internalType": "uint256",
          "name": "",
          "type": "uint256"
        },
        {
          "internalType": "uint256",
          "name": "",
          "type": "uint256"
        }
      ],
      "name": "claims",
      "outputs": [
        {
          "internalType": "uint256",
          "name": "",
          "type": "uint256"
        }
      ],
      "stateMutability": "view",
      "type": "function",
      "constant": true
    },
    {
      "inputs": [
        {
          "internalType": "uint256",
          "name": "",
          "type": "uint256"
        }
      ],
      "name": "count",
      "outputs": [
        {
          "internalType": "uint256",
          "name": "",
          "type": "uint256"
        }
      ],
      "stateMutability": "view",
      "type": "function",
      "constant": true
    },
    {
      "inputs": [
        {
          "internalType": "uint256",
          "name": "",
          "type": "uint256"
        }
      ],
      "name": "dias",
      "outputs": [
        {
          "internalType": "uint256",
          "name": "",
          "type": "uint256"
        }
      ],
      "stateMutability": "view",
      "type": "function",
      "constant": true
    },
    {
      "inputs": [
        {
          "internalType": "uint256",
          "name": "tokenId",
          "type": "uint256"
        }
      ],
      "name": "getApproved",
      "outputs": [
        {
          "internalType": "address",
          "name": "",
          "type": "address"
        }
      ],
      "stateMutability": "view",
      "type": "function",
      "constant": true
    },
    {
      "inputs": [
        {
          "internalType": "address",
          "name": "owner",
          "type": "address"
        },
        {
          "internalType": "address",
          "name": "operator",
          "type": "address"
        }
      ],
      "name": "isApprovedForAll",
      "outputs": [
        {
          "internalType": "bool",
          "name": "",
          "type": "bool"
        }
      ],
      "stateMutability": "view",
      "type": "function",
      "constant": true
    },
    {
      "inputs": [],
      "name": "l",
      "outputs": [
        {
          "internalType": "uint256",
          "name": "",
          "type": "uint256"
        }
      ],
      "stateMutability": "view",
      "type": "function",
      "constant": true
    },
    {
      "inputs": [
        {
          "internalType": "uint256",
          "name": "",
          "type": "uint256"
        }
      ],
      "name": "lotterys",
      "outputs": [
        {
          "internalType": "uint256",
          "name": "id",
          "type": "uint256"
        },
        {
          "internalType": "address",
          "name": "owner",
          "type": "address"
        },
        {
          "internalType": "uint256",
          "name": "tickets",
          "type": "uint256"
        },
        {
          "internalType": "uint256",
          "name": "max",
          "type": "uint256"
        },
        {
          "internalType": "uint256",
          "name": "price",
          "type": "uint256"
        },
        {
          "internalType": "uint256",
          "name": "winning",
          "type": "uint256"
        },
        {
          "internalType": "uint256",
          "name": "timestamp",
          "type": "uint256"
        },
        {
          "internalType": "uint256",
          "name": "sold",
          "type": "uint256"
        },
        {
          "internalType": "uint256",
          "name": "status",
          "type": "uint256"
        }
      ],
      "stateMutability": "view",
      "type": "function",
      "constant": true
    },
    {
      "inputs": [
        {
          "internalType": "address",
          "name": "",
          "type": "address"
        },
        {
          "internalType": "uint256",
          "name": "",
          "type": "uint256"
        }
      ],
      "name": "myTicket",
      "outputs": [
        {
          "internalType": "uint256",
          "name": "id",
          "type": "uint256"
        },
        {
          "internalType": "address",
          "name": "owner",
          "type": "address"
        },
        {
          "internalType": "uint256",
          "name": "tickets",
          "type": "uint256"
        },
        {
          "internalType": "uint256",
          "name": "max",
          "type": "uint256"
        },
        {
          "internalType": "uint256",
          "name": "price",
          "type": "uint256"
        },
        {
          "internalType": "uint256",
          "name": "winning",
          "type": "uint256"
        },
        {
          "internalType": "uint256",
          "name": "timestamp",
          "type": "uint256"
        },
        {
          "internalType": "uint256",
          "name": "sold",
          "type": "uint256"
        },
        {
          "internalType": "uint256",
          "name": "status",
          "type": "uint256"
        }
      ],
      "stateMutability": "view",
      "type": "function",
      "constant": true
    },
    {
      "inputs": [
        {
          "internalType": "address",
          "name": "",
          "type": "address"
        }
      ],
      "name": "myTickets",
      "outputs": [
        {
          "internalType": "uint256",
          "name": "",
          "type": "uint256"
        }
      ],
      "stateMutability": "view",
      "type": "function",
      "constant": true
    },
    {
      "inputs": [],
      "name": "name",
      "outputs": [
        {
          "internalType": "string",
          "name": "",
          "type": "string"
        }
      ],
      "stateMutability": "view",
      "type": "function",
      "constant": true
    },
    {
      "inputs": [
        {
          "internalType": "uint256",
          "name": "tokenId",
          "type": "uint256"
        }
      ],
      "name": "ownerOf",
      "outputs": [
        {
          "internalType": "address",
          "name": "",
          "type": "address"
        }
      ],
      "stateMutability": "view",
      "type": "function",
      "constant": true
    },
    {
      "inputs": [
        {
          "internalType": "uint256",
          "name": "",
          "type": "uint256"
        },
        {
          "internalType": "uint256",
          "name": "",
          "type": "uint256"
        }
      ],
      "name": "results",
      "outputs": [
        {
          "internalType": "uint256",
          "name": "",
          "type": "uint256"
        }
      ],
      "stateMutability": "view",
      "type": "function",
      "constant": true
    },
    {
      "inputs": [
        {
          "internalType": "address",
          "name": "from",
          "type": "address"
        },
        {
          "internalType": "address",
          "name": "to",
          "type": "address"
        },
        {
          "internalType": "uint256",
          "name": "tokenId",
          "type": "uint256"
        }
      ],
      "name": "safeTransferFrom",
      "outputs": [],
      "stateMutability": "nonpayable",
      "type": "function"
    },
    {
      "inputs": [
        {
          "internalType": "address",
          "name": "from",
          "type": "address"
        },
        {
          "internalType": "address",
          "name": "to",
          "type": "address"
        },
        {
          "internalType": "uint256",
          "name": "tokenId",
          "type": "uint256"
        },
        {
          "internalType": "bytes",
          "name": "data",
          "type": "bytes"
        }
      ],
      "name": "safeTransferFrom",
      "outputs": [],
      "stateMutability": "nonpayable",
      "type": "function"
    },
    {
      "inputs": [
        {
          "internalType": "address",
          "name": "operator",
          "type": "address"
        },
        {
          "internalType": "bool",
          "name": "approved",
          "type": "bool"
        }
      ],
      "name": "setApprovalForAll",
      "outputs": [],
      "stateMutability": "nonpayable",
      "type": "function"
    },
    {
      "inputs": [
        {
          "internalType": "bytes4",
          "name": "interfaceId",
          "type": "bytes4"
        }
      ],
      "name": "supportsInterface",
      "outputs": [
        {
          "internalType": "bool",
          "name": "",
          "type": "bool"
        }
      ],
      "stateMutability": "view",
      "type": "function",
      "constant": true
    },
    {
      "inputs": [],
      "name": "symbol",
      "outputs": [
        {
          "internalType": "string",
          "name": "",
          "type": "string"
        }
      ],
      "stateMutability": "view",
      "type": "function",
      "constant": true
    },
    {
      "inputs": [
        {
          "internalType": "uint256",
          "name": "tokenId",
          "type": "uint256"
        }
      ],
      "name": "tokenURI",
      "outputs": [
        {
          "internalType": "string",
          "name": "",
          "type": "string"
        }
      ],
      "stateMutability": "view",
      "type": "function",
      "constant": true
    },
    {
      "inputs": [
        {
          "internalType": "uint256",
          "name": "",
          "type": "uint256"
        }
      ],
      "name": "tokens",
      "outputs": [
        {
          "internalType": "contract ERC20",
          "name": "",
          "type": "address"
        }
      ],
      "stateMutability": "view",
      "type": "function",
      "constant": true
    },
    {
      "inputs": [
        {
          "internalType": "address",
          "name": "from",
          "type": "address"
        },
        {
          "internalType": "address",
          "name": "to",
          "type": "address"
        },
        {
          "internalType": "uint256",
          "name": "tokenId",
          "type": "uint256"
        }
      ],
      "name": "transferFrom",
      "outputs": [],
      "stateMutability": "nonpayable",
      "type": "function"
    },
    {
      "inputs": [],
      "name": "withdraw",
      "outputs": [],
      "stateMutability": "nonpayable",
      "type": "function"
    },
    {
      "inputs": [
        {
          "internalType": "uint256",
          "name": "_tick",
          "type": "uint256"
        },
        {
          "internalType": "uint256",
          "name": "_max",
          "type": "uint256"
        },
        {
          "internalType": "uint256",
          "name": "_price",
          "type": "uint256"
        },
        {
          "internalType": "uint256",
          "name": "_win",
          "type": "uint256"
        }
      ],
      "name": "makeLottery",
      "outputs": [],
      "stateMutability": "nonpayable",
      "type": "function"
    },
    {
      "inputs": [
        {
          "internalType": "uint256",
          "name": "_id",
          "type": "uint256"
        },
        {
          "internalType": "uint256",
          "name": "_amount",
          "type": "uint256"
        }
      ],
      "name": "buyTicket",
      "outputs": [],
      "stateMutability": "payable",
      "type": "function",
      "payable": true
    },
    {
      "inputs": [
        {
          "internalType": "uint256",
          "name": "_id",
          "type": "uint256"
        }
      ],
      "name": "rollLottery",
      "outputs": [],
      "stateMutability": "nonpayable",
      "type": "function"
    },
    {
      "inputs": [
        {
          "internalType": "uint256",
          "name": "_lid",
          "type": "uint256"
        },
        {
          "internalType": "uint256",
          "name": "_res",
          "type": "uint256"
        }
      ],
      "name": "claim",
      "outputs": [],
      "stateMutability": "nonpayable",
      "type": "function"
    }
  ],
  "bytecode": "0x608060405234801562000010575f80fd5b506040518060400160405280601881526020017f47616d626c65333630204c6f7474657279205469636b657400000000000000008152506040518060400160405280600681526020017f674c4f54544f0000000000000000000000000000000000000000000000000000815250815f90816200008d91906200054e565b5080600190816200009f91906200054e565b5050503360065f6101000a81548173ffffffffffffffffffffffffffffffffffffffff021916908373ffffffffffffffffffffffffffffffffffffffff160217905550601960098190555066038d7ea4c68000600a819055505f600c819055506001600e819055506200012560036001662386f26fc1000060016200012b60201b60201c565b62000793565b5f8311158062000155575083600282856200014791906200065f565b6200015391906200065f565b115b156200018d576040517fdf469ccb00000000000000000000000000000000000000000000000000000000815260040160405180910390fd5b600b604051806101200160405280600c5481526020013373ffffffffffffffffffffffffffffffffffffffff1681526020018681526020018581526020018481526020018381526020014281526020015f815260200186815250908060018154018082558091505060019003905f5260205f2090600902015f909190919091505f820151815f01556020820151816001015f6101000a81548173ffffffffffffffffffffffffffffffffffffffff021916908373ffffffffffffffffffffffffffffffffffffffff16021790555060408201518160020155606082015181600301556080820151816004015560a0820151816005015560c0820151816006015560e0820151816007015561010082015181600801555050600c5f815480929190620002b890620006a9565b91905055508042620002cb919062000722565b600d5f828254620002dd919062000759565b9250508190555050505050565b5f81519050919050565b7f4e487b71000000000000000000000000000000000000000000000000000000005f52604160045260245ffd5b7f4e487b71000000000000000000000000000000000000000000000000000000005f52602260045260245ffd5b5f60028204905060018216806200036657607f821691505b6020821081036200037c576200037b62000321565b5b50919050565b5f819050815f5260205f209050919050565b5f6020601f8301049050919050565b5f82821b905092915050565b5f60088302620003e07fffffffffffffffffffffffffffffffffffffffffffffffffffffffffffffffff82620003a3565b620003ec8683620003a3565b95508019841693508086168417925050509392505050565b5f819050919050565b5f819050919050565b5f62000436620004306200042a8462000404565b6200040d565b62000404565b9050919050565b5f819050919050565b620004518362000416565b6200046962000460826200043d565b848454620003af565b825550505050565b5f90565b6200047f62000471565b6200048c81848462000446565b505050565b5b81811015620004b357620004a75f8262000475565b60018101905062000492565b5050565b601f8211156200050257620004cc8162000382565b620004d78462000394565b81016020851015620004e7578190505b620004ff620004f68562000394565b83018262000491565b50505b505050565b5f82821c905092915050565b5f620005245f198460080262000507565b1980831691505092915050565b5f6200053e838362000513565b9150826002028217905092915050565b6200055982620002ea565b67ffffffffffffffff811115620005755762000574620002f4565b5b6200058182546200034e565b6200058e828285620004b7565b5f60209050601f831160018114620005c4575f8415620005af578287015190505b620005bb858262000531565b8655506200062a565b601f198416620005d48662000382565b5f5b82811015620005fd57848901518255600182019150602085019450602081019050620005d6565b868310156200061d578489015162000619601f89168262000513565b8355505b6001600288020188555050505b505050505050565b7f4e487b71000000000000000000000000000000000000000000000000000000005f52601160045260245ffd5b5f6200066b8262000404565b9150620006788362000404565b9250828202620006888162000404565b91508282048414831517620006a257620006a162000632565b5b5092915050565b5f620006b58262000404565b91507fffffffffffffffffffffffffffffffffffffffffffffffffffffffffffffffff8203620006ea57620006e962000632565b5b600182019050919050565b7f4e487b71000000000000000000000000000000000000000000000000000000005f52601260045260245ffd5b5f6200072e8262000404565b91506200073b8362000404565b9250826200074e576200074d620006f5565b5b828206905092915050565b5f620007658262000404565b9150620007728362000404565b92508282019050808211156200078d576200078c62000632565b5b92915050565b613f9f80620007a15f395ff3fe6080604052600436106101b6575f3560e01c806370a08231116100eb578063b88d4fde11610089578063d48bfca711610063578063d48bfca714610660578063d70c6f4e14610688578063e985e9c5146106c4578063ece866b914610700576101b6565b8063b88d4fde146105d4578063c3490263146105fc578063c87b56dd14610624576101b6565b806395d89b41116100c557806395d89b411461051e5780639b4f589f146105485780639cf0a35b14610584578063a22cb465146105ac576101b6565b806370a08231146104625780637e3d88031461049e57806392733323146104e2576101b6565b80633b3546c81161015857806343e4b1fe1161013257806343e4b1fe146103865780634f64b2be146103c25780635e0e512b146103fe5780636352211e14610426576101b6565b80633b3546c81461030c5780633ccfd60b1461034857806342842e0e1461035e576101b6565b8063095ea7b311610194578063095ea7b31461025c57806310ca25391461028457806323b872dd146102c8578063298ec208146102f0576101b6565b806301ffc9a7146101ba57806306fdde03146101f6578063081812fc14610220575b5f80fd5b3480156101c5575f80fd5b506101e060048036038101906101db9190612bfd565b61072a565b6040516101ed9190612c42565b60405180910390f35b348015610201575f80fd5b5061020a61080b565b6040516102179190612ce5565b60405180910390f35b34801561022b575f80fd5b5061024660048036038101906102419190612d38565b61089a565b6040516102539190612da2565b60405180910390f35b348015610267575f80fd5b50610282600480360381019061027d9190612de5565b6108dc565b005b34801561028f575f80fd5b506102aa60048036038101906102a59190612de5565b6109f2565b6040516102bf99989796959493929190612e32565b60405180910390f35b3480156102d3575f80fd5b506102ee60048036038101906102e99190612ebd565b610a66565b005b61030a60048036038101906103059190612f0d565b610ac6565b005b348015610317575f80fd5b50610332600480360381019061032d9190612d38565b610fc0565b60405161033f9190612f4b565b60405180910390f35b348015610353575f80fd5b5061035c610fd5565b005b348015610369575f80fd5b50610384600480360381019061037f9190612ebd565b611091565b005b348015610391575f80fd5b506103ac60048036038101906103a79190612f64565b6110b0565b6040516103b99190612f4b565b60405180910390f35b3480156103cd575f80fd5b506103e860048036038101906103e39190612d38565b6110db565b6040516103f5919061300f565b60405180910390f35b348015610409575f80fd5b50610424600480360381019061041f9190613028565b611116565b005b348015610431575f80fd5b5061044c60048036038101906104479190612d38565b611128565b6040516104599190612da2565b60405180910390f35b34801561046d575f80fd5b506104886004803603810190610483919061308c565b6111ac565b6040516104959190612f4b565b60405180910390f35b3480156104a9575f80fd5b506104c460048036038101906104bf9190612d38565b611260565b6040516104d999989796959493929190612e32565b60405180910390f35b3480156104ed575f80fd5b506105086004803603810190610503919061308c565b6112d8565b6040516105159190612f4b565b60405180910390f35b348015610529575f80fd5b506105326112ed565b60405161053f9190612ce5565b60405180910390f35b348015610553575f80fd5b5061056e60048036038101906105699190612d38565b61137d565b60405161057b9190612f4b565b60405180910390f35b34801561058f575f80fd5b506105aa60048036038101906105a59190612d38565b611392565b005b3480156105b7575f80fd5b506105d260048036038101906105cd91906130e1565b611479565b005b3480156105df575f80fd5b506105fa60048036038101906105f5919061324b565b61148f565b005b348015610607575f80fd5b50610622600480360381019061061d9190612f0d565b6114f1565b005b34801561062f575f80fd5b5061064a60048036038101906106459190612d38565b61177b565b6040516106579190612ce5565b60405180910390f35b34801561066b575f80fd5b506106866004803603810190610681919061308c565b6117e0565b005b348015610693575f80fd5b506106ae60048036038101906106a99190612f0d565b6118e7565b6040516106bb9190612f4b565b60405180910390f35b3480156106cf575f80fd5b506106ea60048036038101906106e591906132cb565b611907565b6040516106f79190612c42565b60405180910390f35b34801561070b575f80fd5b50610714611995565b6040516107219190612f4b565b60405180910390f35b5f7f80ac58cd000000000000000000000000000000000000000000000000000000007bffffffffffffffffffffffffffffffffffffffffffffffffffffffff1916827bffffffffffffffffffffffffffffffffffffffffffffffffffffffff191614806107f457507f5b5e139f000000000000000000000000000000000000000000000000000000007bffffffffffffffffffffffffffffffffffffffffffffffffffffffff1916827bffffffffffffffffffffffffffffffffffffffffffffffffffffffff1916145b8061080457506108038261199b565b5b9050919050565b60605f805461081990613336565b80601f016020809104026020016040519081016040528092919081815260200182805461084590613336565b80156108905780601f1061086757610100808354040283529160200191610890565b820191905f5260205f20905b81548152906001019060200180831161087357829003601f168201915b5050505050905090565b5f6108a482611a04565b60045f8381526020019081526020015f205f9054906101000a900473ffffffffffffffffffffffffffffffffffffffff169050919050565b5f6108e682611128565b90508073ffffffffffffffffffffffffffffffffffffffff168373ffffffffffffffffffffffffffffffffffffffff1603610956576040517f08c379a000000000000000000000000000000000000000000000000000000000815260040161094d906133d6565b60405180910390fd5b8073ffffffffffffffffffffffffffffffffffffffff16610975611a4f565b73ffffffffffffffffffffffffffffffffffffffff1614806109a457506109a38161099e611a4f565b611907565b5b6109e3576040517f08c379a00000000000000000000000000000000000000000000000000000000081526004016109da90613464565b60405180910390fd5b6109ed8383611a56565b505050565b6012602052815f5260405f20602052805f5260405f205f9150915050805f015490806001015f9054906101000a900473ffffffffffffffffffffffffffffffffffffffff16908060020154908060030154908060040154908060050154908060060154908060070154908060080154905089565b610a77610a71611a4f565b82611b0c565b610ab6576040517f08c379a0000000000000000000000000000000000000000000000000000000008152600401610aad906134f2565b60405180910390fd5b610ac1838383611ba0565b505050565b610ace612b3e565b600b8381548110610ae257610ae1613510565b5b905f5260205f209060090201604051806101200160405290815f8201548152602001600182015f9054906101000a900473ffffffffffffffffffffffffffffffffffffffff1673ffffffffffffffffffffffffffffffffffffffff1673ffffffffffffffffffffffffffffffffffffffff1681526020016002820154815260200160038201548152602001600482015481526020016005820154815260200160068201548152602001600782015481526020016008820154815250509050818160800151610bb0919061356a565b341015610c055733828260800151610bc8919061356a565b6040517f96f756fd000000000000000000000000000000000000000000000000000000008152600401610bfc9291906135ab565b60405180910390fd5b806101000151821180610c1b5750806060015182115b15610c62578061010001516040517fcce3a419000000000000000000000000000000000000000000000000000000008152600401610c599190612f4b565b60405180910390fd5b5f600190505b600183610c7591906135d2565b811015610e97575f60018360e0015164e8d4a51000855f0151610c98919061356a565b610ca291906135d2565b610cac91906135d2565b905080600f5f600e5481526020019081526020015f2081905550600e5460105f8381526020019081526020015f20819055508260125f3373ffffffffffffffffffffffffffffffffffffffff1673ffffffffffffffffffffffffffffffffffffffff1681526020019081526020015f205f60115f3373ffffffffffffffffffffffffffffffffffffffff1673ffffffffffffffffffffffffffffffffffffffff1681526020019081526020015f205481526020019081526020015f205f820151815f01556020820151816001015f6101000a81548173ffffffffffffffffffffffffffffffffffffffff021916908373ffffffffffffffffffffffffffffffffffffffff16021790555060408201518160020155606082015181600301556080820151816004015560a0820151816005015560c0820151816006015560e082015181600701556101008201518160080155905050610e0a3382611e8c565b60115f3373ffffffffffffffffffffffffffffffffffffffff1673ffffffffffffffffffffffffffffffffffffffff1681526020019081526020015f205f815480929190610e5790613605565b9190505550600e5f815480929190610e6e90613605565b91905055508260e0018051809190610e8590613605565b81525050508080600101915050610c68565b508060e001518160400151610eac919061364c565b8161010001818152505080600b8481548110610ecb57610eca613510565b5b905f5260205f2090600902015f820151815f01556020820151816001015f6101000a81548173ffffffffffffffffffffffffffffffffffffffff021916908373ffffffffffffffffffffffffffffffffffffffff16021790555060408201518160020155606082015181600301556080820151816004015560a0820151816005015560c0820151816006015560e08201518160070155610100820151816008015590505060018160400151610f80919061364c565b42610f8b91906136ac565b600d5f828254610f9b91906135d2565b9250508190555080604001518160e0015103610fbb57610fba8161209f565b5b505050565b600f602052805f5260405f205f915090505481565b60065f9054906101000a900473ffffffffffffffffffffffffffffffffffffffff1673ffffffffffffffffffffffffffffffffffffffff163373ffffffffffffffffffffffffffffffffffffffff160361108f5760065f9054906101000a900473ffffffffffffffffffffffffffffffffffffffff1673ffffffffffffffffffffffffffffffffffffffff166108fc4790811502906040515f60405180830381858888f1935050505015801561108d573d5f803e3d5ffd5b505b565b6110ab83838360405180602001604052805f81525061148f565b505050565b6014602052825f5260405f20602052815f5260405f20602052805f5260405f205f9250925050505481565b600781815481106110ea575f80fd5b905f5260205f20015f915054906101000a900473ffffffffffffffffffffffffffffffffffffffff1681565b61112284848484612364565b50505050565b5f8061113383612517565b90505f73ffffffffffffffffffffffffffffffffffffffff168173ffffffffffffffffffffffffffffffffffffffff16036111a3576040517f08c379a000000000000000000000000000000000000000000000000000000000815260040161119a90613726565b60405180910390fd5b80915050919050565b5f8073ffffffffffffffffffffffffffffffffffffffff168273ffffffffffffffffffffffffffffffffffffffff160361121b576040517f08c379a0000000000000000000000000000000000000000000000000000000008152600401611212906137b4565b60405180910390fd5b60035f8373ffffffffffffffffffffffffffffffffffffffff1673ffffffffffffffffffffffffffffffffffffffff1681526020019081526020015f20549050919050565b600b818154811061126f575f80fd5b905f5260205f2090600902015f91509050805f015490806001015f9054906101000a900473ffffffffffffffffffffffffffffffffffffffff16908060020154908060030154908060040154908060050154908060060154908060070154908060080154905089565b6011602052805f5260405f205f915090505481565b6060600180546112fc90613336565b80601f016020809104026020016040519081016040528092919081815260200182805461132890613336565b80156113735780601f1061134a57610100808354040283529160200191611373565b820191905f5260205f20905b81548152906001019060200180831161135657829003601f168201915b5050505050905090565b6010602052805f5260405f205f915090505481565b61139a612b3e565b600b82815481106113ae576113ad613510565b5b905f5260205f209060090201604051806101200160405290815f8201548152602001600182015f9054906101000a900473ffffffffffffffffffffffffffffffffffffffff1673ffffffffffffffffffffffffffffffffffffffff1673ffffffffffffffffffffffffffffffffffffffff16815260200160028201548152602001600382015481526020016004820154815260200160058201548152602001600682015481526020016007820154815260200160088201548152505090506114758161209f565b5050565b61148b611484611a4f565b8383612550565b5050565b6114a061149a611a4f565b83611b0c565b6114df576040517f08c379a00000000000000000000000000000000000000000000000000000000081526004016114d6906134f2565b60405180910390fd5b6114eb848484846126b7565b50505050565b6114f9612b3e565b600b838154811061150d5761150c613510565b5b905f5260205f209060090201604051806101200160405290815f8201548152602001600182015f9054906101000a900473ffffffffffffffffffffffffffffffffffffffff1673ffffffffffffffffffffffffffffffffffffffff1673ffffffffffffffffffffffffffffffffffffffff16815260200160028201548152602001600382015481526020016004820154815260200160058201548152602001600682015481526020016007820154815260200160088201548152505090505f5b8160a001518111611775578260135f8681526020019081526020015f205f8381526020019081526020015f205403611762577fc423adeec29086fe53c1d7f40a30acfe899aa8f676ff47b77b02885a74bbc5128361162a85611128565b60405161163892919061381c565b60405180910390a161164983611128565b73ffffffffffffffffffffffffffffffffffffffff163373ffffffffffffffffffffffffffffffffffffffff1603611761575f60145f8681526020019081526020015f205f8381526020019081526020015f205f8581526020019081526020015f205490507fc423adeec29086fe53c1d7f40a30acfe899aa8f676ff47b77b02885a74bbc51281336040516116df9291906138a0565b60405180910390a15f60145f8781526020019081526020015f205f8481526020019081526020015f205f8681526020019081526020015f20819055503373ffffffffffffffffffffffffffffffffffffffff166108fc8290811502906040515f60405180830381858888f1935050505015801561175e573d5f803e3d5ffd5b50505b5b808061176d90613605565b9150506115cd565b50505050565b606061178682611a04565b5f61178f612713565b90505f8151116117ad5760405180602001604052805f8152506117d8565b806117b784612733565b6040516020016117c8929190613914565b6040516020818303038152906040525b915050919050565b3373ffffffffffffffffffffffffffffffffffffffff1660065f9054906101000a900473ffffffffffffffffffffffffffffffffffffffff1673ffffffffffffffffffffffffffffffffffffffff161461187157336040517f17a842420000000000000000000000000000000000000000000000000000000081526004016118689190612da2565b60405180910390fd5b8060076008548154811061188857611887613510565b5b905f5260205f20015f6101000a81548173ffffffffffffffffffffffffffffffffffffffff021916908373ffffffffffffffffffffffffffffffffffffffff16021790555060085f8154809291906118df90613605565b919050555050565b6013602052815f5260405f20602052805f5260405f205f91509150505481565b5f60055f8473ffffffffffffffffffffffffffffffffffffffff1673ffffffffffffffffffffffffffffffffffffffff1681526020019081526020015f205f8373ffffffffffffffffffffffffffffffffffffffff1673ffffffffffffffffffffffffffffffffffffffff1681526020019081526020015f205f9054906101000a900460ff16905092915050565b600c5481565b5f7f01ffc9a7000000000000000000000000000000000000000000000000000000007bffffffffffffffffffffffffffffffffffffffffffffffffffffffff1916827bffffffffffffffffffffffffffffffffffffffffffffffffffffffff1916149050919050565b611a0d816127fd565b611a4c576040517f08c379a0000000000000000000000000000000000000000000000000000000008152600401611a4390613726565b60405180910390fd5b50565b5f33905090565b8160045f8381526020019081526020015f205f6101000a81548173ffffffffffffffffffffffffffffffffffffffff021916908373ffffffffffffffffffffffffffffffffffffffff160217905550808273ffffffffffffffffffffffffffffffffffffffff16611ac683611128565b73ffffffffffffffffffffffffffffffffffffffff167f8c5be1e5ebec7d5bd14f71427d1e84f3dd0314c0f7b2291e5b200ac8c7c3b92560405160405180910390a45050565b5f80611b1783611128565b90508073ffffffffffffffffffffffffffffffffffffffff168473ffffffffffffffffffffffffffffffffffffffff161480611b595750611b588185611907565b5b80611b9757508373ffffffffffffffffffffffffffffffffffffffff16611b7f8461089a565b73ffffffffffffffffffffffffffffffffffffffff16145b91505092915050565b8273ffffffffffffffffffffffffffffffffffffffff16611bc082611128565b73ffffffffffffffffffffffffffffffffffffffff1614611c16576040517f08c379a0000000000000000000000000000000000000000000000000000000008152600401611c0d906139a7565b60405180910390fd5b5f73ffffffffffffffffffffffffffffffffffffffff168273ffffffffffffffffffffffffffffffffffffffff1603611c84576040517f08c379a0000000000000000000000000000000000000000000000000000000008152600401611c7b90613a35565b60405180910390fd5b611c91838383600161283d565b8273ffffffffffffffffffffffffffffffffffffffff16611cb182611128565b73ffffffffffffffffffffffffffffffffffffffff1614611d07576040517f08c379a0000000000000000000000000000000000000000000000000000000008152600401611cfe906139a7565b60405180910390fd5b60045f8281526020019081526020015f205f6101000a81549073ffffffffffffffffffffffffffffffffffffffff0219169055600160035f8573ffffffffffffffffffffffffffffffffffffffff1673ffffffffffffffffffffffffffffffffffffffff1681526020019081526020015f205f8282540392505081905550600160035f8473ffffffffffffffffffffffffffffffffffffffff1673ffffffffffffffffffffffffffffffffffffffff1681526020019081526020015f205f82825401925050819055508160025f8381526020019081526020015f205f6101000a81548173ffffffffffffffffffffffffffffffffffffffff021916908373ffffffffffffffffffffffffffffffffffffffff160217905550808273ffffffffffffffffffffffffffffffffffffffff168473ffffffffffffffffffffffffffffffffffffffff167fddf252ad1be2c89b69c2b068fc378daa952ba7f163c4a11628f55a4df523b3ef60405160405180910390a4611e878383836001612843565b505050565b5f73ffffffffffffffffffffffffffffffffffffffff168273ffffffffffffffffffffffffffffffffffffffff1603611efa576040517f08c379a0000000000000000000000000000000000000000000000000000000008152600401611ef190613a9d565b60405180910390fd5b611f03816127fd565b15611f43576040517f08c379a0000000000000000000000000000000000000000000000000000000008152600401611f3a90613b05565b60405180910390fd5b611f505f8383600161283d565b611f59816127fd565b15611f99576040517f08c379a0000000000000000000000000000000000000000000000000000000008152600401611f9090613b05565b60405180910390fd5b600160035f8473ffffffffffffffffffffffffffffffffffffffff1673ffffffffffffffffffffffffffffffffffffffff1681526020019081526020015f205f82825401925050819055508160025f8381526020019081526020015f205f6101000a81548173ffffffffffffffffffffffffffffffffffffffff021916908373ffffffffffffffffffffffffffffffffffffffff160217905550808273ffffffffffffffffffffffffffffffffffffffff165f73ffffffffffffffffffffffffffffffffffffffff167fddf252ad1be2c89b69c2b068fc378daa952ba7f163c4a11628f55a4df523b3ef60405160405180910390a461209b5f83836001612843565b5050565b5f8160e0015182604001516120b4919061364c565b146120fb578061010001516040517fcce3a4190000000000000000000000000000000000000000000000000000000081526004016120f29190612f4b565b60405180910390fd5b5f81608001518260400151612110919061356a565b90507fc423adeec29086fe53c1d7f40a30acfe899aa8f676ff47b77b02885a74bbc5128133604051612143929190613b6d565b60405180910390a15f6009546103e861215c919061364c565b90505f816103e88461216e9190613ba7565b612178919061356a565b90505f8460a001518261218b9190613ba7565b90505f600190505b8560a00151811161230c577fc423adeec29086fe53c1d7f40a30acfe899aa8f676ff47b77b02885a74bbc51282336040516121cf929190613c21565b60405180910390a15f600187604001516121e9919061364c565b600d546121f691906136ac565b600161220291906135d2565b90507fc423adeec29086fe53c1d7f40a30acfe899aa8f676ff47b77b02885a74bbc5128133604051612235929190613ca5565b60405180910390a15f8164e8d4a51000895f0151612253919061356a565b61225d91906135d2565b90507fc423adeec29086fe53c1d7f40a30acfe899aa8f676ff47b77b02885a74bbc5128133604051612290929190613d29565b60405180910390a18060135f8a5f015181526020019081526020015f205f8581526020019081526020015f20819055508360145f8a5f015181526020019081526020015f205f8581526020019081526020015f205f8381526020019081526020015f20819055505050808061230490613605565b915050612193565b508460400151600d548660a00151612324919061356a565b42600d54612332919061356a565b61233c919061356a565b61234691906136ac565b600d5f82825461235691906135d2565b925050819055505050505050565b5f831115806123895750836002828561237d919061356a565b612387919061356a565b115b156123c0576040517fdf469ccb00000000000000000000000000000000000000000000000000000000815260040160405180910390fd5b600b604051806101200160405280600c5481526020013373ffffffffffffffffffffffffffffffffffffffff1681526020018681526020018581526020018481526020018381526020014281526020015f815260200186815250908060018154018082558091505060019003905f5260205f2090600902015f909190919091505f820151815f01556020820151816001015f6101000a81548173ffffffffffffffffffffffffffffffffffffffff021916908373ffffffffffffffffffffffffffffffffffffffff16021790555060408201518160020155606082015181600301556080820151816004015560a0820151816005015560c0820151816006015560e0820151816007015561010082015181600801555050600c5f8154809291906124e990613605565b919050555080426124fa91906136ac565b600d5f82825461250a91906135d2565b9250508190555050505050565b5f60025f8381526020019081526020015f205f9054906101000a900473ffffffffffffffffffffffffffffffffffffffff169050919050565b8173ffffffffffffffffffffffffffffffffffffffff168373ffffffffffffffffffffffffffffffffffffffff16036125be576040517f08c379a00000000000000000000000000000000000000000000000000000000081526004016125b590613dad565b60405180910390fd5b8060055f8573ffffffffffffffffffffffffffffffffffffffff1673ffffffffffffffffffffffffffffffffffffffff1681526020019081526020015f205f8473ffffffffffffffffffffffffffffffffffffffff1673ffffffffffffffffffffffffffffffffffffffff1681526020019081526020015f205f6101000a81548160ff0219169083151502179055508173ffffffffffffffffffffffffffffffffffffffff168373ffffffffffffffffffffffffffffffffffffffff167f17307eab39ab6107e8899845ad3d59bd9653f200f220920489ca2b5937696c31836040516126aa9190612c42565b60405180910390a3505050565b6126c2848484611ba0565b6126ce84848484612849565b61270d576040517f08c379a000000000000000000000000000000000000000000000000000000000815260040161270490613e3b565b60405180910390fd5b50505050565b6060604051806060016040528060358152602001613f3560359139905090565b60605f6001612741846129cb565b0190505f8167ffffffffffffffff81111561275f5761275e613127565b5b6040519080825280601f01601f1916602001820160405280156127915781602001600182028036833780820191505090505b5090505f82602001820190505b6001156127f2578080600190039150507f3031323334353637383961626364656600000000000000000000000000000000600a86061a8153600a85816127e7576127e661367f565b5b0494505f850361279e575b819350505050919050565b5f8073ffffffffffffffffffffffffffffffffffffffff1661281e83612517565b73ffffffffffffffffffffffffffffffffffffffff1614159050919050565b50505050565b50505050565b5f6128698473ffffffffffffffffffffffffffffffffffffffff16612b1c565b156129be578373ffffffffffffffffffffffffffffffffffffffff1663150b7a02612892611a4f565b8786866040518563ffffffff1660e01b81526004016128b49493929190613eab565b6020604051808303815f875af19250505080156128ef57506040513d601f19601f820116820180604052508101906128ec9190613f09565b60015b61296e573d805f811461291d576040519150601f19603f3d011682016040523d82523d5f602084013e612922565b606091505b505f815103612966576040517f08c379a000000000000000000000000000000000000000000000000000000000815260040161295d90613e3b565b60405180910390fd5b805181602001fd5b63150b7a0260e01b7bffffffffffffffffffffffffffffffffffffffffffffffffffffffff1916817bffffffffffffffffffffffffffffffffffffffffffffffffffffffff1916149150506129c3565b600190505b949350505050565b5f805f90507a184f03e93ff9f4daa797ed6e38ed64bf6a1f0100000000000000008310612a27577a184f03e93ff9f4daa797ed6e38ed64bf6a1f0100000000000000008381612a1d57612a1c61367f565b5b0492506040810190505b6d04ee2d6d415b85acef81000000008310612a64576d04ee2d6d415b85acef81000000008381612a5a57612a5961367f565b5b0492506020810190505b662386f26fc100008310612a9357662386f26fc100008381612a8957612a8861367f565b5b0492506010810190505b6305f5e1008310612abc576305f5e1008381612ab257612ab161367f565b5b0492506008810190505b6127108310612ae1576127108381612ad757612ad661367f565b5b0492506004810190505b60648310612b045760648381612afa57612af961367f565b5b0492506002810190505b600a8310612b13576001810190505b80915050919050565b5f808273ffffffffffffffffffffffffffffffffffffffff163b119050919050565b6040518061012001604052805f81526020015f73ffffffffffffffffffffffffffffffffffffffff1681526020015f81526020015f81526020015f81526020015f81526020015f81526020015f81526020015f81525090565b5f604051905090565b5f80fd5b5f80fd5b5f7fffffffff0000000000000000000000000000000000000000000000000000000082169050919050565b612bdc81612ba8565b8114612be6575f80fd5b50565b5f81359050612bf781612bd3565b92915050565b5f60208284031215612c1257612c11612ba0565b5b5f612c1f84828501612be9565b91505092915050565b5f8115159050919050565b612c3c81612c28565b82525050565b5f602082019050612c555f830184612c33565b92915050565b5f81519050919050565b5f82825260208201905092915050565b5f5b83811015612c92578082015181840152602081019050612c77565b5f8484015250505050565b5f601f19601f8301169050919050565b5f612cb782612c5b565b612cc18185612c65565b9350612cd1818560208601612c75565b612cda81612c9d565b840191505092915050565b5f6020820190508181035f830152612cfd8184612cad565b905092915050565b5f819050919050565b612d1781612d05565b8114612d21575f80fd5b50565b5f81359050612d3281612d0e565b92915050565b5f60208284031215612d4d57612d4c612ba0565b5b5f612d5a84828501612d24565b91505092915050565b5f73ffffffffffffffffffffffffffffffffffffffff82169050919050565b5f612d8c82612d63565b9050919050565b612d9c81612d82565b82525050565b5f602082019050612db55f830184612d93565b92915050565b612dc481612d82565b8114612dce575f80fd5b50565b5f81359050612ddf81612dbb565b92915050565b5f8060408385031215612dfb57612dfa612ba0565b5b5f612e0885828601612dd1565b9250506020612e1985828601612d24565b9150509250929050565b612e2c81612d05565b82525050565b5f61012082019050612e465f83018c612e23565b612e53602083018b612d93565b612e60604083018a612e23565b612e6d6060830189612e23565b612e7a6080830188612e23565b612e8760a0830187612e23565b612e9460c0830186612e23565b612ea160e0830185612e23565b612eaf610100830184612e23565b9a9950505050505050505050565b5f805f60608486031215612ed457612ed3612ba0565b5b5f612ee186828701612dd1565b9350506020612ef286828701612dd1565b9250506040612f0386828701612d24565b9150509250925092565b5f8060408385031215612f2357612f22612ba0565b5b5f612f3085828601612d24565b9250506020612f4185828601612d24565b9150509250929050565b5f602082019050612f5e5f830184612e23565b92915050565b5f805f60608486031215612f7b57612f7a612ba0565b5b5f612f8886828701612d24565b9350506020612f9986828701612d24565b9250506040612faa86828701612d24565b9150509250925092565b5f819050919050565b5f612fd7612fd2612fcd84612d63565b612fb4565b612d63565b9050919050565b5f612fe882612fbd565b9050919050565b5f612ff982612fde565b9050919050565b61300981612fef565b82525050565b5f6020820190506130225f830184613000565b92915050565b5f805f80608085870312156130405761303f612ba0565b5b5f61304d87828801612d24565b945050602061305e87828801612d24565b935050604061306f87828801612d24565b925050606061308087828801612d24565b91505092959194509250565b5f602082840312156130a1576130a0612ba0565b5b5f6130ae84828501612dd1565b91505092915050565b6130c081612c28565b81146130ca575f80fd5b50565b5f813590506130db816130b7565b92915050565b5f80604083850312156130f7576130f6612ba0565b5b5f61310485828601612dd1565b9250506020613115858286016130cd565b9150509250929050565b5f80fd5b5f80fd5b7f4e487b71000000000000000000000000000000000000000000000000000000005f52604160045260245ffd5b61315d82612c9d565b810181811067ffffffffffffffff8211171561317c5761317b613127565b5b80604052505050565b5f61318e612b97565b905061319a8282613154565b919050565b5f67ffffffffffffffff8211156131b9576131b8613127565b5b6131c282612c9d565b9050602081019050919050565b828183375f83830152505050565b5f6131ef6131ea8461319f565b613185565b90508281526020810184848401111561320b5761320a613123565b5b6132168482856131cf565b509392505050565b5f82601f8301126132325761323161311f565b5b81356132428482602086016131dd565b91505092915050565b5f805f806080858703121561326357613262612ba0565b5b5f61327087828801612dd1565b945050602061328187828801612dd1565b935050604061329287828801612d24565b925050606085013567ffffffffffffffff8111156132b3576132b2612ba4565b5b6132bf8782880161321e565b91505092959194509250565b5f80604083850312156132e1576132e0612ba0565b5b5f6132ee85828601612dd1565b92505060206132ff85828601612dd1565b9150509250929050565b7f4e487b71000000000000000000000000000000000000000000000000000000005f52602260045260245ffd5b5f600282049050600182168061334d57607f821691505b6020821081036133605761335f613309565b5b50919050565b7f4552433732313a20617070726f76616c20746f2063757272656e74206f776e655f8201527f7200000000000000000000000000000000000000000000000000000000000000602082015250565b5f6133c0602183612c65565b91506133cb82613366565b604082019050919050565b5f6020820190508181035f8301526133ed816133b4565b9050919050565b7f4552433732313a20617070726f76652063616c6c6572206973206e6f7420746f5f8201527f6b656e206f776e6572206f7220617070726f76656420666f7220616c6c000000602082015250565b5f61344e603d83612c65565b9150613459826133f4565b604082019050919050565b5f6020820190508181035f83015261347b81613442565b9050919050565b7f4552433732313a2063616c6c6572206973206e6f7420746f6b656e206f776e655f8201527f72206f7220617070726f76656400000000000000000000000000000000000000602082015250565b5f6134dc602d83612c65565b91506134e782613482565b604082019050919050565b5f6020820190508181035f830152613509816134d0565b9050919050565b7f4e487b71000000000000000000000000000000000000000000000000000000005f52603260045260245ffd5b7f4e487b71000000000000000000000000000000000000000000000000000000005f52601160045260245ffd5b5f61357482612d05565b915061357f83612d05565b925082820261358d81612d05565b915082820484148315176135a4576135a361353d565b5b5092915050565b5f6040820190506135be5f830185612d93565b6135cb6020830184612e23565b9392505050565b5f6135dc82612d05565b91506135e783612d05565b92508282019050808211156135ff576135fe61353d565b5b92915050565b5f61360f82612d05565b91507fffffffffffffffffffffffffffffffffffffffffffffffffffffffffffffffff82036136415761364061353d565b5b600182019050919050565b5f61365682612d05565b915061366183612d05565b92508282039050818111156136795761367861353d565b5b92915050565b7f4e487b71000000000000000000000000000000000000000000000000000000005f52601260045260245ffd5b5f6136b682612d05565b91506136c183612d05565b9250826136d1576136d061367f565b5b828206905092915050565b7f4552433732313a20696e76616c696420746f6b656e20494400000000000000005f82015250565b5f613710601883612c65565b915061371b826136dc565b602082019050919050565b5f6020820190508181035f83015261373d81613704565b9050919050565b7f4552433732313a2061646472657373207a65726f206973206e6f7420612076615f8201527f6c6964206f776e65720000000000000000000000000000000000000000000000602082015250565b5f61379e602983612c65565b91506137a982613744565b604082019050919050565b5f6020820190508181035f8301526137cb81613792565b9050919050565b7f69640000000000000000000000000000000000000000000000000000000000005f82015250565b5f613806600283612c65565b9150613811826137d2565b602082019050919050565b5f60608201905061382f5f830185612e23565b8181036020830152613840816137fa565b905061384f6040830184612d93565b9392505050565b7f7072697a650000000000000000000000000000000000000000000000000000005f82015250565b5f61388a600583612c65565b915061389582613856565b602082019050919050565b5f6060820190506138b35f830185612e23565b81810360208301526138c48161387e565b90506138d36040830184612d93565b9392505050565b5f81905092915050565b5f6138ee82612c5b565b6138f881856138da565b9350613908818560208601612c75565b80840191505092915050565b5f61391f82856138e4565b915061392b82846138e4565b91508190509392505050565b7f4552433732313a207472616e736665722066726f6d20696e636f7272656374205f8201527f6f776e6572000000000000000000000000000000000000000000000000000000602082015250565b5f613991602583612c65565b915061399c82613937565b604082019050919050565b5f6020820190508181035f8301526139be81613985565b9050919050565b7f4552433732313a207472616e7366657220746f20746865207a65726f206164645f8201527f7265737300000000000000000000000000000000000000000000000000000000602082015250565b5f613a1f602483612c65565b9150613a2a826139c5565b604082019050919050565b5f6020820190508181035f830152613a4c81613a13565b9050919050565b7f4552433732313a206d696e7420746f20746865207a65726f20616464726573735f82015250565b5f613a87602083612c65565b9150613a9282613a53565b602082019050919050565b5f6020820190508181035f830152613ab481613a7b565b9050919050565b7f4552433732313a20746f6b656e20616c7265616479206d696e746564000000005f82015250565b5f613aef601c83612c65565b9150613afa82613abb565b602082019050919050565b5f6020820190508181035f830152613b1c81613ae3565b9050919050565b7f6c6f74746572792077696e0000000000000000000000000000000000000000005f82015250565b5f613b57600b83612c65565b9150613b6282613b23565b602082019050919050565b5f606082019050613b805f830185612e23565b8181036020830152613b9181613b4b565b9050613ba06040830184612d93565b9392505050565b5f613bb182612d05565b9150613bbc83612d05565b925082613bcc57613bcb61367f565b5b828204905092915050565b7f6c6f74746572792077696e2070617274000000000000000000000000000000005f82015250565b5f613c0b601083612c65565b9150613c1682613bd7565b602082019050919050565b5f606082019050613c345f830185612e23565b8181036020830152613c4581613bff565b9050613c546040830184612d93565b9392505050565b7f6c6f747465727920726573756c740000000000000000000000000000000000005f82015250565b5f613c8f600e83612c65565b9150613c9a82613c5b565b602082019050919050565b5f606082019050613cb85f830185612e23565b8181036020830152613cc981613c83565b9050613cd86040830184612d93565b9392505050565b7f6c6f747465727920636f6d626f000000000000000000000000000000000000005f82015250565b5f613d13600d83612c65565b9150613d1e82613cdf565b602082019050919050565b5f606082019050613d3c5f830185612e23565b8181036020830152613d4d81613d07565b9050613d5c6040830184612d93565b9392505050565b7f4552433732313a20617070726f766520746f2063616c6c6572000000000000005f82015250565b5f613d97601983612c65565b9150613da282613d63565b602082019050919050565b5f6020820190508181035f830152613dc481613d8b565b9050919050565b7f4552433732313a207472616e7366657220746f206e6f6e2045524337323152655f8201527f63656976657220696d706c656d656e7465720000000000000000000000000000602082015250565b5f613e25603283612c65565b9150613e3082613dcb565b604082019050919050565b5f6020820190508181035f830152613e5281613e19565b9050919050565b5f81519050919050565b5f82825260208201905092915050565b5f613e7d82613e59565b613e878185613e63565b9350613e97818560208601612c75565b613ea081612c9d565b840191505092915050565b5f608082019050613ebe5f830187612d93565b613ecb6020830186612d93565b613ed86040830185612e23565b8181036060830152613eea8184613e73565b905095945050505050565b5f81519050613f0381612bd3565b92915050565b5f60208284031215613f1e57613f1d612ba0565b5b5f613f2b84828501613ef5565b9150509291505056fe697066733a2f2f516d5331356838624b473641454754643742624c6e535845346e644a534e3438744b7a57373148547258655a3454a26469706673582212206dc3a2f2e13fb896bc23dc7bd644ab063b0b5906af80af52ce9dd15695d7307e64736f6c63430008170033",
  "immutableReferences": {},
  "source": "// SPDX-License-Identifier: MIT\n\npragma solidity >=0.8.2 <0.9.0;\n\nimport \"@openzeppelin/contracts/token/ERC721/ERC721.sol\";\nimport \"@openzeppelin/contracts/token/ERC20/ERC20.sol\";\n\nerror LowFunds(address adr, uint256 balance);\nerror NotAdmin(address adr);\nerror GameOver();\nerror Yourself(address adr);\nerror Check(uint256 num);\n\ncontract standards {\n    address private admin;\n    ERC20[] public tokens;\n    uint toks;\n    constructor() {\n        admin = msg.sender;\n    }\n    \n    function addToken(address _erc20) external {\n        if(admin != msg.sender) revert NotAdmin(msg.sender);\n        tokens[toks] = ERC20(_erc20);\n        toks++;\n    }\n\n    function withdraw() external {\n        if (msg.sender == admin) {\n            payable(admin).transfer(address(this).balance);\n        }\n    }\n}\n\ncontract LOTTERY is ERC721, standards {\n    event Log(uint256 cs, string txt, address usr);\n    uint256 fee;\n    uint256 min;\n    struct Lottery {\n        uint256 id;\n        address owner;\n        uint256 tickets;\n        uint256 max;\n        uint256 price;\n        uint256 winning;\n        uint256 timestamp;\n        uint256 sold;\n        uint256 status;\n    }\n    Lottery[] public lotterys;\n    uint256 public l;\n    uint256 rand;\n    uint256 t;\n    mapping(uint256 => uint256) public count;\n    mapping(uint256 => uint256) public dias;\n    mapping(address => uint256) public myTickets;\n    mapping(address => mapping(uint256 => Lottery)) public myTicket;\n    mapping(uint256 => mapping(uint256 => uint256)) public results;\n    mapping(uint256 => mapping(uint256 => mapping(uint256 => uint256))) public claims;\n\n    constructor() ERC721(\"Gamble360 Lottery Ticket\", \"gLOTTO\") {\n        fee = 25;\n        min = 1 * 10**15;\n        l = 0;\n        t = 1;\n        _makeLottery(3, 1, 10000000000000000, 1);\n    }\n\n    function makeLottery(\n        uint256 _tick,\n        uint256 _max,\n        uint256 _price,\n        uint256 _win\n    ) external {\n        _makeLottery(_tick, _max, _price, _win);\n    }\n\n    function _makeLottery(\n        uint256 _tick,\n        uint256 _max,\n        uint256 _price,\n        uint256 _win\n    ) internal {\n        if (_max <= 0 || _max * _win * 2 > _tick) revert GameOver();\n        // uint total = _tick * _price;\n        // if(total / _tick < min) revert GameOver();\n        lotterys.push(\n            Lottery(\n                l,\n                msg.sender,\n                _tick,\n                _max,\n                _price,\n                _win,\n                block.timestamp,\n                0,\n                _tick\n            )\n        );\n        l++;\n        rand += block.timestamp % _win;\n    }\n\n    function _baseURI() internal pure override returns (string memory) {\n        return \"ipfs://QmS15h8bKG6AEGTd7BbLnSXE4ndJSN48tKzW71HTrXeZ4T\";\n    }\n\n    // 10000000000000000000\n    function buyTicket(uint256 _id, uint256 _amount) external payable {\n        Lottery memory lottery;\n        lottery = lotterys[_id];\n        if (msg.value < lottery.price * _amount)\n            revert LowFunds(msg.sender, lottery.price * _amount);\n        if (_amount > lottery.status || _amount > lottery.max)\n            revert Check(lottery.status);\n        for (uint256 i = 1; i < _amount + 1; i++) {\n            uint256 tid = (lottery.id * 10**12) + lottery.sold + 1;\n            count[t] = tid;\n            dias[tid] = t;\n            myTicket[msg.sender][myTickets[msg.sender]] = lottery;\n            _mint(msg.sender, tid);\n            myTickets[msg.sender]++;\n            t++;\n            lottery.sold++;\n        }\n        lottery.status = lottery.tickets - lottery.sold;\n        lotterys[_id] = lottery;\n        rand += block.timestamp % (lottery.tickets - 1);\n        if (lottery.sold == lottery.tickets) _playLottery(lottery);\n    }\n\n    function rollLottery(uint256 _id) external {\n        Lottery memory lottery;\n        lottery = lotterys[_id];\n        _playLottery(lottery);\n    }\n\n    function _playLottery(Lottery memory lottery) internal {\n        if (lottery.tickets - lottery.sold != 0) revert Check(lottery.status);\n        uint256 win = lottery.tickets * lottery.price;\n        emit Log(win, \"lottery win\", msg.sender);\n        uint256 permil = 1000 - fee;\n        uint256 winsub = (win / 1000) * permil;\n        uint256 winpart = winsub / lottery.winning;\n        for (uint256 i = 1; i <= lottery.winning; i++) {\n            // 1 000 000 000 000\n            // 2 925 000 000 000\n            emit Log(winpart, \"lottery win part\", msg.sender);\n            uint256 r = 1 + ((rand) % (lottery.tickets - 1));\n            emit Log(r, \"lottery result\", msg.sender);\n            uint256 res = (lottery.id * 10**12) + r;\n            emit Log(res, \"lottery combo\", msg.sender);\n            results[lottery.id][i] = res;\n            claims[lottery.id][i][res] = winpart;\n        }\n        rand +=\n            ((rand * block.timestamp) * (lottery.winning * rand)) %\n            lottery.tickets;\n    }\n\n    function claim(uint256 _lid, uint256 _res) external {\n        Lottery memory lottery;\n        lottery = lotterys[_lid];\n        for (uint256 i; i <= lottery.winning; i++) {\n            if (results[_lid][i] == _res) {\n                emit Log(_res, \"id\", ownerOf(_res));\n                if (msg.sender == ownerOf(_res)) {\n                    uint256 win = claims[_lid][i][_res];\n                    emit Log(win, \"prize\", msg.sender);\n                    claims[_lid][i][_res] = 0;\n                    payable(msg.sender).transfer(win);\n                }\n            }\n        }\n    }\n}\n",
  "sourcePath": "/Users/iii6/Documents/GitHub/Gamble360/contracts/gamble360/LOTTERY.sol",
  "compiler": {
    "name": "solc",
    "version": "0.8.23+commit.f704f362.Emscripten.clang"
  },
  "schemaVersion": "3.4.16",
  "updatedAt": "2023-11-09T16:00:50.925Z",
  "networkType": "ethereum",
  "devdoc": {
    "events": {
      "Approval(address,address,uint256)": {
        "details": "Emitted when `owner` enables `approved` to manage the `tokenId` token."
      },
      "ApprovalForAll(address,address,bool)": {
        "details": "Emitted when `owner` enables or disables (`approved`) `operator` to manage all of its assets."
      },
      "Transfer(address,address,uint256)": {
        "details": "Emitted when `tokenId` token is transferred from `from` to `to`."
      }
    },
    "kind": "dev",
    "methods": {
      "approve(address,uint256)": {
        "details": "See {IERC721-approve}."
      },
      "balanceOf(address)": {
        "details": "See {IERC721-balanceOf}."
      },
      "getApproved(uint256)": {
        "details": "See {IERC721-getApproved}."
      },
      "isApprovedForAll(address,address)": {
        "details": "See {IERC721-isApprovedForAll}."
      },
      "name()": {
        "details": "See {IERC721Metadata-name}."
      },
      "ownerOf(uint256)": {
        "details": "See {IERC721-ownerOf}."
      },
      "safeTransferFrom(address,address,uint256)": {
        "details": "See {IERC721-safeTransferFrom}."
      },
      "safeTransferFrom(address,address,uint256,bytes)": {
        "details": "See {IERC721-safeTransferFrom}."
      },
      "setApprovalForAll(address,bool)": {
        "details": "See {IERC721-setApprovalForAll}."
      },
      "supportsInterface(bytes4)": {
        "details": "See {IERC165-supportsInterface}."
      },
      "symbol()": {
        "details": "See {IERC721Metadata-symbol}."
      },
      "tokenURI(uint256)": {
        "details": "See {IERC721Metadata-tokenURI}."
      },
      "transferFrom(address,address,uint256)": {
        "details": "See {IERC721-transferFrom}."
      }
    },
    "version": 1
  },
  "userdoc": {
    "kind": "user",
    "methods": {},
    "version": 1
  }
}