{
  "contractName": "ROCK_PAPER_SCISSORS",
  "abi": [
    {
      "inputs": [],
      "stateMutability": "nonpayable",
      "type": "constructor"
    },
    {
      "inputs": [],
      "name": "GameOver",
      "type": "error"
    },
    {
      "inputs": [
        {
          "internalType": "address",
          "name": "adr",
          "type": "address"
        },
        {
          "internalType": "uint256",
          "name": "balance",
          "type": "uint256"
        }
      ],
      "name": "LowFunds",
      "type": "error"
    },
    {
      "inputs": [
        {
          "internalType": "address",
          "name": "adr",
          "type": "address"
        }
      ],
      "name": "NotAdmin",
      "type": "error"
    },
    {
      "inputs": [
        {
          "internalType": "address",
          "name": "adr",
          "type": "address"
        }
      ],
      "name": "Yourself",
      "type": "error"
    },
    {
      "anonymous": false,
      "inputs": [
        {
          "indexed": false,
          "internalType": "uint256",
          "name": "cs",
          "type": "uint256"
        },
        {
          "indexed": false,
          "internalType": "address",
          "name": "from",
          "type": "address"
        },
        {
          "indexed": false,
          "internalType": "uint256",
          "name": "time",
          "type": "uint256"
        }
      ],
      "name": "Log",
      "type": "event"
    },
    {
      "inputs": [
        {
          "internalType": "address",
          "name": "_erc20",
          "type": "address"
        }
      ],
      "name": "addToken",
      "outputs": [],
      "stateMutability": "nonpayable",
      "type": "function"
    },
    {
      "inputs": [],
      "name": "g",
      "outputs": [
        {
          "internalType": "uint256",
          "name": "",
          "type": "uint256"
        }
      ],
      "stateMutability": "view",
      "type": "function",
      "constant": true
    },
    {
      "inputs": [
        {
          "internalType": "uint256",
          "name": "",
          "type": "uint256"
        }
      ],
      "name": "games",
      "outputs": [
        {
          "internalType": "uint256",
          "name": "id",
          "type": "uint256"
        },
        {
          "internalType": "uint256",
          "name": "value",
          "type": "uint256"
        },
        {
          "internalType": "address payable",
          "name": "owner",
          "type": "address"
        },
        {
          "internalType": "uint256",
          "name": "t0",
          "type": "uint256"
        },
        {
          "internalType": "uint256",
          "name": "c0",
          "type": "uint256"
        },
        {
          "internalType": "address payable",
          "name": "opponent",
          "type": "address"
        },
        {
          "internalType": "uint256",
          "name": "t1",
          "type": "uint256"
        },
        {
          "internalType": "uint256",
          "name": "c1",
          "type": "uint256"
        },
        {
          "internalType": "uint256",
          "name": "state",
          "type": "uint256"
        },
        {
          "internalType": "uint256",
          "name": "result",
          "type": "uint256"
        }
      ],
      "stateMutability": "view",
      "type": "function",
      "constant": true
    },
    {
      "inputs": [
        {
          "internalType": "address",
          "name": "",
          "type": "address"
        },
        {
          "internalType": "uint256",
          "name": "",
          "type": "uint256"
        }
      ],
      "name": "myGame",
      "outputs": [
        {
          "internalType": "uint256",
          "name": "id",
          "type": "uint256"
        },
        {
          "internalType": "uint256",
          "name": "value",
          "type": "uint256"
        },
        {
          "internalType": "address payable",
          "name": "owner",
          "type": "address"
        },
        {
          "internalType": "uint256",
          "name": "t0",
          "type": "uint256"
        },
        {
          "internalType": "uint256",
          "name": "c0",
          "type": "uint256"
        },
        {
          "internalType": "address payable",
          "name": "opponent",
          "type": "address"
        },
        {
          "internalType": "uint256",
          "name": "t1",
          "type": "uint256"
        },
        {
          "internalType": "uint256",
          "name": "c1",
          "type": "uint256"
        },
        {
          "internalType": "uint256",
          "name": "state",
          "type": "uint256"
        },
        {
          "internalType": "uint256",
          "name": "result",
          "type": "uint256"
        }
      ],
      "stateMutability": "view",
      "type": "function",
      "constant": true
    },
    {
      "inputs": [
        {
          "internalType": "address",
          "name": "",
          "type": "address"
        }
      ],
      "name": "myGames",
      "outputs": [
        {
          "internalType": "uint256",
          "name": "",
          "type": "uint256"
        }
      ],
      "stateMutability": "view",
      "type": "function",
      "constant": true
    },
    {
      "inputs": [
        {
          "internalType": "uint256",
          "name": "",
          "type": "uint256"
        }
      ],
      "name": "played",
      "outputs": [
        {
          "internalType": "bool",
          "name": "",
          "type": "bool"
        }
      ],
      "stateMutability": "view",
      "type": "function",
      "constant": true
    },
    {
      "inputs": [
        {
          "internalType": "uint256",
          "name": "",
          "type": "uint256"
        }
      ],
      "name": "tokens",
      "outputs": [
        {
          "internalType": "contract ERC20",
          "name": "",
          "type": "address"
        }
      ],
      "stateMutability": "view",
      "type": "function",
      "constant": true
    },
    {
      "inputs": [
        {
          "internalType": "uint256",
          "name": "_choice",
          "type": "uint256"
        }
      ],
      "name": "setGame",
      "outputs": [],
      "stateMutability": "payable",
      "type": "function",
      "payable": true
    },
    {
      "inputs": [
        {
          "internalType": "uint256",
          "name": "_game",
          "type": "uint256"
        },
        {
          "internalType": "uint256",
          "name": "_choice",
          "type": "uint256"
        }
      ],
      "name": "joinGame",
      "outputs": [],
      "stateMutability": "payable",
      "type": "function",
      "payable": true
    }
  ],
  "bytecode": "0x608060405234801562000010575f80fd5b50335f806101000a81548173ffffffffffffffffffffffffffffffffffffffff021916908373ffffffffffffffffffffffffffffffffffffffff1602179055506009426200005f9190620000cd565b60016200006d919062000131565b600581905550601960038190555066038d7ea4c6800060048190555060016006819055506200016b565b5f819050919050565b7f4e487b71000000000000000000000000000000000000000000000000000000005f52601260045260245ffd5b5f620000d98262000097565b9150620000e68362000097565b925082620000f957620000f8620000a0565b5b828206905092915050565b7f4e487b71000000000000000000000000000000000000000000000000000000005f52601160045260245ffd5b5f6200013d8262000097565b91506200014a8362000097565b925082820190508082111562000165576200016462000104565b5b92915050565b61227280620001795f395ff3fe608060405260043610610085575f3560e01c8063725c62cd11610058578063725c62cd14610162578063b60b9fcb146101a7578063d48bfca7146101c3578063e2179b8e146101eb578063eaf838261461021557610085565b8063117a5b901461008957806311edb398146100ce5780633a245f3d146100ea5780634f64b2be14610126575b5f80fd5b348015610094575f80fd5b506100af60048036038101906100aa9190611954565b610251565b6040516100c59a999897969594939291906119cd565b60405180910390f35b6100e860048036038101906100e39190611954565b6102df565b005b3480156100f5575f80fd5b50610110600480360381019061010b9190611954565b6108c5565b60405161011d9190611a81565b60405180910390f35b348015610131575f80fd5b5061014c60048036038101906101479190611954565b6108e2565b6040516101599190611af5565b60405180910390f35b34801561016d575f80fd5b5061018860048036038101906101839190611b49565b61091d565b60405161019e9a999897969594939291906119cd565b60405180910390f35b6101c160048036038101906101bc9190611b87565b6109b6565b005b3480156101ce575f80fd5b506101e960048036038101906101e49190611bc5565b610be0565b005b3480156101f6575f80fd5b506101ff610ce5565b60405161020c9190611bf0565b60405180910390f35b348015610220575f80fd5b5061023b60048036038101906102369190611bc5565b610ceb565b6040516102489190611bf0565b60405180910390f35b6009602052805f5260405f205f91509050805f015490806001015490806002015f9054906101000a900473ffffffffffffffffffffffffffffffffffffffff1690806003015490806004015490806005015f9054906101000a900473ffffffffffffffffffffffffffffffffffffffff1690806006015490806007015490806008015490806009015490508a565b600454341161032957336004546040517f96f756fd000000000000000000000000000000000000000000000000000000008152600401610320929190611c18565b60405180910390fd5b5f806103353484610d00565b915091508115610468575f60095f8381526020019081526020015f20604051806101400160405290815f820154815260200160018201548152602001600282015f9054906101000a900473ffffffffffffffffffffffffffffffffffffffff1673ffffffffffffffffffffffffffffffffffffffff1673ffffffffffffffffffffffffffffffffffffffff1681526020016003820154815260200160048201548152602001600582015f9054906101000a900473ffffffffffffffffffffffffffffffffffffffff1673ffffffffffffffffffffffffffffffffffffffff1673ffffffffffffffffffffffffffffffffffffffff16815260200160068201548152602001600782015481526020016008820154815260200160098201548152505090506104628185610e13565b506108c0565b5f42905080846104789190611c6c565b6040516020016104889190611cbf565b60405160208183030381529060405260075f60085481526020019081526020015f2090816104b69190611f01565b5060405180610140016040528060065481526020013481526020013373ffffffffffffffffffffffffffffffffffffffff16815260200182815260200160085481526020015f73ffffffffffffffffffffffffffffffffffffffff168152602001600a5f3373ffffffffffffffffffffffffffffffffffffffff1673ffffffffffffffffffffffffffffffffffffffff1681526020019081526020015f205481526020015f8152602001600181526020015f81525060095f60065481526020019081526020015f205f820151815f0155602082015181600101556040820151816002015f6101000a81548173ffffffffffffffffffffffffffffffffffffffff021916908373ffffffffffffffffffffffffffffffffffffffff160217905550606082015181600301556080820151816004015560a0820151816005015f6101000a81548173ffffffffffffffffffffffffffffffffffffffff021916908373ffffffffffffffffffffffffffffffffffffffff16021790555060c0820151816006015560e082015181600701556101008201518160080155610120820151816009015590505060095f60065481526020019081526020015f20600b5f3373ffffffffffffffffffffffffffffffffffffffff1673ffffffffffffffffffffffffffffffffffffffff1681526020019081526020015f205f600a5f3373ffffffffffffffffffffffffffffffffffffffff1673ffffffffffffffffffffffffffffffffffffffff1681526020019081526020015f205481526020019081526020015f205f820154815f015560018201548160010155600282015f9054906101000a900473ffffffffffffffffffffffffffffffffffffffff16816002015f6101000a81548173ffffffffffffffffffffffffffffffffffffffff021916908373ffffffffffffffffffffffffffffffffffffffff1602179055506003820154816003015560048201548160040155600582015f9054906101000a900473ffffffffffffffffffffffffffffffffffffffff16816005015f6101000a81548173ffffffffffffffffffffffffffffffffffffffff021916908373ffffffffffffffffffffffffffffffffffffffff16021790555060068201548160060155600782015481600701556008820154816008015560098201548160090155905050600a5f3373ffffffffffffffffffffffffffffffffffffffff1673ffffffffffffffffffffffffffffffffffffffff1681526020019081526020015f205f81548092919061086190611fd0565b91905055505f600c5f60065481526020019081526020015f205f6101000a81548160ff02191690831515021790555060065f8154809291906108a290611fd0565b919050555060085f8154809291906108b990611fd0565b9190505550505b505050565b600c602052805f5260405f205f915054906101000a900460ff1681565b600181815481106108f1575f80fd5b905f5260205f20015f915054906101000a900473ffffffffffffffffffffffffffffffffffffffff1681565b600b602052815f5260405f20602052805f5260405f205f9150915050805f015490806001015490806002015f9054906101000a900473ffffffffffffffffffffffffffffffffffffffff1690806003015490806004015490806005015f9054906101000a900473ffffffffffffffffffffffffffffffffffffffff1690806006015490806007015490806008015490806009015490508a565b5f60095f8481526020019081526020015f20604051806101400160405290815f820154815260200160018201548152602001600282015f9054906101000a900473ffffffffffffffffffffffffffffffffffffffff1673ffffffffffffffffffffffffffffffffffffffff1673ffffffffffffffffffffffffffffffffffffffff1681526020016003820154815260200160048201548152602001600582015f9054906101000a900473ffffffffffffffffffffffffffffffffffffffff1673ffffffffffffffffffffffffffffffffffffffff1673ffffffffffffffffffffffffffffffffffffffff16815260200160068201548152602001600782015481526020016008820154815260200160098201548152505090508060200151341015610b1e573381602001516040517f96f756fd000000000000000000000000000000000000000000000000000000008152600401610b15929190611c18565b60405180910390fd5b600181610100015114610b5d576040517fdf469ccb00000000000000000000000000000000000000000000000000000000815260040160405180910390fd5b806040015173ffffffffffffffffffffffffffffffffffffffff163373ffffffffffffffffffffffffffffffffffffffff1603610bd157336040517f633df725000000000000000000000000000000000000000000000000000000008152600401610bc89190612017565b60405180910390fd5b610bdb8183610e13565b505050565b3373ffffffffffffffffffffffffffffffffffffffff165f8054906101000a900473ffffffffffffffffffffffffffffffffffffffff1673ffffffffffffffffffffffffffffffffffffffff1614610c6f57336040517f17a84242000000000000000000000000000000000000000000000000000000008152600401610c669190612017565b60405180910390fd5b80600160025481548110610c8657610c85612030565b5b905f5260205f20015f6101000a81548173ffffffffffffffffffffffffffffffffffffffff021916908373ffffffffffffffffffffffffffffffffffffffff16021790555060025f815480929190610cdd90611fd0565b919050555050565b60065481565b600a602052805f5260405f205f915090505481565b5f805f5b600654811015610e0b578460095f8381526020019081526020015f2060010154148015610d9057503373ffffffffffffffffffffffffffffffffffffffff1660095f8381526020019081526020015f206002015f9054906101000a900473ffffffffffffffffffffffffffffffffffffffff1673ffffffffffffffffffffffffffffffffffffffff1614155b8015610db057508360095f8381526020019081526020015f206004015414155b8015610dd05750600160095f8381526020019081526020015f2060080154145b15610df1576001925080915060065481610dea9190611c6c565b9050610df8565b5f92505f91505b8080610e0390611fd0565b915050610d04565b509250929050565b6001826101000151141580610e2d5750600654825f015110155b15610e64576040517fdf469ccb00000000000000000000000000000000000000000000000000000000815260040160405180910390fd5b338260a0019073ffffffffffffffffffffffffffffffffffffffff16908173ffffffffffffffffffffffffffffffffffffffff1681525050808260e00181815250505f8260c001519050428360c00181815250506002836101000181815250508260095f855f015181526020019081526020015f205f820151815f0155602082015181600101556040820151816002015f6101000a81548173ffffffffffffffffffffffffffffffffffffffff021916908373ffffffffffffffffffffffffffffffffffffffff160217905550606082015181600301556080820151816004015560a0820151816005015f6101000a81548173ffffffffffffffffffffffffffffffffffffffff021916908373ffffffffffffffffffffffffffffffffffffffff16021790555060c0820151816006015560e082015181600701556101008201518160080155610120820151816009015590505082600b5f856040015173ffffffffffffffffffffffffffffffffffffffff1673ffffffffffffffffffffffffffffffffffffffff1681526020019081526020015f205f8381526020019081526020015f205f820151815f0155602082015181600101556040820151816002015f6101000a81548173ffffffffffffffffffffffffffffffffffffffff021916908373ffffffffffffffffffffffffffffffffffffffff160217905550606082015181600301556080820151816004015560a0820151816005015f6101000a81548173ffffffffffffffffffffffffffffffffffffffff021916908373ffffffffffffffffffffffffffffffffffffffff16021790555060c0820151816006015560e082015181600701556101008201518160080155610120820151816009015590505082600b5f3373ffffffffffffffffffffffffffffffffffffffff1673ffffffffffffffffffffffffffffffffffffffff1681526020019081526020015f205f600a5f3373ffffffffffffffffffffffffffffffffffffffff1673ffffffffffffffffffffffffffffffffffffffff1681526020019081526020015f205481526020019081526020015f205f820151815f0155602082015181600101556040820151816002015f6101000a81548173ffffffffffffffffffffffffffffffffffffffff021916908373ffffffffffffffffffffffffffffffffffffffff160217905550606082015181600301556080820151816004015560a0820151816005015f6101000a81548173ffffffffffffffffffffffffffffffffffffffff021916908373ffffffffffffffffffffffffffffffffffffffff16021790555060c0820151816006015560e0820151816007015561010082015181600801556101208201518160090155905050600a5f3373ffffffffffffffffffffffffffffffffffffffff1673ffffffffffffffffffffffffffffffffffffffff1681526020019081526020015f205f81548092919061129e90611fd0565b91905055505f6003546103e86112b4919061205d565b6103e8600286602001516112c89190612090565b6112d291906120fe565b6112dc9190612090565b90506003846101000181815250505f846060015160016112fc9190611c6c565b60405160200161130c9190611cbf565b60405160208183030381529060405260405160200161132b9190612190565b6040516020818303038152906040528051906020012060075f876080015181526020019081526020015f206040516020016113669190612226565b604051602081830303815290604052805190602001200361138657600190505b846060015160026113979190611c6c565b6040516020016113a79190611cbf565b6040516020818303038152906040526040516020016113c69190612190565b6040516020818303038152906040528051906020012060075f876080015181526020019081526020015f206040516020016114019190612226565b604051602081830303815290604052805190602001200361142157600290505b846060015160036114329190611c6c565b6040516020016114429190611cbf565b6040516020818303038152906040526040516020016114619190612190565b6040516020818303038152906040528051906020012060075f876080015181526020019081526020015f2060405160200161149c9190612226565b60405160208183030381529060405280519060200120036114bc57600390505b808560800181815250508460095f875f015181526020019081526020015f205f820151815f0155602082015181600101556040820151816002015f6101000a81548173ffffffffffffffffffffffffffffffffffffffff021916908373ffffffffffffffffffffffffffffffffffffffff160217905550606082015181600301556080820151816004015560a0820151816005015f6101000a81548173ffffffffffffffffffffffffffffffffffffffff021916908373ffffffffffffffffffffffffffffffffffffffff16021790555060c0820151816006015560e08201518160070155610100820151816008015561012082015181600901559050506001600c5f875f015181526020019081526020015f205f6101000a81548160ff0219169083151502179055508460e0015181036115fd575f856101200181815250505b600181148015611611575060028560e00151145b8061162c575060028114801561162b575060038560e00151145b5b806116475750600381148015611646575060018560e00151145b5b15611659576002856101200181815250505b60018560e0015114801561166d5750600281145b80611688575060028560e001511480156116875750600381145b5b806116a3575060038560e001511480156116a25750600181145b5b156116b5576001856101200181815250505b6003856101000181815250508460095f875f015181526020019081526020015f205f820151815f0155602082015181600101556040820151816002015f6101000a81548173ffffffffffffffffffffffffffffffffffffffff021916908373ffffffffffffffffffffffffffffffffffffffff160217905550606082015181600301556080820151816004015560a0820151816005015f6101000a81548173ffffffffffffffffffffffffffffffffffffffff021916908373ffffffffffffffffffffffffffffffffffffffff16021790555060c0820151816006015560e08201518160070155610100820151816008015561012082015181600901559050505f8561012001510361186a57846040015173ffffffffffffffffffffffffffffffffffffffff166108fc6002846117ec91906120fe565b90811502906040515f60405180830381858888f19350505050158015611814573d5f803e3d5ffd5b508460a0015173ffffffffffffffffffffffffffffffffffffffff166108fc60028461184091906120fe565b90811502906040515f60405180830381858888f19350505050158015611868573d5f803e3d5ffd5b505b6001856101200151036118c057846040015173ffffffffffffffffffffffffffffffffffffffff166108fc8390811502906040515f60405180830381858888f193505050501580156118be573d5f803e3d5ffd5b505b600285610120015103611916578460a0015173ffffffffffffffffffffffffffffffffffffffff166108fc8390811502906040515f60405180830381858888f19350505050158015611914573d5f803e3d5ffd5b505b5050505050565b5f80fd5b5f819050919050565b61193381611921565b811461193d575f80fd5b50565b5f8135905061194e8161192a565b92915050565b5f602082840312156119695761196861191d565b5b5f61197684828501611940565b91505092915050565b61198881611921565b82525050565b5f73ffffffffffffffffffffffffffffffffffffffff82169050919050565b5f6119b78261198e565b9050919050565b6119c7816119ad565b82525050565b5f610140820190506119e15f83018d61197f565b6119ee602083018c61197f565b6119fb604083018b6119be565b611a08606083018a61197f565b611a15608083018961197f565b611a2260a08301886119be565b611a2f60c083018761197f565b611a3c60e083018661197f565b611a4a61010083018561197f565b611a5861012083018461197f565b9b9a5050505050505050505050565b5f8115159050919050565b611a7b81611a67565b82525050565b5f602082019050611a945f830184611a72565b92915050565b5f819050919050565b5f611abd611ab8611ab38461198e565b611a9a565b61198e565b9050919050565b5f611ace82611aa3565b9050919050565b5f611adf82611ac4565b9050919050565b611aef81611ad5565b82525050565b5f602082019050611b085f830184611ae6565b92915050565b5f611b188261198e565b9050919050565b611b2881611b0e565b8114611b32575f80fd5b50565b5f81359050611b4381611b1f565b92915050565b5f8060408385031215611b5f57611b5e61191d565b5b5f611b6c85828601611b35565b9250506020611b7d85828601611940565b9150509250929050565b5f8060408385031215611b9d57611b9c61191d565b5b5f611baa85828601611940565b9250506020611bbb85828601611940565b9150509250929050565b5f60208284031215611bda57611bd961191d565b5b5f611be784828501611b35565b91505092915050565b5f602082019050611c035f83018461197f565b92915050565b611c1281611b0e565b82525050565b5f604082019050611c2b5f830185611c09565b611c38602083018461197f565b9392505050565b7f4e487b71000000000000000000000000000000000000000000000000000000005f52601160045260245ffd5b5f611c7682611921565b9150611c8183611921565b9250828201905080821115611c9957611c98611c3f565b5b92915050565b5f819050919050565b611cb9611cb482611921565b611c9f565b82525050565b5f611cca8284611ca8565b60208201915081905092915050565b5f81519050919050565b7f4e487b71000000000000000000000000000000000000000000000000000000005f52604160045260245ffd5b7f4e487b71000000000000000000000000000000000000000000000000000000005f52602260045260245ffd5b5f6002820490506001821680611d5457607f821691505b602082108103611d6757611d66611d10565b5b50919050565b5f819050815f5260205f209050919050565b5f6020601f8301049050919050565b5f82821b905092915050565b5f60088302611dc97fffffffffffffffffffffffffffffffffffffffffffffffffffffffffffffffff82611d8e565b611dd38683611d8e565b95508019841693508086168417925050509392505050565b5f611e05611e00611dfb84611921565b611a9a565b611921565b9050919050565b5f819050919050565b611e1e83611deb565b611e32611e2a82611e0c565b848454611d9a565b825550505050565b5f90565b611e46611e3a565b611e51818484611e15565b505050565b5b81811015611e7457611e695f82611e3e565b600181019050611e57565b5050565b601f821115611eb957611e8a81611d6d565b611e9384611d7f565b81016020851015611ea2578190505b611eb6611eae85611d7f565b830182611e56565b50505b505050565b5f82821c905092915050565b5f611ed95f1984600802611ebe565b1980831691505092915050565b5f611ef18383611eca565b9150826002028217905092915050565b611f0a82611cd9565b67ffffffffffffffff811115611f2357611f22611ce3565b5b611f2d8254611d3d565b611f38828285611e78565b5f60209050601f831160018114611f69575f8415611f57578287015190505b611f618582611ee6565b865550611fc8565b601f198416611f7786611d6d565b5f5b82811015611f9e57848901518255600182019150602085019450602081019050611f79565b86831015611fbb5784890151611fb7601f891682611eca565b8355505b6001600288020188555050505b505050505050565b5f611fda82611921565b91507fffffffffffffffffffffffffffffffffffffffffffffffffffffffffffffffff820361200c5761200b611c3f565b5b600182019050919050565b5f60208201905061202a5f830184611c09565b92915050565b7f4e487b71000000000000000000000000000000000000000000000000000000005f52603260045260245ffd5b5f61206782611921565b915061207283611921565b925082820390508181111561208a57612089611c3f565b5b92915050565b5f61209a82611921565b91506120a583611921565b92508282026120b381611921565b915082820484148315176120ca576120c9611c3f565b5b5092915050565b7f4e487b71000000000000000000000000000000000000000000000000000000005f52601260045260245ffd5b5f61210882611921565b915061211383611921565b925082612123576121226120d1565b5b828204905092915050565b5f81905092915050565b5f5b8381101561215557808201518184015260208101905061213a565b5f8484015250505050565b5f61216a82611cd9565b612174818561212e565b9350612184818560208601612138565b80840191505092915050565b5f61219b8284612160565b915081905092915050565b5f81546121b281611d3d565b6121bc818661212e565b9450600182165f81146121d657600181146121eb5761221d565b60ff198316865281151582028601935061221d565b6121f485611d6d565b5f5b83811015612215578154818901526001820191506020810190506121f6565b838801955050505b50505092915050565b5f61223182846121a6565b91508190509291505056fea26469706673582212200f5abe45b2f082c034b7ad8c74bb99f533dc7b4cd4e940ebd835c2a072125baa64736f6c63430008170033",
  "immutableReferences": {},
  "source": "// SPDX-License-Identifier: MIT\n\npragma solidity >=0.8.2 <0.9.0;\n\nimport \"@openzeppelin/contracts/token/ERC20/ERC20.sol\";\n\nerror LowFunds(address adr, uint256 balance);\nerror NotAdmin(address adr);\nerror GameOver();\nerror Yourself(address adr);\nerror Check(uint256 num);\n\ncontract standards {\n    address private admin;\n    ERC20[] public tokens;\n    uint toks;\n    constructor() {\n        admin = msg.sender;\n    }\n    \n    function addToken(address _erc20) external {\n        if(admin != msg.sender) revert NotAdmin(msg.sender);\n        tokens[toks] = ERC20(_erc20);\n        toks++;\n    }\n}\n\ncontract ROCK_PAPER_SCISSORS is standards {\n    event Log(uint256 cs, address from, uint256 time);\n\n    uint256 fee;\n    uint256 min;\n    uint256 t;\n    uint256 public g;\n    mapping(uint256 => bytes) private locker;\n    uint256 ln;\n\n    struct Game {\n        uint256 id;\n        uint256 value;\n        address payable owner;\n        uint256 t0;\n        uint256 c0; // 1 lo // 2 hi\n        address payable opponent;\n        uint256 t1;\n        uint256 c1; // 1 lo // 2 hi\n        uint256 state; // 0 invalid // 1 created // 2 played // 3 finished\n        uint256 result;\n    }\n\n    mapping(uint256 => Game) public games;\n    mapping(address => uint256) public myGames;\n    mapping(address => mapping(uint256 => Game)) public myGame;\n    mapping(uint256 => bool) public played;\n\n    constructor() {\n        t = 1 + (block.timestamp % 9);\n        fee = 25;\n        min = 1 * 10**15;\n        g = 1;\n    }\n\n    function setGame(uint256 _choice) external payable {\n        if (msg.value <= min) revert LowFunds(msg.sender, min);\n        (bool found, uint256 id) = _scanGames(msg.value, _choice);\n        if (found) {\n            // aggregated\n            Game memory game = games[id];\n            _play(game, _choice);\n        } else {\n            uint256 timer = block.timestamp;\n            locker[ln] = bytes(abi.encodePacked(_choice + timer));\n            games[g] = Game(\n                g,\n                msg.value,\n                payable(msg.sender),\n                timer,\n                ln,\n                payable(address(0)),\n                myGames[msg.sender],\n                0,\n                1,\n                0\n            );\n            myGame[msg.sender][myGames[msg.sender]] = games[g];\n            myGames[msg.sender]++;\n            played[g] = false;\n            g++;\n            ln++;\n        }\n    }\n\n    function _scanGames(uint256 _value, uint256 _choice)\n        internal\n        view\n        returns (bool find, uint256 id)\n    {\n        for (uint256 i; i < g; i++) {\n            if (\n                games[i].value == _value &&\n                games[i].owner != msg.sender &&\n                games[i].c0 != _choice &&\n                games[i].state == 1\n            ) {\n                find = true;\n                id = i;\n                i += g;\n            } else {\n                find = false;\n                id = 0;\n            }\n        }\n    }\n\n    function joinGame(uint256 _game, uint256 _choice) external payable {\n        Game memory game = games[_game];\n        if (msg.value < game.value) revert LowFunds(msg.sender, game.value);\n        if (game.state != 1) revert GameOver();\n        if (msg.sender == game.owner) revert Yourself(msg.sender);\n        _play(game, _choice);\n    }\n\n    function _play(Game memory _game, uint256 _choice) internal {\n        if (_game.state != 1 || _game.id >= g) revert GameOver();\n        _game.opponent = payable(msg.sender);\n        _game.c1 = _choice;\n        uint hold = _game.t1;\n        _game.t1 = block.timestamp;\n        _game.state = 2;\n        games[_game.id] = _game;\n        myGame[_game.owner][hold] = _game;\n        myGame[msg.sender][myGames[msg.sender]] = _game;\n        myGames[msg.sender]++;\n        uint256 win = ((_game.value * 2) / 1000) * (1000 - fee);\n        _game.state = 3;\n        uint256 choice0;\n        if (\n            keccak256(abi.encodePacked(locker[_game.c0])) ==\n            keccak256(\n                abi.encodePacked(bytes(abi.encodePacked(uint256(1) + _game.t0)))\n            )\n        ) choice0 = 1;\n        if (\n            keccak256(abi.encodePacked(locker[_game.c0])) ==\n            keccak256(\n                abi.encodePacked(bytes(abi.encodePacked(uint256(2) + _game.t0)))\n            )\n        ) choice0 = 2;\n        if (\n            keccak256(abi.encodePacked(locker[_game.c0])) ==\n            keccak256(\n                abi.encodePacked(bytes(abi.encodePacked(uint256(3) + _game.t0)))\n            )\n        ) choice0 = 3;\n        _game.c0 = choice0;\n        games[_game.id] = _game;\n        played[_game.id] = true;\n        if (choice0 == _game.c1) _game.result = 0;\n        if (\n            (choice0 == 1 && _game.c1 == 2) ||\n            (choice0 == 2 && _game.c1 == 3) ||\n            (choice0 == 3 && _game.c1 == 1)\n        ) _game.result = 2;\n        if (\n            (_game.c1 == 1 && choice0 == 2) ||\n            (_game.c1 == 2 && choice0 == 3) ||\n            (_game.c1 == 3 && choice0 == 1)\n        ) _game.result = 1;\n        _game.state = 3;\n        games[_game.id] = _game;\n        if (_game.result == 0) {\n            payable(_game.owner).transfer(win / 2);\n            payable(_game.opponent).transfer(win / 2);\n        }\n        if (_game.result == 1) payable(_game.owner).transfer(win);\n        if (_game.result == 2) payable(_game.opponent).transfer(win);\n    }\n}\n",
  "sourcePath": "/Users/iii6/Documents/GitHub/Gamble360/contracts/gamble360/ROCK_PAPER_SCISSORS.sol",
  "compiler": {
    "name": "solc",
    "version": "0.8.23+commit.f704f362.Emscripten.clang"
  },
  "schemaVersion": "3.4.16",
  "updatedAt": "2023-11-09T16:00:50.905Z",
  "networkType": "ethereum",
  "devdoc": {
    "kind": "dev",
    "methods": {},
    "version": 1
  },
  "userdoc": {
    "kind": "user",
    "methods": {},
    "version": 1
  }
}