{
  "contractName": "s0xFriends",
  "abi": [
    {
      "inputs": [
        {
          "internalType": "address",
          "name": "_usrAdr",
          "type": "address"
        }
      ],
      "stateMutability": "nonpayable",
      "type": "constructor"
    },
    {
      "inputs": [
        {
          "internalType": "address",
          "name": "",
          "type": "address"
        }
      ],
      "name": "banned",
      "outputs": [
        {
          "internalType": "bool",
          "name": "",
          "type": "bool"
        }
      ],
      "stateMutability": "view",
      "type": "function"
    },
    {
      "inputs": [
        {
          "internalType": "address",
          "name": "",
          "type": "address"
        },
        {
          "internalType": "address",
          "name": "",
          "type": "address"
        }
      ],
      "name": "connection",
      "outputs": [
        {
          "internalType": "uint256",
          "name": "",
          "type": "uint256"
        }
      ],
      "stateMutability": "view",
      "type": "function"
    },
    {
      "inputs": [
        {
          "internalType": "address",
          "name": "",
          "type": "address"
        }
      ],
      "name": "followerCount",
      "outputs": [
        {
          "internalType": "uint256",
          "name": "",
          "type": "uint256"
        }
      ],
      "stateMutability": "view",
      "type": "function"
    },
    {
      "inputs": [
        {
          "internalType": "address",
          "name": "",
          "type": "address"
        },
        {
          "internalType": "uint256",
          "name": "",
          "type": "uint256"
        }
      ],
      "name": "followersByCount",
      "outputs": [
        {
          "internalType": "address",
          "name": "",
          "type": "address"
        }
      ],
      "stateMutability": "view",
      "type": "function"
    },
    {
      "inputs": [
        {
          "internalType": "address",
          "name": "",
          "type": "address"
        }
      ],
      "name": "myFollowingCount",
      "outputs": [
        {
          "internalType": "uint256",
          "name": "",
          "type": "uint256"
        }
      ],
      "stateMutability": "view",
      "type": "function"
    },
    {
      "inputs": [],
      "name": "showMe",
      "outputs": [
        {
          "internalType": "string",
          "name": "",
          "type": "string"
        }
      ],
      "stateMutability": "view",
      "type": "function"
    },
    {
      "inputs": [
        {
          "internalType": "address",
          "name": "_adr",
          "type": "address"
        }
      ],
      "name": "showYou",
      "outputs": [
        {
          "internalType": "string",
          "name": "",
          "type": "string"
        }
      ],
      "stateMutability": "view",
      "type": "function"
    },
    {
      "inputs": [
        {
          "internalType": "address",
          "name": "_sender",
          "type": "address"
        },
        {
          "internalType": "address",
          "name": "_adr",
          "type": "address"
        }
      ],
      "name": "getMsgAllow",
      "outputs": [
        {
          "internalType": "bool",
          "name": "",
          "type": "bool"
        }
      ],
      "stateMutability": "view",
      "type": "function"
    },
    {
      "inputs": [
        {
          "internalType": "address",
          "name": "_adr",
          "type": "address"
        },
        {
          "internalType": "address",
          "name": "_sender",
          "type": "address"
        },
        {
          "internalType": "uint256",
          "name": "_rel",
          "type": "uint256"
        }
      ],
      "name": "relate",
      "outputs": [
        {
          "internalType": "uint256",
          "name": "",
          "type": "uint256"
        }
      ],
      "stateMutability": "nonpayable",
      "type": "function"
    },
    {
      "inputs": [
        {
          "internalType": "address",
          "name": "_adr",
          "type": "address"
        }
      ],
      "name": "doFollowerCount",
      "outputs": [
        {
          "internalType": "uint256",
          "name": "",
          "type": "uint256"
        }
      ],
      "stateMutability": "view",
      "type": "function"
    },
    {
      "inputs": [
        {
          "internalType": "address",
          "name": "_adr",
          "type": "address"
        }
      ],
      "name": "doFollowingCount",
      "outputs": [
        {
          "internalType": "uint256",
          "name": "",
          "type": "uint256"
        }
      ],
      "stateMutability": "view",
      "type": "function"
    },
    {
      "inputs": [
        {
          "internalType": "address",
          "name": "_adr",
          "type": "address"
        },
        {
          "internalType": "uint256",
          "name": "_c",
          "type": "uint256"
        }
      ],
      "name": "doShowFollower",
      "outputs": [
        {
          "internalType": "address",
          "name": "",
          "type": "address"
        }
      ],
      "stateMutability": "view",
      "type": "function"
    },
    {
      "inputs": [
        {
          "internalType": "address",
          "name": "_adr",
          "type": "address"
        }
      ],
      "name": "showRelation",
      "outputs": [
        {
          "components": [
            {
              "internalType": "uint256",
              "name": "id",
              "type": "uint256"
            },
            {
              "internalType": "bool",
              "name": "AfollowsB",
              "type": "bool"
            },
            {
              "internalType": "bool",
              "name": "BfollowsA",
              "type": "bool"
            },
            {
              "internalType": "bool",
              "name": "AbansB",
              "type": "bool"
            },
            {
              "internalType": "bool",
              "name": "BbansA",
              "type": "bool"
            },
            {
              "internalType": "bool",
              "name": "AallowsBmsg",
              "type": "bool"
            },
            {
              "internalType": "bool",
              "name": "BallowsAmsg",
              "type": "bool"
            },
            {
              "internalType": "enum iii6Relations.Relation",
              "name": "AprivB",
              "type": "uint8"
            },
            {
              "internalType": "enum iii6Relations.Relation",
              "name": "BprivA",
              "type": "uint8"
            }
          ],
          "internalType": "struct iii6Relations.Relations",
          "name": "rel",
          "type": "tuple"
        }
      ],
      "stateMutability": "view",
      "type": "function"
    },
    {
      "inputs": [
        {
          "internalType": "address",
          "name": "_adr",
          "type": "address"
        },
        {
          "internalType": "bool",
          "name": "_fol",
          "type": "bool"
        },
        {
          "internalType": "bool",
          "name": "_msg",
          "type": "bool"
        },
        {
          "internalType": "bool",
          "name": "_ban",
          "type": "bool"
        },
        {
          "internalType": "uint256",
          "name": "_rel",
          "type": "uint256"
        }
      ],
      "name": "editRelation",
      "outputs": [
        {
          "components": [
            {
              "internalType": "uint256",
              "name": "id",
              "type": "uint256"
            },
            {
              "internalType": "bool",
              "name": "AfollowsB",
              "type": "bool"
            },
            {
              "internalType": "bool",
              "name": "BfollowsA",
              "type": "bool"
            },
            {
              "internalType": "bool",
              "name": "AbansB",
              "type": "bool"
            },
            {
              "internalType": "bool",
              "name": "BbansA",
              "type": "bool"
            },
            {
              "internalType": "bool",
              "name": "AallowsBmsg",
              "type": "bool"
            },
            {
              "internalType": "bool",
              "name": "BallowsAmsg",
              "type": "bool"
            },
            {
              "internalType": "enum iii6Relations.Relation",
              "name": "AprivB",
              "type": "uint8"
            },
            {
              "internalType": "enum iii6Relations.Relation",
              "name": "BprivA",
              "type": "uint8"
            }
          ],
          "internalType": "struct iii6Relations.Relations",
          "name": "",
          "type": "tuple"
        }
      ],
      "stateMutability": "nonpayable",
      "type": "function"
    },
    {
      "inputs": [
        {
          "internalType": "address",
          "name": "_adr",
          "type": "address"
        }
      ],
      "name": "blockAddress",
      "outputs": [
        {
          "components": [
            {
              "internalType": "uint256",
              "name": "id",
              "type": "uint256"
            },
            {
              "internalType": "bool",
              "name": "AfollowsB",
              "type": "bool"
            },
            {
              "internalType": "bool",
              "name": "BfollowsA",
              "type": "bool"
            },
            {
              "internalType": "bool",
              "name": "AbansB",
              "type": "bool"
            },
            {
              "internalType": "bool",
              "name": "BbansA",
              "type": "bool"
            },
            {
              "internalType": "bool",
              "name": "AallowsBmsg",
              "type": "bool"
            },
            {
              "internalType": "bool",
              "name": "BallowsAmsg",
              "type": "bool"
            },
            {
              "internalType": "enum iii6Relations.Relation",
              "name": "AprivB",
              "type": "uint8"
            },
            {
              "internalType": "enum iii6Relations.Relation",
              "name": "BprivA",
              "type": "uint8"
            }
          ],
          "internalType": "struct iii6Relations.Relations",
          "name": "",
          "type": "tuple"
        }
      ],
      "stateMutability": "nonpayable",
      "type": "function"
    }
  ],
  "bytecode": "0x608060405234801562000010575f80fd5b5060405162002bd138038062002bd18339818101604052810190620000369190620000e1565b805f806101000a81548173ffffffffffffffffffffffffffffffffffffffff021916908373ffffffffffffffffffffffffffffffffffffffff1602179055505062000111565b5f80fd5b5f73ffffffffffffffffffffffffffffffffffffffff82169050919050565b5f620000ab8262000080565b9050919050565b620000bd816200009f565b8114620000c8575f80fd5b50565b5f81519050620000db81620000b2565b92915050565b5f60208284031215620000f957620000f86200007c565b5b5f6200010884828501620000cb565b91505092915050565b612ab2806200011f5f395ff3fe608060405234801561000f575f80fd5b50600436106100f3575f3560e01c80639c8d83bb11610095578063bd49739711610064578063bd497397146102f5578063d77d72ca14610325578063e27b3ca814610355578063e340938214610385576100f3565b80639c8d83bb14610247578063a34cc93614610277578063ab2d8b4f14610295578063ad2bb1b3146102c5576100f3565b80634e8810f7116100d15780634e8810f714610187578063614df572146101b75780638d4b42ff146101e757806393bb5cab14610217576100f3565b80631059c192146100f75780631629ea531461012757806330b3a89014610157575b5f80fd5b610111600480360381019061010c919061243f565b6103b5565b60405161011e919061248c565b60405180910390f35b610141600480360381019061013c91906124a5565b6103f2565b60405161014e91906124df565b60405180910390f35b610171600480360381019061016c91906124a5565b610438565b60405161017e91906124df565b60405180910390f35b6101a1600480360381019061019c919061243f565b61044d565b6040516101ae919061248c565b60405180910390f35b6101d160048036038101906101cc91906124f8565b6104c2565b6040516101de9190612550565b60405180910390f35b61020160048036038101906101fc9190612593565b610554565b60405161020e9190612750565b60405180910390f35b610231600480360381019061022c919061276a565b610574565b60405161023e91906124df565b60405180910390f35b610261600480360381019061025c91906124a5565b611712565b60405161026e9190612550565b60405180910390f35b61027f61172f565b60405161028c9190612844565b60405180910390f35b6102af60048036038101906102aa91906124a5565b6117d0565b6040516102bc91906124df565b60405180910390f35b6102df60048036038101906102da91906124a5565b6117e5565b6040516102ec9190612750565b60405180910390f35b61030f600480360381019061030a91906124a5565b611803565b60405161031c9190612844565b60405180910390f35b61033f600480360381019061033a91906124f8565b6118a6565b60405161034c91906124df565b60405180910390f35b61036f600480360381019061036a91906124a5565b6118c6565b60405161037c9190612750565b60405180910390f35b61039f600480360381019061039a91906124a5565b611a79565b6040516103ac91906124df565b60405180910390f35b6008602052815f5260405f20602052805f5260405f205f915091509054906101000a900473ffffffffffffffffffffffffffffffffffffffff1681565b5f60075f8373ffffffffffffffffffffffffffffffffffffffff1673ffffffffffffffffffffffffffffffffffffffff1681526020019081526020015f20549050919050565b6006602052805f5260405f205f915090505481565b5f60085f8473ffffffffffffffffffffffffffffffffffffffff1673ffffffffffffffffffffffffffffffffffffffff1681526020019081526020015f205f8381526020019081526020015f205f9054906101000a900473ffffffffffffffffffffffffffffffffffffffff16905092915050565b5f60015f8473ffffffffffffffffffffffffffffffffffffffff1673ffffffffffffffffffffffffffffffffffffffff1681526020019081526020015f205f8373ffffffffffffffffffffffffffffffffffffffff1673ffffffffffffffffffffffffffffffffffffffff1681526020019081526020015f2060010160059054906101000a900460ff16905092915050565b61055c61232e565b6105698686868686611abf565b905095945050505050565b5f8061057f83612287565b905060075f8673ffffffffffffffffffffffffffffffffffffffff1673ffffffffffffffffffffffffffffffffffffffff1681526020019081526020015f205f81546105ca90612891565b919050819055508460085f8673ffffffffffffffffffffffffffffffffffffffff1673ffffffffffffffffffffffffffffffffffffffff1681526020019081526020015f205f60065f8873ffffffffffffffffffffffffffffffffffffffff1673ffffffffffffffffffffffffffffffffffffffff1681526020019081526020015f205481526020019081526020015f205f6101000a81548173ffffffffffffffffffffffffffffffffffffffff021916908373ffffffffffffffffffffffffffffffffffffffff16021790555060065f8573ffffffffffffffffffffffffffffffffffffffff1673ffffffffffffffffffffffffffffffffffffffff1681526020019081526020015f205f81546106e190612891565b919050819055505f806106f487876122da565b915091505f60055f8473ffffffffffffffffffffffffffffffffffffffff1673ffffffffffffffffffffffffffffffffffffffff1681526020019081526020015f205f8373ffffffffffffffffffffffffffffffffffffffff1673ffffffffffffffffffffffffffffffffffffffff1681526020019081526020015f205403610d7f5760035f815461078590612891565b9190508190555060035460055f8473ffffffffffffffffffffffffffffffffffffffff1673ffffffffffffffffffffffffffffffffffffffff1681526020019081526020015f205f8373ffffffffffffffffffffffffffffffffffffffff1673ffffffffffffffffffffffffffffffffffffffff1681526020019081526020015f208190555060405180610120016040528060045481526020016001151581526020015f151581526020015f151581526020015f151581526020016001151581526020015f1515815260200184600881111561086457610863612628565b5b81526020015f600881111561087c5761087b612628565b5b81525060015f8873ffffffffffffffffffffffffffffffffffffffff1673ffffffffffffffffffffffffffffffffffffffff1681526020019081526020015f205f8973ffffffffffffffffffffffffffffffffffffffff1673ffffffffffffffffffffffffffffffffffffffff1681526020019081526020015f205f820151815f01556020820151816001015f6101000a81548160ff02191690831515021790555060408201518160010160016101000a81548160ff02191690831515021790555060608201518160010160026101000a81548160ff02191690831515021790555060808201518160010160036101000a81548160ff02191690831515021790555060a08201518160010160046101000a81548160ff02191690831515021790555060c08201518160010160056101000a81548160ff02191690831515021790555060e08201518160010160066101000a81548160ff021916908360088111156109e9576109e8612628565b5b02179055506101008201518160010160076101000a81548160ff02191690836008811115610a1a57610a19612628565b5b021790555090505060045f8154610a3090612891565b919050819055505f8054906101000a900473ffffffffffffffffffffffffffffffffffffffff1673ffffffffffffffffffffffffffffffffffffffff1663d328e840876040518263ffffffff1660e01b8152600401610a8f919061248c565b6020604051808303815f875af1158015610aab573d5f803e3d5ffd5b505050506040513d601f19601f82011682018060405250810190610acf91906128ec565b5060405180610120016040528060045481526020015f151581526020016001151581526020015f151581526020015f151581526020015f151581526020016001151581526020015f6008811115610b2957610b28612628565b5b8152602001846008811115610b4157610b40612628565b5b81525060015f8973ffffffffffffffffffffffffffffffffffffffff1673ffffffffffffffffffffffffffffffffffffffff1681526020019081526020015f205f8873ffffffffffffffffffffffffffffffffffffffff1673ffffffffffffffffffffffffffffffffffffffff1681526020019081526020015f205f820151815f01556020820151816001015f6101000a81548160ff02191690831515021790555060408201518160010160016101000a81548160ff02191690831515021790555060608201518160010160026101000a81548160ff02191690831515021790555060808201518160010160036101000a81548160ff02191690831515021790555060a08201518160010160046101000a81548160ff02191690831515021790555060c08201518160010160056101000a81548160ff02191690831515021790555060e08201518160010160066101000a81548160ff02191690836008811115610cae57610cad612628565b5b02179055506101008201518160010160076101000a81548160ff02191690836008811115610cdf57610cde612628565b5b021790555090505060045f8154610cf590612891565b9190508190555060055f8373ffffffffffffffffffffffffffffffffffffffff1673ffffffffffffffffffffffffffffffffffffffff1681526020019081526020015f205f8273ffffffffffffffffffffffffffffffffffffffff1673ffffffffffffffffffffffffffffffffffffffff1681526020019081526020015f2054935050505061170b565b600160055f8473ffffffffffffffffffffffffffffffffffffffff1673ffffffffffffffffffffffffffffffffffffffff1681526020019081526020015f205f8373ffffffffffffffffffffffffffffffffffffffff1673ffffffffffffffffffffffffffffffffffffffff1681526020019081526020015f20540361168c5760035f8154610e0d90612891565b919050819055505f6008811115610e2757610e26612628565b5b60015f8873ffffffffffffffffffffffffffffffffffffffff1673ffffffffffffffffffffffffffffffffffffffff1681526020019081526020015f205f8973ffffffffffffffffffffffffffffffffffffffff1673ffffffffffffffffffffffffffffffffffffffff1681526020019081526020015f2060010160069054906101000a900460ff166008811115610ec257610ec1612628565b5b036116095760035460055f8473ffffffffffffffffffffffffffffffffffffffff1673ffffffffffffffffffffffffffffffffffffffff1681526020019081526020015f205f8373ffffffffffffffffffffffffffffffffffffffff1673ffffffffffffffffffffffffffffffffffffffff1681526020019081526020015f2081905550610f4e61232e565b60015f8873ffffffffffffffffffffffffffffffffffffffff1673ffffffffffffffffffffffffffffffffffffffff1681526020019081526020015f205f8973ffffffffffffffffffffffffffffffffffffffff1673ffffffffffffffffffffffffffffffffffffffff1681526020019081526020015f20604051806101200160405290815f8201548152602001600182015f9054906101000a900460ff161515151581526020016001820160019054906101000a900460ff161515151581526020016001820160029054906101000a900460ff161515151581526020016001820160039054906101000a900460ff161515151581526020016001820160049054906101000a900460ff161515151581526020016001820160059054906101000a900460ff161515151581526020016001820160069054906101000a900460ff1660088111156110a1576110a0612628565b5b60088111156110b3576110b2612628565b5b81526020016001820160079054906101000a900460ff1660088111156110dc576110db612628565b5b60088111156110ee576110ed612628565b5b81525050905060405180610120016040528060045481526020016001151581526020018260400151151581526020015f151581526020018260800151151581526020016001151581526020018260c001511515815260200185600881111561115957611158612628565b5b8152602001826101000151600881111561117657611175612628565b5b81525060015f8973ffffffffffffffffffffffffffffffffffffffff1673ffffffffffffffffffffffffffffffffffffffff1681526020019081526020015f205f8a73ffffffffffffffffffffffffffffffffffffffff1673ffffffffffffffffffffffffffffffffffffffff1681526020019081526020015f205f820151815f01556020820151816001015f6101000a81548160ff02191690831515021790555060408201518160010160016101000a81548160ff02191690831515021790555060608201518160010160026101000a81548160ff02191690831515021790555060808201518160010160036101000a81548160ff02191690831515021790555060a08201518160010160046101000a81548160ff02191690831515021790555060c08201518160010160056101000a81548160ff02191690831515021790555060e08201518160010160066101000a81548160ff021916908360088111156112e3576112e2612628565b5b02179055506101008201518160010160076101000a81548160ff0219169083600881111561131457611313612628565b5b021790555090505060045f815461132a90612891565b919050819055505f8054906101000a900473ffffffffffffffffffffffffffffffffffffffff1673ffffffffffffffffffffffffffffffffffffffff1663d328e840886040518263ffffffff1660e01b8152600401611389919061248c565b6020604051808303815f875af11580156113a5573d5f803e3d5ffd5b505050506040513d601f19601f820116820180604052508101906113c991906128ec565b5060405180610120016040528060045481526020018260400151151581526020016001151581526020018260800151151581526020015f151581526020018260c0015115158152602001600115158152602001826101000151600881111561143457611433612628565b5b815260200185600881111561144c5761144b612628565b5b81525060015f8a73ffffffffffffffffffffffffffffffffffffffff1673ffffffffffffffffffffffffffffffffffffffff1681526020019081526020015f205f8973ffffffffffffffffffffffffffffffffffffffff1673ffffffffffffffffffffffffffffffffffffffff1681526020019081526020015f205f820151815f01556020820151816001015f6101000a81548160ff02191690831515021790555060408201518160010160016101000a81548160ff02191690831515021790555060608201518160010160026101000a81548160ff02191690831515021790555060808201518160010160036101000a81548160ff02191690831515021790555060a08201518160010160046101000a81548160ff02191690831515021790555060c08201518160010160056101000a81548160ff02191690831515021790555060e08201518160010160066101000a81548160ff021916908360088111156115b9576115b8612628565b5b02179055506101008201518160010160076101000a81548160ff021916908360088111156115ea576115e9612628565b5b021790555090505060045f815461160090612891565b91905081905550505b60055f8373ffffffffffffffffffffffffffffffffffffffff1673ffffffffffffffffffffffffffffffffffffffff1681526020019081526020015f205f8273ffffffffffffffffffffffffffffffffffffffff1673ffffffffffffffffffffffffffffffffffffffff1681526020019081526020015f2054935050505061170b565b60055f8373ffffffffffffffffffffffffffffffffffffffff1673ffffffffffffffffffffffffffffffffffffffff1681526020019081526020015f205f8273ffffffffffffffffffffffffffffffffffffffff1673ffffffffffffffffffffffffffffffffffffffff1681526020019081526020015f205493505050505b9392505050565b6002602052805f5260405f205f915054906101000a900460ff1681565b60605f8054906101000a900473ffffffffffffffffffffffffffffffffffffffff1673ffffffffffffffffffffffffffffffffffffffff1663517fe4de336040518263ffffffff1660e01b8152600401611789919061248c565b5f60405180830381865afa1580156117a3573d5f803e3d5ffd5b505050506040513d5f823e3d601f19601f820116820180604052508101906117cb9190612a35565b905090565b6007602052805f5260405f205f915090505481565b6117ed61232e565b6117fc825f8060016005611abf565b9050919050565b60605f8054906101000a900473ffffffffffffffffffffffffffffffffffffffff1673ffffffffffffffffffffffffffffffffffffffff1663517fe4de836040518263ffffffff1660e01b815260040161185d919061248c565b5f60405180830381865afa158015611877573d5f803e3d5ffd5b505050506040513d5f823e3d601f19601f8201168201806040525081019061189f9190612a35565b9050919050565b6005602052815f5260405f20602052805f5260405f205f91509150505481565b6118ce61232e565b60015f3373ffffffffffffffffffffffffffffffffffffffff1673ffffffffffffffffffffffffffffffffffffffff1681526020019081526020015f205f8373ffffffffffffffffffffffffffffffffffffffff1673ffffffffffffffffffffffffffffffffffffffff1681526020019081526020015f20604051806101200160405290815f8201548152602001600182015f9054906101000a900460ff161515151581526020016001820160019054906101000a900460ff161515151581526020016001820160029054906101000a900460ff161515151581526020016001820160039054906101000a900460ff161515151581526020016001820160049054906101000a900460ff161515151581526020016001820160059054906101000a900460ff161515151581526020016001820160069054906101000a900460ff166008811115611a2157611a20612628565b5b6008811115611a3357611a32612628565b5b81526020016001820160079054906101000a900460ff166008811115611a5c57611a5b612628565b5b6008811115611a6e57611a6d612628565b5b815250509050919050565b5f60065f8373ffffffffffffffffffffffffffffffffffffffff1673ffffffffffffffffffffffffffffffffffffffff1681526020019081526020015f20549050919050565b611ac761232e565b5f611ad183612287565b90505f60015f3373ffffffffffffffffffffffffffffffffffffffff1673ffffffffffffffffffffffffffffffffffffffff1681526020019081526020015f205f8973ffffffffffffffffffffffffffffffffffffffff1673ffffffffffffffffffffffffffffffffffffffff1681526020019081526020015f20604051806101200160405290815f8201548152602001600182015f9054906101000a900460ff161515151581526020016001820160019054906101000a900460ff161515151581526020016001820160029054906101000a900460ff161515151581526020016001820160039054906101000a900460ff161515151581526020016001820160049054906101000a900460ff161515151581526020016001820160059054906101000a900460ff161515151581526020016001820160069054906101000a900460ff166008811115611c2757611c26612628565b5b6008811115611c3957611c38612628565b5b81526020016001820160079054906101000a900460ff166008811115611c6257611c61612628565b5b6008811115611c7457611c73612628565b5b8152505090505f60015f8a73ffffffffffffffffffffffffffffffffffffffff1673ffffffffffffffffffffffffffffffffffffffff1681526020019081526020015f205f3373ffffffffffffffffffffffffffffffffffffffff1673ffffffffffffffffffffffffffffffffffffffff1681526020019081526020015f20604051806101200160405290815f8201548152602001600182015f9054906101000a900460ff161515151581526020016001820160019054906101000a900460ff161515151581526020016001820160029054906101000a900460ff161515151581526020016001820160039054906101000a900460ff161515151581526020016001820160049054906101000a900460ff161515151581526020016001820160059054906101000a900460ff161515151581526020016001820160069054906101000a900460ff166008811115611dce57611dcd612628565b5b6008811115611de057611ddf612628565b5b81526020016001820160079054906101000a900460ff166008811115611e0957611e08612628565b5b6008811115611e1b57611e1a612628565b5b8152505090505f604051806101200160405280845f015181526020018a15158152602001846040015115158152602001881515815260200184608001511515815260200189151581526020018460c0015115158152602001856008811115611e8657611e85612628565b5b81526020018461010001516008811115611ea357611ea2612628565b5b81525090505f604051806101200160405280845f015181526020018460200151151581526020018b1515815260200184606001511515815260200189151581526020018460a00151151581526020018a151581526020018460e001516008811115611f1157611f10612628565b5b8152602001866008811115611f2957611f28612628565b5b81525090508160015f3373ffffffffffffffffffffffffffffffffffffffff1673ffffffffffffffffffffffffffffffffffffffff1681526020019081526020015f205f8d73ffffffffffffffffffffffffffffffffffffffff1673ffffffffffffffffffffffffffffffffffffffff1681526020019081526020015f205f820151815f01556020820151816001015f6101000a81548160ff02191690831515021790555060408201518160010160016101000a81548160ff02191690831515021790555060608201518160010160026101000a81548160ff02191690831515021790555060808201518160010160036101000a81548160ff02191690831515021790555060a08201518160010160046101000a81548160ff02191690831515021790555060c08201518160010160056101000a81548160ff02191690831515021790555060e08201518160010160066101000a81548160ff0219169083600881111561209957612098612628565b5b02179055506101008201518160010160076101000a81548160ff021916908360088111156120ca576120c9612628565b5b02179055509050508060015f8d73ffffffffffffffffffffffffffffffffffffffff1673ffffffffffffffffffffffffffffffffffffffff1681526020019081526020015f205f3373ffffffffffffffffffffffffffffffffffffffff1673ffffffffffffffffffffffffffffffffffffffff1681526020019081526020015f205f820151815f01556020820151816001015f6101000a81548160ff02191690831515021790555060408201518160010160016101000a81548160ff02191690831515021790555060608201518160010160026101000a81548160ff02191690831515021790555060808201518160010160036101000a81548160ff02191690831515021790555060a08201518160010160046101000a81548160ff02191690831515021790555060c08201518160010160056101000a81548160ff02191690831515021790555060e08201518160010160066101000a81548160ff0219169083600881111561223d5761223c612628565b5b02179055506101008201518160010160076101000a81548160ff0219169083600881111561226e5761226d612628565b5b0217905550905050819550505050505095945050505050565b5f80820361229457600290505b600182036122a157600390505b600282036122ae57600490505b600382036122bb57600590505b600482036122c857600690505b600582036122d557600790505b919050565b5f808273ffffffffffffffffffffffffffffffffffffffff168473ffffffffffffffffffffffffffffffffffffffff161061231c578291508184915081612325565b83915081839150815b50509250929050565b6040518061012001604052805f81526020015f151581526020015f151581526020015f151581526020015f151581526020015f151581526020015f151581526020015f600881111561238357612382612628565b5b81526020015f600881111561239b5761239a612628565b5b81525090565b5f604051905090565b5f80fd5b5f80fd5b5f73ffffffffffffffffffffffffffffffffffffffff82169050919050565b5f6123db826123b2565b9050919050565b6123eb816123d1565b81146123f5575f80fd5b50565b5f81359050612406816123e2565b92915050565b5f819050919050565b61241e8161240c565b8114612428575f80fd5b50565b5f8135905061243981612415565b92915050565b5f8060408385031215612455576124546123aa565b5b5f612462858286016123f8565b92505060206124738582860161242b565b9150509250929050565b612486816123d1565b82525050565b5f60208201905061249f5f83018461247d565b92915050565b5f602082840312156124ba576124b96123aa565b5b5f6124c7848285016123f8565b91505092915050565b6124d98161240c565b82525050565b5f6020820190506124f25f8301846124d0565b92915050565b5f806040838503121561250e5761250d6123aa565b5b5f61251b858286016123f8565b925050602061252c858286016123f8565b9150509250929050565b5f8115159050919050565b61254a81612536565b82525050565b5f6020820190506125635f830184612541565b92915050565b61257281612536565b811461257c575f80fd5b50565b5f8135905061258d81612569565b92915050565b5f805f805f60a086880312156125ac576125ab6123aa565b5b5f6125b9888289016123f8565b95505060206125ca8882890161257f565b94505060406125db8882890161257f565b93505060606125ec8882890161257f565b92505060806125fd8882890161242b565b9150509295509295909350565b6126138161240c565b82525050565b61262281612536565b82525050565b7f4e487b71000000000000000000000000000000000000000000000000000000005f52602160045260245ffd5b6009811061266657612665612628565b5b50565b5f81905061267682612655565b919050565b5f61268582612669565b9050919050565b6126958161267b565b82525050565b61012082015f8201516126b05f85018261260a565b5060208201516126c36020850182612619565b5060408201516126d66040850182612619565b5060608201516126e96060850182612619565b5060808201516126fc6080850182612619565b5060a082015161270f60a0850182612619565b5060c082015161272260c0850182612619565b5060e082015161273560e085018261268c565b5061010082015161274a61010085018261268c565b50505050565b5f610120820190506127645f83018461269b565b92915050565b5f805f60608486031215612781576127806123aa565b5b5f61278e868287016123f8565b935050602061279f868287016123f8565b92505060406127b08682870161242b565b9150509250925092565b5f81519050919050565b5f82825260208201905092915050565b5f5b838110156127f15780820151818401526020810190506127d6565b5f8484015250505050565b5f601f19601f8301169050919050565b5f612816826127ba565b61282081856127c4565b93506128308185602086016127d4565b612839816127fc565b840191505092915050565b5f6020820190508181035f83015261285c818461280c565b905092915050565b7f4e487b71000000000000000000000000000000000000000000000000000000005f52601160045260245ffd5b5f61289b8261240c565b91507fffffffffffffffffffffffffffffffffffffffffffffffffffffffffffffffff82036128cd576128cc612864565b5b600182019050919050565b5f815190506128e681612415565b92915050565b5f60208284031215612901576129006123aa565b5b5f61290e848285016128d8565b91505092915050565b5f80fd5b5f80fd5b7f4e487b71000000000000000000000000000000000000000000000000000000005f52604160045260245ffd5b612955826127fc565b810181811067ffffffffffffffff821117156129745761297361291f565b5b80604052505050565b5f6129866123a1565b9050612992828261294c565b919050565b5f67ffffffffffffffff8211156129b1576129b061291f565b5b6129ba826127fc565b9050602081019050919050565b5f6129d96129d484612997565b61297d565b9050828152602081018484840111156129f5576129f461291b565b5b612a008482856127d4565b509392505050565b5f82601f830112612a1c57612a1b612917565b5b8151612a2c8482602086016129c7565b91505092915050565b5f60208284031215612a4a57612a496123aa565b5b5f82015167ffffffffffffffff811115612a6757612a666123ae565b5b612a7384828501612a08565b9150509291505056fea26469706673582212205cf7ca61a560fe1cbf5ee368cb59be5a46f28bbde20d5522774b238ffb6c7f5064736f6c63430008170033",
  "immutableReferences": {},
  "source": "// SPDX-License-Identifier: GPL-3.0\n// // // // // // // // // // // // // // // // // // // // // // // // // // // // // // // // // // // // // // // // // // // // // // // // // // // // // // // // // // // // //\n//\n//      0KKKKKKKKKKKKKKKKKKKKKKKKKKKKKKKK0Okdlc:;,......    ......',;cldxO0KKKKKKKKKKKKKKKKKKKKKKKKKKKKKKKKK\n//      XNNNNNNNNNNNNNNNNNNNNNNNNNNXX0kdc;'...        .......         ...';coxOKXNNNNNNNNNNNNNNNNNNNNNNNNNNN\n//      XNNNNNNNNNNNNNNNNNNNNNNNX0xl;'..              .,;;:,.                ..;cdOXXNNNNNNNNNNNNNNNNNNNNNNN\n//      XNNNNNNNNNNNNNNNNNNXNXOo:'.                   .......                    ..;lkKXNNNNNNNNNNNNNNNNNNNN\n//      XNNNNNNNNNNNNNNNNNXOo;..              .........................             ..,lkKNNNNXNNNNNNNNNNNNN\n//      XNNNNNNNNNNNNXXNKx:..            ..........    'lc'.    ............            .;d0XNNNNNNNNNNNNNNN\n//      XNNNNNNNNNNNNX0d;.          ........         .;dddkl.            .......          .'lOXNNNNNNNNNNNNN\n//      XNNNNNNNNNNX0d,.         ......             .cx:..,lo'               ......         .'lOXNNNNNNNNNNN\n//      XNNNNXNNNNKx,.         .....               .ox;.   .:o,.                 ....         .'o0XNNNNNNNNN\n//      XNXNNNNNXOc.        .....                .,dd'      .;l;.                  .....   .... .;xXNNNNNNNN\n//      XNNNNNNKd'....... .....                 .;xo.        .'c;.                    .....':;..  .l0XNNNNNN\n//      XNNNNX0c. ..'''......                  .ckc.           .:;.                     ....',...  .;OXNNNNN\n//      XNNNXO:.   ........                   .ok:.             .;;.                     ......     .,xXNNXX\n//      XNNXO;.       ...                    'dx;.               .,;.                      ...        'xXNNN\n//      XNXO;.       ...                   .,xx'       .....''''''';:..                     ...        'xXNN\n//      XN0:.       ...                   .;kd.  ..,:ldxkOOOOOOOOOkO0Odl:,..                  ...      .,kXN\n//      XKl.       ...                   .cko'':ok00Okdlc;;,'''...',;:dkxkkd:..                ..       .:0N\n//      Xx'       ...                   .lKOxk00xxxl,.  ....',..      .'..,cddl,.              ...       .oX\n//      O:.      ...                  ..dNN0xl;':c::c:'..':odol:..     .... ..:lc,.             ...       ,k\n//      d.       ..                 .,o00d:.. .od'  .,cclxxl'.'coc.     ....   ..,,'..           ..       .l\n//      :.      ...              ..:xKNO,.   .lO:    .;k0o;.   .'do.     ...      .....          ...       ,\n//      '       ..             ..cddx0x'     .xO,   .:dc',:;'.   ;k:.           ..,'...           ..       .\n//      .       ..            .:lc,ckd.      .dKc. .cl'.  ..,'. .lO:       ..':ll:,..             ...      .\n//      .      ...          .,:,..ckl.       .;0O:,:,.      ...'lOl.   ..;ldkkdo;.                ...      .\n//             ...        ..'.. .lkc.         .;kK0o,.......':dOx;..,cdOKKko;..'c:.               ...\n//      .      ...       ....  .lk:.           .'coxOkkxxxxkkkxdodkKXXOdc'.    .'dd,.             ...\n//      .      ...        ....,dk;.            ..  ..;coxkkOO0KXX0ko:'..         'dOc.            ...      .\n//      .       ..          .,dd;,,;;:::;;;;;::clloxkO0KK00Oxdl;'..               .l0d'.          ...      .\n//      ,.      ...        .;dc.  ...,;:clloodddddoolc:;'....                      .;OO:.         ......   .\n//      c.  .......       .:o;.                                                     .'d0d'.      ....,;'. .:\n//      x'  .';,...      .cl'.                                                        .:OO:.     ....;;.. .o\n//      0l. ..,'....   .'ol...............................'''',,,,,,;;;:::::ccccclllllookNXd.   ... .... .;0\n//      XO,       ...  .coc::cccccccccllllllllllllloooooooooooooooooooooooooooooooolllllllc;.  ...       .dX\n//      XXd.       ...  .........................................                             ...       .lKN\n//      XNKl.       ...            .:cccccc:;:ccccccc:::cccccccccccccccccccccccc'.           ...       .:0NX\n//      XNNKc.       ...          .cXWNXXNKkxokXNWWNNK0NMWWNXNW0OXWNNWWNWWNWWNWWo.          ...       .;OXNN\n//      XNNN0l.       ....        .cXNxokKxokllOkdxKNOxXWkloddOdlOXKkK0ONWOdx0WWo.         ...       .;OXNNN\n//      XNNNNKo.        ...       .cXNOdokxcddd0klo0WKdOXd;lxkKOd0NWOlokKXOllOWWo.       ...        .c0NNNNN\n//      XNNNNNXd'.       ....     .cXWK00XNKO0XXKNXKWN0KNNK00KNNK0XXOdOKKXKNXKNWo.     ....        .lKNNNNNN\n//      XNNNNNNXO:.        ....    'oddddddddddddddddddddddddddddddl:coddddddddo;.   ....        .,xXNNNNNNN\n//      XNNNNNNNNKd'.        .....                                                 ....        ..l0XNNNNNNNN\n//      XNNNNNNNNNXOl..        ......                                           .....         .:kXNNNNNNNNNN\n//      XNNNNNNNNNNNXOc..         ......                                    ......          .:xKNNNNNNNNNNNN\n//      XNNNNNNNNNNNNNXOl'.          ........                          ........          ..ckKNNNNNNXNNNNNNN\n//      XNNNNNNNNNNNNNNNX0d;..       ..'....................................',,.       .,oOXNNNNNNNNNNNNNNNN\n//      XNNNNNNNNNNNNNNNNNNXOo;..    ...;;.     ....................      .;,'..   ..,lkKXNNNNNNNNNNNNNNNNNN\n//      XNNNNNNNNNNNNNNNNNNNNNKOd:'.    ..                                 ...  ..;lkKXNXNNNNNNNNNNNNNNNNNNN\n//      XNNNNNNNNNNNNNNNNNNNNNNNNX0ko:,...                                 ..':lx0XNNNNNXNNNNNNNNNNNNNNNNNNN\n//      XNNNNNNNNNNNNNNNNNNNNNNNNNNNNXKOxoc;,....                  ....';:ldOKXXNNNNNNNNNNNNNNNNNNNNNNNNNNNN\n//      XNNNNNNNNNNNNNNNNNNNNNNNNNNNXXNNNNXK0kdl:;'.....    .....',:ldk0KXNNNNNXNNNNNNNNNNNNNNNNNNNNNNNNNNNN\n//\n// // // // // // // // // // // // // // // // // // // // // // // // // // // // // // // // // // // // // // // // // // // // // // // // // // // // // // // // // // // // //\n//                                                                                                                                                                                  //\n//      @dev            ::              Aron Mauritala Ayuk                                                                                                                                          //\n//      @msg            ::              stereo@iii6.xyz                                                                                                                                   //\n//      @github         ::              @stereoIII6\n//      @twitter        ::              @stereoIII6                                                                                                                                              //\n//                                                                                                                                                                                  //\n// // // // // // // // // // // // // // // // // // // // // // // // // // // // // // // // // // // // // // // // // // // // // // // // // // // // // // // // // // // // //\n//                                                                                                                                                                                  //\n//      @dev            ::              Juan Xavier Valverde                                                                                                                                    //\n//      @msg            ::              juanxavier@iii6.xyz                                                                                                                               //\n//      @twitter        ::              @JuanXavier                                                                                                                                             //\n//      @github         ::              @JuanXavier                                                                                                                                             //\n//                                                                                                                                                                                  //                                                                                                                                                                                 //\n// // // // // // // // // // // // // // // // // // // // // // // // // // // // // // // // // // // // // // // // // // // // // // // // // // // // // // // // // // // // //\n//  *   *   *   *   *   *   *   *   *   *   *   *   *   *   *   *   *   *   *   *   *   *   *   *   *   *   *   *   *   *   *   *   *   *   *   *   *   *   *   *   *   *   *   *   //\n// // // // // // // // // // // // // // // // // // // // // // // // // // // // // // // // // // // // // // // // // // // // // // // // // // // // // // // // // // // // //\n//                                                                                                                                                                                  //\n//      @company        ::              Fractio Holding                                                                                                                                                                       //\n//      @title          ::              s0xiety Users                                                                                                                            //\n//      @description    ::              Friend Interface Contract                                                                                                                           //\n//      @version        ::              0.0.1                                                                                                                                       //\n//      @purpose        ::              Multinet Friendship Interface                                                                                                           //\n//                                                                                                                                                                                  //\n//                                                                                                                                                                                  //\n//                                                                                                                                                                                  //\n//                                                                                                                                                                                  //\n//                                                                                                                                                                                  //\n// // // // // // // // // // // // // // // // // // // // // // // // // // // // // // // // // // // // // // // // // // // // // // // // // // // // // // // // // // // // //\n//  *   *   *   *   *   *   *   *   *   *   *   *   *   *   *   *   *   *   *   *   *   *   *   *   *   *   *   *   *   *   *   *   *   *   *   *   *   *   *   *   *   *   *   *   //\n// // // // // // // // // // // // // // // // // // // // // // // // // // // // // // // // // // // // // // // // // // // // // // // // // // // // // // // // // // // // //\n\n/////////////////////////////////////////////////////////////////////////////////////////////////////////////////////\n\n/////////////////////////////////////////////////////////////////////////////////////////////////////////////////////\n\npragma solidity ^0.8.7;\n\nimport \"../iii6Utils/Math/iii6Math.sol\";\nimport \"../iii6Utils/Misc/iii6Relations.sol\";\nimport \"./s0xUsers.sol\";\n\n/**\n * @dev soxFriends is the s0xiety contract that takes care or friendships relations and privacy\n * it inherits iii6Math and iii6Relations\n *\n */\ncontract s0xFriends is iii6Math, iii6Relations {\n    // importing s0x user contract struct\n    s0xUsers private user;\n    // following // address ref user # =>  address privacy user # => Relation Mode Struct ?\n    mapping(address => mapping(address => Relations)) private relationToUser;\n    mapping(address => bool) public banned;\n    // count connections var\n    uint256 c;\n    uint256 r;\n    // connections // address smaller # => address bigger # => uint c connection count\n    mapping(address => mapping(address => uint256)) public connection; // connection array\n    // follower count // address ref user # => uint follower counter\n    mapping(address => uint256) public followerCount;\n    // follower count // address ref user # => uint followed counter\n    mapping(address => uint256) public myFollowingCount;\n    // followers by count //address ref user # => uint follower counter\n    mapping(address => mapping(uint256 => address)) public followersByCount;\n\n    /**\n     * @dev soxFriends is the s0xiety contract that takes care or friendships relations and privacy\n     * @param _usrAdr is the User Contract Adress\n     *\n     */\n    constructor(address _usrAdr) {\n        user = s0xUsers(_usrAdr);\n    }\n\n    /**\n     * @dev shows user account of msg sender\n     */\n    function showMe() external view returns (string memory) {\n        return user.showUser(msg.sender);\n    }\n\n    /**\n     * @dev shows user account of given address\n     * @param _adr address of user account to show\n     */\n    function showYou(address _adr) external view returns (string memory) {\n        return user.showUser(_adr);\n    }\n\n    /**\n     * @dev shows user relation to msg.sender INTERNAL\n     */\n    function _detectRelation(uint256 _rel)\n        internal\n        pure\n        returns (Relation rel)\n    {\n        if (_rel == 0) rel = Relation.Friend;\n        if (_rel == 1) rel = Relation.Family;\n        if (_rel == 2) rel = Relation.Work;\n        if (_rel == 3) rel = Relation.Homies;\n        if (_rel == 4) rel = Relation.Partners;\n        if (_rel == 5) rel = Relation.Blocked;\n    }\n\n    /**\n     * @dev shows user msg allowance to msg.sender\n     */\n    function getMsgAllow(address _sender, address _adr)\n        external\n        view\n        returns (bool)\n    {\n        return relationToUser[_sender][_adr].BallowsAmsg;\n    }\n\n    /**\n     * @dev create user relation from sender to adr INTERNAL\n     */\n    function relate(\n        address _adr,\n        address _sender,\n        uint256 _rel\n    ) external returns (uint256) {\n        Relation rel = _detectRelation(_rel);\n        ++myFollowingCount[_adr];\n        followersByCount[_sender][followerCount[_sender]] = _adr;\n        ++followerCount[_sender];\n        (address s, address l) = _smaller(_adr, _sender);\n        // if no connection for this user pair exists\n        if (connection[s][l] == 0) {\n            ++c;\n            connection[s][l] = c;\n            relationToUser[_sender][_adr] = Relations(\n                r,\n                true,\n                false,\n                false,\n                false,\n                true,\n                false,\n                rel,\n                Relation.Member\n            );\n            ++r;\n            user.addedConnection(_sender);\n            relationToUser[_adr][_sender] = Relations(\n                r,\n                false,\n                true,\n                false,\n                false,\n                false,\n                true,\n                Relation.Member,\n                rel\n            );\n            ++r;\n            return (connection[s][l]);\n        }\n        // if one sided  connection for this user pair exists\n        else if (connection[s][l] == 1) {\n            ++c;\n            if (relationToUser[_sender][_adr].AprivB == Relation.Member) {\n                connection[s][l] = c;\n                Relations memory oldRel;\n                oldRel = relationToUser[_sender][_adr];\n                relationToUser[_sender][_adr] = Relations(\n                    r,\n                    true,\n                    oldRel.BfollowsA,\n                    false,\n                    oldRel.BbansA,\n                    true,\n                    oldRel.BallowsAmsg,\n                    rel,\n                    oldRel.BprivA\n                );\n                ++r;\n                user.addedConnection(_sender);\n                relationToUser[_adr][_sender] = Relations(\n                    r,\n                    oldRel.BfollowsA,\n                    true,\n                    oldRel.BbansA,\n                    false,\n                    oldRel.BallowsAmsg,\n                    true,\n                    oldRel.BprivA,\n                    rel\n                );\n                ++r;\n            }\n            return (connection[s][l]);\n        }\n        // if users are two way connected\n        else return (connection[s][l]);\n    }\n\n    /**\n     * @dev count followers of address\n     */\n    function doFollowerCount(address _adr) external view returns (uint256) {\n        return followerCount[_adr];\n    }\n\n    /**\n     * @dev count how many users address follows\n     * @param _adr address of user\n     */\n    function doFollowingCount(address _adr) external view returns (uint256) {\n        return myFollowingCount[_adr];\n    }\n\n    /**\n     * @dev shows one specific Followers address\n     * @param _adr address of user\n     * @param _c follower count pointer of user _adr\n     */\n    function doShowFollower(address _adr, uint256 _c)\n        external\n        view\n        returns (address)\n    {\n        return followersByCount[_adr][_c];\n    }\n\n    /**\n     * @dev shows relation fom msg.sender to _adr\n     * @param _adr address of user\n     * @return rel Relations struct\n     */\n    function showRelation(address _adr)\n        external\n        view\n        returns (Relations memory rel)\n    {\n        rel = relationToUser[msg.sender][_adr];\n    }\n\n    /**\n     * @dev edits one specific Followers address relation status a = msg.sender b = _adr\n     * @param _adr address of user\n     * @param _fol bool follower\n     * @param _msg bool can a msg b\n     * @param _ban bool did a ban b\n     * @param _rel uint relation gets converted to Relaion enum by _detectRelation()\n     */\n    function editRelation(\n        address _adr,\n        bool _fol,\n        bool _msg,\n        bool _ban,\n        uint256 _rel\n    ) external returns (Relations memory) {\n        return _editRelation(_adr, _fol, _msg, _ban, _rel);\n    }\n\n    /**\n     * @dev edits one specific Followers address relation status\n     * a = msg.sender b = _adr INTERNAL\n     * @param _adr address of reciever\n     * @param _fol bool a follows b\n     * @param _msg bool a allows msgs b\n     * @param _ban bool a bans b\n     * @param _rel Relation in /iii6Utils/Misc/iii6Relations.sol Relation enum\n     * @return rel\n     */\n    function _editRelation(\n        address _adr,\n        bool _fol,\n        bool _msg,\n        bool _ban,\n        uint256 _rel\n    ) internal returns (Relations memory rel) {\n        Relation newRel = _detectRelation(_rel);\n        Relations memory hold1 = relationToUser[msg.sender][_adr];\n        Relations memory hold2 = relationToUser[_adr][msg.sender];\n\n        /**\n         * Relations Struct Scheme\n         *\n         * @param uint256 id;\n         * @param bool AfollowsB;\n         * @param bool BfollowsA;\n         * @param bool AbansB;\n         * @param bool BbansA;\n         * @param bool AallowsBmsg;\n         * @param bool BallowsAmsg;\n         * @param Relation AprivB;\n         * @param Relation BprivA;\n         */\n        Relations memory relOut = Relations(\n            hold1.id,\n            _fol,\n            hold1.BfollowsA,\n            _ban,\n            hold1.BbansA,\n            _msg,\n            hold1.BallowsAmsg,\n            newRel,\n            hold1.BprivA\n        );\n        Relations memory relIn = Relations(\n            hold2.id,\n            hold2.AfollowsB,\n            _fol,\n            hold2.AbansB,\n            _ban,\n            hold2.AallowsBmsg,\n            _msg,\n            hold2.AprivB,\n            newRel\n        );\n        relationToUser[msg.sender][_adr] = relOut;\n        relationToUser[_adr][msg.sender] = relIn;\n        rel = relOut;\n    }\n\n    function blockAddress(address _adr) external returns (Relations memory) {\n        return _editRelation(_adr, false, false, true, 5);\n    }\n}\n",
  "sourcePath": "/Users/iii6/Documents/GitHub/Gamble360/contracts/s0xCommunity/s0xFriends.sol",
  "compiler": {
    "name": "solc",
    "version": "0.8.23+commit.f704f362.Emscripten.clang"
  },
  "schemaVersion": "3.4.16",
  "updatedAt": "2023-11-09T15:24:52.508Z",
  "devdoc": {
    "details": "soxFriends is the s0xiety contract that takes care or friendships relations and privacy it inherits iii6Math and iii6Relations",
    "kind": "dev",
    "methods": {
      "constructor": {
        "details": "soxFriends is the s0xiety contract that takes care or friendships relations and privacy",
        "params": {
          "_usrAdr": "is the User Contract Adress"
        }
      },
      "doFollowerCount(address)": {
        "details": "count followers of address"
      },
      "doFollowingCount(address)": {
        "details": "count how many users address follows",
        "params": {
          "_adr": "address of user"
        }
      },
      "doShowFollower(address,uint256)": {
        "details": "shows one specific Followers address",
        "params": {
          "_adr": "address of user",
          "_c": "follower count pointer of user _adr"
        }
      },
      "editRelation(address,bool,bool,bool,uint256)": {
        "details": "edits one specific Followers address relation status a = msg.sender b = _adr",
        "params": {
          "_adr": "address of user",
          "_ban": "bool did a ban b",
          "_fol": "bool follower",
          "_msg": "bool can a msg b",
          "_rel": "uint relation gets converted to Relaion enum by _detectRelation()"
        }
      },
      "getMsgAllow(address,address)": {
        "details": "shows user msg allowance to msg.sender"
      },
      "relate(address,address,uint256)": {
        "details": "create user relation from sender to adr INTERNAL"
      },
      "showMe()": {
        "details": "shows user account of msg sender"
      },
      "showRelation(address)": {
        "details": "shows relation fom msg.sender to _adr",
        "params": {
          "_adr": "address of user"
        },
        "returns": {
          "rel": "Relations struct"
        }
      },
      "showYou(address)": {
        "details": "shows user account of given address",
        "params": {
          "_adr": "address of user account to show"
        }
      }
    },
    "version": 1
  },
  "userdoc": {
    "kind": "user",
    "methods": {},
    "version": 1
  }
}