{
  "contractName": "s0xFactory",
  "abi": [
    {
      "inputs": [],
      "stateMutability": "nonpayable",
      "type": "constructor"
    },
    {
      "inputs": [],
      "name": "Unauthorized",
      "type": "error"
    },
    {
      "inputs": [
        {
          "internalType": "address",
          "name": "_adr",
          "type": "address"
        }
      ],
      "name": "addedConnection",
      "outputs": [
        {
          "internalType": "uint256",
          "name": "",
          "type": "uint256"
        }
      ],
      "stateMutability": "nonpayable",
      "type": "function"
    },
    {
      "inputs": [
        {
          "internalType": "address",
          "name": "_adr",
          "type": "address"
        },
        {
          "internalType": "string",
          "name": "_dias",
          "type": "string"
        },
        {
          "internalType": "uint256",
          "name": "_r",
          "type": "uint256"
        }
      ],
      "name": "adminEditUser",
      "outputs": [
        {
          "internalType": "bool",
          "name": "",
          "type": "bool"
        }
      ],
      "stateMutability": "nonpayable",
      "type": "function"
    },
    {
      "inputs": [
        {
          "internalType": "string",
          "name": "_dias",
          "type": "string"
        },
        {
          "internalType": "address",
          "name": "_user",
          "type": "address"
        },
        {
          "internalType": "string",
          "name": "_name",
          "type": "string"
        }
      ],
      "name": "createUserAccount",
      "outputs": [
        {
          "internalType": "bool",
          "name": "",
          "type": "bool"
        }
      ],
      "stateMutability": "nonpayable",
      "type": "function"
    },
    {
      "inputs": [
        {
          "internalType": "string",
          "name": "_dias",
          "type": "string"
        }
      ],
      "name": "editUser",
      "outputs": [
        {
          "internalType": "bool",
          "name": "",
          "type": "bool"
        }
      ],
      "stateMutability": "nonpayable",
      "type": "function"
    },
    {
      "inputs": [],
      "name": "friends",
      "outputs": [
        {
          "internalType": "contract s0xFriends",
          "name": "",
          "type": "address"
        }
      ],
      "stateMutability": "view",
      "type": "function",
      "constant": true
    },
    {
      "inputs": [
        {
          "internalType": "address",
          "name": "",
          "type": "address"
        },
        {
          "internalType": "uint256",
          "name": "",
          "type": "uint256"
        }
      ],
      "name": "groupByCount",
      "outputs": [
        {
          "internalType": "address",
          "name": "",
          "type": "address"
        }
      ],
      "stateMutability": "view",
      "type": "function",
      "constant": true
    },
    {
      "inputs": [
        {
          "internalType": "address",
          "name": "",
          "type": "address"
        }
      ],
      "name": "groupCount",
      "outputs": [
        {
          "internalType": "uint256",
          "name": "",
          "type": "uint256"
        }
      ],
      "stateMutability": "view",
      "type": "function",
      "constant": true
    },
    {
      "inputs": [],
      "name": "groups",
      "outputs": [
        {
          "internalType": "contract s0xGroups",
          "name": "",
          "type": "address"
        }
      ],
      "stateMutability": "view",
      "type": "function",
      "constant": true
    },
    {
      "inputs": [
        {
          "internalType": "address",
          "name": "",
          "type": "address"
        }
      ],
      "name": "impx",
      "outputs": [
        {
          "internalType": "uint256",
          "name": "action",
          "type": "uint256"
        },
        {
          "internalType": "uint256",
          "name": "connection",
          "type": "uint256"
        },
        {
          "internalType": "uint256",
          "name": "liquidity",
          "type": "uint256"
        }
      ],
      "stateMutability": "view",
      "type": "function",
      "constant": true
    },
    {
      "inputs": [
        {
          "internalType": "address",
          "name": "",
          "type": "address"
        }
      ],
      "name": "isUser",
      "outputs": [
        {
          "internalType": "bool",
          "name": "",
          "type": "bool"
        }
      ],
      "stateMutability": "view",
      "type": "function",
      "constant": true
    },
    {
      "inputs": [
        {
          "internalType": "address",
          "name": "",
          "type": "address"
        },
        {
          "internalType": "uint256",
          "name": "",
          "type": "uint256"
        }
      ],
      "name": "myGroupByCount",
      "outputs": [
        {
          "internalType": "address",
          "name": "",
          "type": "address"
        }
      ],
      "stateMutability": "view",
      "type": "function",
      "constant": true
    },
    {
      "inputs": [
        {
          "internalType": "address",
          "name": "",
          "type": "address"
        }
      ],
      "name": "myGroupCount",
      "outputs": [
        {
          "internalType": "uint256",
          "name": "",
          "type": "uint256"
        }
      ],
      "stateMutability": "view",
      "type": "function",
      "constant": true
    },
    {
      "inputs": [
        {
          "internalType": "address",
          "name": "",
          "type": "address"
        }
      ],
      "name": "name",
      "outputs": [
        {
          "internalType": "string",
          "name": "",
          "type": "string"
        }
      ],
      "stateMutability": "view",
      "type": "function",
      "constant": true
    },
    {
      "inputs": [
        {
          "internalType": "address",
          "name": "",
          "type": "address"
        }
      ],
      "name": "roles",
      "outputs": [
        {
          "internalType": "uint256",
          "name": "",
          "type": "uint256"
        }
      ],
      "stateMutability": "view",
      "type": "function",
      "constant": true
    },
    {
      "inputs": [
        {
          "internalType": "address",
          "name": "_adr",
          "type": "address"
        }
      ],
      "name": "showImpx",
      "outputs": [
        {
          "internalType": "uint256",
          "name": "",
          "type": "uint256"
        },
        {
          "internalType": "uint256",
          "name": "",
          "type": "uint256"
        },
        {
          "internalType": "uint256",
          "name": "",
          "type": "uint256"
        }
      ],
      "stateMutability": "view",
      "type": "function",
      "constant": true
    },
    {
      "inputs": [
        {
          "internalType": "address",
          "name": "_adr",
          "type": "address"
        }
      ],
      "name": "showUser",
      "outputs": [
        {
          "internalType": "string",
          "name": "",
          "type": "string"
        }
      ],
      "stateMutability": "view",
      "type": "function",
      "constant": true
    },
    {
      "inputs": [
        {
          "internalType": "address",
          "name": "",
          "type": "address"
        }
      ],
      "name": "users",
      "outputs": [
        {
          "internalType": "bytes",
          "name": "",
          "type": "bytes"
        }
      ],
      "stateMutability": "view",
      "type": "function",
      "constant": true
    },
    {
      "inputs": [
        {
          "internalType": "address",
          "name": "_adr",
          "type": "address"
        },
        {
          "internalType": "address",
          "name": "_group",
          "type": "address"
        },
        {
          "internalType": "string",
          "name": "_p",
          "type": "string"
        }
      ],
      "name": "addUserToGroup",
      "outputs": [
        {
          "internalType": "address",
          "name": "",
          "type": "address"
        }
      ],
      "stateMutability": "nonpayable",
      "type": "function"
    },
    {
      "inputs": [
        {
          "internalType": "address",
          "name": "_adr",
          "type": "address"
        },
        {
          "internalType": "address",
          "name": "_group",
          "type": "address"
        }
      ],
      "name": "delUserFromGroup",
      "outputs": [
        {
          "internalType": "address",
          "name": "",
          "type": "address"
        }
      ],
      "stateMutability": "nonpayable",
      "type": "function"
    },
    {
      "inputs": [
        {
          "internalType": "string",
          "name": "_name",
          "type": "string"
        },
        {
          "internalType": "uint256",
          "name": "_state",
          "type": "uint256"
        },
        {
          "internalType": "string",
          "name": "_p",
          "type": "string"
        },
        {
          "internalType": "address[]",
          "name": "_usrs",
          "type": "address[]"
        }
      ],
      "name": "createGroup",
      "outputs": [
        {
          "internalType": "address",
          "name": "",
          "type": "address"
        }
      ],
      "stateMutability": "nonpayable",
      "type": "function"
    },
    {
      "inputs": [
        {
          "internalType": "string",
          "name": "_name",
          "type": "string"
        },
        {
          "internalType": "address",
          "name": "_usr",
          "type": "address"
        }
      ],
      "name": "createConvo",
      "outputs": [
        {
          "internalType": "address",
          "name": "",
          "type": "address"
        }
      ],
      "stateMutability": "nonpayable",
      "type": "function"
    }
  ],
  "bytecode": "0x608060405234801562000010575f80fd5b50335f806101000a81548173ffffffffffffffffffffffffffffffffffffffff021916908373ffffffffffffffffffffffffffffffffffffffff160217905550620000d25f8054906101000a900473ffffffffffffffffffffffffffffffffffffffff166040518060a00160405280607d815260200162008b00607d913960636040518060400160405280600881526020017f73307841646d696e000000000000000000000000000000000000000000000000815250620001af60201b60201c565b5030604051620000e29062000364565b620000ee9190620003b5565b604051809103905ff08015801562000108573d5f803e3d5ffd5b5060065f6101000a81548173ffffffffffffffffffffffffffffffffffffffff021916908373ffffffffffffffffffffffffffffffffffffffff16021790555060065f9054906101000a900473ffffffffffffffffffffffffffffffffffffffff1660085f6101000a81548173ffffffffffffffffffffffffffffffffffffffff021916908373ffffffffffffffffffffffffffffffffffffffff16021790555062000868565b5f8360015f8773ffffffffffffffffffffffffffffffffffffffff1673ffffffffffffffffffffffffffffffffffffffff1681526020019081526020015f209081620001fc919062000634565b50600160025f8773ffffffffffffffffffffffffffffffffffffffff1673ffffffffffffffffffffffffffffffffffffffff1681526020019081526020015f205f6101000a81548160ff0219169083151502179055508260035f8773ffffffffffffffffffffffffffffffffffffffff1673ffffffffffffffffffffffffffffffffffffffff1681526020019081526020015f208190555060405180606001604052805f81526020015f81526020015f81525060045f8773ffffffffffffffffffffffffffffffffffffffff1673ffffffffffffffffffffffffffffffffffffffff1681526020019081526020015f205f820151815f015560208201518160010155604082015181600201559050508160055f8773ffffffffffffffffffffffffffffffffffffffff1673ffffffffffffffffffffffffffffffffffffffff1681526020019081526020015f20908162000357919062000784565b5060019050949350505050565b612bd18062005f2f83390190565b5f73ffffffffffffffffffffffffffffffffffffffff82169050919050565b5f6200039d8262000372565b9050919050565b620003af8162000391565b82525050565b5f602082019050620003ca5f830184620003a4565b92915050565b5f81519050919050565b7f4e487b71000000000000000000000000000000000000000000000000000000005f52604160045260245ffd5b7f4e487b71000000000000000000000000000000000000000000000000000000005f52602260045260245ffd5b5f60028204905060018216806200044c57607f821691505b60208210810362000462576200046162000407565b5b50919050565b5f819050815f5260205f209050919050565b5f6020601f8301049050919050565b5f82821b905092915050565b5f60088302620004c67fffffffffffffffffffffffffffffffffffffffffffffffffffffffffffffffff8262000489565b620004d2868362000489565b95508019841693508086168417925050509392505050565b5f819050919050565b5f819050919050565b5f6200051c620005166200051084620004ea565b620004f3565b620004ea565b9050919050565b5f819050919050565b6200053783620004fc565b6200054f620005468262000523565b84845462000495565b825550505050565b5f90565b6200056562000557565b620005728184846200052c565b505050565b5b8181101562000599576200058d5f826200055b565b60018101905062000578565b5050565b601f821115620005e857620005b28162000468565b620005bd846200047a565b81016020851015620005cd578190505b620005e5620005dc856200047a565b83018262000577565b50505b505050565b5f82821c905092915050565b5f6200060a5f1984600802620005ed565b1980831691505092915050565b5f620006248383620005f9565b9150826002028217905092915050565b6200063f82620003d0565b67ffffffffffffffff8111156200065b576200065a620003da565b5b62000667825462000434565b620006748282856200059d565b5f60209050601f831160018114620006aa575f841562000695578287015190505b620006a1858262000617565b86555062000710565b601f198416620006ba8662000468565b5f5b82811015620006e357848901518255600182019150602085019450602081019050620006bc565b86831015620007035784890151620006ff601f891682620005f9565b8355505b6001600288020188555050505b505050505050565b5f81519050919050565b5f819050815f5260205f209050919050565b601f8211156200077f57620007498162000722565b62000754846200047a565b8101602085101562000764578190505b6200077c62000773856200047a565b83018262000577565b50505b505050565b6200078f8262000718565b67ffffffffffffffff811115620007ab57620007aa620003da565b5b620007b7825462000434565b620007c482828562000734565b5f60209050601f831160018114620007fa575f8415620007e5578287015190505b620007f1858262000617565b86555062000860565b601f1984166200080a8662000722565b5f5b8281101562000833578489015182556001820191506020850194506020810190506200080c565b868310156200085357848901516200084f601f891682620005f9565b8355505b6001600288020188555050505b505050505050565b6156b980620008765f395ff3fe608060405234801562000010575f80fd5b506004361062000152575f3560e01c80638b006d6c11620000c7578063b723147e1162000085578063b723147e146200045a578063bd9980111462000490578063c2a59c7714620004c6578063cf92cddd14620004fe578063d328e8401462000534578063f3390581146200056a5762000152565b80638b006d6c146200034c578063993746421462000382578063a87430ba14620003b8578063b0ca278e14620003ee578063b571b38614620004245762000152565b80635bf89d9e11620001155780635bf89d9e146200026457806381754494146200028657806382f7a58814620002bc578063837b4b1514620002f45780638784e008146200032a5762000152565b80630198489214620001565780631fcc608b146200018c57806337dfd16214620001c25780634209fff114620001f8578063517fe4de146200022e575b5f80fd5b6200017460048036038101906200016e919062001887565b620005a0565b6040516200018391906200194b565b60405180910390f35b620001aa6004803603810190620001a49190620019a5565b62000643565b604051620001b99190620019fb565b60405180910390f35b620001e06004803603810190620001da919062001bc4565b62000680565b604051620001ef919062001c7c565b60405180910390f35b62000216600480360381019062000210919062001887565b620006dd565b60405162000225919062001c7c565b60405180910390f35b6200024c600480360381019062000246919062001887565b620006fa565b6040516200025b91906200194b565b60405180910390f35b6200026e620007cf565b6040516200027d919062001cfe565b60405180910390f35b620002a460048036038101906200029e919062001d19565b620007f4565b604051620002b3919062001c7c565b60405180910390f35b620002da6004803603810190620002d4919062001887565b620008db565b604051620002eb9392919062001d79565b60405180910390f35b6200031260048036038101906200030c919062001887565b620009ad565b60405162000321919062001db4565b60405180910390f35b62000334620009c2565b60405162000343919062001df3565b60405180910390f35b6200036a600480360381019062000364919062001e0e565b620009e7565b60405162000379919062001c7c565b60405180910390f35b620003a060048036038101906200039a919062001887565b62000b55565b604051620003af919062001db4565b60405180910390f35b620003d66004803603810190620003d0919062001887565b62000b6a565b604051620003e5919062001ee0565b60405180910390f35b6200040c600480360381019062000406919062001887565b62000c0d565b6040516200041b919062001db4565b60405180910390f35b6200044260048036038101906200043c919062001f60565b62000c22565b604051620004519190620019fb565b60405180910390f35b620004786004803603810190620004729190620019a5565b62000d62565b604051620004879190620019fb565b60405180910390f35b620004ae6004803603810190620004a8919062002038565b62000d9f565b604051620004bd9190620019fb565b60405180910390f35b620004e46004803603810190620004de919062001887565b62000db6565b604051620004f59392919062001d79565b60405180910390f35b6200051c6004803603810190620005169190620020b0565b62000ddc565b6040516200052b9190620019fb565b60405180910390f35b6200055260048036038101906200054c919062001887565b62000e68565b60405162000561919062001db4565b60405180910390f35b62000588600480360381019062000582919062002117565b62000ec4565b604051620005979190620019fb565b60405180910390f35b6005602052805f5260405f205f915090508054620005be9062002189565b80601f0160208091040260200160405190810160405280929190818152602001828054620005ec9062002189565b80156200063b5780601f1062000611576101008083540402835291602001916200063b565b820191905f5260205f20905b8154815290600101906020018083116200061d57829003601f168201915b505050505081565b600a602052815f5260405f20602052805f5260405f205f915091509054906101000a900473ffffffffffffffffffffffffffffffffffffffff1681565b5f620006d38486600286868080601f0160208091040260200160405190810160405280939291908181526020018383808284375f81840152601f19601f8201169050808301925050505050505062000ed9565b9050949350505050565b6002602052805f5260405f205f915054906101000a900460ff1681565b606060015f8373ffffffffffffffffffffffffffffffffffffffff1673ffffffffffffffffffffffffffffffffffffffff1681526020019081526020015f208054620007469062002189565b80601f0160208091040260200160405190810160405280929190818152602001828054620007749062002189565b8015620007c35780601f106200079957610100808354040283529160200191620007c3565b820191905f5260205f20905b815481529060010190602001808311620007a557829003601f168201915b50505050509050919050565b60075f9054906101000a900473ffffffffffffffffffffffffffffffffffffffff1681565b5f8060055f3373ffffffffffffffffffffffffffffffffffffffff1673ffffffffffffffffffffffffffffffffffffffff1681526020019081526020015f208054620008409062002189565b80601f01602080910402602001604051908101604052809291908181526020018280546200086e9062002189565b8015620008bd5780601f106200089357610100808354040283529160200191620008bd565b820191905f5260205f20905b8154815290600101906020018083116200089f57829003601f168201915b50505050509050620008d3338460028462000ed9565b915050919050565b5f805f60045f8573ffffffffffffffffffffffffffffffffffffffff1673ffffffffffffffffffffffffffffffffffffffff1681526020019081526020015f205f015460045f8673ffffffffffffffffffffffffffffffffffffffff1673ffffffffffffffffffffffffffffffffffffffff1681526020019081526020015f206001015460045f8773ffffffffffffffffffffffffffffffffffffffff1673ffffffffffffffffffffffffffffffffffffffff1681526020019081526020015f20600201549250925092509193909250565b600b602052805f5260405f205f915090505481565b60065f9054906101000a900473ffffffffffffffffffffffffffffffffffffffff1681565b5f805f9054906101000a900473ffffffffffffffffffffffffffffffffffffffff1673ffffffffffffffffffffffffffffffffffffffff163373ffffffffffffffffffffffffffffffffffffffff161462000a6e576040517f82b4290000000000000000000000000000000000000000000000000000000000815260040160405180910390fd5b5f60055f8673ffffffffffffffffffffffffffffffffffffffff1673ffffffffffffffffffffffffffffffffffffffff1681526020019081526020015f20805462000ab99062002189565b80601f016020809104026020016040519081016040528092919081815260200182805462000ae79062002189565b801562000b365780601f1062000b0c5761010080835404028352916020019162000b36565b820191905f5260205f20905b81548152906001019060200180831162000b1857829003601f168201915b5050505050905062000b4b8585858462000ed9565b9150509392505050565b6003602052805f5260405f205f915090505481565b6001602052805f5260405f205f91509050805462000b889062002189565b80601f016020809104026020016040519081016040528092919081815260200182805462000bb69062002189565b801562000c055780601f1062000bdb5761010080835404028352916020019162000c05565b820191905f5260205f20905b81548152906001019060200180831162000be757829003601f168201915b505050505081565b6009602052805f5260405f205f915090505481565b5f8062000cb789898080601f0160208091040260200160405190810160405280939291908181526020018383808284375f81840152601f19601f820116905080830192505050505050508888888080601f0160208091040260200160405190810160405280939291908181526020018383808284375f81840152601f19601f820116905080830192505050505050506200108e565b90505f5b8484905081101562000d525762000d4385858381811062000ce15762000ce0620021bd565b5b905060200201602081019062000cf8919062001887565b8389898080601f0160208091040260200160405190810160405280939291908181526020018383808284375f81840152601f19601f82011690508083019250505050505050620012a5565b50808060010191505062000cbb565b5080915050979650505050505050565b600c602052815f5260405f20602052805f5260405f205f915091509054906101000a900473ffffffffffffffffffffffffffffffffffffffff1681565b5f62000dad848484620012a5565b90509392505050565b6004602052805f5260405f205f91509050805f0154908060010154908060020154905083565b5f8062000e3c85858080601f0160208091040260200160405190810160405280939291908181526020018383808284375f81840152601f19601f820116905080830192505050505050505f60405180602001604052805f8152506200108e565b90505f62000e5a848360405180602001604052805f815250620012a5565b905080925050509392505050565b5f60045f8373ffffffffffffffffffffffffffffffffffffffff1673ffffffffffffffffffffffffffffffffffffffff1681526020019081526020015f206001015f815462000eb79062002217565b9190508190559050919050565b5f62000ed18383620014d0565b905092915050565b5f8360015f8773ffffffffffffffffffffffffffffffffffffffff1673ffffffffffffffffffffffffffffffffffffffff1681526020019081526020015f20908162000f2691906200241d565b50600160025f8773ffffffffffffffffffffffffffffffffffffffff1673ffffffffffffffffffffffffffffffffffffffff1681526020019081526020015f205f6101000a81548160ff0219169083151502179055508260035f8773ffffffffffffffffffffffffffffffffffffffff1673ffffffffffffffffffffffffffffffffffffffff1681526020019081526020015f208190555060405180606001604052805f81526020015f81526020015f81525060045f8773ffffffffffffffffffffffffffffffffffffffff1673ffffffffffffffffffffffffffffffffffffffff1681526020019081526020015f205f820151815f015560208201518160010155604082015181600201559050508160055f8773ffffffffffffffffffffffffffffffffffffffff1673ffffffffffffffffffffffffffffffffffffffff1681526020019081526020015f20908162001081919062002563565b5060019050949350505050565b5f806200109b8462001791565b90503060085f9054906101000a900473ffffffffffffffffffffffffffffffffffffffff1686833387604051620010d29062001807565b620010e396959493929190620026c3565b604051809103905ff080158015620010fd573d5f803e3d5ffd5b5060075f6101000a81548173ffffffffffffffffffffffffffffffffffffffff021916908373ffffffffffffffffffffffffffffffffffffffff16021790555060075f9054906101000a900473ffffffffffffffffffffffffffffffffffffffff16600a5f3373ffffffffffffffffffffffffffffffffffffffff1673ffffffffffffffffffffffffffffffffffffffff1681526020019081526020015f205f60095f3373ffffffffffffffffffffffffffffffffffffffff1673ffffffffffffffffffffffffffffffffffffffff1681526020019081526020015f205481526020019081526020015f205f6101000a81548173ffffffffffffffffffffffffffffffffffffffff021916908373ffffffffffffffffffffffffffffffffffffffff16021790555060095f3373ffffffffffffffffffffffffffffffffffffffff1673ffffffffffffffffffffffffffffffffffffffff1681526020019081526020015f205f815480929190620012749062002217565b919050555060075f9054906101000a900473ffffffffffffffffffffffffffffffffffffffff169150509392505050565b5f8260075f6101000a81548173ffffffffffffffffffffffffffffffffffffffff021916908373ffffffffffffffffffffffffffffffffffffffff16021790555060075f9054906101000a900473ffffffffffffffffffffffffffffffffffffffff1673ffffffffffffffffffffffffffffffffffffffff1663cbc692603386856040518463ffffffff1660e01b815260040162001346939291906200273c565b6020604051808303815f875af115801562001363573d5f803e3d5ffd5b505050506040513d601f19601f8201168201806040525081019062001389919062002794565b5060075f9054906101000a900473ffffffffffffffffffffffffffffffffffffffff16600a5f8673ffffffffffffffffffffffffffffffffffffffff1673ffffffffffffffffffffffffffffffffffffffff1681526020019081526020015f205f60095f8873ffffffffffffffffffffffffffffffffffffffff1673ffffffffffffffffffffffffffffffffffffffff1681526020019081526020015f205481526020019081526020015f205f6101000a81548173ffffffffffffffffffffffffffffffffffffffff021916908373ffffffffffffffffffffffffffffffffffffffff16021790555060095f8573ffffffffffffffffffffffffffffffffffffffff1673ffffffffffffffffffffffffffffffffffffffff1681526020019081526020015f205f815480929190620014c19062002217565b91905055508390509392505050565b5f8160075f6101000a81548173ffffffffffffffffffffffffffffffffffffffff021916908373ffffffffffffffffffffffffffffffffffffffff1602179055505f5b60095f8573ffffffffffffffffffffffffffffffffffffffff1673ffffffffffffffffffffffffffffffffffffffff1681526020019081526020015f205481101562001733578273ffffffffffffffffffffffffffffffffffffffff16600a5f8673ffffffffffffffffffffffffffffffffffffffff1673ffffffffffffffffffffffffffffffffffffffff1681526020019081526020015f205f8381526020019081526020015f205f9054906101000a900473ffffffffffffffffffffffffffffffffffffffff1673ffffffffffffffffffffffffffffffffffffffff160362001725575f600a5f8673ffffffffffffffffffffffffffffffffffffffff1673ffffffffffffffffffffffffffffffffffffffff1681526020019081526020015f205f8381526020019081526020015f205f6101000a81548173ffffffffffffffffffffffffffffffffffffffff021916908373ffffffffffffffffffffffffffffffffffffffff16021790555060075f9054906101000a900473ffffffffffffffffffffffffffffffffffffffff1673ffffffffffffffffffffffffffffffffffffffff166322928d6b33866040518363ffffffff1660e01b8152600401620016e0929190620027c4565b6020604051808303815f875af1158015620016fd573d5f803e3d5ffd5b505050506040513d601f19601f8201168201806040525081019062001723919062002794565b505b808060010191505062001513565b5060095f8473ffffffffffffffffffffffffffffffffffffffff1673ffffffffffffffffffffffffffffffffffffffff1681526020019081526020015f205f8154809291906200178390620027ef565b919050555082905092915050565b5f808203620017a3575f905062001802565b60018203620017b6576001905062001801565b60028203620017c9576002905062001800565b60038203620017dc5760039050620017ff565b60048203620017ef5760049050620017fe565b60058203620017fd57600590505b5b5b5b5b5b919050565b612e68806200281c83390190565b5f604051905090565b5f80fd5b5f80fd5b5f73ffffffffffffffffffffffffffffffffffffffff82169050919050565b5f620018518262001826565b9050919050565b620018638162001845565b81146200186e575f80fd5b50565b5f81359050620018818162001858565b92915050565b5f602082840312156200189f576200189e6200181e565b5b5f620018ae8482850162001871565b91505092915050565b5f81519050919050565b5f82825260208201905092915050565b5f5b83811015620018f0578082015181840152602081019050620018d3565b5f8484015250505050565b5f601f19601f8301169050919050565b5f6200191782620018b7565b620019238185620018c1565b935062001935818560208601620018d1565b6200194081620018fb565b840191505092915050565b5f6020820190508181035f8301526200196581846200190b565b905092915050565b5f819050919050565b62001981816200196d565b81146200198c575f80fd5b50565b5f813590506200199f8162001976565b92915050565b5f8060408385031215620019be57620019bd6200181e565b5b5f620019cd8582860162001871565b9250506020620019e0858286016200198f565b9150509250929050565b620019f58162001845565b82525050565b5f60208201905062001a105f830184620019ea565b92915050565b5f80fd5b5f80fd5b7f4e487b71000000000000000000000000000000000000000000000000000000005f52604160045260245ffd5b62001a5682620018fb565b810181811067ffffffffffffffff8211171562001a785762001a7762001a1e565b5b80604052505050565b5f62001a8c62001815565b905062001a9a828262001a4b565b919050565b5f67ffffffffffffffff82111562001abc5762001abb62001a1e565b5b62001ac782620018fb565b9050602081019050919050565b828183375f83830152505050565b5f62001af862001af28462001a9f565b62001a81565b90508281526020810184848401111562001b175762001b1662001a1a565b5b62001b2484828562001ad4565b509392505050565b5f82601f83011262001b435762001b4262001a16565b5b813562001b5584826020860162001ae2565b91505092915050565b5f80fd5b5f80fd5b5f8083601f84011262001b7e5762001b7d62001a16565b5b8235905067ffffffffffffffff81111562001b9e5762001b9d62001b5e565b5b60208301915083600182028301111562001bbd5762001bbc62001b62565b5b9250929050565b5f805f806060858703121562001bdf5762001bde6200181e565b5b5f85013567ffffffffffffffff81111562001bff5762001bfe62001822565b5b62001c0d8782880162001b2c565b945050602062001c208782880162001871565b935050604085013567ffffffffffffffff81111562001c445762001c4362001822565b5b62001c528782880162001b66565b925092505092959194509250565b5f8115159050919050565b62001c768162001c60565b82525050565b5f60208201905062001c915f83018462001c6b565b92915050565b5f819050919050565b5f62001cc062001cba62001cb48462001826565b62001c97565b62001826565b9050919050565b5f62001cd38262001ca0565b9050919050565b5f62001ce68262001cc7565b9050919050565b62001cf88162001cda565b82525050565b5f60208201905062001d135f83018462001ced565b92915050565b5f6020828403121562001d315762001d306200181e565b5b5f82013567ffffffffffffffff81111562001d515762001d5062001822565b5b62001d5f8482850162001b2c565b91505092915050565b62001d73816200196d565b82525050565b5f60608201905062001d8e5f83018662001d68565b62001d9d602083018562001d68565b62001dac604083018462001d68565b949350505050565b5f60208201905062001dc95f83018462001d68565b92915050565b5f62001ddb8262001cc7565b9050919050565b62001ded8162001dcf565b82525050565b5f60208201905062001e085f83018462001de2565b92915050565b5f805f6060848603121562001e285762001e276200181e565b5b5f62001e378682870162001871565b935050602084013567ffffffffffffffff81111562001e5b5762001e5a62001822565b5b62001e698682870162001b2c565b925050604062001e7c868287016200198f565b9150509250925092565b5f81519050919050565b5f82825260208201905092915050565b5f62001eac8262001e86565b62001eb8818562001e90565b935062001eca818560208601620018d1565b62001ed581620018fb565b840191505092915050565b5f6020820190508181035f83015262001efa818462001ea0565b905092915050565b5f8083601f84011262001f1a5762001f1962001a16565b5b8235905067ffffffffffffffff81111562001f3a5762001f3962001b5e565b5b60208301915083602082028301111562001f595762001f5862001b62565b5b9250929050565b5f805f805f805f6080888a03121562001f7e5762001f7d6200181e565b5b5f88013567ffffffffffffffff81111562001f9e5762001f9d62001822565b5b62001fac8a828b0162001b66565b9750975050602062001fc18a828b016200198f565b955050604088013567ffffffffffffffff81111562001fe55762001fe462001822565b5b62001ff38a828b0162001b66565b9450945050606088013567ffffffffffffffff81111562002019576200201862001822565b5b620020278a828b0162001f02565b925092505092959891949750929550565b5f805f606084860312156200205257620020516200181e565b5b5f620020618682870162001871565b9350506020620020748682870162001871565b925050604084013567ffffffffffffffff81111562002098576200209762001822565b5b620020a68682870162001b2c565b9150509250925092565b5f805f60408486031215620020ca57620020c96200181e565b5b5f84013567ffffffffffffffff811115620020ea57620020e962001822565b5b620020f88682870162001b66565b935093505060206200210d8682870162001871565b9150509250925092565b5f806040838503121562002130576200212f6200181e565b5b5f6200213f8582860162001871565b9250506020620021528582860162001871565b9150509250929050565b7f4e487b71000000000000000000000000000000000000000000000000000000005f52602260045260245ffd5b5f6002820490506001821680620021a157607f821691505b602082108103620021b757620021b66200215c565b5b50919050565b7f4e487b71000000000000000000000000000000000000000000000000000000005f52603260045260245ffd5b7f4e487b71000000000000000000000000000000000000000000000000000000005f52601160045260245ffd5b5f62002223826200196d565b91507fffffffffffffffffffffffffffffffffffffffffffffffffffffffffffffffff8203620022585762002257620021ea565b5b600182019050919050565b5f819050815f5260205f209050919050565b5f6020601f8301049050919050565b5f82821b905092915050565b5f60088302620022c17fffffffffffffffffffffffffffffffffffffffffffffffffffffffffffffffff8262002284565b620022cd868362002284565b95508019841693508086168417925050509392505050565b5f62002305620022ff620022f9846200196d565b62001c97565b6200196d565b9050919050565b5f819050919050565b6200232083620022e5565b620023386200232f826200230c565b84845462002290565b825550505050565b5f90565b6200234e62002340565b6200235b81848462002315565b505050565b5b818110156200238257620023765f8262002344565b60018101905062002361565b5050565b601f821115620023d1576200239b8162002263565b620023a68462002275565b81016020851015620023b6578190505b620023ce620023c58562002275565b83018262002360565b50505b505050565b5f82821c905092915050565b5f620023f35f1984600802620023d6565b1980831691505092915050565b5f6200240d8383620023e2565b9150826002028217905092915050565b620024288262001e86565b67ffffffffffffffff81111562002444576200244362001a1e565b5b62002450825462002189565b6200245d82828562002386565b5f60209050601f83116001811462002493575f84156200247e578287015190505b6200248a858262002400565b865550620024f9565b601f198416620024a38662002263565b5f5b82811015620024cc57848901518255600182019150602085019450602081019050620024a5565b86831015620024ec5784890151620024e8601f891682620023e2565b8355505b6001600288020188555050505b505050505050565b5f819050815f5260205f209050919050565b601f8211156200255e57620025288162002501565b620025338462002275565b8101602085101562002543578190505b6200255b620025528562002275565b83018262002360565b50505b505050565b6200256e82620018b7565b67ffffffffffffffff8111156200258a576200258962001a1e565b5b62002596825462002189565b620025a382828562002513565b5f60209050601f831160018114620025d9575f8415620025c4578287015190505b620025d0858262002400565b8655506200263f565b601f198416620025e98662002501565b5f5b828110156200261257848901518255600182019150602085019450602081019050620025eb565b868310156200263257848901516200262e601f891682620023e2565b8355505b6001600288020188555050505b505050505050565b7f4e487b71000000000000000000000000000000000000000000000000000000005f52602160045260245ffd5b6006811062002688576200268762002647565b5b50565b5f8190506200269a8262002674565b919050565b5f620026ab826200268b565b9050919050565b620026bd816200269f565b82525050565b5f60c082019050620026d85f830189620019ea565b620026e76020830188620019ea565b8181036040830152620026fb818762001ea0565b90506200270c6060830186620026b2565b6200271b6080830185620019ea565b81810360a08301526200272f81846200190b565b9050979650505050505050565b5f606082019050620027515f830186620019ea565b620027606020830185620019ea565b81810360408301526200277481846200190b565b9050949350505050565b5f815190506200278e8162001858565b92915050565b5f60208284031215620027ac57620027ab6200181e565b5b5f620027bb848285016200277e565b91505092915050565b5f604082019050620027d95f830185620019ea565b620027e86020830184620019ea565b9392505050565b5f620027fb826200196d565b91505f820362002810576200280f620021ea565b5b60018203905091905056fe608060405234801562000010575f80fd5b5060405162002e6838038062002e68833981810160405281019062000036919062000500565b8260075f6101000a81548160ff021916908360058111156200005d576200005c620005d6565b5b0217905550855f806101000a81548173ffffffffffffffffffffffffffffffffffffffff021916908373ffffffffffffffffffffffffffffffffffffffff1602179055508460015f6101000a81548173ffffffffffffffffffffffffffffffffffffffff021916908373ffffffffffffffffffffffffffffffffffffffff1602179055508160025f6101000a81548173ffffffffffffffffffffffffffffffffffffffff021916908373ffffffffffffffffffffffffffffffffffffffff16021790555080600490816200013291906200083a565b5083600390816200014491906200083a565b5060016005819055506200017f60025f9054906101000a900473ffffffffffffffffffffffffffffffffffffffff166200018c60201b60201c565b5050505050505062000997565b5f8160085f60055481526020019081526020015f205f6101000a81548173ffffffffffffffffffffffffffffffffffffffff021916908373ffffffffffffffffffffffffffffffffffffffff16021790555060055460095f8473ffffffffffffffffffffffffffffffffffffffff1673ffffffffffffffffffffffffffffffffffffffff1681526020019081526020015f208190555060055f81548092919062000236906200094b565b9190505550819050919050565b5f604051905090565b5f80fd5b5f80fd5b5f73ffffffffffffffffffffffffffffffffffffffff82169050919050565b5f6200027f8262000254565b9050919050565b620002918162000273565b81146200029c575f80fd5b50565b5f81519050620002af8162000286565b92915050565b5f80fd5b5f80fd5b5f601f19601f8301169050919050565b7f4e487b71000000000000000000000000000000000000000000000000000000005f52604160045260245ffd5b6200030582620002bd565b810181811067ffffffffffffffff82111715620003275762000326620002cd565b5b80604052505050565b5f6200033b62000243565b9050620003498282620002fa565b919050565b5f67ffffffffffffffff8211156200036b576200036a620002cd565b5b6200037682620002bd565b9050602081019050919050565b5f5b83811015620003a257808201518184015260208101905062000385565b5f8484015250505050565b5f620003c3620003bd846200034e565b62000330565b905082815260208101848484011115620003e257620003e1620002b9565b5b620003ef84828562000383565b509392505050565b5f82601f8301126200040e576200040d620002b5565b5b815162000420848260208601620003ad565b91505092915050565b6006811062000436575f80fd5b50565b5f81519050620004498162000429565b92915050565b5f67ffffffffffffffff8211156200046c576200046b620002cd565b5b6200047782620002bd565b9050602081019050919050565b5f6200049a62000494846200044f565b62000330565b905082815260208101848484011115620004b957620004b8620002b9565b5b620004c684828562000383565b509392505050565b5f82601f830112620004e557620004e4620002b5565b5b8151620004f784826020860162000484565b91505092915050565b5f805f805f8060c087890312156200051d576200051c6200024c565b5b5f6200052c89828a016200029f565b96505060206200053f89828a016200029f565b955050604087015167ffffffffffffffff81111562000563576200056262000250565b5b6200057189828a01620003f7565b94505060606200058489828a0162000439565b93505060806200059789828a016200029f565b92505060a087015167ffffffffffffffff811115620005bb57620005ba62000250565b5b620005c989828a01620004ce565b9150509295509295509295565b7f4e487b71000000000000000000000000000000000000000000000000000000005f52602160045260245ffd5b5f81519050919050565b7f4e487b71000000000000000000000000000000000000000000000000000000005f52602260045260245ffd5b5f60028204905060018216806200065257607f821691505b6020821081036200066857620006676200060d565b5b50919050565b5f819050815f5260205f209050919050565b5f6020601f8301049050919050565b5f82821b905092915050565b5f60088302620006cc7fffffffffffffffffffffffffffffffffffffffffffffffffffffffffffffffff826200068f565b620006d886836200068f565b95508019841693508086168417925050509392505050565b5f819050919050565b5f819050919050565b5f620007226200071c6200071684620006f0565b620006f9565b620006f0565b9050919050565b5f819050919050565b6200073d8362000702565b620007556200074c8262000729565b8484546200069b565b825550505050565b5f90565b6200076b6200075d565b6200077881848462000732565b505050565b5b818110156200079f57620007935f8262000761565b6001810190506200077e565b5050565b601f821115620007ee57620007b8816200066e565b620007c38462000680565b81016020851015620007d3578190505b620007eb620007e28562000680565b8301826200077d565b50505b505050565b5f82821c905092915050565b5f620008105f1984600802620007f3565b1980831691505092915050565b5f6200082a8383620007ff565b9150826002028217905092915050565b620008458262000603565b67ffffffffffffffff811115620008615762000860620002cd565b5b6200086d82546200063a565b6200087a828285620007a3565b5f60209050601f831160018114620008b0575f84156200089b578287015190505b620008a785826200081d565b86555062000916565b601f198416620008c0866200066e565b5f5b82811015620008e957848901518255600182019150602085019450602081019050620008c2565b8683101562000909578489015162000905601f891682620007ff565b8355505b6001600288020188555050505b505050505050565b7f4e487b71000000000000000000000000000000000000000000000000000000005f52601160045260245ffd5b5f6200095782620006f0565b91507fffffffffffffffffffffffffffffffffffffffffffffffffffffffffffffffff82036200098c576200098b6200091e565b5b600182019050919050565b6124c380620009a55f395ff3fe608060405234801561000f575f80fd5b506004361061011f575f3560e01c80634f0592e7116100ab578063bc87c2251161006f578063bc87c2251461037c578063cbc69260146103ac578063d3758c2a146103dc578063f471d7ac1461040c578063f6ed3c431461043c5761011f565b80634f0592e7146102af5780635a2ee019146102e05780635daf08ca146102fe5780638da5cb5b1461032e5780639a76a6d71461034c5761011f565b806322928d6b116100f257806322928d6b146101d1578063295a5212146102015780632cdd0d5c1461021f5780632f5300e41461024f5780634b77c4681461027f5761011f565b8063028c3f481461012357806306fdde03146101535780630a0b138f146101715780631bea2627146101a1575b5f80fd5b61013d60048036038101906101389190611ac2565b61046c565b60405161014a9190611b3d565b60405180910390f35b61015b6105bf565b6040516101689190611bd0565b60405180910390f35b61018b60048036038101906101869190611bf0565b61064b565b6040516101989190611b3d565b60405180910390f35b6101bb60048036038101906101b69190611c1b565b610660565b6040516101c89190611c98565b60405180910390f35b6101eb60048036038101906101e69190611cb8565b6106fb565b6040516101f89190611d05565b60405180910390f35b6102096108c4565b6040516102169190611d91565b60405180910390f35b61023960048036038101906102349190611daa565b6108d6565b6040516102469190611c98565b60405180910390f35b61026960048036038101906102649190611bf0565b61097c565b6040516102769190611b3d565b60405180910390f35b61029960048036038101906102949190611bf0565b610991565b6040516102a69190611e02565b60405180910390f35b6102c960048036038101906102c49190611c1b565b6109ae565b6040516102d7929190611f1e565b60405180910390f35b6102e86109c3565b6040516102f59190611b3d565b60405180910390f35b61031860048036038101906103139190611c1b565b6109c9565b6040516103259190611d05565b60405180910390f35b6103366109f9565b6040516103439190611d05565b60405180910390f35b61036660048036038101906103619190611bf0565b610a1e565b6040516103739190611b3d565b60405180910390f35b61039660048036038101906103919190611f53565b610a33565b6040516103a39190611bd0565b60405180910390f35b6103c660048036038101906103c19190611fad565b610b5b565b6040516103d39190611d05565b60405180910390f35b6103f660048036038101906103f19190612019565b6114d0565b6040516104039190611c98565b60405180910390f35b61042660048036038101906104219190611c1b565b611576565b6040516104339190611b3d565b60405180910390f35b61045660048036038101906104519190612019565b61158b565b6040516104639190611c98565b60405180910390f35b5f82600e5f8481526020019081526020015f205f600d5f8681526020019081526020015f205481526020019081526020015f2090816104ab9190612251565b508260105f8673ffffffffffffffffffffffffffffffffffffffff1673ffffffffffffffffffffffffffffffffffffffff1681526020019081526020015f205f600f5f8873ffffffffffffffffffffffffffffffffffffffff1673ffffffffffffffffffffffffffffffffffffffff1681526020019081526020015f205481526020019081526020015f2090816105429190612251565b50600f5f8573ffffffffffffffffffffffffffffffffffffffff1673ffffffffffffffffffffffffffffffffffffffff1681526020019081526020015f205f815461058c9061234d565b91905081905550600d5f8381526020019081526020015f205f81546105b09061234d565b91905081905590509392505050565b600380546105cc90612084565b80601f01602080910402602001604051908101604052809291908181526020018280546105f890612084565b80156106435780601f1061061a57610100808354040283529160200191610643565b820191905f5260205f20905b81548152906001019060200180831161062657829003601f168201915b505050505081565b600a602052805f5260405f205f915090505481565b600c602052805f5260405f205f91509050805461067c90612084565b80601f01602080910402602001604051908101604052809291908181526020018280546106a890612084565b80156106f35780601f106106ca576101008083540402835291602001916106f3565b820191905f5260205f20905b8154815290600101906020018083116106d657829003601f168201915b505050505081565b5f80600581111561070f5761070e611d1e565b5b60075f9054906101000a900460ff1660058111156107305761072f611d1e565b5b03610767576040517f3a5bc32100000000000000000000000000000000000000000000000000000000815260040160405180910390fd5b60025f9054906101000a900473ffffffffffffffffffffffffffffffffffffffff1673ffffffffffffffffffffffffffffffffffffffff168373ffffffffffffffffffffffffffffffffffffffff16146107ed576040517f82b4290000000000000000000000000000000000000000000000000000000000815260040160405180910390fd5b5f60085f60095f8673ffffffffffffffffffffffffffffffffffffffff1673ffffffffffffffffffffffffffffffffffffffff1681526020019081526020015f205481526020019081526020015f205f6101000a81548173ffffffffffffffffffffffffffffffffffffffff021916908373ffffffffffffffffffffffffffffffffffffffff1602179055505f60095f8473ffffffffffffffffffffffffffffffffffffffff1673ffffffffffffffffffffffffffffffffffffffff1681526020019081526020015f208190555081905092915050565b60075f9054906101000a900460ff1681565b600e602052815f5260405f20602052805f5260405f205f915091505080546108fd90612084565b80601f016020809104026020016040519081016040528092919081815260200182805461092990612084565b80156109745780601f1061094b57610100808354040283529160200191610974565b820191905f5260205f20905b81548152906001019060200180831161095757829003601f168201915b505050505081565b6009602052805f5260405f205f915090505481565b6011602052805f5260405f205f915054906101000a900460ff1681565b6060806109ba83611631565b91509150915091565b60055481565b6008602052805f5260405f205f915054906101000a900473ffffffffffffffffffffffffffffffffffffffff1681565b60025f9054906101000a900473ffffffffffffffffffffffffffffffffffffffff1681565b600f602052805f5260405f205f915090505481565b606081600b5f8573ffffffffffffffffffffffffffffffffffffffff1673ffffffffffffffffffffffffffffffffffffffff1681526020019081526020015f205f600a5f8773ffffffffffffffffffffffffffffffffffffffff1673ffffffffffffffffffffffffffffffffffffffff1681526020019081526020015f205481526020019081526020015f209081610acb9190612251565b50600a5f8473ffffffffffffffffffffffffffffffffffffffff1673ffffffffffffffffffffffffffffffffffffffff1681526020019081526020015f205f8154610b159061234d565b9190508190555081600c5f60065481526020019081526020015f209081610b3c9190612251565b5060065f8154610b4b9061234d565b9190508190555081905092915050565b5f806005811115610b6f57610b6e611d1e565b5b60075f9054906101000a900460ff166005811115610b9057610b8f611d1e565b5b03610d5a5760026005541115610bd2576040517fea5db9c500000000000000000000000000000000000000000000000000000000815260040160405180910390fd5b60025f9054906101000a900473ffffffffffffffffffffffffffffffffffffffff1673ffffffffffffffffffffffffffffffffffffffff168473ffffffffffffffffffffffffffffffffffffffff1614610c58576040517f82b4290000000000000000000000000000000000000000000000000000000000815260040160405180910390fd5b60015f9054906101000a900473ffffffffffffffffffffffffffffffffffffffff1673ffffffffffffffffffffffffffffffffffffffff1663614df57260025f9054906101000a900473ffffffffffffffffffffffffffffffffffffffff16856040518363ffffffff1660e01b8152600401610cd5929190612394565b602060405180830381865afa158015610cf0573d5f803e3d5ffd5b505050506040513d601f19601f82011682018060405250810190610d1491906123e5565b610d4a576040517fcece67ff00000000000000000000000000000000000000000000000000000000815260040160405180910390fd5b610d53836117db565b90506114c9565b60016005811115610d6e57610d6d611d1e565b5b60075f9054906101000a900460ff166005811115610d8f57610d8e611d1e565b5b03610fb45760025f9054906101000a900473ffffffffffffffffffffffffffffffffffffffff1673ffffffffffffffffffffffffffffffffffffffff168473ffffffffffffffffffffffffffffffffffffffff16141580610ea9575060015f9054906101000a900473ffffffffffffffffffffffffffffffffffffffff1673ffffffffffffffffffffffffffffffffffffffff1663614df57260025f9054906101000a900473ffffffffffffffffffffffffffffffffffffffff16856040518363ffffffff1660e01b8152600401610e68929190612394565b602060405180830381865afa158015610e83573d5f803e3d5ffd5b505050506040513d601f19601f82011682018060405250810190610ea791906123e5565b155b80610f6d575060015f9054906101000a900473ffffffffffffffffffffffffffffffffffffffff1673ffffffffffffffffffffffffffffffffffffffff1663614df5728460025f9054906101000a900473ffffffffffffffffffffffffffffffffffffffff166040518363ffffffff1660e01b8152600401610f2c929190612394565b602060405180830381865afa158015610f47573d5f803e3d5ffd5b505050506040513d601f19601f82011682018060405250810190610f6b91906123e5565b155b15610fa4576040517f82b4290000000000000000000000000000000000000000000000000000000000815260040160405180910390fd5b610fad836117db565b90506114c8565b60026005811115610fc857610fc7611d1e565b5b60075f9054906101000a900460ff166005811115610fe957610fe8611d1e565b5b036112425760015f9054906101000a900473ffffffffffffffffffffffffffffffffffffffff1673ffffffffffffffffffffffffffffffffffffffff1663614df57285856040518363ffffffff1660e01b815260040161104a929190612394565b602060405180830381865afa158015611065573d5f803e3d5ffd5b505050506040513d601f19601f8201168201806040525081019061108991906123e5565b158061112d575060015f9054906101000a900473ffffffffffffffffffffffffffffffffffffffff1673ffffffffffffffffffffffffffffffffffffffff1663614df57284866040518363ffffffff1660e01b81526004016110ec929190612394565b602060405180830381865afa158015611107573d5f803e3d5ffd5b505050506040513d601f19601f8201168201806040525081019061112b91906123e5565b155b15611164576040517f82b4290000000000000000000000000000000000000000000000000000000000815260040160405180910390fd5b6111f6826004805461117590612084565b80601f01602080910402602001604051908101604052809291908181526020018280546111a190612084565b80156111ec5780601f106111c3576101008083540402835291602001916111ec565b820191905f5260205f20905b8154815290600101906020018083116111cf57829003601f168201915b5050505050611890565b1561120b57611204836117db565b905061123d565b6040517f82b4290000000000000000000000000000000000000000000000000000000000815260040160405180910390fd5b6114c7565b6003600581111561125657611255611d1e565b5b60075f9054906101000a900460ff16600581111561127757611276611d1e565b5b14806112b557506004600581111561129257611291611d1e565b5b60075f9054906101000a900460ff1660058111156112b3576112b2611d1e565b5b145b1561144a575f151560015f9054906101000a900473ffffffffffffffffffffffffffffffffffffffff1673ffffffffffffffffffffffffffffffffffffffff1663614df57286866040518363ffffffff1660e01b8152600401611319929190612394565b602060405180830381865afa158015611334573d5f803e3d5ffd5b505050506040513d601f19601f8201168201806040525081019061135891906123e5565b1515148061140357505f151560015f9054906101000a900473ffffffffffffffffffffffffffffffffffffffff1673ffffffffffffffffffffffffffffffffffffffff1663614df57285876040518363ffffffff1660e01b81526004016113c0929190612394565b602060405180830381865afa1580156113db573d5f803e3d5ffd5b505050506040513d601f19601f820116820180604052508101906113ff91906123e5565b1515145b1561143a576040517f82b4290000000000000000000000000000000000000000000000000000000000815260040160405180910390fd5b611443836117db565b90506114c6565b60058081111561145d5761145c611d1e565b5b60075f9054906101000a900460ff16600581111561147e5761147d611d1e565b5b036114935761148c836117db565b90506114c5565b6040517f82b4290000000000000000000000000000000000000000000000000000000000815260040160405180910390fd5b5b5b5b5b9392505050565b600b602052815f5260405f20602052805f5260405f205f915091505080546114f790612084565b80601f016020809104026020016040519081016040528092919081815260200182805461152390612084565b801561156e5780601f106115455761010080835404028352916020019161156e565b820191905f5260205f20905b81548152906001019060200180831161155157829003601f168201915b505050505081565b600d602052805f5260405f205f915090505481565b6010602052815f5260405f20602052805f5260405f205f915091505080546115b290612084565b80601f01602080910402602001604051908101604052809291908181526020018280546115de90612084565b80156116295780601f1061160057610100808354040283529160200191611629565b820191905f5260205f20905b81548152906001019060200180831161160c57829003601f168201915b505050505081565b60608060605f5b600d5f8681526020019081526020015f205481101561173457600e5f8681526020019081526020015f205f600d5f8881526020019081526020015f205481526020019081526020015f20805461168d90612084565b80601f01602080910402602001604051908101604052809291908181526020018280546116b990612084565b80156117045780601f106116db57610100808354040283529160200191611704565b820191905f5260205f20905b8154815290600101906020018083116116e757829003601f168201915b505050505082828151811061171c5761171b612410565b5b60200260200101819052508080600101915050611638565b50600c5f8581526020019081526020015f208181805461175390612084565b80601f016020809104026020016040519081016040528092919081815260200182805461177f90612084565b80156117ca5780601f106117a1576101008083540402835291602001916117ca565b820191905f5260205f20905b8154815290600101906020018083116117ad57829003601f168201915b505050505091509250925050915091565b5f8160085f60055481526020019081526020015f205f6101000a81548173ffffffffffffffffffffffffffffffffffffffff021916908373ffffffffffffffffffffffffffffffffffffffff16021790555060055460095f8473ffffffffffffffffffffffffffffffffffffffff1673ffffffffffffffffffffffffffffffffffffffff1681526020019081526020015f208190555060055f8154809291906118839061234d565b9190505550819050919050565b5f816040516020016118a29190612477565b60405160208183030381529060405280519060200120836040516020016118c99190612477565b6040516020818303038152906040528051906020012014905092915050565b5f604051905090565b5f80fd5b5f80fd5b5f73ffffffffffffffffffffffffffffffffffffffff82169050919050565b5f611922826118f9565b9050919050565b61193281611918565b811461193c575f80fd5b50565b5f8135905061194d81611929565b92915050565b5f80fd5b5f80fd5b5f601f19601f8301169050919050565b7f4e487b71000000000000000000000000000000000000000000000000000000005f52604160045260245ffd5b6119a18261195b565b810181811067ffffffffffffffff821117156119c0576119bf61196b565b5b80604052505050565b5f6119d26118e8565b90506119de8282611998565b919050565b5f67ffffffffffffffff8211156119fd576119fc61196b565b5b611a068261195b565b9050602081019050919050565b828183375f83830152505050565b5f611a33611a2e846119e3565b6119c9565b905082815260208101848484011115611a4f57611a4e611957565b5b611a5a848285611a13565b509392505050565b5f82601f830112611a7657611a75611953565b5b8135611a86848260208601611a21565b91505092915050565b5f819050919050565b611aa181611a8f565b8114611aab575f80fd5b50565b5f81359050611abc81611a98565b92915050565b5f805f60608486031215611ad957611ad86118f1565b5b5f611ae68682870161193f565b935050602084013567ffffffffffffffff811115611b0757611b066118f5565b5b611b1386828701611a62565b9250506040611b2486828701611aae565b9150509250925092565b611b3781611a8f565b82525050565b5f602082019050611b505f830184611b2e565b92915050565b5f81519050919050565b5f82825260208201905092915050565b5f5b83811015611b8d578082015181840152602081019050611b72565b5f8484015250505050565b5f611ba282611b56565b611bac8185611b60565b9350611bbc818560208601611b70565b611bc58161195b565b840191505092915050565b5f6020820190508181035f830152611be88184611b98565b905092915050565b5f60208284031215611c0557611c046118f1565b5b5f611c128482850161193f565b91505092915050565b5f60208284031215611c3057611c2f6118f1565b5b5f611c3d84828501611aae565b91505092915050565b5f81519050919050565b5f82825260208201905092915050565b5f611c6a82611c46565b611c748185611c50565b9350611c84818560208601611b70565b611c8d8161195b565b840191505092915050565b5f6020820190508181035f830152611cb08184611c60565b905092915050565b5f8060408385031215611cce57611ccd6118f1565b5b5f611cdb8582860161193f565b9250506020611cec8582860161193f565b9150509250929050565b611cff81611918565b82525050565b5f602082019050611d185f830184611cf6565b92915050565b7f4e487b71000000000000000000000000000000000000000000000000000000005f52602160045260245ffd5b60068110611d5c57611d5b611d1e565b5b50565b5f819050611d6c82611d4b565b919050565b5f611d7b82611d5f565b9050919050565b611d8b81611d71565b82525050565b5f602082019050611da45f830184611d82565b92915050565b5f8060408385031215611dc057611dbf6118f1565b5b5f611dcd85828601611aae565b9250506020611dde85828601611aae565b9150509250929050565b5f8115159050919050565b611dfc81611de8565b82525050565b5f602082019050611e155f830184611df3565b92915050565b5f81519050919050565b5f82825260208201905092915050565b5f819050602082019050919050565b5f82825260208201905092915050565b5f611e5e82611b56565b611e688185611e44565b9350611e78818560208601611b70565b611e818161195b565b840191505092915050565b5f611e978383611e54565b905092915050565b5f602082019050919050565b5f611eb582611e1b565b611ebf8185611e25565b935083602082028501611ed185611e35565b805f5b85811015611f0c5784840389528151611eed8582611e8c565b9450611ef883611e9f565b925060208a01995050600181019050611ed4565b50829750879550505050505092915050565b5f6040820190508181035f830152611f368185611b98565b90508181036020830152611f4a8184611eab565b90509392505050565b5f8060408385031215611f6957611f686118f1565b5b5f611f768582860161193f565b925050602083013567ffffffffffffffff811115611f9757611f966118f5565b5b611fa385828601611a62565b9150509250929050565b5f805f60608486031215611fc457611fc36118f1565b5b5f611fd18682870161193f565b9350506020611fe28682870161193f565b925050604084013567ffffffffffffffff811115612003576120026118f5565b5b61200f86828701611a62565b9150509250925092565b5f806040838503121561202f5761202e6118f1565b5b5f61203c8582860161193f565b925050602061204d85828601611aae565b9150509250929050565b7f4e487b71000000000000000000000000000000000000000000000000000000005f52602260045260245ffd5b5f600282049050600182168061209b57607f821691505b6020821081036120ae576120ad612057565b5b50919050565b5f819050815f5260205f209050919050565b5f6020601f8301049050919050565b5f82821b905092915050565b5f600883026121107fffffffffffffffffffffffffffffffffffffffffffffffffffffffffffffffff826120d5565b61211a86836120d5565b95508019841693508086168417925050509392505050565b5f819050919050565b5f61215561215061214b84611a8f565b612132565b611a8f565b9050919050565b5f819050919050565b61216e8361213b565b61218261217a8261215c565b8484546120e1565b825550505050565b5f90565b61219661218a565b6121a1818484612165565b505050565b5b818110156121c4576121b95f8261218e565b6001810190506121a7565b5050565b601f821115612209576121da816120b4565b6121e3846120c6565b810160208510156121f2578190505b6122066121fe856120c6565b8301826121a6565b50505b505050565b5f82821c905092915050565b5f6122295f198460080261220e565b1980831691505092915050565b5f612241838361221a565b9150826002028217905092915050565b61225a82611c46565b67ffffffffffffffff8111156122735761227261196b565b5b61227d8254612084565b6122888282856121c8565b5f60209050601f8311600181146122b9575f84156122a7578287015190505b6122b18582612236565b865550612318565b601f1984166122c7866120b4565b5f5b828110156122ee578489015182556001820191506020850194506020810190506122c9565b8683101561230b5784890151612307601f89168261221a565b8355505b6001600288020188555050505b505050505050565b7f4e487b71000000000000000000000000000000000000000000000000000000005f52601160045260245ffd5b5f61235782611a8f565b91507fffffffffffffffffffffffffffffffffffffffffffffffffffffffffffffffff820361238957612388612320565b5b600182019050919050565b5f6040820190506123a75f830185611cf6565b6123b46020830184611cf6565b9392505050565b6123c481611de8565b81146123ce575f80fd5b50565b5f815190506123df816123bb565b92915050565b5f602082840312156123fa576123f96118f1565b5b5f612407848285016123d1565b91505092915050565b7f4e487b71000000000000000000000000000000000000000000000000000000005f52603260045260245ffd5b5f81905092915050565b5f61245182611b56565b61245b818561243d565b935061246b818560208601611b70565b80840191505092915050565b5f6124828284612447565b91508190509291505056fea26469706673582212206108f4a93755a813069771669d4ef0f21c21ed8920117e72b528a1ce449d6db664736f6c63430008170033a264697066735822122039004ae665b3dbceb87e5103d679eeac6773029815253abe4e2319398771040e64736f6c63430008170033608060405234801562000010575f80fd5b5060405162002bd138038062002bd18339818101604052810190620000369190620000e1565b805f806101000a81548173ffffffffffffffffffffffffffffffffffffffff021916908373ffffffffffffffffffffffffffffffffffffffff1602179055505062000111565b5f80fd5b5f73ffffffffffffffffffffffffffffffffffffffff82169050919050565b5f620000ab8262000080565b9050919050565b620000bd816200009f565b8114620000c8575f80fd5b50565b5f81519050620000db81620000b2565b92915050565b5f60208284031215620000f957620000f86200007c565b5b5f6200010884828501620000cb565b91505092915050565b612ab2806200011f5f395ff3fe608060405234801561000f575f80fd5b50600436106100f3575f3560e01c80639c8d83bb11610095578063bd49739711610064578063bd497397146102f5578063d77d72ca14610325578063e27b3ca814610355578063e340938214610385576100f3565b80639c8d83bb14610247578063a34cc93614610277578063ab2d8b4f14610295578063ad2bb1b3146102c5576100f3565b80634e8810f7116100d15780634e8810f714610187578063614df572146101b75780638d4b42ff146101e757806393bb5cab14610217576100f3565b80631059c192146100f75780631629ea531461012757806330b3a89014610157575b5f80fd5b610111600480360381019061010c919061243f565b6103b5565b60405161011e919061248c565b60405180910390f35b610141600480360381019061013c91906124a5565b6103f2565b60405161014e91906124df565b60405180910390f35b610171600480360381019061016c91906124a5565b610438565b60405161017e91906124df565b60405180910390f35b6101a1600480360381019061019c919061243f565b61044d565b6040516101ae919061248c565b60405180910390f35b6101d160048036038101906101cc91906124f8565b6104c2565b6040516101de9190612550565b60405180910390f35b61020160048036038101906101fc9190612593565b610554565b60405161020e9190612750565b60405180910390f35b610231600480360381019061022c919061276a565b610574565b60405161023e91906124df565b60405180910390f35b610261600480360381019061025c91906124a5565b611712565b60405161026e9190612550565b60405180910390f35b61027f61172f565b60405161028c9190612844565b60405180910390f35b6102af60048036038101906102aa91906124a5565b6117d0565b6040516102bc91906124df565b60405180910390f35b6102df60048036038101906102da91906124a5565b6117e5565b6040516102ec9190612750565b60405180910390f35b61030f600480360381019061030a91906124a5565b611803565b60405161031c9190612844565b60405180910390f35b61033f600480360381019061033a91906124f8565b6118a6565b60405161034c91906124df565b60405180910390f35b61036f600480360381019061036a91906124a5565b6118c6565b60405161037c9190612750565b60405180910390f35b61039f600480360381019061039a91906124a5565b611a79565b6040516103ac91906124df565b60405180910390f35b6008602052815f5260405f20602052805f5260405f205f915091509054906101000a900473ffffffffffffffffffffffffffffffffffffffff1681565b5f60075f8373ffffffffffffffffffffffffffffffffffffffff1673ffffffffffffffffffffffffffffffffffffffff1681526020019081526020015f20549050919050565b6006602052805f5260405f205f915090505481565b5f60085f8473ffffffffffffffffffffffffffffffffffffffff1673ffffffffffffffffffffffffffffffffffffffff1681526020019081526020015f205f8381526020019081526020015f205f9054906101000a900473ffffffffffffffffffffffffffffffffffffffff16905092915050565b5f60015f8473ffffffffffffffffffffffffffffffffffffffff1673ffffffffffffffffffffffffffffffffffffffff1681526020019081526020015f205f8373ffffffffffffffffffffffffffffffffffffffff1673ffffffffffffffffffffffffffffffffffffffff1681526020019081526020015f2060010160059054906101000a900460ff16905092915050565b61055c61232e565b6105698686868686611abf565b905095945050505050565b5f8061057f83612287565b905060075f8673ffffffffffffffffffffffffffffffffffffffff1673ffffffffffffffffffffffffffffffffffffffff1681526020019081526020015f205f81546105ca90612891565b919050819055508460085f8673ffffffffffffffffffffffffffffffffffffffff1673ffffffffffffffffffffffffffffffffffffffff1681526020019081526020015f205f60065f8873ffffffffffffffffffffffffffffffffffffffff1673ffffffffffffffffffffffffffffffffffffffff1681526020019081526020015f205481526020019081526020015f205f6101000a81548173ffffffffffffffffffffffffffffffffffffffff021916908373ffffffffffffffffffffffffffffffffffffffff16021790555060065f8573ffffffffffffffffffffffffffffffffffffffff1673ffffffffffffffffffffffffffffffffffffffff1681526020019081526020015f205f81546106e190612891565b919050819055505f806106f487876122da565b915091505f60055f8473ffffffffffffffffffffffffffffffffffffffff1673ffffffffffffffffffffffffffffffffffffffff1681526020019081526020015f205f8373ffffffffffffffffffffffffffffffffffffffff1673ffffffffffffffffffffffffffffffffffffffff1681526020019081526020015f205403610d7f5760035f815461078590612891565b9190508190555060035460055f8473ffffffffffffffffffffffffffffffffffffffff1673ffffffffffffffffffffffffffffffffffffffff1681526020019081526020015f205f8373ffffffffffffffffffffffffffffffffffffffff1673ffffffffffffffffffffffffffffffffffffffff1681526020019081526020015f208190555060405180610120016040528060045481526020016001151581526020015f151581526020015f151581526020015f151581526020016001151581526020015f1515815260200184600881111561086457610863612628565b5b81526020015f600881111561087c5761087b612628565b5b81525060015f8873ffffffffffffffffffffffffffffffffffffffff1673ffffffffffffffffffffffffffffffffffffffff1681526020019081526020015f205f8973ffffffffffffffffffffffffffffffffffffffff1673ffffffffffffffffffffffffffffffffffffffff1681526020019081526020015f205f820151815f01556020820151816001015f6101000a81548160ff02191690831515021790555060408201518160010160016101000a81548160ff02191690831515021790555060608201518160010160026101000a81548160ff02191690831515021790555060808201518160010160036101000a81548160ff02191690831515021790555060a08201518160010160046101000a81548160ff02191690831515021790555060c08201518160010160056101000a81548160ff02191690831515021790555060e08201518160010160066101000a81548160ff021916908360088111156109e9576109e8612628565b5b02179055506101008201518160010160076101000a81548160ff02191690836008811115610a1a57610a19612628565b5b021790555090505060045f8154610a3090612891565b919050819055505f8054906101000a900473ffffffffffffffffffffffffffffffffffffffff1673ffffffffffffffffffffffffffffffffffffffff1663d328e840876040518263ffffffff1660e01b8152600401610a8f919061248c565b6020604051808303815f875af1158015610aab573d5f803e3d5ffd5b505050506040513d601f19601f82011682018060405250810190610acf91906128ec565b5060405180610120016040528060045481526020015f151581526020016001151581526020015f151581526020015f151581526020015f151581526020016001151581526020015f6008811115610b2957610b28612628565b5b8152602001846008811115610b4157610b40612628565b5b81525060015f8973ffffffffffffffffffffffffffffffffffffffff1673ffffffffffffffffffffffffffffffffffffffff1681526020019081526020015f205f8873ffffffffffffffffffffffffffffffffffffffff1673ffffffffffffffffffffffffffffffffffffffff1681526020019081526020015f205f820151815f01556020820151816001015f6101000a81548160ff02191690831515021790555060408201518160010160016101000a81548160ff02191690831515021790555060608201518160010160026101000a81548160ff02191690831515021790555060808201518160010160036101000a81548160ff02191690831515021790555060a08201518160010160046101000a81548160ff02191690831515021790555060c08201518160010160056101000a81548160ff02191690831515021790555060e08201518160010160066101000a81548160ff02191690836008811115610cae57610cad612628565b5b02179055506101008201518160010160076101000a81548160ff02191690836008811115610cdf57610cde612628565b5b021790555090505060045f8154610cf590612891565b9190508190555060055f8373ffffffffffffffffffffffffffffffffffffffff1673ffffffffffffffffffffffffffffffffffffffff1681526020019081526020015f205f8273ffffffffffffffffffffffffffffffffffffffff1673ffffffffffffffffffffffffffffffffffffffff1681526020019081526020015f2054935050505061170b565b600160055f8473ffffffffffffffffffffffffffffffffffffffff1673ffffffffffffffffffffffffffffffffffffffff1681526020019081526020015f205f8373ffffffffffffffffffffffffffffffffffffffff1673ffffffffffffffffffffffffffffffffffffffff1681526020019081526020015f20540361168c5760035f8154610e0d90612891565b919050819055505f6008811115610e2757610e26612628565b5b60015f8873ffffffffffffffffffffffffffffffffffffffff1673ffffffffffffffffffffffffffffffffffffffff1681526020019081526020015f205f8973ffffffffffffffffffffffffffffffffffffffff1673ffffffffffffffffffffffffffffffffffffffff1681526020019081526020015f2060010160069054906101000a900460ff166008811115610ec257610ec1612628565b5b036116095760035460055f8473ffffffffffffffffffffffffffffffffffffffff1673ffffffffffffffffffffffffffffffffffffffff1681526020019081526020015f205f8373ffffffffffffffffffffffffffffffffffffffff1673ffffffffffffffffffffffffffffffffffffffff1681526020019081526020015f2081905550610f4e61232e565b60015f8873ffffffffffffffffffffffffffffffffffffffff1673ffffffffffffffffffffffffffffffffffffffff1681526020019081526020015f205f8973ffffffffffffffffffffffffffffffffffffffff1673ffffffffffffffffffffffffffffffffffffffff1681526020019081526020015f20604051806101200160405290815f8201548152602001600182015f9054906101000a900460ff161515151581526020016001820160019054906101000a900460ff161515151581526020016001820160029054906101000a900460ff161515151581526020016001820160039054906101000a900460ff161515151581526020016001820160049054906101000a900460ff161515151581526020016001820160059054906101000a900460ff161515151581526020016001820160069054906101000a900460ff1660088111156110a1576110a0612628565b5b60088111156110b3576110b2612628565b5b81526020016001820160079054906101000a900460ff1660088111156110dc576110db612628565b5b60088111156110ee576110ed612628565b5b81525050905060405180610120016040528060045481526020016001151581526020018260400151151581526020015f151581526020018260800151151581526020016001151581526020018260c001511515815260200185600881111561115957611158612628565b5b8152602001826101000151600881111561117657611175612628565b5b81525060015f8973ffffffffffffffffffffffffffffffffffffffff1673ffffffffffffffffffffffffffffffffffffffff1681526020019081526020015f205f8a73ffffffffffffffffffffffffffffffffffffffff1673ffffffffffffffffffffffffffffffffffffffff1681526020019081526020015f205f820151815f01556020820151816001015f6101000a81548160ff02191690831515021790555060408201518160010160016101000a81548160ff02191690831515021790555060608201518160010160026101000a81548160ff02191690831515021790555060808201518160010160036101000a81548160ff02191690831515021790555060a08201518160010160046101000a81548160ff02191690831515021790555060c08201518160010160056101000a81548160ff02191690831515021790555060e08201518160010160066101000a81548160ff021916908360088111156112e3576112e2612628565b5b02179055506101008201518160010160076101000a81548160ff0219169083600881111561131457611313612628565b5b021790555090505060045f815461132a90612891565b919050819055505f8054906101000a900473ffffffffffffffffffffffffffffffffffffffff1673ffffffffffffffffffffffffffffffffffffffff1663d328e840886040518263ffffffff1660e01b8152600401611389919061248c565b6020604051808303815f875af11580156113a5573d5f803e3d5ffd5b505050506040513d601f19601f820116820180604052508101906113c991906128ec565b5060405180610120016040528060045481526020018260400151151581526020016001151581526020018260800151151581526020015f151581526020018260c0015115158152602001600115158152602001826101000151600881111561143457611433612628565b5b815260200185600881111561144c5761144b612628565b5b81525060015f8a73ffffffffffffffffffffffffffffffffffffffff1673ffffffffffffffffffffffffffffffffffffffff1681526020019081526020015f205f8973ffffffffffffffffffffffffffffffffffffffff1673ffffffffffffffffffffffffffffffffffffffff1681526020019081526020015f205f820151815f01556020820151816001015f6101000a81548160ff02191690831515021790555060408201518160010160016101000a81548160ff02191690831515021790555060608201518160010160026101000a81548160ff02191690831515021790555060808201518160010160036101000a81548160ff02191690831515021790555060a08201518160010160046101000a81548160ff02191690831515021790555060c08201518160010160056101000a81548160ff02191690831515021790555060e08201518160010160066101000a81548160ff021916908360088111156115b9576115b8612628565b5b02179055506101008201518160010160076101000a81548160ff021916908360088111156115ea576115e9612628565b5b021790555090505060045f815461160090612891565b91905081905550505b60055f8373ffffffffffffffffffffffffffffffffffffffff1673ffffffffffffffffffffffffffffffffffffffff1681526020019081526020015f205f8273ffffffffffffffffffffffffffffffffffffffff1673ffffffffffffffffffffffffffffffffffffffff1681526020019081526020015f2054935050505061170b565b60055f8373ffffffffffffffffffffffffffffffffffffffff1673ffffffffffffffffffffffffffffffffffffffff1681526020019081526020015f205f8273ffffffffffffffffffffffffffffffffffffffff1673ffffffffffffffffffffffffffffffffffffffff1681526020019081526020015f205493505050505b9392505050565b6002602052805f5260405f205f915054906101000a900460ff1681565b60605f8054906101000a900473ffffffffffffffffffffffffffffffffffffffff1673ffffffffffffffffffffffffffffffffffffffff1663517fe4de336040518263ffffffff1660e01b8152600401611789919061248c565b5f60405180830381865afa1580156117a3573d5f803e3d5ffd5b505050506040513d5f823e3d601f19601f820116820180604052508101906117cb9190612a35565b905090565b6007602052805f5260405f205f915090505481565b6117ed61232e565b6117fc825f8060016005611abf565b9050919050565b60605f8054906101000a900473ffffffffffffffffffffffffffffffffffffffff1673ffffffffffffffffffffffffffffffffffffffff1663517fe4de836040518263ffffffff1660e01b815260040161185d919061248c565b5f60405180830381865afa158015611877573d5f803e3d5ffd5b505050506040513d5f823e3d601f19601f8201168201806040525081019061189f9190612a35565b9050919050565b6005602052815f5260405f20602052805f5260405f205f91509150505481565b6118ce61232e565b60015f3373ffffffffffffffffffffffffffffffffffffffff1673ffffffffffffffffffffffffffffffffffffffff1681526020019081526020015f205f8373ffffffffffffffffffffffffffffffffffffffff1673ffffffffffffffffffffffffffffffffffffffff1681526020019081526020015f20604051806101200160405290815f8201548152602001600182015f9054906101000a900460ff161515151581526020016001820160019054906101000a900460ff161515151581526020016001820160029054906101000a900460ff161515151581526020016001820160039054906101000a900460ff161515151581526020016001820160049054906101000a900460ff161515151581526020016001820160059054906101000a900460ff161515151581526020016001820160069054906101000a900460ff166008811115611a2157611a20612628565b5b6008811115611a3357611a32612628565b5b81526020016001820160079054906101000a900460ff166008811115611a5c57611a5b612628565b5b6008811115611a6e57611a6d612628565b5b815250509050919050565b5f60065f8373ffffffffffffffffffffffffffffffffffffffff1673ffffffffffffffffffffffffffffffffffffffff1681526020019081526020015f20549050919050565b611ac761232e565b5f611ad183612287565b90505f60015f3373ffffffffffffffffffffffffffffffffffffffff1673ffffffffffffffffffffffffffffffffffffffff1681526020019081526020015f205f8973ffffffffffffffffffffffffffffffffffffffff1673ffffffffffffffffffffffffffffffffffffffff1681526020019081526020015f20604051806101200160405290815f8201548152602001600182015f9054906101000a900460ff161515151581526020016001820160019054906101000a900460ff161515151581526020016001820160029054906101000a900460ff161515151581526020016001820160039054906101000a900460ff161515151581526020016001820160049054906101000a900460ff161515151581526020016001820160059054906101000a900460ff161515151581526020016001820160069054906101000a900460ff166008811115611c2757611c26612628565b5b6008811115611c3957611c38612628565b5b81526020016001820160079054906101000a900460ff166008811115611c6257611c61612628565b5b6008811115611c7457611c73612628565b5b8152505090505f60015f8a73ffffffffffffffffffffffffffffffffffffffff1673ffffffffffffffffffffffffffffffffffffffff1681526020019081526020015f205f3373ffffffffffffffffffffffffffffffffffffffff1673ffffffffffffffffffffffffffffffffffffffff1681526020019081526020015f20604051806101200160405290815f8201548152602001600182015f9054906101000a900460ff161515151581526020016001820160019054906101000a900460ff161515151581526020016001820160029054906101000a900460ff161515151581526020016001820160039054906101000a900460ff161515151581526020016001820160049054906101000a900460ff161515151581526020016001820160059054906101000a900460ff161515151581526020016001820160069054906101000a900460ff166008811115611dce57611dcd612628565b5b6008811115611de057611ddf612628565b5b81526020016001820160079054906101000a900460ff166008811115611e0957611e08612628565b5b6008811115611e1b57611e1a612628565b5b8152505090505f604051806101200160405280845f015181526020018a15158152602001846040015115158152602001881515815260200184608001511515815260200189151581526020018460c0015115158152602001856008811115611e8657611e85612628565b5b81526020018461010001516008811115611ea357611ea2612628565b5b81525090505f604051806101200160405280845f015181526020018460200151151581526020018b1515815260200184606001511515815260200189151581526020018460a00151151581526020018a151581526020018460e001516008811115611f1157611f10612628565b5b8152602001866008811115611f2957611f28612628565b5b81525090508160015f3373ffffffffffffffffffffffffffffffffffffffff1673ffffffffffffffffffffffffffffffffffffffff1681526020019081526020015f205f8d73ffffffffffffffffffffffffffffffffffffffff1673ffffffffffffffffffffffffffffffffffffffff1681526020019081526020015f205f820151815f01556020820151816001015f6101000a81548160ff02191690831515021790555060408201518160010160016101000a81548160ff02191690831515021790555060608201518160010160026101000a81548160ff02191690831515021790555060808201518160010160036101000a81548160ff02191690831515021790555060a08201518160010160046101000a81548160ff02191690831515021790555060c08201518160010160056101000a81548160ff02191690831515021790555060e08201518160010160066101000a81548160ff0219169083600881111561209957612098612628565b5b02179055506101008201518160010160076101000a81548160ff021916908360088111156120ca576120c9612628565b5b02179055509050508060015f8d73ffffffffffffffffffffffffffffffffffffffff1673ffffffffffffffffffffffffffffffffffffffff1681526020019081526020015f205f3373ffffffffffffffffffffffffffffffffffffffff1673ffffffffffffffffffffffffffffffffffffffff1681526020019081526020015f205f820151815f01556020820151816001015f6101000a81548160ff02191690831515021790555060408201518160010160016101000a81548160ff02191690831515021790555060608201518160010160026101000a81548160ff02191690831515021790555060808201518160010160036101000a81548160ff02191690831515021790555060a08201518160010160046101000a81548160ff02191690831515021790555060c08201518160010160056101000a81548160ff02191690831515021790555060e08201518160010160066101000a81548160ff0219169083600881111561223d5761223c612628565b5b02179055506101008201518160010160076101000a81548160ff0219169083600881111561226e5761226d612628565b5b0217905550905050819550505050505095945050505050565b5f80820361229457600290505b600182036122a157600390505b600282036122ae57600490505b600382036122bb57600590505b600482036122c857600690505b600582036122d557600790505b919050565b5f808273ffffffffffffffffffffffffffffffffffffffff168473ffffffffffffffffffffffffffffffffffffffff161061231c578291508184915081612325565b83915081839150815b50509250929050565b6040518061012001604052805f81526020015f151581526020015f151581526020015f151581526020015f151581526020015f151581526020015f151581526020015f600881111561238357612382612628565b5b81526020015f600881111561239b5761239a612628565b5b81525090565b5f604051905090565b5f80fd5b5f80fd5b5f73ffffffffffffffffffffffffffffffffffffffff82169050919050565b5f6123db826123b2565b9050919050565b6123eb816123d1565b81146123f5575f80fd5b50565b5f81359050612406816123e2565b92915050565b5f819050919050565b61241e8161240c565b8114612428575f80fd5b50565b5f8135905061243981612415565b92915050565b5f8060408385031215612455576124546123aa565b5b5f612462858286016123f8565b92505060206124738582860161242b565b9150509250929050565b612486816123d1565b82525050565b5f60208201905061249f5f83018461247d565b92915050565b5f602082840312156124ba576124b96123aa565b5b5f6124c7848285016123f8565b91505092915050565b6124d98161240c565b82525050565b5f6020820190506124f25f8301846124d0565b92915050565b5f806040838503121561250e5761250d6123aa565b5b5f61251b858286016123f8565b925050602061252c858286016123f8565b9150509250929050565b5f8115159050919050565b61254a81612536565b82525050565b5f6020820190506125635f830184612541565b92915050565b61257281612536565b811461257c575f80fd5b50565b5f8135905061258d81612569565b92915050565b5f805f805f60a086880312156125ac576125ab6123aa565b5b5f6125b9888289016123f8565b95505060206125ca8882890161257f565b94505060406125db8882890161257f565b93505060606125ec8882890161257f565b92505060806125fd8882890161242b565b9150509295509295909350565b6126138161240c565b82525050565b61262281612536565b82525050565b7f4e487b71000000000000000000000000000000000000000000000000000000005f52602160045260245ffd5b6009811061266657612665612628565b5b50565b5f81905061267682612655565b919050565b5f61268582612669565b9050919050565b6126958161267b565b82525050565b61012082015f8201516126b05f85018261260a565b5060208201516126c36020850182612619565b5060408201516126d66040850182612619565b5060608201516126e96060850182612619565b5060808201516126fc6080850182612619565b5060a082015161270f60a0850182612619565b5060c082015161272260c0850182612619565b5060e082015161273560e085018261268c565b5061010082015161274a61010085018261268c565b50505050565b5f610120820190506127645f83018461269b565b92915050565b5f805f60608486031215612781576127806123aa565b5b5f61278e868287016123f8565b935050602061279f868287016123f8565b92505060406127b08682870161242b565b9150509250925092565b5f81519050919050565b5f82825260208201905092915050565b5f5b838110156127f15780820151818401526020810190506127d6565b5f8484015250505050565b5f601f19601f8301169050919050565b5f612816826127ba565b61282081856127c4565b93506128308185602086016127d4565b612839816127fc565b840191505092915050565b5f6020820190508181035f83015261285c818461280c565b905092915050565b7f4e487b71000000000000000000000000000000000000000000000000000000005f52601160045260245ffd5b5f61289b8261240c565b91507fffffffffffffffffffffffffffffffffffffffffffffffffffffffffffffffff82036128cd576128cc612864565b5b600182019050919050565b5f815190506128e681612415565b92915050565b5f60208284031215612901576129006123aa565b5b5f61290e848285016128d8565b91505092915050565b5f80fd5b5f80fd5b7f4e487b71000000000000000000000000000000000000000000000000000000005f52604160045260245ffd5b612955826127fc565b810181811067ffffffffffffffff821117156129745761297361291f565b5b80604052505050565b5f6129866123a1565b9050612992828261294c565b919050565b5f67ffffffffffffffff8211156129b1576129b061291f565b5b6129ba826127fc565b9050602081019050919050565b5f6129d96129d484612997565b61297d565b9050828152602081018484840111156129f5576129f461291b565b5b612a008482856127d4565b509392505050565b5f82601f830112612a1c57612a1b612917565b5b8151612a2c8482602086016129c7565b91505092915050565b5f60208284031215612a4a57612a496123aa565b5b5f82015167ffffffffffffffff811115612a6757612a666123ae565b5b612a7384828501612a08565b9150509291505056fea26469706673582212205cf7ca61a560fe1cbf5ee368cb59be5a46f28bbde20d5522774b238ffb6c7f5064736f6c634300081700337b226e616d65223a2273307841646d696e222c22656d61696c223a22747970652e73746572656f40706d2e6d65222c22696d616765223a2268747470733a2f2f697066732e696f2f697066732f516d584e63694776474a4752563248484538326f4c6f69637677617442387371737964786e3750334e5350316e57227d",
  "immutableReferences": {},
  "source": "// SPDX-License-Identifier: GPL-3.0\n// // // // // // // // // // // // // // // // // // // // // // // // // // // // // // // // // // // // // // // // // // // // // // // // // // // // // // // // // // // // //\n//\n//      0KKKKKKKKKKKKKKKKKKKKKKKKKKKKKKKK0Okdlc:;,......    ......',;cldxO0KKKKKKKKKKKKKKKKKKKKKKKKKKKKKKKKK\n//      XNNNNNNNNNNNNNNNNNNNNNNNNNNXX0kdc;'...        .......         ...';coxOKXNNNNNNNNNNNNNNNNNNNNNNNNNNN\n//      XNNNNNNNNNNNNNNNNNNNNNNNX0xl;'..              .,;;:,.                ..;cdOXXNNNNNNNNNNNNNNNNNNNNNNN\n//      XNNNNNNNNNNNNNNNNNNXNXOo:'.                   .......                    ..;lkKXNNNNNNNNNNNNNNNNNNNN\n//      XNNNNNNNNNNNNNNNNNXOo;..              .........................             ..,lkKNNNNXNNNNNNNNNNNNN\n//      XNNNNNNNNNNNNXXNKx:..            ..........    'lc'.    ............            .;d0XNNNNNNNNNNNNNNN\n//      XNNNNNNNNNNNNX0d;.          ........         .;dddkl.            .......          .'lOXNNNNNNNNNNNNN\n//      XNNNNNNNNNNX0d,.         ......             .cx:..,lo'               ......         .'lOXNNNNNNNNNNN\n//      XNNNNXNNNNKx,.         .....               .ox;.   .:o,.                 ....         .'o0XNNNNNNNNN\n//      XNXNNNNNXOc.        .....                .,dd'      .;l;.                  .....   .... .;xXNNNNNNNN\n//      XNNNNNNKd'....... .....                 .;xo.        .'c;.                    .....':;..  .l0XNNNNNN\n//      XNNNNX0c. ..'''......                  .ckc.           .:;.                     ....',...  .;OXNNNNN\n//      XNNNXO:.   ........                   .ok:.             .;;.                     ......     .,xXNNXX\n//      XNNXO;.       ...                    'dx;.               .,;.                      ...        'xXNNN\n//      XNXO;.       ...                   .,xx'       .....''''''';:..                     ...        'xXNN\n//      XN0:.       ...                   .;kd.  ..,:ldxkOOOOOOOOOkO0Odl:,..                  ...      .,kXN\n//      XKl.       ...                   .cko'':ok00Okdlc;;,'''...',;:dkxkkd:..                ..       .:0N\n//      Xx'       ...                   .lKOxk00xxxl,.  ....',..      .'..,cddl,.              ...       .oX\n//      O:.      ...                  ..dNN0xl;':c::c:'..':odol:..     .... ..:lc,.             ...       ,k\n//      d.       ..                 .,o00d:.. .od'  .,cclxxl'.'coc.     ....   ..,,'..           ..       .l\n//      :.      ...              ..:xKNO,.   .lO:    .;k0o;.   .'do.     ...      .....          ...       ,\n//      '       ..             ..cddx0x'     .xO,   .:dc',:;'.   ;k:.           ..,'...           ..       .\n//      .       ..            .:lc,ckd.      .dKc. .cl'.  ..,'. .lO:       ..':ll:,..             ...      .\n//      .      ...          .,:,..ckl.       .;0O:,:,.      ...'lOl.   ..;ldkkdo;.                ...      .\n//             ...        ..'.. .lkc.         .;kK0o,.......':dOx;..,cdOKKko;..'c:.               ...\n//      .      ...       ....  .lk:.           .'coxOkkxxxxkkkxdodkKXXOdc'.    .'dd,.             ...\n//      .      ...        ....,dk;.            ..  ..;coxkkOO0KXX0ko:'..         'dOc.            ...      .\n//      .       ..          .,dd;,,;;:::;;;;;::clloxkO0KK00Oxdl;'..               .l0d'.          ...      .\n//      ,.      ...        .;dc.  ...,;:clloodddddoolc:;'....                      .;OO:.         ......   .\n//      c.  .......       .:o;.                                                     .'d0d'.      ....,;'. .:\n//      x'  .';,...      .cl'.                                                        .:OO:.     ....;;.. .o\n//      0l. ..,'....   .'ol...............................'''',,,,,,;;;:::::ccccclllllookNXd.   ... .... .;0\n//      XO,       ...  .coc::cccccccccllllllllllllloooooooooooooooooooooooooooooooolllllllc;.  ...       .dX\n//      XXd.       ...  .........................................                             ...       .lKN\n//      XNKl.       ...            .:cccccc:;:ccccccc:::cccccccccccccccccccccccc'.           ...       .:0NX\n//      XNNKc.       ...          .cXWNXXNKkxokXNWWNNK0NMWWNXNW0OXWNNWWNWWNWWNWWo.          ...       .;OXNN\n//      XNNN0l.       ....        .cXNxokKxokllOkdxKNOxXWkloddOdlOXKkK0ONWOdx0WWo.         ...       .;OXNNN\n//      XNNNNKo.        ...       .cXNOdokxcddd0klo0WKdOXd;lxkKOd0NWOlokKXOllOWWo.       ...        .c0NNNNN\n//      XNNNNNXd'.       ....     .cXWK00XNKO0XXKNXKWN0KNNK00KNNK0XXOdOKKXKNXKNWo.     ....        .lKNNNNNN\n//      XNNNNNNXO:.        ....    'oddddddddddddddddddddddddddddddl:coddddddddo;.   ....        .,xXNNNNNNN\n//      XNNNNNNNNKd'.        .....                                                 ....        ..l0XNNNNNNNN\n//      XNNNNNNNNNXOl..        ......                                           .....         .:kXNNNNNNNNNN\n//      XNNNNNNNNNNNXOc..         ......                                    ......          .:xKNNNNNNNNNNNN\n//      XNNNNNNNNNNNNNXOl'.          ........                          ........          ..ckKNNNNNNXNNNNNNN\n//      XNNNNNNNNNNNNNNNX0d;..       ..'....................................',,.       .,oOXNNNNNNNNNNNNNNNN\n//      XNNNNNNNNNNNNNNNNNNXOo;..    ...;;.     ....................      .;,'..   ..,lkKXNNNNNNNNNNNNNNNNNN\n//      XNNNNNNNNNNNNNNNNNNNNNKOd:'.    ..                                 ...  ..;lkKXNXNNNNNNNNNNNNNNNNNNN\n//      XNNNNNNNNNNNNNNNNNNNNNNNNX0ko:,...                                 ..':lx0XNNNNNXNNNNNNNNNNNNNNNNNNN\n//      XNNNNNNNNNNNNNNNNNNNNNNNNNNNNXKOxoc;,....                  ....';:ldOKXXNNNNNNNNNNNNNNNNNNNNNNNNNNNN\n//      XNNNNNNNNNNNNNNNNNNNNNNNNNNNXXNNNNXK0kdl:;'.....    .....',:ldk0KXNNNNNXNNNNNNNNNNNNNNNNNNNNNNNNNNNN\n//\n// // // // // // // // // // // // // // // // // // // // // // // // // // // // // // // // // // // // // // // // // // // // // // // // // // // // // // // // // // // // //\n//                                                                                                                                                                                  //\n//      @dev            ::              Aron Mauritala Ayuk                                                                                                                                          //\n//      @msg            ::              stereo@iii6.xyz                                                                                                                                   //\n//      @github         ::              @stereoIII6\n//      @twitter        ::              @stereoIII6                                                                                                                                              //\n//                                                                                                                                                                                  //\n// // // // // // // // // // // // // // // // // // // // // // // // // // // // // // // // // // // // // // // // // // // // // // // // // // // // // // // // // // // // //\n//                                                                                                                                                                                  //\n//      @dev            ::              Juan Xavier Valverde                                                                                                                                    //\n//      @msg            ::              juanxavier@iii6.xyz                                                                                                                               //\n//      @twitter        ::              @JuanXavier                                                                                                                                             //\n//      @github         ::              @JuanXavier                                                                                                                                             //\n//                                                                                                                                                                                  //                                                                                                                                                                                 //\n// // // // // // // // // // // // // // // // // // // // // // // // // // // // // // // // // // // // // // // // // // // // // // // // // // // // // // // // // // // // //\n//  *   *   *   *   *   *   *   *   *   *   *   *   *   *   *   *   *   *   *   *   *   *   *   *   *   *   *   *   *   *   *   *   *   *   *   *   *   *   *   *   *   *   *   *   //\n// // // // // // // // // // // // // // // // // // // // // // // // // // // // // // // // // // // // // // // // // // // // // // // // // // // // // // // // // // // // //\n//                                                                                                                                                                                  //\n//      @company        ::              Fractio Holding                                                                                                                                                                       //\n//      @title          ::              s0xiety Factory                                                                                                                            //\n//      @description    ::              Factory Constructor Contract                                                                                                                           //\n//      @version        ::              0.0.1                                                                                                                                       //\n//      @purpose        ::              Factory Constructor                                                                                                           //\n//                                                                                                                                                                                  //\n//                                                                                                                                                                                  //\n//                                                                                                                                                                                  //\n//                                                                                                                                                                                  //\n//                                                                                                                                                                                  //\n// // // // // // // // // // // // // // // // // // // // // // // // // // // // // // // // // // // // // // // // // // // // // // // // // // // // // // // // // // // // //\n//  *   *   *   *   *   *   *   *   *   *   *   *   *   *   *   *   *   *   *   *   *   *   *   *   *   *   *   *   *   *   *   *   *   *   *   *   *   *   *   *   *   *   *   *   //\n// // // // // // // // // // // // // // // // // // // // // // // // // // // // // // // // // // // // // // // // // // // // // // // // // // // // // // // // // // // // //\n\n/////////////////////////////////////////////////////////////////////////////////////////////////////////////////////\n\n/////////////////////////////////////////////////////////////////////////////////////////////////////////////////////\n\npragma solidity ^0.8.7;\n\nimport \"./s0xUsers.sol\";\nimport {iii6Math, s0xFriends, iii6Relations} from \"./s0xFriends.sol\";\nimport \"./s0xGroups.sol\";\n\n/**\n * @dev the s0xFactory creates the s0xial user friend and group interface and\n * functions as central administration hub for all s0xial interactions\n */\ncontract s0xFactory is s0xUsers, iii6Math, iii6Relations {\n    s0xFriends public friends;\n    s0xGroups public groups;\n    address private fAdr;\n    mapping(address => uint256) public groupCount;\n    mapping(address => mapping(uint256 => address)) public groupByCount;\n    mapping(address => uint256) public myGroupCount;\n    mapping(address => mapping(uint256 => address)) public myGroupByCount;\n\n    /**\n     * @dev the s0xFactory creates the s0xial user friend and group interface and\n     * functions as central administration hub for all s0xial interactions\n     * the constructor creates a friends instance and stores the address of the contract\n     */\n    constructor() s0xUsers() iii6Math() {\n        friends = new s0xFriends(address(this));\n        fAdr = address(friends);\n    }\n\n    function _getState(uint256 _state) internal pure returns (GroupType state) {\n        if (_state == 0) state = GroupType.FaceToFace;\n        else if (_state == 1) state = GroupType.Private;\n        else if (_state == 2) state = GroupType.Closed;\n        else if (_state == 3) state = GroupType.Shared;\n        else if (_state == 4) state = GroupType.Public;\n        else if (_state == 5) state = GroupType.Open;\n    }\n\n    /**\n     * @dev the s0xFactory creates the s0xial user friend and group interface and\n     * functions as central administration hub for all s0xial interactions\n     * the constructor creates a friends instance and stores the address of the contract\n     */\n    function _makeGroup(\n        string memory _name,\n        uint256 _state,\n        string memory _p\n    ) internal returns (address) {\n        GroupType state;\n        state = _getState(_state);\n\n        groups = new s0xGroups(\n            address(this),\n            fAdr,\n            bytes(_name),\n            state,\n            msg.sender,\n            _p\n        );\n        groupByCount[msg.sender][groupCount[msg.sender]] = address(groups);\n        groupCount[msg.sender]++;\n        return address(groups);\n    }\n\n    /**\n     * @dev the s0xFactory creates the s0xial user friend and group interface and\n     * functions as central administration hub for all s0xial interactions\n     * the constructor creates a friends instance and stores the address of the contract\n     */\n    function _addUserToGroup(\n        address _adr,\n        address _group,\n        string memory _p\n    ) internal returns (address) {\n        groups = s0xGroups(_group);\n        groups.addUser(msg.sender, _adr, _p);\n        groupByCount[_adr][groupCount[_adr]] = address(groups);\n        groupCount[_adr]++;\n        return _adr;\n    }\n\n    /**\n     * @dev the s0xFactory creates the s0xial user friend and group interface and\n     * functions as central administration hub for all s0xial interactions\n     * the constructor creates a friends instance and stores the address of the contract\n     */\n    function _delUserFromGroup(address _adr, address _group)\n        internal\n        returns (address)\n    {\n        groups = s0xGroups(_group);\n        for (uint256 i = 0; i < groupCount[_adr]; i++) {\n            if (groupByCount[_adr][i] == _group) {\n                groupByCount[_adr][i] = address(0);\n                groups.removeUser(msg.sender, _adr);\n            }\n        }\n        groupCount[_adr]--;\n        return _adr;\n    }\n\n    /**\n     * @dev the s0xFactory creates the s0xial user friend and group interface and\n     * functions as central administration hub for all s0xial interactions\n     * the constructor creates a friends instance and stores the address of the contract\n     */\n    function addUserToGroup(\n        address _adr,\n        address _group,\n        string memory _p\n    ) external returns (address) {\n        return _addUserToGroup(_adr, _group, _p);\n    }\n\n    /**\n     * @dev the s0xFactory creates the s0xial user friend and group interface and\n     * functions as central administration hub for all s0xial interactions\n     * the constructor creates a friends instance and stores the address of the contract\n     */\n    function delUserFromGroup(address _adr, address _group)\n        external\n        returns (address)\n    {\n        return _delUserFromGroup(_adr, _group);\n    }\n\n    /**\n     * @dev the s0xFactory creates the s0xial user friend and group interface and\n     * functions as central administration hub for all s0xial interactions\n     * the constructor creates a friends instance and stores the address of the contract\n     */\n    function createGroup(\n        string calldata _name,\n        uint256 _state,\n        string calldata _p,\n        address[] calldata _usrs\n    ) external returns (address) {\n        address adr = _makeGroup(_name, _state, _p);\n        for (uint256 i = 0; i < _usrs.length; i++) {\n            _addUserToGroup(_usrs[i], adr, _p);\n        }\n        return adr;\n    }\n\n    /**\n     * @dev the s0xFactory creates the s0xial user friend and group interface and\n     * functions as central administration hub for all s0xial interactions\n     * the constructor creates a friends instance and stores the address of the contract\n     */\n    function createConvo(string calldata _name, address _usr)\n        external\n        returns (address)\n    {\n        address adr = _makeGroup(_name, 0, \"\");\n        address usr = _addUserToGroup(_usr, adr, \"\");\n        return usr;\n    }\n}\n",
  "sourcePath": "/Users/iii6/Documents/GitHub/Gamble360/contracts/s0xCommunity/s0xFactory.sol",
  "compiler": {
    "name": "solc",
    "version": "0.8.23+commit.f704f362.Emscripten.clang"
  },
  "schemaVersion": "3.4.16",
  "updatedAt": "2023-11-09T15:59:35.232Z",
  "networkType": "ethereum",
  "devdoc": {
    "details": "the s0xFactory creates the s0xial user friend and group interface and functions as central administration hub for all s0xial interactions",
    "kind": "dev",
    "methods": {
      "addUserToGroup(address,address,string)": {
        "details": "the s0xFactory creates the s0xial user friend and group interface and functions as central administration hub for all s0xial interactions the constructor creates a friends instance and stores the address of the contract"
      },
      "constructor": {
        "details": "the s0xFactory creates the s0xial user friend and group interface and functions as central administration hub for all s0xial interactions the constructor creates a friends instance and stores the address of the contract"
      },
      "createConvo(string,address)": {
        "details": "the s0xFactory creates the s0xial user friend and group interface and functions as central administration hub for all s0xial interactions the constructor creates a friends instance and stores the address of the contract"
      },
      "createGroup(string,uint256,string,address[])": {
        "details": "the s0xFactory creates the s0xial user friend and group interface and functions as central administration hub for all s0xial interactions the constructor creates a friends instance and stores the address of the contract"
      },
      "delUserFromGroup(address,address)": {
        "details": "the s0xFactory creates the s0xial user friend and group interface and functions as central administration hub for all s0xial interactions the constructor creates a friends instance and stores the address of the contract"
      }
    },
    "version": 1
  },
  "userdoc": {
    "kind": "user",
    "methods": {
      "createUserAccount(string,address,string)": {
        "notice": "takes dias to create guest user profile"
      }
    },
    "version": 1
  }
}