{
  "contractName": "s0xGroups",
  "abi": [
    {
      "inputs": [
        {
          "internalType": "address",
          "name": "_user",
          "type": "address"
        },
        {
          "internalType": "address",
          "name": "_friend",
          "type": "address"
        },
        {
          "internalType": "bytes",
          "name": "_name",
          "type": "bytes"
        },
        {
          "internalType": "enum iii6Relations.GroupType",
          "name": "_mode",
          "type": "uint8"
        },
        {
          "internalType": "address",
          "name": "_o",
          "type": "address"
        },
        {
          "internalType": "string",
          "name": "_p",
          "type": "string"
        }
      ],
      "stateMutability": "nonpayable",
      "type": "constructor"
    },
    {
      "inputs": [],
      "name": "All_Slots_Taken",
      "type": "error"
    },
    {
      "inputs": [],
      "name": "Already_Listed",
      "type": "error"
    },
    {
      "inputs": [],
      "name": "Array_Length_Mismatch",
      "type": "error"
    },
    {
      "inputs": [],
      "name": "Event_Has_Ended",
      "type": "error"
    },
    {
      "inputs": [],
      "name": "Greenlist_Expired",
      "type": "error"
    },
    {
      "inputs": [],
      "name": "Insufficient_Amount",
      "type": "error"
    },
    {
      "inputs": [],
      "name": "Insufficient_Balance",
      "type": "error"
    },
    {
      "inputs": [],
      "name": "Insufficient_Funds",
      "type": "error"
    },
    {
      "inputs": [],
      "name": "Insufficient_MLQ",
      "type": "error"
    },
    {
      "inputs": [],
      "name": "Insufficient_Supply",
      "type": "error"
    },
    {
      "inputs": [],
      "name": "Invalid_Amount",
      "type": "error"
    },
    {
      "inputs": [],
      "name": "Invalid_Response",
      "type": "error"
    },
    {
      "inputs": [],
      "name": "Max_Tokens_Minted",
      "type": "error"
    },
    {
      "inputs": [],
      "name": "Min_Requirements_Not_Met",
      "type": "error"
    },
    {
      "inputs": [],
      "name": "Mint_In_Progress",
      "type": "error"
    },
    {
      "inputs": [],
      "name": "Mint_Is_Not_Yet_Live",
      "type": "error"
    },
    {
      "inputs": [],
      "name": "Not_Burnable",
      "type": "error"
    },
    {
      "inputs": [],
      "name": "Not_Friends",
      "type": "error"
    },
    {
      "inputs": [],
      "name": "Not_Friends_Rev",
      "type": "error"
    },
    {
      "inputs": [],
      "name": "Not_Greenlisted",
      "type": "error"
    },
    {
      "inputs": [],
      "name": "Not_Pausable",
      "type": "error"
    },
    {
      "inputs": [],
      "name": "Sold_Out",
      "type": "error"
    },
    {
      "inputs": [],
      "name": "Unauthorized",
      "type": "error"
    },
    {
      "inputs": [],
      "name": "You_Are_Not_The_Holder",
      "type": "error"
    },
    {
      "inputs": [],
      "name": "You_Need_To_Wait",
      "type": "error"
    },
    {
      "inputs": [
        {
          "internalType": "uint256",
          "name": "",
          "type": "uint256"
        }
      ],
      "name": "cntnt",
      "outputs": [
        {
          "internalType": "bytes",
          "name": "",
          "type": "bytes"
        }
      ],
      "stateMutability": "view",
      "type": "function"
    },
    {
      "inputs": [
        {
          "internalType": "address",
          "name": "",
          "type": "address"
        },
        {
          "internalType": "uint256",
          "name": "",
          "type": "uint256"
        }
      ],
      "name": "content",
      "outputs": [
        {
          "internalType": "bytes",
          "name": "",
          "type": "bytes"
        }
      ],
      "stateMutability": "view",
      "type": "function"
    },
    {
      "inputs": [
        {
          "internalType": "address",
          "name": "",
          "type": "address"
        }
      ],
      "name": "invite",
      "outputs": [
        {
          "internalType": "bool",
          "name": "",
          "type": "bool"
        }
      ],
      "stateMutability": "view",
      "type": "function"
    },
    {
      "inputs": [],
      "name": "m",
      "outputs": [
        {
          "internalType": "uint256",
          "name": "",
          "type": "uint256"
        }
      ],
      "stateMutability": "view",
      "type": "function"
    },
    {
      "inputs": [
        {
          "internalType": "address",
          "name": "",
          "type": "address"
        }
      ],
      "name": "mNum",
      "outputs": [
        {
          "internalType": "uint256",
          "name": "",
          "type": "uint256"
        }
      ],
      "stateMutability": "view",
      "type": "function"
    },
    {
      "inputs": [
        {
          "internalType": "uint256",
          "name": "",
          "type": "uint256"
        }
      ],
      "name": "members",
      "outputs": [
        {
          "internalType": "address",
          "name": "",
          "type": "address"
        }
      ],
      "stateMutability": "view",
      "type": "function"
    },
    {
      "inputs": [],
      "name": "mode",
      "outputs": [
        {
          "internalType": "enum iii6Relations.GroupType",
          "name": "",
          "type": "uint8"
        }
      ],
      "stateMutability": "view",
      "type": "function"
    },
    {
      "inputs": [
        {
          "internalType": "address",
          "name": "",
          "type": "address"
        }
      ],
      "name": "myContent",
      "outputs": [
        {
          "internalType": "uint256",
          "name": "",
          "type": "uint256"
        }
      ],
      "stateMutability": "view",
      "type": "function"
    },
    {
      "inputs": [
        {
          "internalType": "address",
          "name": "",
          "type": "address"
        },
        {
          "internalType": "uint256",
          "name": "",
          "type": "uint256"
        }
      ],
      "name": "myReplys",
      "outputs": [
        {
          "internalType": "bytes",
          "name": "",
          "type": "bytes"
        }
      ],
      "stateMutability": "view",
      "type": "function"
    },
    {
      "inputs": [
        {
          "internalType": "address",
          "name": "",
          "type": "address"
        }
      ],
      "name": "myRplyCount",
      "outputs": [
        {
          "internalType": "uint256",
          "name": "",
          "type": "uint256"
        }
      ],
      "stateMutability": "view",
      "type": "function"
    },
    {
      "inputs": [],
      "name": "name",
      "outputs": [
        {
          "internalType": "string",
          "name": "",
          "type": "string"
        }
      ],
      "stateMutability": "view",
      "type": "function"
    },
    {
      "inputs": [],
      "name": "owner",
      "outputs": [
        {
          "internalType": "address",
          "name": "",
          "type": "address"
        }
      ],
      "stateMutability": "view",
      "type": "function"
    },
    {
      "inputs": [
        {
          "internalType": "uint256",
          "name": "",
          "type": "uint256"
        }
      ],
      "name": "r",
      "outputs": [
        {
          "internalType": "uint256",
          "name": "",
          "type": "uint256"
        }
      ],
      "stateMutability": "view",
      "type": "function"
    },
    {
      "inputs": [
        {
          "internalType": "uint256",
          "name": "",
          "type": "uint256"
        },
        {
          "internalType": "uint256",
          "name": "",
          "type": "uint256"
        }
      ],
      "name": "replys",
      "outputs": [
        {
          "internalType": "bytes",
          "name": "",
          "type": "bytes"
        }
      ],
      "stateMutability": "view",
      "type": "function"
    },
    {
      "inputs": [
        {
          "internalType": "address",
          "name": "_sender",
          "type": "address"
        },
        {
          "internalType": "address",
          "name": "_adr",
          "type": "address"
        },
        {
          "internalType": "string",
          "name": "_pin",
          "type": "string"
        }
      ],
      "name": "addUser",
      "outputs": [
        {
          "internalType": "address",
          "name": "ad",
          "type": "address"
        }
      ],
      "stateMutability": "nonpayable",
      "type": "function"
    },
    {
      "inputs": [
        {
          "internalType": "address",
          "name": "_sender",
          "type": "address"
        },
        {
          "internalType": "address",
          "name": "_adr",
          "type": "address"
        }
      ],
      "name": "removeUser",
      "outputs": [
        {
          "internalType": "address",
          "name": "",
          "type": "address"
        }
      ],
      "stateMutability": "nonpayable",
      "type": "function"
    },
    {
      "inputs": [
        {
          "internalType": "address",
          "name": "_sender",
          "type": "address"
        },
        {
          "internalType": "string",
          "name": "_cnt",
          "type": "string"
        }
      ],
      "name": "addContent",
      "outputs": [
        {
          "internalType": "string",
          "name": "",
          "type": "string"
        }
      ],
      "stateMutability": "nonpayable",
      "type": "function"
    },
    {
      "inputs": [
        {
          "internalType": "address",
          "name": "_sender",
          "type": "address"
        },
        {
          "internalType": "string",
          "name": "_rply",
          "type": "string"
        },
        {
          "internalType": "uint256",
          "name": "_c",
          "type": "uint256"
        }
      ],
      "name": "addReplyToContent",
      "outputs": [
        {
          "internalType": "uint256",
          "name": "",
          "type": "uint256"
        }
      ],
      "stateMutability": "nonpayable",
      "type": "function"
    },
    {
      "inputs": [
        {
          "internalType": "uint256",
          "name": "_contentId",
          "type": "uint256"
        }
      ],
      "name": "showContent",
      "outputs": [
        {
          "internalType": "string",
          "name": "",
          "type": "string"
        },
        {
          "internalType": "string[]",
          "name": "",
          "type": "string[]"
        }
      ],
      "stateMutability": "view",
      "type": "function"
    }
  ],
  "bytecode": "0x608060405234801562000010575f80fd5b5060405162002e6838038062002e68833981810160405281019062000036919062000500565b8260075f6101000a81548160ff021916908360058111156200005d576200005c620005d6565b5b0217905550855f806101000a81548173ffffffffffffffffffffffffffffffffffffffff021916908373ffffffffffffffffffffffffffffffffffffffff1602179055508460015f6101000a81548173ffffffffffffffffffffffffffffffffffffffff021916908373ffffffffffffffffffffffffffffffffffffffff1602179055508160025f6101000a81548173ffffffffffffffffffffffffffffffffffffffff021916908373ffffffffffffffffffffffffffffffffffffffff16021790555080600490816200013291906200083a565b5083600390816200014491906200083a565b5060016005819055506200017f60025f9054906101000a900473ffffffffffffffffffffffffffffffffffffffff166200018c60201b60201c565b5050505050505062000997565b5f8160085f60055481526020019081526020015f205f6101000a81548173ffffffffffffffffffffffffffffffffffffffff021916908373ffffffffffffffffffffffffffffffffffffffff16021790555060055460095f8473ffffffffffffffffffffffffffffffffffffffff1673ffffffffffffffffffffffffffffffffffffffff1681526020019081526020015f208190555060055f81548092919062000236906200094b565b9190505550819050919050565b5f604051905090565b5f80fd5b5f80fd5b5f73ffffffffffffffffffffffffffffffffffffffff82169050919050565b5f6200027f8262000254565b9050919050565b620002918162000273565b81146200029c575f80fd5b50565b5f81519050620002af8162000286565b92915050565b5f80fd5b5f80fd5b5f601f19601f8301169050919050565b7f4e487b71000000000000000000000000000000000000000000000000000000005f52604160045260245ffd5b6200030582620002bd565b810181811067ffffffffffffffff82111715620003275762000326620002cd565b5b80604052505050565b5f6200033b62000243565b9050620003498282620002fa565b919050565b5f67ffffffffffffffff8211156200036b576200036a620002cd565b5b6200037682620002bd565b9050602081019050919050565b5f5b83811015620003a257808201518184015260208101905062000385565b5f8484015250505050565b5f620003c3620003bd846200034e565b62000330565b905082815260208101848484011115620003e257620003e1620002b9565b5b620003ef84828562000383565b509392505050565b5f82601f8301126200040e576200040d620002b5565b5b815162000420848260208601620003ad565b91505092915050565b6006811062000436575f80fd5b50565b5f81519050620004498162000429565b92915050565b5f67ffffffffffffffff8211156200046c576200046b620002cd565b5b6200047782620002bd565b9050602081019050919050565b5f6200049a62000494846200044f565b62000330565b905082815260208101848484011115620004b957620004b8620002b9565b5b620004c684828562000383565b509392505050565b5f82601f830112620004e557620004e4620002b5565b5b8151620004f784826020860162000484565b91505092915050565b5f805f805f8060c087890312156200051d576200051c6200024c565b5b5f6200052c89828a016200029f565b96505060206200053f89828a016200029f565b955050604087015167ffffffffffffffff81111562000563576200056262000250565b5b6200057189828a01620003f7565b94505060606200058489828a0162000439565b93505060806200059789828a016200029f565b92505060a087015167ffffffffffffffff811115620005bb57620005ba62000250565b5b620005c989828a01620004ce565b9150509295509295509295565b7f4e487b71000000000000000000000000000000000000000000000000000000005f52602160045260245ffd5b5f81519050919050565b7f4e487b71000000000000000000000000000000000000000000000000000000005f52602260045260245ffd5b5f60028204905060018216806200065257607f821691505b6020821081036200066857620006676200060d565b5b50919050565b5f819050815f5260205f209050919050565b5f6020601f8301049050919050565b5f82821b905092915050565b5f60088302620006cc7fffffffffffffffffffffffffffffffffffffffffffffffffffffffffffffffff826200068f565b620006d886836200068f565b95508019841693508086168417925050509392505050565b5f819050919050565b5f819050919050565b5f620007226200071c6200071684620006f0565b620006f9565b620006f0565b9050919050565b5f819050919050565b6200073d8362000702565b620007556200074c8262000729565b8484546200069b565b825550505050565b5f90565b6200076b6200075d565b6200077881848462000732565b505050565b5b818110156200079f57620007935f8262000761565b6001810190506200077e565b5050565b601f821115620007ee57620007b8816200066e565b620007c38462000680565b81016020851015620007d3578190505b620007eb620007e28562000680565b8301826200077d565b50505b505050565b5f82821c905092915050565b5f620008105f1984600802620007f3565b1980831691505092915050565b5f6200082a8383620007ff565b9150826002028217905092915050565b620008458262000603565b67ffffffffffffffff811115620008615762000860620002cd565b5b6200086d82546200063a565b6200087a828285620007a3565b5f60209050601f831160018114620008b0575f84156200089b578287015190505b620008a785826200081d565b86555062000916565b601f198416620008c0866200066e565b5f5b82811015620008e957848901518255600182019150602085019450602081019050620008c2565b8683101562000909578489015162000905601f891682620007ff565b8355505b6001600288020188555050505b505050505050565b7f4e487b71000000000000000000000000000000000000000000000000000000005f52601160045260245ffd5b5f6200095782620006f0565b91507fffffffffffffffffffffffffffffffffffffffffffffffffffffffffffffffff82036200098c576200098b6200091e565b5b600182019050919050565b6124c380620009a55f395ff3fe608060405234801561000f575f80fd5b506004361061011f575f3560e01c80634f0592e7116100ab578063bc87c2251161006f578063bc87c2251461037c578063cbc69260146103ac578063d3758c2a146103dc578063f471d7ac1461040c578063f6ed3c431461043c5761011f565b80634f0592e7146102af5780635a2ee019146102e05780635daf08ca146102fe5780638da5cb5b1461032e5780639a76a6d71461034c5761011f565b806322928d6b116100f257806322928d6b146101d1578063295a5212146102015780632cdd0d5c1461021f5780632f5300e41461024f5780634b77c4681461027f5761011f565b8063028c3f481461012357806306fdde03146101535780630a0b138f146101715780631bea2627146101a1575b5f80fd5b61013d60048036038101906101389190611ac2565b61046c565b60405161014a9190611b3d565b60405180910390f35b61015b6105bf565b6040516101689190611bd0565b60405180910390f35b61018b60048036038101906101869190611bf0565b61064b565b6040516101989190611b3d565b60405180910390f35b6101bb60048036038101906101b69190611c1b565b610660565b6040516101c89190611c98565b60405180910390f35b6101eb60048036038101906101e69190611cb8565b6106fb565b6040516101f89190611d05565b60405180910390f35b6102096108c4565b6040516102169190611d91565b60405180910390f35b61023960048036038101906102349190611daa565b6108d6565b6040516102469190611c98565b60405180910390f35b61026960048036038101906102649190611bf0565b61097c565b6040516102769190611b3d565b60405180910390f35b61029960048036038101906102949190611bf0565b610991565b6040516102a69190611e02565b60405180910390f35b6102c960048036038101906102c49190611c1b565b6109ae565b6040516102d7929190611f1e565b60405180910390f35b6102e86109c3565b6040516102f59190611b3d565b60405180910390f35b61031860048036038101906103139190611c1b565b6109c9565b6040516103259190611d05565b60405180910390f35b6103366109f9565b6040516103439190611d05565b60405180910390f35b61036660048036038101906103619190611bf0565b610a1e565b6040516103739190611b3d565b60405180910390f35b61039660048036038101906103919190611f53565b610a33565b6040516103a39190611bd0565b60405180910390f35b6103c660048036038101906103c19190611fad565b610b5b565b6040516103d39190611d05565b60405180910390f35b6103f660048036038101906103f19190612019565b6114d0565b6040516104039190611c98565b60405180910390f35b61042660048036038101906104219190611c1b565b611576565b6040516104339190611b3d565b60405180910390f35b61045660048036038101906104519190612019565b61158b565b6040516104639190611c98565b60405180910390f35b5f82600e5f8481526020019081526020015f205f600d5f8681526020019081526020015f205481526020019081526020015f2090816104ab9190612251565b508260105f8673ffffffffffffffffffffffffffffffffffffffff1673ffffffffffffffffffffffffffffffffffffffff1681526020019081526020015f205f600f5f8873ffffffffffffffffffffffffffffffffffffffff1673ffffffffffffffffffffffffffffffffffffffff1681526020019081526020015f205481526020019081526020015f2090816105429190612251565b50600f5f8573ffffffffffffffffffffffffffffffffffffffff1673ffffffffffffffffffffffffffffffffffffffff1681526020019081526020015f205f815461058c9061234d565b91905081905550600d5f8381526020019081526020015f205f81546105b09061234d565b91905081905590509392505050565b600380546105cc90612084565b80601f01602080910402602001604051908101604052809291908181526020018280546105f890612084565b80156106435780601f1061061a57610100808354040283529160200191610643565b820191905f5260205f20905b81548152906001019060200180831161062657829003601f168201915b505050505081565b600a602052805f5260405f205f915090505481565b600c602052805f5260405f205f91509050805461067c90612084565b80601f01602080910402602001604051908101604052809291908181526020018280546106a890612084565b80156106f35780601f106106ca576101008083540402835291602001916106f3565b820191905f5260205f20905b8154815290600101906020018083116106d657829003601f168201915b505050505081565b5f80600581111561070f5761070e611d1e565b5b60075f9054906101000a900460ff1660058111156107305761072f611d1e565b5b03610767576040517f3a5bc32100000000000000000000000000000000000000000000000000000000815260040160405180910390fd5b60025f9054906101000a900473ffffffffffffffffffffffffffffffffffffffff1673ffffffffffffffffffffffffffffffffffffffff168373ffffffffffffffffffffffffffffffffffffffff16146107ed576040517f82b4290000000000000000000000000000000000000000000000000000000000815260040160405180910390fd5b5f60085f60095f8673ffffffffffffffffffffffffffffffffffffffff1673ffffffffffffffffffffffffffffffffffffffff1681526020019081526020015f205481526020019081526020015f205f6101000a81548173ffffffffffffffffffffffffffffffffffffffff021916908373ffffffffffffffffffffffffffffffffffffffff1602179055505f60095f8473ffffffffffffffffffffffffffffffffffffffff1673ffffffffffffffffffffffffffffffffffffffff1681526020019081526020015f208190555081905092915050565b60075f9054906101000a900460ff1681565b600e602052815f5260405f20602052805f5260405f205f915091505080546108fd90612084565b80601f016020809104026020016040519081016040528092919081815260200182805461092990612084565b80156109745780601f1061094b57610100808354040283529160200191610974565b820191905f5260205f20905b81548152906001019060200180831161095757829003601f168201915b505050505081565b6009602052805f5260405f205f915090505481565b6011602052805f5260405f205f915054906101000a900460ff1681565b6060806109ba83611631565b91509150915091565b60055481565b6008602052805f5260405f205f915054906101000a900473ffffffffffffffffffffffffffffffffffffffff1681565b60025f9054906101000a900473ffffffffffffffffffffffffffffffffffffffff1681565b600f602052805f5260405f205f915090505481565b606081600b5f8573ffffffffffffffffffffffffffffffffffffffff1673ffffffffffffffffffffffffffffffffffffffff1681526020019081526020015f205f600a5f8773ffffffffffffffffffffffffffffffffffffffff1673ffffffffffffffffffffffffffffffffffffffff1681526020019081526020015f205481526020019081526020015f209081610acb9190612251565b50600a5f8473ffffffffffffffffffffffffffffffffffffffff1673ffffffffffffffffffffffffffffffffffffffff1681526020019081526020015f205f8154610b159061234d565b9190508190555081600c5f60065481526020019081526020015f209081610b3c9190612251565b5060065f8154610b4b9061234d565b9190508190555081905092915050565b5f806005811115610b6f57610b6e611d1e565b5b60075f9054906101000a900460ff166005811115610b9057610b8f611d1e565b5b03610d5a5760026005541115610bd2576040517fea5db9c500000000000000000000000000000000000000000000000000000000815260040160405180910390fd5b60025f9054906101000a900473ffffffffffffffffffffffffffffffffffffffff1673ffffffffffffffffffffffffffffffffffffffff168473ffffffffffffffffffffffffffffffffffffffff1614610c58576040517f82b4290000000000000000000000000000000000000000000000000000000000815260040160405180910390fd5b60015f9054906101000a900473ffffffffffffffffffffffffffffffffffffffff1673ffffffffffffffffffffffffffffffffffffffff1663614df57260025f9054906101000a900473ffffffffffffffffffffffffffffffffffffffff16856040518363ffffffff1660e01b8152600401610cd5929190612394565b602060405180830381865afa158015610cf0573d5f803e3d5ffd5b505050506040513d601f19601f82011682018060405250810190610d1491906123e5565b610d4a576040517fcece67ff00000000000000000000000000000000000000000000000000000000815260040160405180910390fd5b610d53836117db565b90506114c9565b60016005811115610d6e57610d6d611d1e565b5b60075f9054906101000a900460ff166005811115610d8f57610d8e611d1e565b5b03610fb45760025f9054906101000a900473ffffffffffffffffffffffffffffffffffffffff1673ffffffffffffffffffffffffffffffffffffffff168473ffffffffffffffffffffffffffffffffffffffff16141580610ea9575060015f9054906101000a900473ffffffffffffffffffffffffffffffffffffffff1673ffffffffffffffffffffffffffffffffffffffff1663614df57260025f9054906101000a900473ffffffffffffffffffffffffffffffffffffffff16856040518363ffffffff1660e01b8152600401610e68929190612394565b602060405180830381865afa158015610e83573d5f803e3d5ffd5b505050506040513d601f19601f82011682018060405250810190610ea791906123e5565b155b80610f6d575060015f9054906101000a900473ffffffffffffffffffffffffffffffffffffffff1673ffffffffffffffffffffffffffffffffffffffff1663614df5728460025f9054906101000a900473ffffffffffffffffffffffffffffffffffffffff166040518363ffffffff1660e01b8152600401610f2c929190612394565b602060405180830381865afa158015610f47573d5f803e3d5ffd5b505050506040513d601f19601f82011682018060405250810190610f6b91906123e5565b155b15610fa4576040517f82b4290000000000000000000000000000000000000000000000000000000000815260040160405180910390fd5b610fad836117db565b90506114c8565b60026005811115610fc857610fc7611d1e565b5b60075f9054906101000a900460ff166005811115610fe957610fe8611d1e565b5b036112425760015f9054906101000a900473ffffffffffffffffffffffffffffffffffffffff1673ffffffffffffffffffffffffffffffffffffffff1663614df57285856040518363ffffffff1660e01b815260040161104a929190612394565b602060405180830381865afa158015611065573d5f803e3d5ffd5b505050506040513d601f19601f8201168201806040525081019061108991906123e5565b158061112d575060015f9054906101000a900473ffffffffffffffffffffffffffffffffffffffff1673ffffffffffffffffffffffffffffffffffffffff1663614df57284866040518363ffffffff1660e01b81526004016110ec929190612394565b602060405180830381865afa158015611107573d5f803e3d5ffd5b505050506040513d601f19601f8201168201806040525081019061112b91906123e5565b155b15611164576040517f82b4290000000000000000000000000000000000000000000000000000000000815260040160405180910390fd5b6111f6826004805461117590612084565b80601f01602080910402602001604051908101604052809291908181526020018280546111a190612084565b80156111ec5780601f106111c3576101008083540402835291602001916111ec565b820191905f5260205f20905b8154815290600101906020018083116111cf57829003601f168201915b5050505050611890565b1561120b57611204836117db565b905061123d565b6040517f82b4290000000000000000000000000000000000000000000000000000000000815260040160405180910390fd5b6114c7565b6003600581111561125657611255611d1e565b5b60075f9054906101000a900460ff16600581111561127757611276611d1e565b5b14806112b557506004600581111561129257611291611d1e565b5b60075f9054906101000a900460ff1660058111156112b3576112b2611d1e565b5b145b1561144a575f151560015f9054906101000a900473ffffffffffffffffffffffffffffffffffffffff1673ffffffffffffffffffffffffffffffffffffffff1663614df57286866040518363ffffffff1660e01b8152600401611319929190612394565b602060405180830381865afa158015611334573d5f803e3d5ffd5b505050506040513d601f19601f8201168201806040525081019061135891906123e5565b1515148061140357505f151560015f9054906101000a900473ffffffffffffffffffffffffffffffffffffffff1673ffffffffffffffffffffffffffffffffffffffff1663614df57285876040518363ffffffff1660e01b81526004016113c0929190612394565b602060405180830381865afa1580156113db573d5f803e3d5ffd5b505050506040513d601f19601f820116820180604052508101906113ff91906123e5565b1515145b1561143a576040517f82b4290000000000000000000000000000000000000000000000000000000000815260040160405180910390fd5b611443836117db565b90506114c6565b60058081111561145d5761145c611d1e565b5b60075f9054906101000a900460ff16600581111561147e5761147d611d1e565b5b036114935761148c836117db565b90506114c5565b6040517f82b4290000000000000000000000000000000000000000000000000000000000815260040160405180910390fd5b5b5b5b5b9392505050565b600b602052815f5260405f20602052805f5260405f205f915091505080546114f790612084565b80601f016020809104026020016040519081016040528092919081815260200182805461152390612084565b801561156e5780601f106115455761010080835404028352916020019161156e565b820191905f5260205f20905b81548152906001019060200180831161155157829003601f168201915b505050505081565b600d602052805f5260405f205f915090505481565b6010602052815f5260405f20602052805f5260405f205f915091505080546115b290612084565b80601f01602080910402602001604051908101604052809291908181526020018280546115de90612084565b80156116295780601f1061160057610100808354040283529160200191611629565b820191905f5260205f20905b81548152906001019060200180831161160c57829003601f168201915b505050505081565b60608060605f5b600d5f8681526020019081526020015f205481101561173457600e5f8681526020019081526020015f205f600d5f8881526020019081526020015f205481526020019081526020015f20805461168d90612084565b80601f01602080910402602001604051908101604052809291908181526020018280546116b990612084565b80156117045780601f106116db57610100808354040283529160200191611704565b820191905f5260205f20905b8154815290600101906020018083116116e757829003601f168201915b505050505082828151811061171c5761171b612410565b5b60200260200101819052508080600101915050611638565b50600c5f8581526020019081526020015f208181805461175390612084565b80601f016020809104026020016040519081016040528092919081815260200182805461177f90612084565b80156117ca5780601f106117a1576101008083540402835291602001916117ca565b820191905f5260205f20905b8154815290600101906020018083116117ad57829003601f168201915b505050505091509250925050915091565b5f8160085f60055481526020019081526020015f205f6101000a81548173ffffffffffffffffffffffffffffffffffffffff021916908373ffffffffffffffffffffffffffffffffffffffff16021790555060055460095f8473ffffffffffffffffffffffffffffffffffffffff1673ffffffffffffffffffffffffffffffffffffffff1681526020019081526020015f208190555060055f8154809291906118839061234d565b9190505550819050919050565b5f816040516020016118a29190612477565b60405160208183030381529060405280519060200120836040516020016118c99190612477565b6040516020818303038152906040528051906020012014905092915050565b5f604051905090565b5f80fd5b5f80fd5b5f73ffffffffffffffffffffffffffffffffffffffff82169050919050565b5f611922826118f9565b9050919050565b61193281611918565b811461193c575f80fd5b50565b5f8135905061194d81611929565b92915050565b5f80fd5b5f80fd5b5f601f19601f8301169050919050565b7f4e487b71000000000000000000000000000000000000000000000000000000005f52604160045260245ffd5b6119a18261195b565b810181811067ffffffffffffffff821117156119c0576119bf61196b565b5b80604052505050565b5f6119d26118e8565b90506119de8282611998565b919050565b5f67ffffffffffffffff8211156119fd576119fc61196b565b5b611a068261195b565b9050602081019050919050565b828183375f83830152505050565b5f611a33611a2e846119e3565b6119c9565b905082815260208101848484011115611a4f57611a4e611957565b5b611a5a848285611a13565b509392505050565b5f82601f830112611a7657611a75611953565b5b8135611a86848260208601611a21565b91505092915050565b5f819050919050565b611aa181611a8f565b8114611aab575f80fd5b50565b5f81359050611abc81611a98565b92915050565b5f805f60608486031215611ad957611ad86118f1565b5b5f611ae68682870161193f565b935050602084013567ffffffffffffffff811115611b0757611b066118f5565b5b611b1386828701611a62565b9250506040611b2486828701611aae565b9150509250925092565b611b3781611a8f565b82525050565b5f602082019050611b505f830184611b2e565b92915050565b5f81519050919050565b5f82825260208201905092915050565b5f5b83811015611b8d578082015181840152602081019050611b72565b5f8484015250505050565b5f611ba282611b56565b611bac8185611b60565b9350611bbc818560208601611b70565b611bc58161195b565b840191505092915050565b5f6020820190508181035f830152611be88184611b98565b905092915050565b5f60208284031215611c0557611c046118f1565b5b5f611c128482850161193f565b91505092915050565b5f60208284031215611c3057611c2f6118f1565b5b5f611c3d84828501611aae565b91505092915050565b5f81519050919050565b5f82825260208201905092915050565b5f611c6a82611c46565b611c748185611c50565b9350611c84818560208601611b70565b611c8d8161195b565b840191505092915050565b5f6020820190508181035f830152611cb08184611c60565b905092915050565b5f8060408385031215611cce57611ccd6118f1565b5b5f611cdb8582860161193f565b9250506020611cec8582860161193f565b9150509250929050565b611cff81611918565b82525050565b5f602082019050611d185f830184611cf6565b92915050565b7f4e487b71000000000000000000000000000000000000000000000000000000005f52602160045260245ffd5b60068110611d5c57611d5b611d1e565b5b50565b5f819050611d6c82611d4b565b919050565b5f611d7b82611d5f565b9050919050565b611d8b81611d71565b82525050565b5f602082019050611da45f830184611d82565b92915050565b5f8060408385031215611dc057611dbf6118f1565b5b5f611dcd85828601611aae565b9250506020611dde85828601611aae565b9150509250929050565b5f8115159050919050565b611dfc81611de8565b82525050565b5f602082019050611e155f830184611df3565b92915050565b5f81519050919050565b5f82825260208201905092915050565b5f819050602082019050919050565b5f82825260208201905092915050565b5f611e5e82611b56565b611e688185611e44565b9350611e78818560208601611b70565b611e818161195b565b840191505092915050565b5f611e978383611e54565b905092915050565b5f602082019050919050565b5f611eb582611e1b565b611ebf8185611e25565b935083602082028501611ed185611e35565b805f5b85811015611f0c5784840389528151611eed8582611e8c565b9450611ef883611e9f565b925060208a01995050600181019050611ed4565b50829750879550505050505092915050565b5f6040820190508181035f830152611f368185611b98565b90508181036020830152611f4a8184611eab565b90509392505050565b5f8060408385031215611f6957611f686118f1565b5b5f611f768582860161193f565b925050602083013567ffffffffffffffff811115611f9757611f966118f5565b5b611fa385828601611a62565b9150509250929050565b5f805f60608486031215611fc457611fc36118f1565b5b5f611fd18682870161193f565b9350506020611fe28682870161193f565b925050604084013567ffffffffffffffff811115612003576120026118f5565b5b61200f86828701611a62565b9150509250925092565b5f806040838503121561202f5761202e6118f1565b5b5f61203c8582860161193f565b925050602061204d85828601611aae565b9150509250929050565b7f4e487b71000000000000000000000000000000000000000000000000000000005f52602260045260245ffd5b5f600282049050600182168061209b57607f821691505b6020821081036120ae576120ad612057565b5b50919050565b5f819050815f5260205f209050919050565b5f6020601f8301049050919050565b5f82821b905092915050565b5f600883026121107fffffffffffffffffffffffffffffffffffffffffffffffffffffffffffffffff826120d5565b61211a86836120d5565b95508019841693508086168417925050509392505050565b5f819050919050565b5f61215561215061214b84611a8f565b612132565b611a8f565b9050919050565b5f819050919050565b61216e8361213b565b61218261217a8261215c565b8484546120e1565b825550505050565b5f90565b61219661218a565b6121a1818484612165565b505050565b5b818110156121c4576121b95f8261218e565b6001810190506121a7565b5050565b601f821115612209576121da816120b4565b6121e3846120c6565b810160208510156121f2578190505b6122066121fe856120c6565b8301826121a6565b50505b505050565b5f82821c905092915050565b5f6122295f198460080261220e565b1980831691505092915050565b5f612241838361221a565b9150826002028217905092915050565b61225a82611c46565b67ffffffffffffffff8111156122735761227261196b565b5b61227d8254612084565b6122888282856121c8565b5f60209050601f8311600181146122b9575f84156122a7578287015190505b6122b18582612236565b865550612318565b601f1984166122c7866120b4565b5f5b828110156122ee578489015182556001820191506020850194506020810190506122c9565b8683101561230b5784890151612307601f89168261221a565b8355505b6001600288020188555050505b505050505050565b7f4e487b71000000000000000000000000000000000000000000000000000000005f52601160045260245ffd5b5f61235782611a8f565b91507fffffffffffffffffffffffffffffffffffffffffffffffffffffffffffffffff820361238957612388612320565b5b600182019050919050565b5f6040820190506123a75f830185611cf6565b6123b46020830184611cf6565b9392505050565b6123c481611de8565b81146123ce575f80fd5b50565b5f815190506123df816123bb565b92915050565b5f602082840312156123fa576123f96118f1565b5b5f612407848285016123d1565b91505092915050565b7f4e487b71000000000000000000000000000000000000000000000000000000005f52603260045260245ffd5b5f81905092915050565b5f61245182611b56565b61245b818561243d565b935061246b818560208601611b70565b80840191505092915050565b5f6124828284612447565b91508190509291505056fea26469706673582212206108f4a93755a813069771669d4ef0f21c21ed8920117e72b528a1ce449d6db664736f6c63430008170033",
  "immutableReferences": {},
  "source": "// SPDX-License-Identifier: GPL-3.0\n// // // // // // // // // // // // // // // // // // // // // // // // // // // // // // // // // // // // // // // // // // // // // // // // // // // // // // // // // // // // //\n//\n//      0KKKKKKKKKKKKKKKKKKKKKKKKKKKKKKKK0Okdlc:;,......    ......',;cldxO0KKKKKKKKKKKKKKKKKKKKKKKKKKKKKKKKK\n//      XNNNNNNNNNNNNNNNNNNNNNNNNNNXX0kdc;'...        .......         ...';coxOKXNNNNNNNNNNNNNNNNNNNNNNNNNNN\n//      XNNNNNNNNNNNNNNNNNNNNNNNX0xl;'..              .,;;:,.                ..;cdOXXNNNNNNNNNNNNNNNNNNNNNNN\n//      XNNNNNNNNNNNNNNNNNNXNXOo:'.                   .......                    ..;lkKXNNNNNNNNNNNNNNNNNNNN\n//      XNNNNNNNNNNNNNNNNNXOo;..              .........................             ..,lkKNNNNXNNNNNNNNNNNNN\n//      XNNNNNNNNNNNNXXNKx:..            ..........    'lc'.    ............            .;d0XNNNNNNNNNNNNNNN\n//      XNNNNNNNNNNNNX0d;.          ........         .;dddkl.            .......          .'lOXNNNNNNNNNNNNN\n//      XNNNNNNNNNNX0d,.         ......             .cx:..,lo'               ......         .'lOXNNNNNNNNNNN\n//      XNNNNXNNNNKx,.         .....               .ox;.   .:o,.                 ....         .'o0XNNNNNNNNN\n//      XNXNNNNNXOc.        .....                .,dd'      .;l;.                  .....   .... .;xXNNNNNNNN\n//      XNNNNNNKd'....... .....                 .;xo.        .'c;.                    .....':;..  .l0XNNNNNN\n//      XNNNNX0c. ..'''......                  .ckc.           .:;.                     ....',...  .;OXNNNNN\n//      XNNNXO:.   ........                   .ok:.             .;;.                     ......     .,xXNNXX\n//      XNNXO;.       ...                    'dx;.               .,;.                      ...        'xXNNN\n//      XNXO;.       ...                   .,xx'       .....''''''';:..                     ...        'xXNN\n//      XN0:.       ...                   .;kd.  ..,:ldxkOOOOOOOOOkO0Odl:,..                  ...      .,kXN\n//      XKl.       ...                   .cko'':ok00Okdlc;;,'''...',;:dkxkkd:..                ..       .:0N\n//      Xx'       ...                   .lKOxk00xxxl,.  ....',..      .'..,cddl,.              ...       .oX\n//      O:.      ...                  ..dNN0xl;':c::c:'..':odol:..     .... ..:lc,.             ...       ,k\n//      d.       ..                 .,o00d:.. .od'  .,cclxxl'.'coc.     ....   ..,,'..           ..       .l\n//      :.      ...              ..:xKNO,.   .lO:    .;k0o;.   .'do.     ...      .....          ...       ,\n//      '       ..             ..cddx0x'     .xO,   .:dc',:;'.   ;k:.           ..,'...           ..       .\n//      .       ..            .:lc,ckd.      .dKc. .cl'.  ..,'. .lO:       ..':ll:,..             ...      .\n//      .      ...          .,:,..ckl.       .;0O:,:,.      ...'lOl.   ..;ldkkdo;.                ...      .\n//             ...        ..'.. .lkc.         .;kK0o,.......':dOx;..,cdOKKko;..'c:.               ...\n//      .      ...       ....  .lk:.           .'coxOkkxxxxkkkxdodkKXXOdc'.    .'dd,.             ...\n//      .      ...        ....,dk;.            ..  ..;coxkkOO0KXX0ko:'..         'dOc.            ...      .\n//      .       ..          .,dd;,,;;:::;;;;;::clloxkO0KK00Oxdl;'..               .l0d'.          ...      .\n//      ,.      ...        .;dc.  ...,;:clloodddddoolc:;'....                      .;OO:.         ......   .\n//      c.  .......       .:o;.                                                     .'d0d'.      ....,;'. .:\n//      x'  .';,...      .cl'.                                                        .:OO:.     ....;;.. .o\n//      0l. ..,'....   .'ol...............................'''',,,,,,;;;:::::ccccclllllookNXd.   ... .... .;0\n//      XO,       ...  .coc::cccccccccllllllllllllloooooooooooooooooooooooooooooooolllllllc;.  ...       .dX\n//      XXd.       ...  .........................................                             ...       .lKN\n//      XNKl.       ...            .:cccccc:;:ccccccc:::cccccccccccccccccccccccc'.           ...       .:0NX\n//      XNNKc.       ...          .cXWNXXNKkxokXNWWNNK0NMWWNXNW0OXWNNWWNWWNWWNWWo.          ...       .;OXNN\n//      XNNN0l.       ....        .cXNxokKxokllOkdxKNOxXWkloddOdlOXKkK0ONWOdx0WWo.         ...       .;OXNNN\n//      XNNNNKo.        ...       .cXNOdokxcddd0klo0WKdOXd;lxkKOd0NWOlokKXOllOWWo.       ...        .c0NNNNN\n//      XNNNNNXd'.       ....     .cXWK00XNKO0XXKNXKWN0KNNK00KNNK0XXOdOKKXKNXKNWo.     ....        .lKNNNNNN\n//      XNNNNNNXO:.        ....    'oddddddddddddddddddddddddddddddl:coddddddddo;.   ....        .,xXNNNNNNN\n//      XNNNNNNNNKd'.        .....                                                 ....        ..l0XNNNNNNNN\n//      XNNNNNNNNNXOl..        ......                                           .....         .:kXNNNNNNNNNN\n//      XNNNNNNNNNNNXOc..         ......                                    ......          .:xKNNNNNNNNNNNN\n//      XNNNNNNNNNNNNNXOl'.          ........                          ........          ..ckKNNNNNNXNNNNNNN\n//      XNNNNNNNNNNNNNNNX0d;..       ..'....................................',,.       .,oOXNNNNNNNNNNNNNNNN\n//      XNNNNNNNNNNNNNNNNNNXOo;..    ...;;.     ....................      .;,'..   ..,lkKXNNNNNNNNNNNNNNNNNN\n//      XNNNNNNNNNNNNNNNNNNNNNKOd:'.    ..                                 ...  ..;lkKXNXNNNNNNNNNNNNNNNNNNN\n//      XNNNNNNNNNNNNNNNNNNNNNNNNX0ko:,...                                 ..':lx0XNNNNNXNNNNNNNNNNNNNNNNNNN\n//      XNNNNNNNNNNNNNNNNNNNNNNNNNNNNXKOxoc;,....                  ....';:ldOKXXNNNNNNNNNNNNNNNNNNNNNNNNNNNN\n//      XNNNNNNNNNNNNNNNNNNNNNNNNNNNXXNNNNXK0kdl:;'.....    .....',:ldk0KXNNNNNXNNNNNNNNNNNNNNNNNNNNNNNNNNNN\n//\n// // // // // // // // // // // // // // // // // // // // // // // // // // // // // // // // // // // // // // // // // // // // // // // // // // // // // // // // // // // // //\n//                                                                                                                                                                                  //\n//      @dev            ::              Aron Mauritala Ayuk                                                                                                                                          //\n//      @msg            ::              stereo@iii6.xyz                                                                                                                                   //\n//      @github         ::              @stereoIII6\n//      @twitter        ::              @stereoIII6                                                                                                                                              //\n//                                                                                                                                                                                  //\n// // // // // // // // // // // // // // // // // // // // // // // // // // // // // // // // // // // // // // // // // // // // // // // // // // // // // // // // // // // // //\n//                                                                                                                                                                                  //\n//      @dev            ::              Juan Xavier Valverde                                                                                                                                    //\n//      @msg            ::              juanxavier@iii6.xyz                                                                                                                               //\n//      @twitter        ::              @JuanXavier                                                                                                                                             //\n//      @github         ::              @JuanXavier                                                                                                                                             //\n//                                                                                                                                                                                  //                                                                                                                                                                                 //\n// // // // // // // // // // // // // // // // // // // // // // // // // // // // // // // // // // // // // // // // // // // // // // // // // // // // // // // // // // // // //\n//  *   *   *   *   *   *   *   *   *   *   *   *   *   *   *   *   *   *   *   *   *   *   *   *   *   *   *   *   *   *   *   *   *   *   *   *   *   *   *   *   *   *   *   *   //\n// // // // // // // // // // // // // // // // // // // // // // // // // // // // // // // // // // // // // // // // // // // // // // // // // // // // // // // // // // // // //\n//                                                                                                                                                                                  //\n//      @company        ::              Fractio Holding                                                                                                                                                                       //\n//      @title          ::              s0xiety Groups                                                                                                                            //\n//      @description    ::              Group Interface Contract                                                                                                                           //\n//      @version        ::              0.0.1                                                                                                                                       //\n//      @purpose        ::              Multinet Group Interface                                                                                                           //\n//                                                                                                                                                                                  //\n//                                                                                                                                                                                  //\n//                                                                                                                                                                                  //\n//                                                                                                                                                                                  //\n//                                                                                                                                                                                  //\n// // // // // // // // // // // // // // // // // // // // // // // // // // // // // // // // // // // // // // // // // // // // // // // // // // // // // // // // // // // // //\n//  *   *   *   *   *   *   *   *   *   *   *   *   *   *   *   *   *   *   *   *   *   *   *   *   *   *   *   *   *   *   *   *   *   *   *   *   *   *   *   *   *   *   *   *   //\n// // // // // // // // // // // // // // // // // // // // // // // // // // // // // // // // // // // // // // // // // // // // // // // // // // // // // // // // // // // // //\n\n/////////////////////////////////////////////////////////////////////////////////////////////////////////////////////\n\n/////////////////////////////////////////////////////////////////////////////////////////////////////////////////////\n\npragma solidity ^0.8.7;\n\nimport \"./s0xUsers.sol\";\nimport {s0xFriends, iii6Relations, iii6Math} from \"./s0xFriends.sol\";\nimport \"../iii6Utils/Misc/Errors/iii6Errors.sol\";\n\ncontract s0xGroups is iii6Math, iii6Relations, iii6Errors {\n    s0xUsers private user; // user contract reference\n    s0xFriends private friend; // friend contract reference\n    address public owner; // owner address\n    string public name; // group name\n    string p;\n    uint256 public m; // member count\n    uint256 private c; // content count\n    GroupType public mode; // 0-private (no invite), 1-bothchecked, 2-ulike, 3-likeu, 4-bothcheckedofulike, 5-public, 9-secret, 99-admin\n\n    mapping(uint256 => address) public members; // address by id\n    mapping(address => uint256) public mNum; // id by address\n    mapping(address => uint256) public myContent; // content count by address\n    mapping(address => mapping(uint256 => bytes)) public content; // content by address => myContent counter\n    mapping(uint256 => bytes) public cntnt; // contentt by cid\n    mapping(uint256 => uint256) public r; // replys by cntnt id c\n    mapping(uint256 => mapping(uint256 => bytes)) public replys; // replys by cid => rply id => reply content\n    mapping(address => uint256) public myRplyCount; // reply count  by useraddress\n    mapping(address => mapping(uint256 => bytes)) public myReplys; // reply content by address and myrplycount\n    mapping(address => bool) public invite;\n\n    constructor(\n        address _user,\n        address _friend,\n        bytes memory _name,\n        GroupType _mode,\n        address _o,\n        string memory _p\n    ) {\n        mode = _mode;\n        user = s0xUsers(_user);\n        friend = s0xFriends(_friend);\n        owner = _o;\n        p = _p;\n        name = string(_name);\n        m = 1;\n        _addUser(owner);\n    }\n\n    function _addUser(address _adr) internal returns (address) {\n        members[m] = _adr;\n        mNum[_adr] = m;\n        m++;\n        return _adr;\n    }\n\n    function addUser(\n        address _sender,\n        address _adr,\n        string memory _pin\n    ) external returns (address ad) {\n        /**\n         * @dev FACE TO FACE PRIVATE CHAT\n         * if sender and receiver know another\n         * and ref user is alone new user gets\n         * added to face to face chat\n         */\n        if (mode == GroupType.FaceToFace) {\n            if (m > 2) revert All_Slots_Taken();\n            if (_sender != owner) revert Unauthorized();\n            if (!friend.getMsgAllow(owner, _adr)) revert Not_Friends();\n            ad = _addUser(_adr);\n        }\n        /**\n         * @dev PRIVATE GROUP\n         * if owner and receiver know another\n         * new user gets added\n         */\n        else if (mode == GroupType.Private) {\n            if (\n                _sender != owner ||\n                !friend.getMsgAllow(owner, _adr) ||\n                !friend.getMsgAllow(_adr, owner)\n            ) revert Unauthorized();\n            // add user to group\n            ad = _addUser(_adr);\n        }\n        /**\n         * @dev Password Protected PRIVATE Group\n         */\n        else if (mode == GroupType.Closed) {\n            if (\n                !friend.getMsgAllow(_sender, _adr) ||\n                !friend.getMsgAllow(_adr, _sender)\n            ) revert Unauthorized();\n            if (_stringEqual(_pin, p)) {\n                ad = _addUser(_adr);\n            } else revert Unauthorized();\n        }\n        /**\n         * @dev Friends Invite Friends Public Group\n         */\n        else if (mode == GroupType.Shared || mode == GroupType.Public) {\n            if (\n                friend.getMsgAllow(_sender, _adr) == false ||\n                friend.getMsgAllow(_adr, _sender) == false\n            ) revert Unauthorized();\n            ad = _addUser(_adr);\n        }\n        /**\n         * @dev public group\n         */\n        else if (mode == GroupType.Open) {\n            ad = _addUser(_adr);\n        }\n        /**\n         * @dev open group\n         */\n        else revert Unauthorized();\n    }\n\n    function removeUser(address _sender, address _adr)\n        external\n        returns (address)\n    {\n        if (mode == GroupType.FaceToFace) revert Min_Requirements_Not_Met();\n        if (_sender != owner) revert Unauthorized();\n        members[mNum[_adr]] = address(0);\n        mNum[_adr] = 0;\n        return _adr;\n    }\n\n    function addContent(address _sender, string memory _cnt)\n        external\n        returns (string memory)\n    {\n        content[_sender][myContent[_sender]] = bytes(_cnt);\n        ++myContent[_sender];\n        cntnt[c] = bytes(_cnt);\n        ++c;\n        return _cnt;\n    }\n\n    function addReplyToContent(\n        address _sender,\n        string memory _rply,\n        uint256 _c\n    ) external returns (uint256) {\n        replys[_c][r[_c]] = bytes(_rply);\n        myReplys[_sender][myRplyCount[_sender]] = bytes(_rply);\n        ++myRplyCount[_sender];\n        return ++r[_c];\n    }\n\n    function _showContent(uint256 _contentId)\n        internal\n        view\n        returns (string memory, string[] memory)\n    {\n        string[] memory repliers;\n        for (uint256 i = 0; i < r[_contentId]; i++) {\n            repliers[i] = string(replys[_contentId][r[_contentId]]);\n        }\n        return (string(cntnt[_contentId]), repliers);\n    }\n\n    function showContent(uint256 _contentId)\n        external\n        view\n        returns (string memory, string[] memory)\n    {\n        return _showContent(_contentId);\n    }\n}\n",
  "sourcePath": "/Users/iii6/Documents/GitHub/Gamble360/contracts/s0xCommunity/s0xGroups.sol",
  "compiler": {
    "name": "solc",
    "version": "0.8.23+commit.f704f362.Emscripten.clang"
  },
  "schemaVersion": "3.4.16",
  "updatedAt": "2023-11-09T15:24:52.516Z",
  "devdoc": {
    "kind": "dev",
    "methods": {},
    "version": 1
  },
  "userdoc": {
    "kind": "user",
    "methods": {},
    "version": 1
  }
}