{
  "contractName": "standards",
  "abi": [
    {
      "inputs": [],
      "stateMutability": "nonpayable",
      "type": "constructor"
    },
    {
      "inputs": [
        {
          "internalType": "address",
          "name": "adr",
          "type": "address"
        }
      ],
      "name": "NotAdmin",
      "type": "error"
    },
    {
      "inputs": [
        {
          "internalType": "uint256",
          "name": "",
          "type": "uint256"
        }
      ],
      "name": "tokens",
      "outputs": [
        {
          "internalType": "contract ERC20",
          "name": "",
          "type": "address"
        }
      ],
      "stateMutability": "view",
      "type": "function"
    },
    {
      "inputs": [
        {
          "internalType": "address",
          "name": "_erc20",
          "type": "address"
        }
      ],
      "name": "addToken",
      "outputs": [],
      "stateMutability": "nonpayable",
      "type": "function"
    }
  ],
  "bytecode": "0x608060405234801561000f575f80fd5b50335f806101000a81548173ffffffffffffffffffffffffffffffffffffffff021916908373ffffffffffffffffffffffffffffffffffffffff16021790555061041e8061005c5f395ff3fe608060405234801561000f575f80fd5b5060043610610034575f3560e01c80634f64b2be14610038578063d48bfca714610068575b5f80fd5b610052600480360381019061004d91906101fb565b610084565b60405161005f91906102a0565b60405180910390f35b610082600480360381019061007d91906102f4565b6100bf565b005b60018181548110610093575f80fd5b905f5260205f20015f915054906101000a900473ffffffffffffffffffffffffffffffffffffffff1681565b3373ffffffffffffffffffffffffffffffffffffffff165f8054906101000a900473ffffffffffffffffffffffffffffffffffffffff1673ffffffffffffffffffffffffffffffffffffffff161461014e57336040517f17a84242000000000000000000000000000000000000000000000000000000008152600401610145919061032e565b60405180910390fd5b8060016002548154811061016557610164610347565b5b905f5260205f20015f6101000a81548173ffffffffffffffffffffffffffffffffffffffff021916908373ffffffffffffffffffffffffffffffffffffffff16021790555060025f8154809291906101bc906103a1565b919050555050565b5f80fd5b5f819050919050565b6101da816101c8565b81146101e4575f80fd5b50565b5f813590506101f5816101d1565b92915050565b5f602082840312156102105761020f6101c4565b5b5f61021d848285016101e7565b91505092915050565b5f73ffffffffffffffffffffffffffffffffffffffff82169050919050565b5f819050919050565b5f61026861026361025e84610226565b610245565b610226565b9050919050565b5f6102798261024e565b9050919050565b5f61028a8261026f565b9050919050565b61029a81610280565b82525050565b5f6020820190506102b35f830184610291565b92915050565b5f6102c382610226565b9050919050565b6102d3816102b9565b81146102dd575f80fd5b50565b5f813590506102ee816102ca565b92915050565b5f60208284031215610309576103086101c4565b5b5f610316848285016102e0565b91505092915050565b610328816102b9565b82525050565b5f6020820190506103415f83018461031f565b92915050565b7f4e487b71000000000000000000000000000000000000000000000000000000005f52603260045260245ffd5b7f4e487b71000000000000000000000000000000000000000000000000000000005f52601160045260245ffd5b5f6103ab826101c8565b91507fffffffffffffffffffffffffffffffffffffffffffffffffffffffffffffffff82036103dd576103dc610374565b5b60018201905091905056fea26469706673582212205c2f178d5963b55dbfd7cac94d8fba4c6fd6e76850160a5601b4de3ea0de9e5164736f6c63430008170033",
  "immutableReferences": {},
  "source": "// SPDX-License-Identifier: MIT\n\npragma solidity >=0.8.2 <0.9.0;\n\nimport \"@openzeppelin/contracts/token/ERC20/ERC20.sol\";\n\nerror LowFunds(address adr, uint256 balance);\nerror NotAdmin(address adr);\nerror GameOver();\nerror Yourself(address adr);\nerror Check(uint256 num);\n\ncontract standards {\n    address private admin;\n    ERC20[] public tokens;\n    uint toks;\n    constructor() {\n        admin = msg.sender;\n    }\n    \n    function addToken(address _erc20) external {\n        if(admin != msg.sender) revert NotAdmin(msg.sender);\n        tokens[toks] = ERC20(_erc20);\n        toks++;\n    }\n}\n\ncontract ROCK_PAPER_SCISSORS is standards {\n    event Log(uint256 cs, address from, uint256 time);\n\n    uint256 fee;\n    uint256 min;\n    uint256 t;\n    uint256 public g;\n    mapping(uint256 => bytes) private locker;\n    uint256 ln;\n\n    struct Game {\n        uint256 id;\n        uint256 value;\n        address payable owner;\n        uint256 t0;\n        uint256 c0; // 1 lo // 2 hi\n        address payable opponent;\n        uint256 t1;\n        uint256 c1; // 1 lo // 2 hi\n        uint256 state; // 0 invalid // 1 created // 2 played // 3 finished\n        uint256 result;\n    }\n\n    mapping(uint256 => Game) public games;\n    mapping(address => uint256) public myGames;\n    mapping(address => mapping(uint256 => Game)) public myGame;\n    mapping(uint256 => bool) public played;\n\n    constructor() {\n        t = 1 + (block.timestamp % 9);\n        fee = 25;\n        min = 1 * 10**15;\n        g = 1;\n    }\n\n    function setGame(uint256 _choice) external payable {\n        if (msg.value <= min) revert LowFunds(msg.sender, min);\n        (bool found, uint256 id) = _scanGames(msg.value, _choice);\n        if (found) {\n            // aggregated\n            Game memory game = games[id];\n            _play(game, _choice);\n        } else {\n            uint256 timer = block.timestamp;\n            locker[ln] = bytes(abi.encodePacked(_choice + timer));\n            games[g] = Game(\n                g,\n                msg.value,\n                payable(msg.sender),\n                timer,\n                ln,\n                payable(address(0)),\n                myGames[msg.sender],\n                0,\n                1,\n                0\n            );\n            myGame[msg.sender][myGames[msg.sender]] = games[g];\n            myGames[msg.sender]++;\n            played[g] = false;\n            g++;\n            ln++;\n        }\n    }\n\n    function _scanGames(uint256 _value, uint256 _choice)\n        internal\n        view\n        returns (bool find, uint256 id)\n    {\n        for (uint256 i; i < g; i++) {\n            if (\n                games[i].value == _value &&\n                games[i].owner != msg.sender &&\n                games[i].c0 != _choice &&\n                games[i].state == 1\n            ) {\n                find = true;\n                id = i;\n                i += g;\n            } else {\n                find = false;\n                id = 0;\n            }\n        }\n    }\n\n    function joinGame(uint256 _game, uint256 _choice) external payable {\n        Game memory game = games[_game];\n        if (msg.value < game.value) revert LowFunds(msg.sender, game.value);\n        if (game.state != 1) revert GameOver();\n        if (msg.sender == game.owner) revert Yourself(msg.sender);\n        _play(game, _choice);\n    }\n\n    function _play(Game memory _game, uint256 _choice) internal {\n        if (_game.state != 1 || _game.id >= g) revert GameOver();\n        _game.opponent = payable(msg.sender);\n        _game.c1 = _choice;\n        uint hold = _game.t1;\n        _game.t1 = block.timestamp;\n        _game.state = 2;\n        games[_game.id] = _game;\n        myGame[_game.owner][hold] = _game;\n        myGame[msg.sender][myGames[msg.sender]] = _game;\n        myGames[msg.sender]++;\n        uint256 win = ((_game.value * 2) / 1000) * (1000 - fee);\n        _game.state = 3;\n        uint256 choice0;\n        if (\n            keccak256(abi.encodePacked(locker[_game.c0])) ==\n            keccak256(\n                abi.encodePacked(bytes(abi.encodePacked(uint256(1) + _game.t0)))\n            )\n        ) choice0 = 1;\n        if (\n            keccak256(abi.encodePacked(locker[_game.c0])) ==\n            keccak256(\n                abi.encodePacked(bytes(abi.encodePacked(uint256(2) + _game.t0)))\n            )\n        ) choice0 = 2;\n        if (\n            keccak256(abi.encodePacked(locker[_game.c0])) ==\n            keccak256(\n                abi.encodePacked(bytes(abi.encodePacked(uint256(3) + _game.t0)))\n            )\n        ) choice0 = 3;\n        _game.c0 = choice0;\n        games[_game.id] = _game;\n        played[_game.id] = true;\n        if (choice0 == _game.c1) _game.result = 0;\n        if (\n            (choice0 == 1 && _game.c1 == 2) ||\n            (choice0 == 2 && _game.c1 == 3) ||\n            (choice0 == 3 && _game.c1 == 1)\n        ) _game.result = 2;\n        if (\n            (_game.c1 == 1 && choice0 == 2) ||\n            (_game.c1 == 2 && choice0 == 3) ||\n            (_game.c1 == 3 && choice0 == 1)\n        ) _game.result = 1;\n        _game.state = 3;\n        games[_game.id] = _game;\n        if (_game.result == 0) {\n            payable(_game.owner).transfer(win / 2);\n            payable(_game.opponent).transfer(win / 2);\n        }\n        if (_game.result == 1) payable(_game.owner).transfer(win);\n        if (_game.result == 2) payable(_game.opponent).transfer(win);\n    }\n}\n",
  "sourcePath": "/Users/iii6/Documents/GitHub/Gamble360/contracts/gamble360/ROCK_PAPER_SCISSORS.sol",
  "compiler": {
    "name": "solc",
    "version": "0.8.23+commit.f704f362.Emscripten.clang"
  },
  "schemaVersion": "3.4.16",
  "updatedAt": "2023-11-09T15:24:52.315Z",
  "devdoc": {
    "kind": "dev",
    "methods": {},
    "version": 1
  },
  "userdoc": {
    "kind": "user",
    "methods": {},
    "version": 1
  }
}